{
	"data": {
		"bytecode": {
			"linkReferences": {},
			"object": "60e0604052602e608081815290610a2860a03960039061001f9082610122565b50600060055534801561003157600080fd5b50604051610a56380380610a56833981016040819052610050916101e1565b60048054336001600160a01b031991821617909155600080549091166001600160a01b0392909216919091179055610211565b634e487b7160e01b600052604160045260246000fd5b600181811c908216806100ad57607f821691505b6020821081036100cd57634e487b7160e01b600052602260045260246000fd5b50919050565b601f82111561011d57600081815260208120601f850160051c810160208610156100fa5750805b601f850160051c820191505b8181101561011957828155600101610106565b5050505b505050565b81516001600160401b0381111561013b5761013b610083565b61014f816101498454610099565b846100d3565b602080601f831160018114610184576000841561016c5750858301515b600019600386901b1c1916600185901b178555610119565b600085815260208120601f198616915b828110156101b357888601518255948401946001909101908401610194565b50858210156101d15787850151600019600388901b60f8161c191681555b5050505050600190811b01905550565b6000602082840312156101f357600080fd5b81516001600160a01b038116811461020a57600080fd5b9392505050565b610808806102206000396000f3fe608060405234801561001057600080fd5b506004361061009e5760003560e01c8063affed0e011610066578063affed0e01461012c578063c884ef8314610143578063e70761ef1461017a578063eb1f9f6e14610183578063fd9be5221461019657600080fd5b8063130dcda1146100a35780633158952e146100b857806399ae559d146100c0578063a593d48614610106578063a7a1ed7214610119575b600080fd5b6100b66100b1366004610458565b6101a9565b005b6100b66101e6565b6100e96100ce366004610482565b6006602052600090815260409020546001600160a01b031681565b6040516001600160a01b0390911681526020015b60405180910390f35b6001546100e9906001600160a01b031681565b6000546100e9906001600160a01b031681565b61013560025481565b6040519081526020016100fd565b61016761015136600461049b565b60076020526000908152604090205461ffff1681565b60405161ffff90911681526020016100fd565b61013560055481565b6100b66101913660046104d3565b610388565b6100b66101a4366004610458565b6103af565b6004546001600160a01b031633146101c057600080fd5b600180546001600160a01b0319166001600160a01b039390931692909217909155600555565b33600090815260076020526040902054600b61ffff9091161061023f5760405162461bcd60e51b815260206004820152600d60248201526c4d617820313020436c61696d7360981b604482015260640160405180910390fd5b6000546002546040516340c10f1960e01b815233600482015260248101919091526001600160a01b03909116906340c10f1990604401600060405180830381600087803b15801561028f57600080fd5b505af11580156102a3573d6000803e3d6000fd5b5050600054600254604051633c17845760e11b81526001600160a01b03909216935063782f08ae92506102db916003906004016105be565b600060405180830381600087803b1580156102f557600080fd5b505af1158015610309573d6000803e3d6000fd5b50503360009081526007602052604090205461032d925061ffff1690506001610667565b336000818152600760209081526040808320805461ffff191661ffff9690961695909517909455600280548352600690915292812080546001600160a01b0319169092179091558154919061038183610689565b9190505550565b6004546001600160a01b0316331461039f57600080fd5b60036103ab82826106f0565b5050565b6004546001600160a01b031633146103c657600080fd5b60405163a9059cbb60e01b8152336004820152602481018290526001600160a01b0383169063a9059cbb906044016020604051808303816000875af1158015610413573d6000803e3d6000fd5b505050506040513d601f19601f8201168201806040525081019061043791906107b0565b505050565b80356001600160a01b038116811461045357600080fd5b919050565b6000806040838503121561046b57600080fd5b6104748361043c565b946020939093013593505050565b60006020828403121561049457600080fd5b5035919050565b6000602082840312156104ad57600080fd5b6104b68261043c565b9392505050565b634e487b7160e01b600052604160045260246000fd5b6000602082840312156104e557600080fd5b813567ffffffffffffffff808211156104fd57600080fd5b818401915084601f83011261051157600080fd5b813581811115610523576105236104bd565b604051601f8201601f19908116603f0116810190838211818310171561054b5761054b6104bd565b8160405282815287602084870101111561056457600080fd5b826020860160208301376000928101602001929092525095945050505050565b600181811c9082168061059857607f821691505b6020821081036105b857634e487b7160e01b600052602260045260246000fd5b50919050565b82815260006020604081840152600084546105d881610584565b80604087015260606001808416600081146105fa576001811461061457610642565b60ff1985168984015283151560051b890183019550610642565b896000528660002060005b8581101561063a5781548b820186015290830190880161061f565b8a0184019650505b50939998505050505050505050565b634e487b7160e01b600052601160045260246000fd5b61ffff81811683821601908082111561068257610682610651565b5092915050565b60006001820161069b5761069b610651565b5060010190565b601f82111561043757600081815260208120601f850160051c810160208610156106c95750805b601f850160051c820191505b818110156106e8578281556001016106d5565b505050505050565b815167ffffffffffffffff81111561070a5761070a6104bd565b61071e816107188454610584565b846106a2565b602080601f831160018114610753576000841561073b5750858301515b600019600386901b1c1916600185901b1785556106e8565b600085815260208120601f198616915b8281101561078257888601518255948401946001909101908401610763565b50858210156107a05787850151600019600388901b60f8161c191681555b5050505050600190811b01905550565b6000602082840312156107c257600080fd5b815180151581146104b657600080fdfea2646970667358221220e6a0d4e7aa6e889cee200248b047a459658dbf4ded413276e3115efb56be43e564736f6c63430008110033516d50464b6653336e59376347696b634632674b474a47314b4d695877664a6e374a686d6f584147536779425341",
			"opcodes": "PUSH1 0xE0 PUSH1 0x40 MSTORE PUSH1 0x2E PUSH1 0x80 DUP2 DUP2 MSTORE SWAP1 PUSH2 0xA28 PUSH1 0xA0 CODECOPY PUSH1 0x3 SWAP1 PUSH2 0x1F SWAP1 DUP3 PUSH2 0x122 JUMP JUMPDEST POP PUSH1 0x0 PUSH1 0x5 SSTORE CALLVALUE DUP1 ISZERO PUSH2 0x31 JUMPI PUSH1 0x0 DUP1 REVERT JUMPDEST POP PUSH1 0x40 MLOAD PUSH2 0xA56 CODESIZE SUB DUP1 PUSH2 0xA56 DUP4 CODECOPY DUP2 ADD PUSH1 0x40 DUP2 SWAP1 MSTORE PUSH2 0x50 SWAP2 PUSH2 0x1E1 JUMP JUMPDEST PUSH1 0x4 DUP1 SLOAD CALLER PUSH1 0x1 PUSH1 0x1 PUSH1 0xA0 SHL SUB NOT SWAP2 DUP3 AND OR SWAP1 SWAP2 SSTORE PUSH1 0x0 DUP1 SLOAD SWAP1 SWAP2 AND PUSH1 0x1 PUSH1 0x1 PUSH1 0xA0 SHL SUB SWAP3 SWAP1 SWAP3 AND SWAP2 SWAP1 SWAP2 OR SWAP1 SSTORE PUSH2 0x211 JUMP JUMPDEST PUSH4 0x4E487B71 PUSH1 0xE0 SHL PUSH1 0x0 MSTORE PUSH1 0x41 PUSH1 0x4 MSTORE PUSH1 0x24 PUSH1 0x0 REVERT JUMPDEST PUSH1 0x1 DUP2 DUP2 SHR SWAP1 DUP3 AND DUP1 PUSH2 0xAD JUMPI PUSH1 0x7F DUP3 AND SWAP2 POP JUMPDEST PUSH1 0x20 DUP3 LT DUP2 SUB PUSH2 0xCD JUMPI PUSH4 0x4E487B71 PUSH1 0xE0 SHL PUSH1 0x0 MSTORE PUSH1 0x22 PUSH1 0x4 MSTORE PUSH1 0x24 PUSH1 0x0 REVERT JUMPDEST POP SWAP2 SWAP1 POP JUMP JUMPDEST PUSH1 0x1F DUP3 GT ISZERO PUSH2 0x11D JUMPI PUSH1 0x0 DUP2 DUP2 MSTORE PUSH1 0x20 DUP2 KECCAK256 PUSH1 0x1F DUP6 ADD PUSH1 0x5 SHR DUP2 ADD PUSH1 0x20 DUP7 LT ISZERO PUSH2 0xFA JUMPI POP DUP1 JUMPDEST PUSH1 0x1F DUP6 ADD PUSH1 0x5 SHR DUP3 ADD SWAP2 POP JUMPDEST DUP2 DUP2 LT ISZERO PUSH2 0x119 JUMPI DUP3 DUP2 SSTORE PUSH1 0x1 ADD PUSH2 0x106 JUMP JUMPDEST POP POP POP JUMPDEST POP POP POP JUMP JUMPDEST DUP2 MLOAD PUSH1 0x1 PUSH1 0x1 PUSH1 0x40 SHL SUB DUP2 GT ISZERO PUSH2 0x13B JUMPI PUSH2 0x13B PUSH2 0x83 JUMP JUMPDEST PUSH2 0x14F DUP2 PUSH2 0x149 DUP5 SLOAD PUSH2 0x99 JUMP JUMPDEST DUP5 PUSH2 0xD3 JUMP JUMPDEST PUSH1 0x20 DUP1 PUSH1 0x1F DUP4 GT PUSH1 0x1 DUP2 EQ PUSH2 0x184 JUMPI PUSH1 0x0 DUP5 ISZERO PUSH2 0x16C JUMPI POP DUP6 DUP4 ADD MLOAD JUMPDEST PUSH1 0x0 NOT PUSH1 0x3 DUP7 SWAP1 SHL SHR NOT AND PUSH1 0x1 DUP6 SWAP1 SHL OR DUP6 SSTORE PUSH2 0x119 JUMP JUMPDEST PUSH1 0x0 DUP6 DUP2 MSTORE PUSH1 0x20 DUP2 KECCAK256 PUSH1 0x1F NOT DUP7 AND SWAP2 JUMPDEST DUP3 DUP2 LT ISZERO PUSH2 0x1B3 JUMPI DUP9 DUP7 ADD MLOAD DUP3 SSTORE SWAP5 DUP5 ADD SWAP5 PUSH1 0x1 SWAP1 SWAP2 ADD SWAP1 DUP5 ADD PUSH2 0x194 JUMP JUMPDEST POP DUP6 DUP3 LT ISZERO PUSH2 0x1D1 JUMPI DUP8 DUP6 ADD MLOAD PUSH1 0x0 NOT PUSH1 0x3 DUP9 SWAP1 SHL PUSH1 0xF8 AND SHR NOT AND DUP2 SSTORE JUMPDEST POP POP POP POP POP PUSH1 0x1 SWAP1 DUP2 SHL ADD SWAP1 SSTORE POP JUMP JUMPDEST PUSH1 0x0 PUSH1 0x20 DUP3 DUP5 SUB SLT ISZERO PUSH2 0x1F3 JUMPI PUSH1 0x0 DUP1 REVERT JUMPDEST DUP2 MLOAD PUSH1 0x1 PUSH1 0x1 PUSH1 0xA0 SHL SUB DUP2 AND DUP2 EQ PUSH2 0x20A JUMPI PUSH1 0x0 DUP1 REVERT JUMPDEST SWAP4 SWAP3 POP POP POP JUMP JUMPDEST PUSH2 0x808 DUP1 PUSH2 0x220 PUSH1 0x0 CODECOPY PUSH1 0x0 RETURN INVALID PUSH1 0x80 PUSH1 0x40 MSTORE CALLVALUE DUP1 ISZERO PUSH2 0x10 JUMPI PUSH1 0x0 DUP1 REVERT JUMPDEST POP PUSH1 0x4 CALLDATASIZE LT PUSH2 0x9E JUMPI PUSH1 0x0 CALLDATALOAD PUSH1 0xE0 SHR DUP1 PUSH4 0xAFFED0E0 GT PUSH2 0x66 JUMPI DUP1 PUSH4 0xAFFED0E0 EQ PUSH2 0x12C JUMPI DUP1 PUSH4 0xC884EF83 EQ PUSH2 0x143 JUMPI DUP1 PUSH4 0xE70761EF EQ PUSH2 0x17A JUMPI DUP1 PUSH4 0xEB1F9F6E EQ PUSH2 0x183 JUMPI DUP1 PUSH4 0xFD9BE522 EQ PUSH2 0x196 JUMPI PUSH1 0x0 DUP1 REVERT JUMPDEST DUP1 PUSH4 0x130DCDA1 EQ PUSH2 0xA3 JUMPI DUP1 PUSH4 0x3158952E EQ PUSH2 0xB8 JUMPI DUP1 PUSH4 0x99AE559D EQ PUSH2 0xC0 JUMPI DUP1 PUSH4 0xA593D486 EQ PUSH2 0x106 JUMPI DUP1 PUSH4 0xA7A1ED72 EQ PUSH2 0x119 JUMPI JUMPDEST PUSH1 0x0 DUP1 REVERT JUMPDEST PUSH2 0xB6 PUSH2 0xB1 CALLDATASIZE PUSH1 0x4 PUSH2 0x458 JUMP JUMPDEST PUSH2 0x1A9 JUMP JUMPDEST STOP JUMPDEST PUSH2 0xB6 PUSH2 0x1E6 JUMP JUMPDEST PUSH2 0xE9 PUSH2 0xCE CALLDATASIZE PUSH1 0x4 PUSH2 0x482 JUMP JUMPDEST PUSH1 0x6 PUSH1 0x20 MSTORE PUSH1 0x0 SWAP1 DUP2 MSTORE PUSH1 0x40 SWAP1 KECCAK256 SLOAD PUSH1 0x1 PUSH1 0x1 PUSH1 0xA0 SHL SUB AND DUP2 JUMP JUMPDEST PUSH1 0x40 MLOAD PUSH1 0x1 PUSH1 0x1 PUSH1 0xA0 SHL SUB SWAP1 SWAP2 AND DUP2 MSTORE PUSH1 0x20 ADD JUMPDEST PUSH1 0x40 MLOAD DUP1 SWAP2 SUB SWAP1 RETURN JUMPDEST PUSH1 0x1 SLOAD PUSH2 0xE9 SWAP1 PUSH1 0x1 PUSH1 0x1 PUSH1 0xA0 SHL SUB AND DUP2 JUMP JUMPDEST PUSH1 0x0 SLOAD PUSH2 0xE9 SWAP1 PUSH1 0x1 PUSH1 0x1 PUSH1 0xA0 SHL SUB AND DUP2 JUMP JUMPDEST PUSH2 0x135 PUSH1 0x2 SLOAD DUP2 JUMP JUMPDEST PUSH1 0x40 MLOAD SWAP1 DUP2 MSTORE PUSH1 0x20 ADD PUSH2 0xFD JUMP JUMPDEST PUSH2 0x167 PUSH2 0x151 CALLDATASIZE PUSH1 0x4 PUSH2 0x49B JUMP JUMPDEST PUSH1 0x7 PUSH1 0x20 MSTORE PUSH1 0x0 SWAP1 DUP2 MSTORE PUSH1 0x40 SWAP1 KECCAK256 SLOAD PUSH2 0xFFFF AND DUP2 JUMP JUMPDEST PUSH1 0x40 MLOAD PUSH2 0xFFFF SWAP1 SWAP2 AND DUP2 MSTORE PUSH1 0x20 ADD PUSH2 0xFD JUMP JUMPDEST PUSH2 0x135 PUSH1 0x5 SLOAD DUP2 JUMP JUMPDEST PUSH2 0xB6 PUSH2 0x191 CALLDATASIZE PUSH1 0x4 PUSH2 0x4D3 JUMP JUMPDEST PUSH2 0x388 JUMP JUMPDEST PUSH2 0xB6 PUSH2 0x1A4 CALLDATASIZE PUSH1 0x4 PUSH2 0x458 JUMP JUMPDEST PUSH2 0x3AF JUMP JUMPDEST PUSH1 0x4 SLOAD PUSH1 0x1 PUSH1 0x1 PUSH1 0xA0 SHL SUB AND CALLER EQ PUSH2 0x1C0 JUMPI PUSH1 0x0 DUP1 REVERT JUMPDEST PUSH1 0x1 DUP1 SLOAD PUSH1 0x1 PUSH1 0x1 PUSH1 0xA0 SHL SUB NOT AND PUSH1 0x1 PUSH1 0x1 PUSH1 0xA0 SHL SUB SWAP4 SWAP1 SWAP4 AND SWAP3 SWAP1 SWAP3 OR SWAP1 SWAP2 SSTORE PUSH1 0x5 SSTORE JUMP JUMPDEST CALLER PUSH1 0x0 SWAP1 DUP2 MSTORE PUSH1 0x7 PUSH1 0x20 MSTORE PUSH1 0x40 SWAP1 KECCAK256 SLOAD PUSH1 0xB PUSH2 0xFFFF SWAP1 SWAP2 AND LT PUSH2 0x23F JUMPI PUSH1 0x40 MLOAD PUSH3 0x461BCD PUSH1 0xE5 SHL DUP2 MSTORE PUSH1 0x20 PUSH1 0x4 DUP3 ADD MSTORE PUSH1 0xD PUSH1 0x24 DUP3 ADD MSTORE PUSH13 0x4D617820313020436C61696D73 PUSH1 0x98 SHL PUSH1 0x44 DUP3 ADD MSTORE PUSH1 0x64 ADD PUSH1 0x40 MLOAD DUP1 SWAP2 SUB SWAP1 REVERT JUMPDEST PUSH1 0x0 SLOAD PUSH1 0x2 SLOAD PUSH1 0x40 MLOAD PUSH4 0x40C10F19 PUSH1 0xE0 SHL DUP2 MSTORE CALLER PUSH1 0x4 DUP3 ADD MSTORE PUSH1 0x24 DUP2 ADD SWAP2 SWAP1 SWAP2 MSTORE PUSH1 0x1 PUSH1 0x1 PUSH1 0xA0 SHL SUB SWAP1 SWAP2 AND SWAP1 PUSH4 0x40C10F19 SWAP1 PUSH1 0x44 ADD PUSH1 0x0 PUSH1 0x40 MLOAD DUP1 DUP4 SUB DUP2 PUSH1 0x0 DUP8 DUP1 EXTCODESIZE ISZERO DUP1 ISZERO PUSH2 0x28F JUMPI PUSH1 0x0 DUP1 REVERT JUMPDEST POP GAS CALL ISZERO DUP1 ISZERO PUSH2 0x2A3 JUMPI RETURNDATASIZE PUSH1 0x0 DUP1 RETURNDATACOPY RETURNDATASIZE PUSH1 0x0 REVERT JUMPDEST POP POP PUSH1 0x0 SLOAD PUSH1 0x2 SLOAD PUSH1 0x40 MLOAD PUSH4 0x3C178457 PUSH1 0xE1 SHL DUP2 MSTORE PUSH1 0x1 PUSH1 0x1 PUSH1 0xA0 SHL SUB SWAP1 SWAP3 AND SWAP4 POP PUSH4 0x782F08AE SWAP3 POP PUSH2 0x2DB SWAP2 PUSH1 0x3 SWAP1 PUSH1 0x4 ADD PUSH2 0x5BE JUMP JUMPDEST PUSH1 0x0 PUSH1 0x40 MLOAD DUP1 DUP4 SUB DUP2 PUSH1 0x0 DUP8 DUP1 EXTCODESIZE ISZERO DUP1 ISZERO PUSH2 0x2F5 JUMPI PUSH1 0x0 DUP1 REVERT JUMPDEST POP GAS CALL ISZERO DUP1 ISZERO PUSH2 0x309 JUMPI RETURNDATASIZE PUSH1 0x0 DUP1 RETURNDATACOPY RETURNDATASIZE PUSH1 0x0 REVERT JUMPDEST POP POP CALLER PUSH1 0x0 SWAP1 DUP2 MSTORE PUSH1 0x7 PUSH1 0x20 MSTORE PUSH1 0x40 SWAP1 KECCAK256 SLOAD PUSH2 0x32D SWAP3 POP PUSH2 0xFFFF AND SWAP1 POP PUSH1 0x1 PUSH2 0x667 JUMP JUMPDEST CALLER PUSH1 0x0 DUP2 DUP2 MSTORE PUSH1 0x7 PUSH1 0x20 SWAP1 DUP2 MSTORE PUSH1 0x40 DUP1 DUP4 KECCAK256 DUP1 SLOAD PUSH2 0xFFFF NOT AND PUSH2 0xFFFF SWAP7 SWAP1 SWAP7 AND SWAP6 SWAP1 SWAP6 OR SWAP1 SWAP5 SSTORE PUSH1 0x2 DUP1 SLOAD DUP4 MSTORE PUSH1 0x6 SWAP1 SWAP2 MSTORE SWAP3 DUP2 KECCAK256 DUP1 SLOAD PUSH1 0x1 PUSH1 0x1 PUSH1 0xA0 SHL SUB NOT AND SWAP1 SWAP3 OR SWAP1 SWAP2 SSTORE DUP2 SLOAD SWAP2 SWAP1 PUSH2 0x381 DUP4 PUSH2 0x689 JUMP JUMPDEST SWAP2 SWAP1 POP SSTORE POP JUMP JUMPDEST PUSH1 0x4 SLOAD PUSH1 0x1 PUSH1 0x1 PUSH1 0xA0 SHL SUB AND CALLER EQ PUSH2 0x39F JUMPI PUSH1 0x0 DUP1 REVERT JUMPDEST PUSH1 0x3 PUSH2 0x3AB DUP3 DUP3 PUSH2 0x6F0 JUMP JUMPDEST POP POP JUMP JUMPDEST PUSH1 0x4 SLOAD PUSH1 0x1 PUSH1 0x1 PUSH1 0xA0 SHL SUB AND CALLER EQ PUSH2 0x3C6 JUMPI PUSH1 0x0 DUP1 REVERT JUMPDEST PUSH1 0x40 MLOAD PUSH4 0xA9059CBB PUSH1 0xE0 SHL DUP2 MSTORE CALLER PUSH1 0x4 DUP3 ADD MSTORE PUSH1 0x24 DUP2 ADD DUP3 SWAP1 MSTORE PUSH1 0x1 PUSH1 0x1 PUSH1 0xA0 SHL SUB DUP4 AND SWAP1 PUSH4 0xA9059CBB SWAP1 PUSH1 0x44 ADD PUSH1 0x20 PUSH1 0x40 MLOAD DUP1 DUP4 SUB DUP2 PUSH1 0x0 DUP8 GAS CALL ISZERO DUP1 ISZERO PUSH2 0x413 JUMPI RETURNDATASIZE PUSH1 0x0 DUP1 RETURNDATACOPY RETURNDATASIZE PUSH1 0x0 REVERT JUMPDEST POP POP POP POP PUSH1 0x40 MLOAD RETURNDATASIZE PUSH1 0x1F NOT PUSH1 0x1F DUP3 ADD AND DUP3 ADD DUP1 PUSH1 0x40 MSTORE POP DUP2 ADD SWAP1 PUSH2 0x437 SWAP2 SWAP1 PUSH2 0x7B0 JUMP JUMPDEST POP POP POP JUMP JUMPDEST DUP1 CALLDATALOAD PUSH1 0x1 PUSH1 0x1 PUSH1 0xA0 SHL SUB DUP2 AND DUP2 EQ PUSH2 0x453 JUMPI PUSH1 0x0 DUP1 REVERT JUMPDEST SWAP2 SWAP1 POP JUMP JUMPDEST PUSH1 0x0 DUP1 PUSH1 0x40 DUP4 DUP6 SUB SLT ISZERO PUSH2 0x46B JUMPI PUSH1 0x0 DUP1 REVERT JUMPDEST PUSH2 0x474 DUP4 PUSH2 0x43C JUMP JUMPDEST SWAP5 PUSH1 0x20 SWAP4 SWAP1 SWAP4 ADD CALLDATALOAD SWAP4 POP POP POP JUMP JUMPDEST PUSH1 0x0 PUSH1 0x20 DUP3 DUP5 SUB SLT ISZERO PUSH2 0x494 JUMPI PUSH1 0x0 DUP1 REVERT JUMPDEST POP CALLDATALOAD SWAP2 SWAP1 POP JUMP JUMPDEST PUSH1 0x0 PUSH1 0x20 DUP3 DUP5 SUB SLT ISZERO PUSH2 0x4AD JUMPI PUSH1 0x0 DUP1 REVERT JUMPDEST PUSH2 0x4B6 DUP3 PUSH2 0x43C JUMP JUMPDEST SWAP4 SWAP3 POP POP POP JUMP JUMPDEST PUSH4 0x4E487B71 PUSH1 0xE0 SHL PUSH1 0x0 MSTORE PUSH1 0x41 PUSH1 0x4 MSTORE PUSH1 0x24 PUSH1 0x0 REVERT JUMPDEST PUSH1 0x0 PUSH1 0x20 DUP3 DUP5 SUB SLT ISZERO PUSH2 0x4E5 JUMPI PUSH1 0x0 DUP1 REVERT JUMPDEST DUP2 CALLDATALOAD PUSH8 0xFFFFFFFFFFFFFFFF DUP1 DUP3 GT ISZERO PUSH2 0x4FD JUMPI PUSH1 0x0 DUP1 REVERT JUMPDEST DUP2 DUP5 ADD SWAP2 POP DUP5 PUSH1 0x1F DUP4 ADD SLT PUSH2 0x511 JUMPI PUSH1 0x0 DUP1 REVERT JUMPDEST DUP2 CALLDATALOAD DUP2 DUP2 GT ISZERO PUSH2 0x523 JUMPI PUSH2 0x523 PUSH2 0x4BD JUMP JUMPDEST PUSH1 0x40 MLOAD PUSH1 0x1F DUP3 ADD PUSH1 0x1F NOT SWAP1 DUP2 AND PUSH1 0x3F ADD AND DUP2 ADD SWAP1 DUP4 DUP3 GT DUP2 DUP4 LT OR ISZERO PUSH2 0x54B JUMPI PUSH2 0x54B PUSH2 0x4BD JUMP JUMPDEST DUP2 PUSH1 0x40 MSTORE DUP3 DUP2 MSTORE DUP8 PUSH1 0x20 DUP5 DUP8 ADD ADD GT ISZERO PUSH2 0x564 JUMPI PUSH1 0x0 DUP1 REVERT JUMPDEST DUP3 PUSH1 0x20 DUP7 ADD PUSH1 0x20 DUP4 ADD CALLDATACOPY PUSH1 0x0 SWAP3 DUP2 ADD PUSH1 0x20 ADD SWAP3 SWAP1 SWAP3 MSTORE POP SWAP6 SWAP5 POP POP POP POP POP JUMP JUMPDEST PUSH1 0x1 DUP2 DUP2 SHR SWAP1 DUP3 AND DUP1 PUSH2 0x598 JUMPI PUSH1 0x7F DUP3 AND SWAP2 POP JUMPDEST PUSH1 0x20 DUP3 LT DUP2 SUB PUSH2 0x5B8 JUMPI PUSH4 0x4E487B71 PUSH1 0xE0 SHL PUSH1 0x0 MSTORE PUSH1 0x22 PUSH1 0x4 MSTORE PUSH1 0x24 PUSH1 0x0 REVERT JUMPDEST POP SWAP2 SWAP1 POP JUMP JUMPDEST DUP3 DUP2 MSTORE PUSH1 0x0 PUSH1 0x20 PUSH1 0x40 DUP2 DUP5 ADD MSTORE PUSH1 0x0 DUP5 SLOAD PUSH2 0x5D8 DUP2 PUSH2 0x584 JUMP JUMPDEST DUP1 PUSH1 0x40 DUP8 ADD MSTORE PUSH1 0x60 PUSH1 0x1 DUP1 DUP5 AND PUSH1 0x0 DUP2 EQ PUSH2 0x5FA JUMPI PUSH1 0x1 DUP2 EQ PUSH2 0x614 JUMPI PUSH2 0x642 JUMP JUMPDEST PUSH1 0xFF NOT DUP6 AND DUP10 DUP5 ADD MSTORE DUP4 ISZERO ISZERO PUSH1 0x5 SHL DUP10 ADD DUP4 ADD SWAP6 POP PUSH2 0x642 JUMP JUMPDEST DUP10 PUSH1 0x0 MSTORE DUP7 PUSH1 0x0 KECCAK256 PUSH1 0x0 JUMPDEST DUP6 DUP2 LT ISZERO PUSH2 0x63A JUMPI DUP2 SLOAD DUP12 DUP3 ADD DUP7 ADD MSTORE SWAP1 DUP4 ADD SWAP1 DUP9 ADD PUSH2 0x61F JUMP JUMPDEST DUP11 ADD DUP5 ADD SWAP7 POP POP JUMPDEST POP SWAP4 SWAP10 SWAP9 POP POP POP POP POP POP POP POP POP JUMP JUMPDEST PUSH4 0x4E487B71 PUSH1 0xE0 SHL PUSH1 0x0 MSTORE PUSH1 0x11 PUSH1 0x4 MSTORE PUSH1 0x24 PUSH1 0x0 REVERT JUMPDEST PUSH2 0xFFFF DUP2 DUP2 AND DUP4 DUP3 AND ADD SWAP1 DUP1 DUP3 GT ISZERO PUSH2 0x682 JUMPI PUSH2 0x682 PUSH2 0x651 JUMP JUMPDEST POP SWAP3 SWAP2 POP POP JUMP JUMPDEST PUSH1 0x0 PUSH1 0x1 DUP3 ADD PUSH2 0x69B JUMPI PUSH2 0x69B PUSH2 0x651 JUMP JUMPDEST POP PUSH1 0x1 ADD SWAP1 JUMP JUMPDEST PUSH1 0x1F DUP3 GT ISZERO PUSH2 0x437 JUMPI PUSH1 0x0 DUP2 DUP2 MSTORE PUSH1 0x20 DUP2 KECCAK256 PUSH1 0x1F DUP6 ADD PUSH1 0x5 SHR DUP2 ADD PUSH1 0x20 DUP7 LT ISZERO PUSH2 0x6C9 JUMPI POP DUP1 JUMPDEST PUSH1 0x1F DUP6 ADD PUSH1 0x5 SHR DUP3 ADD SWAP2 POP JUMPDEST DUP2 DUP2 LT ISZERO PUSH2 0x6E8 JUMPI DUP3 DUP2 SSTORE PUSH1 0x1 ADD PUSH2 0x6D5 JUMP JUMPDEST POP POP POP POP POP POP JUMP JUMPDEST DUP2 MLOAD PUSH8 0xFFFFFFFFFFFFFFFF DUP2 GT ISZERO PUSH2 0x70A JUMPI PUSH2 0x70A PUSH2 0x4BD JUMP JUMPDEST PUSH2 0x71E DUP2 PUSH2 0x718 DUP5 SLOAD PUSH2 0x584 JUMP JUMPDEST DUP5 PUSH2 0x6A2 JUMP JUMPDEST PUSH1 0x20 DUP1 PUSH1 0x1F DUP4 GT PUSH1 0x1 DUP2 EQ PUSH2 0x753 JUMPI PUSH1 0x0 DUP5 ISZERO PUSH2 0x73B JUMPI POP DUP6 DUP4 ADD MLOAD JUMPDEST PUSH1 0x0 NOT PUSH1 0x3 DUP7 SWAP1 SHL SHR NOT AND PUSH1 0x1 DUP6 SWAP1 SHL OR DUP6 SSTORE PUSH2 0x6E8 JUMP JUMPDEST PUSH1 0x0 DUP6 DUP2 MSTORE PUSH1 0x20 DUP2 KECCAK256 PUSH1 0x1F NOT DUP7 AND SWAP2 JUMPDEST DUP3 DUP2 LT ISZERO PUSH2 0x782 JUMPI DUP9 DUP7 ADD MLOAD DUP3 SSTORE SWAP5 DUP5 ADD SWAP5 PUSH1 0x1 SWAP1 SWAP2 ADD SWAP1 DUP5 ADD PUSH2 0x763 JUMP JUMPDEST POP DUP6 DUP3 LT ISZERO PUSH2 0x7A0 JUMPI DUP8 DUP6 ADD MLOAD PUSH1 0x0 NOT PUSH1 0x3 DUP9 SWAP1 SHL PUSH1 0xF8 AND SHR NOT AND DUP2 SSTORE JUMPDEST POP POP POP POP POP PUSH1 0x1 SWAP1 DUP2 SHL ADD SWAP1 SSTORE POP JUMP JUMPDEST PUSH1 0x0 PUSH1 0x20 DUP3 DUP5 SUB SLT ISZERO PUSH2 0x7C2 JUMPI PUSH1 0x0 DUP1 REVERT JUMPDEST DUP2 MLOAD DUP1 ISZERO ISZERO DUP2 EQ PUSH2 0x4B6 JUMPI PUSH1 0x0 DUP1 REVERT INVALID LOG2 PUSH5 0x6970667358 0x22 SLT KECCAK256 0xE6 LOG0 0xD4 0xE7 0xAA PUSH15 0x889CEE200248B047A459658DBF4DED COINBASE ORIGIN PUSH23 0xE3115EFB56BE43E564736F6C63430008110033516D5046 0x4B PUSH7 0x53336E59376347 PUSH10 0x6B634632674B474A4731 0x4B 0x4D PUSH10 0x5877664A6E374A686D6F PC COINBASE SELFBALANCE MSTORE8 PUSH8 0x7942534100000000 "
		},
		"gasEstimates": {
			"creation": {
				"codeDepositCost": "411200",
				"executionCost": "infinite",
				"totalCost": "infinite"
			},
			"external": {
				"Claim()": "infinite",
				"changeFeeDetails(address,uint256)": "48839",
				"changeUri(string)": "infinite",
				"claimed(address)": "2556",
				"claimers(uint256)": "2511",
				"dropFeeToken()": "2393",
				"dropPrice()": "2339",
				"nonce()": "2295",
				"pass()": "2415",
				"withdrawFee(address,uint256)": "infinite"
			}
		},
		"methodIdentifiers": {
			"Claim()": "3158952e",
			"changeFeeDetails(address,uint256)": "130dcda1",
			"changeUri(string)": "eb1f9f6e",
			"claimed(address)": "c884ef83",
			"claimers(uint256)": "99ae559d",
			"dropFeeToken()": "a593d486",
			"dropPrice()": "e70761ef",
			"nonce()": "affed0e0",
			"pass()": "a7a1ed72",
			"withdrawFee(address,uint256)": "fd9be522"
		}
	},
	"abi": [
		{
			"inputs": [
				{
					"internalType": "address",
					"name": "_pass",
					"type": "address"
				}
			],
			"stateMutability": "nonpayable",
			"type": "constructor"
		},
		{
			"inputs": [],
			"name": "Claim",
			"outputs": [],
			"stateMutability": "nonpayable",
			"type": "function"
		},
		{
			"inputs": [
				{
					"internalType": "address",
					"name": "token",
					"type": "address"
				},
				{
					"internalType": "uint256",
					"name": "amount",
					"type": "uint256"
				}
			],
			"name": "changeFeeDetails",
			"outputs": [],
			"stateMutability": "nonpayable",
			"type": "function"
		},
		{
			"inputs": [
				{
					"internalType": "string",
					"name": "uri",
					"type": "string"
				}
			],
			"name": "changeUri",
			"outputs": [],
			"stateMutability": "nonpayable",
			"type": "function"
		},
		{
			"inputs": [
				{
					"internalType": "address",
					"name": "",
					"type": "address"
				}
			],
			"name": "claimed",
			"outputs": [
				{
					"internalType": "uint16",
					"name": "",
					"type": "uint16"
				}
			],
			"stateMutability": "view",
			"type": "function"
		},
		{
			"inputs": [
				{
					"internalType": "uint256",
					"name": "",
					"type": "uint256"
				}
			],
			"name": "claimers",
			"outputs": [
				{
					"internalType": "address",
					"name": "",
					"type": "address"
				}
			],
			"stateMutability": "view",
			"type": "function"
		},
		{
			"inputs": [],
			"name": "dropFeeToken",
			"outputs": [
				{
					"internalType": "address",
					"name": "",
					"type": "address"
				}
			],
			"stateMutability": "view",
			"type": "function"
		},
		{
			"inputs": [],
			"name": "dropPrice",
			"outputs": [
				{
					"internalType": "uint256",
					"name": "",
					"type": "uint256"
				}
			],
			"stateMutability": "view",
			"type": "function"
		},
		{
			"inputs": [],
			"name": "nonce",
			"outputs": [
				{
					"internalType": "uint256",
					"name": "",
					"type": "uint256"
				}
			],
			"stateMutability": "view",
			"type": "function"
		},
		{
			"inputs": [],
			"name": "pass",
			"outputs": [
				{
					"internalType": "contract ZONEPASS",
					"name": "",
					"type": "address"
				}
			],
			"stateMutability": "view",
			"type": "function"
		},
		{
			"inputs": [
				{
					"internalType": "address",
					"name": "token",
					"type": "address"
				},
				{
					"internalType": "uint256",
					"name": "amount",
					"type": "uint256"
				}
			],
			"name": "withdrawFee",
			"outputs": [],
			"stateMutability": "nonpayable",
			"type": "function"
		}
	]
}