{
	"data": {
		"bytecode": {
			"linkReferences": {},
			"object": "608060405234801561001057600080fd5b506148ca806100206000396000f3fe60806040526004361061034f5760003560e01c806373a3daad116101c6578063a26966fb116100f7578063d9548e5311610095578063ec49fda01161006f578063ec49fda014610ae3578063f2fde38b14610af6578063f5a482e014610b16578063fd71ca4714610b3657600080fd5b8063d9548e5314610a67578063db2c6dd914610a87578063e985e9c514610a9a57600080fd5b8063b353aaa7116100d1578063b353aaa7146109f6578063c87b56dd14610a16578063ca709a2514610a36578063cd88af6e14610a5457600080fd5b8063a26966fb14610995578063a9d36f5b146109c3578063b2bdfa7b146109d657600080fd5b80638b97304011610164578063983b2d561161013e578063983b2d5614610915578063999ebe55146109355780639e402dd614610948578063a22cb4651461097557600080fd5b80638b973040146108cf5780638da5cb5b146108e257806395d89b411461090057600080fd5b80637bce1b34116101a05780637bce1b34146108265780638318dea314610846578063864018b71461088f5780638af6c670146108af57600080fd5b806373a3daad146107d3578063782f08ae146107e65780637907d11c1461080657600080fd5b8063361c0f87116102a05780635557b2791161023e57806360bd30dd1161021857806360bd30dd1461063a578063613d25bb146107735780636352211e1461079357806370a08231146107b357600080fd5b80635557b2791461072d5780635e34ae781461074d5780635fdd03a21461076057600080fd5b80633e104a951161027a5780633e104a951461069d57806340c10f19146106bb57806340ee9b32146106ce57806353f0620e1461070957600080fd5b8063361c0f87146106275780633bf7e8f41461063a5780633d6541991461065a57600080fd5b8063135798201161030d578063228d0fd9116102e7578063228d0fd9146105b2578063232b809f146105c757806323b872dd146105e75780633092afd51461060757600080fd5b8063135798201461053157806315cce224146105445780631fe48ac71461056457600080fd5b80629c47a01461035457806301ffc9a71461043157806306fdde0314610461578063081812fc14610483578063095ea7b3146104bb5780630f9e8bc0146104dd575b600080fd5b34801561036057600080fd5b506103d061036f366004613ea4565b60a060205260009081526040902080546001820154600283015460038401546004850154600586015460068701546007909701546001600160a01b03968716979686169661ffff600160a01b8804811697600160b01b90041695949392918a565b604080516001600160a01b039b8c1681529a90991660208b015261ffff978816988a0198909852959094166060880152608087019290925260a086015260c085015260e0840152610100830152610120820152610140015b60405180910390f35b34801561043d57600080fd5b5061045161044c366004613ed6565b610b56565b6040519015158152602001610428565b34801561046d57600080fd5b50610476610b67565b6040516104289190613f40565b34801561048f57600080fd5b506104a361049e366004613ea4565b610bf9565b6040516001600160a01b039091168152602001610428565b3480156104c757600080fd5b506104db6104d6366004613f6f565b610c2e565b005b3480156104e957600080fd5b506105236104f8366004613f6f565b600090815260a0602090815260408083206001600160a01b0394909416835260089093019052205490565b604051908152602001610428565b6104db61053f366004613f99565b610d48565b34801561055057600080fd5b506104db61055f366004613fd6565b610f1d565b34801561057057600080fd5b5061059f61057f366004613ea4565b600090815260a06020526040902060010154600160b01b900461ffff1690565b60405161ffff9091168152602001610428565b3480156105be57600080fd5b50610523610f56565b3480156105d357600080fd5b506104db6105e2366004613fd6565b610f6c565b3480156105f357600080fd5b506104db610602366004613ff1565b610fa5565b34801561061357600080fd5b506104db610622366004613fd6565b61101c565b6104db61063536600461402d565b6110bb565b34801561064657600080fd5b506104db610655366004613ea4565b61141a565b34801561066657600080fd5b5061067e609a54609d546001600160a01b0390911691565b604080516001600160a01b039093168352602083019190915201610428565b3480156106a957600080fd5b506099546001600160a01b03166104a3565b6104db6106c9366004613f6f565b611436565b3480156106da57600080fd5b5061059f6106e9366004613ea4565b600090815260a06020526040902060010154600160a01b900461ffff1690565b34801561071557600080fd5b506104db609980546001600160a01b03191633179055565b34801561073957600080fd5b506104db61074836600461402d565b611644565b6104db61075b3660046140fb565b6116f8565b6104db61076e36600461418d565b6118d9565b34801561077f57600080fd5b506104db61078e3660046141e4565b611c3a565b34801561079f57600080fd5b506104a36107ae366004613ea4565b611e20565b3480156107bf57600080fd5b506105236107ce366004613fd6565b611e85565b6104db6107e136600461424f565b611f0b565b3480156107f257600080fd5b506104db6108013660046142a4565b612252565b34801561081257600080fd5b506104516108213660046142eb565b6122f0565b34801561083257600080fd5b506104db610841366004613f6f565b612392565b34801561085257600080fd5b5061087a610861366004613ea4565b60a1602052600090815260409020805460019091015482565b60408051928352602083019190915201610428565b34801561089b57600080fd5b506104db6108aa36600461402d565b6124f2565b3480156108bb57600080fd5b506104db6108ca366004613ea4565b61258c565b6104db6108dd36600461402d565b61262f565b3480156108ee57600080fd5b50609b546001600160a01b03166104a3565b34801561090c57600080fd5b5061047661273f565b34801561092157600080fd5b506104db610930366004613fd6565b61274e565b6104db61094336600461402d565b6127b7565b34801561095457600080fd5b50610523610963366004613fd6565b609f6020526000908152604090205481565b34801561098157600080fd5b506104db61099036600461432c565b612991565b3480156109a157600080fd5b506109b56109b03660046142eb565b61299c565b604051610428929190614363565b6104db6109d1366004614391565b612c7d565b3480156109e257600080fd5b50609b546104a3906001600160a01b031681565b348015610a0257600080fd5b50609e546104a3906001600160a01b031681565b348015610a2257600080fd5b50610476610a31366004613ea4565b612de9565b348015610a4257600080fd5b50609a546001600160a01b03166104a3565b6104db610a623660046143c6565b612df4565b348015610a7357600080fd5b50610451610a82366004613ea4565b61311f565b6104db610a95366004614391565b613148565b348015610aa657600080fd5b50610451610ab5366004614401565b6001600160a01b039182166000908152606b6020908152604080832093909416825291909152205460ff1690565b6104db610af1366004614391565b61335f565b348015610b0257600080fd5b506104db610b11366004613fd6565b613534565b348015610b2257600080fd5b506104db610b31366004614444565b61356d565b348015610b4257600080fd5b506104db610b5136600461402d565b61361d565b6000610b61826136d1565b92915050565b606060658054610b7690614469565b80601f0160208091040260200160405190810160405280929190818152602001828054610ba290614469565b8015610bef5780601f10610bc457610100808354040283529160200191610bef565b820191906000526020600020905b815481529060010190602001808311610bd257829003601f168201915b5050505050905090565b6000610c0482613721565b1515600114610c1257600080fd5b506000908152606a60205260409020546001600160a01b031690565b6000610c3982611e20565b9050806001600160a01b0316836001600160a01b031603610cab5760405162461bcd60e51b815260206004820152602160248201527f4552433732313a20617070726f76616c20746f2063757272656e74206f776e656044820152603960f91b60648201526084015b60405180910390fd5b336001600160a01b0382161480610cc75750610cc78133610ab5565b610d395760405162461bcd60e51b815260206004820152603d60248201527f4552433732313a20617070726f76652063616c6c6572206973206e6f7420746f60448201527f6b656e206f776e6572206f7220617070726f76656420666f7220616c6c0000006064820152608401610ca2565b610d43838361373e565b505050565b6000805b609854811015610da257600060988281548110610d6b57610d6b6144a3565b6000918252602090912001546001600160a01b0316905033819003610d8f57600192505b5080610d9a816144cf565b915050610d4c565b50600181151514610dc55760405162461bcd60e51b8152600401610ca2906144e8565b600085815260a0602090815260408083206001600160a01b0387168452600801909152902054821115610e0a5760405162461bcd60e51b8152600401610ca290614517565b610e1385613721565b15156001148015610e2e5750610e2884613721565b15156001145b610e3757600080fd5b60008052609f60205260008051602061487583398151915254610e5b903490614537565b60008051602061487583398151915255600085815260a0602090815260408083206001600160a01b0387168452600801909152902054610e9c90839061454a565b600086815260a0602081815260408084206001600160a01b03891680865260089182018452828620969096558985529282528084209484529390910190522054610ee7908390614537565b600085815260a0602090815260408083206001600160a01b0388168452600801909152902055610f168561258c565b5050505050565b609b546001600160a01b03163314610f3457600080fd5b609a80546001600160a01b0319166001600160a01b0392909216919091179055565b6000609d546005610f67919061455d565b905090565b609b546001600160a01b03163314610f8357600080fd5b609e80546001600160a01b0319166001600160a01b0392909216919091179055565b610faf33826137ac565b6110115760405162461bcd60e51b815260206004820152602d60248201527f4552433732313a2063616c6c6572206973206e6f7420746f6b656e206f776e6560448201526c1c881bdc88185c1c1c9bdd9959609a1b6064820152608401610ca2565b610d4383838361382b565b609b546001600160a01b0316331461103357600080fd5b60005b6098548110156110b757600060988281548110611055576110556144a3565b6000918252602090912001546001600160a01b03908116915083168190036110a4576098828154811061108a5761108a6144a3565b600091825260209091200180546001600160a01b03191690555b50806110af816144cf565b915050611036565b5050565b600082815260a06020526040902060018101546001600160a01b03163314806110ed575080546001600160a01b031633145b6111095760405162461bcd60e51b8152600401610ca290614574565b60008281526009820160205260409020600201546001600160a01b031633146111685760405162461bcd60e51b81526020600482015260116024820152701b9bc81858d8d95cdcc81d1bc81cdb1bdd607a1b6044820152606401610ca2565b609d5461117690600561455d565b609a546001600160a01b031660009081526008830160205260409020541015806112185750609d546111a990600561455d565b609a546040516370a0823160e01b81523360048201526001600160a01b03909116906370a0823190602401602060405180830381865afa1580156111f1573d6000803e3d6000fd5b505050506040513d601f19601f82011682018060405250810190611215919061459e565b10155b61124f5760405162461bcd60e51b81526020600482015260086024820152676e6565642066656560c01b6044820152606401610ca2565b60018101546001600160a01b0316330361130857609d5461127190600561455d565b609a546001600160a01b03166000908152600883016020526040902054611298919061454a565b609a546001600160a01b03166000908152600883016020526040902055609d546112c390600561455d565b609a546001600160a01b03166000908152609f60205260409020546112e89190614537565b609a546001600160a01b03166000908152609f60205260409020556113f7565b609a54609d546001600160a01b03909116906323b872dd903390309061132f90600561455d565b6040516001600160e01b031960e086901b1681526001600160a01b03938416600482015292909116602483015260448201526064016020604051808303816000875af1158015611383573d6000803e3d6000fd5b505050506040513d601f19601f820116820180604052508101906113a791906145b7565b50609d546113b690600561455d565b609a546001600160a01b03166000908152609f60205260409020546113db9190614537565b609a546001600160a01b03166000908152609f60205260409020555b6114008361258c565b600091825260090160205260409020805460ff1916905550565b609b546001600160a01b0316331461143157600080fd5b609d55565b6000805b60985481101561149057600060988281548110611459576114596144a3565b6000918252602090912001546001600160a01b031690503381900361147d57600192505b5080611488816144cf565b91505061143a565b506001811515146114b35760405162461bcd60e51b8152600401610ca2906144e8565b6114bc82613721565b156114fa5760405162461bcd60e51b815260206004820152600e60248201526d185b1c9958591e481b5a5b9d195960921b6044820152606401610ca2565b60008052609f6020526000805160206148758339815191525461151e903490614537565b60008051602061487583398151915255600082815260a060209081526040808320609e5482516303408e4760e41b815292519194936001600160a01b0390911692633408e47092600480830193928290030181865afa158015611585573d6000803e3d6000fd5b505050506040513d601f19601f820116820180604052508101906115a991906145d4565b90506115b5858561399c565b6001820180546001600160a01b0387166001600160a01b0319918216811790925583541617825542600283018190556115f2906301e13380614537565b60048301556116008461258c565b6103e860068301556001909101805463ffffffff60a01b1916600160a01b61ffff90931692830261ffff60b01b191617600160b01b92909202919091179055505050565b6000805b60985481101561169e57600060988281548110611667576116676144a3565b6000918252602090912001546001600160a01b031690503381900361168b57600192505b5080611696816144cf565b915050611648565b506001811515146116c15760405162461bcd60e51b8152600401610ca2906144e8565b600083815260a060205260409020600701546116de90839061454a565b600093845260a06020526040909320600701929092555050565b6000805b6098548110156117525760006098828154811061171b5761171b6144a3565b6000918252602090912001546001600160a01b031690503381900361173f57600192505b508061174a816144cf565b9150506116fc565b506001811515146117755760405162461bcd60e51b8152600401610ca2906144e8565b600084815260a06020908152604082206005810154928052609f909152600080516020614875833981519152549091906117b0903490614537565b60008051602061487583398151915255600086815260a060205260409020600101546001600160a01b038581169116146117e957600080fd5b600086815260a060205260409020600601548111156118385760405162461bcd60e51b815260206004820152600b60248201526a1cdb1bdd08195e18d9595960aa1b6044820152606401610ca2565b600086815260a060205260408120600501805491611855836144cf565b91905055506118638661258c565b600081815260098301602052604090206001016118808882614637565b506000818152600983016020526040902060030161189e8682614637565b50600090815260099091016020526040902060020180546001600160a01b039093166001600160a01b03199093169290921790915550505050565b6000805b609854811015611933576000609882815481106118fc576118fc6144a3565b6000918252602090912001546001600160a01b031690503381900361192057600192505b508061192b816144cf565b9150506118dd565b506001811515146119565760405162461bcd60e51b8152600401610ca2906144e8565b61195f86613721565b15156001146119805760405162461bcd60e51b8152600401610ca2906146f7565b6040516370a0823160e01b815230600482015284906001600160a01b038716906370a0823190602401602060405180830381865afa1580156119c6573d6000803e3d6000fd5b505050506040513d601f19601f820116820180604052508101906119ea919061459e565b10158015611a1d5750600086815260a0602090815260408083206001600160a01b03891684526008019091529020548411155b611a395760405162461bcd60e51b8152600401610ca290614517565b600086815260a060205260409020600101546001600160a01b03838116911614611a915760405162461bcd60e51b81526020600482015260096024820152683737ba1037bbb732b960b91b6044820152606401610ca2565b60008052609f60205260008051602061487583398151915254611ab5903490614537565b60008052609f602052600080516020614875833981519152556001600160a01b038516611b5e57600086815260a060209081526040808320838052600801909152902054611b0490859061454a565b600087815260a0602090815260408083208380526008019091528082209290925590516001600160a01b0385169186156108fc02918791818181858888f19350505050158015611b58573d6000803e3d6000fd5b50611c29565b600086815260a0602090815260408083206001600160a01b0389168452600801909152902054611b8f90859061454a565b600087815260a0602090815260408083206001600160a01b038a811680865260089092019093529281902093909355915163a9059cbb60e01b81529185166004830152602482018690529063a9059cbb906044015b6020604051808303816000875af1158015611c03573d6000803e3d6000fd5b505050506040513d601f19601f82011682018060405250810190611c2791906145b7565b505b611c328661258c565b505050505050565b600054610100900460ff1615808015611c5a5750600054600160ff909116105b80611c745750303b158015611c74575060005460ff166001145b611cd75760405162461bcd60e51b815260206004820152602e60248201527f496e697469616c697a61626c653a20636f6e747261637420697320616c72656160448201526d191e481a5b9a5d1a585b1a5e995960921b6064820152608401610ca2565b6000805460ff191660011790558015611cfa576000805461ff0019166101001790555b6099546001600160a01b03163314611d435760405162461bcd60e51b815260206004820152600c60248201526b6e6f7420696e69742061636360a01b6044820152606401610ca2565b611d4d84846139b6565b609e80546001600160a01b038085166001600160a01b031992831617909255609880546001810182556000919091527f2237a976fa961f5921fd19f2b03c925c725d77b20ce8f790c19709c03de4d814018054821633908117909155609b805483169091179055609a8054928816929091169190911790556002609c55655af3107a4000609d558015610f16576000805461ff0019169055604051600181527f7f26b83ff96e1f2b6a682f133852f6798a09c465da95921460cefb38474024989060200160405180910390a15050505050565b6000818152606860205260408120546001600160a01b031680610b615760405162461bcd60e51b815260206004820152601860248201527f4552433732313a20696e76616c696420746f6b656e20494400000000000000006044820152606401610ca2565b60006001600160a01b038216611eef5760405162461bcd60e51b815260206004820152602960248201527f4552433732313a2061646472657373207a65726f206973206e6f7420612076616044820152683634b21037bbb732b960b91b6064820152608401610ca2565b506001600160a01b031660009081526069602052604090205490565b60a2548510611f2c5760405162461bcd60e51b8152600401610ca2906146f7565b6040516370a0823160e01b815230600482015281906001600160a01b038416906370a0823190602401602060405180830381865afa158015611f72573d6000803e3d6000fd5b505050506040513d601f19601f82011682018060405250810190611f96919061459e565b10158015611fc95750600085815260a0602090815260408083206001600160a01b03861684526008019091529020548111155b611fe55760405162461bcd60e51b8152600401610ca290614517565b600085815260a060205260409020600101546001600160a01b0384811691161461203d5760405162461bcd60e51b81526020600482015260096024820152683737ba1037bbb732b960b91b6044820152606401610ca2565b60008052609f60205260008051602061487583398151915254612061903490614537565b6000808052609f60205260008051602061487583398151915291909155609c546103e89061208f908461455d565b6120999190614720565b600087815260a0602090815260408083206001600160a01b03881684526008019091529020549091506120cd90839061454a565b600087815260a0602090815260408083206001600160a01b038816808552600890910190925290912091909155612182576001600160a01b0385166108fc612115838561454a565b6040518115909202916000818181858888f1935050505015801561213d573d6000803e3d6000fd5b50600086815260a060205260408082205490516001600160a01b039091169183156108fc02918491818181858888f19350505050158015611b58573d6000803e3d6000fd5b6001600160a01b03831663a9059cbb8661219c848661454a565b6040516001600160e01b031960e085901b1681526001600160a01b03909216600483015260248201526044016020604051808303816000875af11580156121e7573d6000803e3d6000fd5b505050506040513d601f19601f8201168201806040525081019061220b91906145b7565b50600086815260a060205260409081902054905163a9059cbb60e01b81526001600160a01b039182166004820152602481018390529084169063a9059cbb90604401611be4565b6000805b6098548110156122ac57600060988281548110612275576122756144a3565b6000918252602090912001546001600160a01b031690503381900361229957600192505b50806122a4816144cf565b915050612256565b506001811515146122cf5760405162461bcd60e51b8152600401610ca2906144e8565b6122d883613721565b15156001146122e657600080fd5b610d438383613a3a565b600080805b600085815260a1602052604090206002015481101561238957600085815260a160205260408120600201805483908110612331576123316144a3565b6000918252602090912001546001600160a01b0390811691508716811480156123675750600086815260a1602052604090205485145b15612376576001925050612389565b5080612381816144cf565b9150506122f5565b50949350505050565b609b546001600160a01b031633146123a957600080fd5b6001600160a01b0382166000908152609f60205260409020548111156123ff5760405162461bcd60e51b815260206004820152600b60248201526a4e6f2062616c616e63657360a81b6044820152606401610ca2565b6001600160a01b0382166000908152609f602052604090205461242390829061454a565b6001600160a01b0383166000818152609f6020526040902091909155156124b75760405163a9059cbb60e01b8152336004820152602481018290526001600160a01b0383169063a9059cbb906044016020604051808303816000875af1158015612491573d6000803e3d6000fd5b505050506040513d601f19601f820116820180604052508101906124b591906145b7565b505b6001600160a01b0382166110b757604051339082156108fc029083906000818181858888f19350505050158015610d43573d6000803e3d6000fd5b6000805b60985481101561254c57600060988281548110612515576125156144a3565b6000918252602090912001546001600160a01b031690503381900361253957600192505b5080612544816144cf565b9150506124f6565b5060018115151461256f5760405162461bcd60e51b8152600401610ca2906144e8565b600083815260a060205260409020600701546116de908390614537565b6000805b6098548110156125e6576000609882815481106125af576125af6144a3565b6000918252602090912001546001600160a01b03169050338190036125d357600192505b50806125de816144cf565b915050612590565b506001811515146126095760405162461bcd60e51b8152600401610ca2906144e8565b600082815260a060205260408120600701805491612626836144cf565b91905055505050565b6000805b60985481101561268957600060988281548110612652576126526144a3565b6000918252602090912001546001600160a01b031690503381900361267657600192505b5080612681816144cf565b915050612633565b506001811515146126ac5760405162461bcd60e51b8152600401610ca2906144e8565b60a25483106126cd5760405162461bcd60e51b8152600401610ca2906146f7565b60008052609f602052600080516020614875833981519152546126f1903490614537565b60008051602061487583398151915255600083815260a06020526040902042600382015560040154612724908390614537565b600084815260a06020526040902060040155610d438361258c565b606060668054610b7690614469565b609b546001600160a01b0316331461276557600080fd5b609880546001810182556000919091527f2237a976fa961f5921fd19f2b03c925c725d77b20ce8f790c19709c03de4d8140180546001600160a01b0319166001600160a01b0392909216919091179055565b81609d546127c5919061455d565b609a546040516370a0823160e01b81523360048201526001600160a01b03909116906370a0823190602401602060405180830381865afa15801561280d573d6000803e3d6000fd5b505050506040513d601f19601f82011682018060405250810190612831919061459e565b10156128705760405162461bcd60e51b815260206004820152600e60248201526d149958da185c99d948199a5c9cdd60921b6044820152606401610ca2565b600081815260a060205260409020600101546001600160a01b0316331461289657600080fd5b60008052609f602052600080516020614875833981519152546128ba903490614537565b60008052609f60205260008051602061487583398151915255609d546128e190839061455d565b600082815260a060209081526040808320609a546001600160a01b03168452600801909152902054612913919061454a565b600082815260a060208181526040808420609a546001600160a01b03168552600881018352908420949094559184905290524260039091015562093a8061295a818461455d565b600083815260a060205260409020600401546129769190614537565b600083815260a06020526040902060040155610d438261258c565b6110b7338383613a52565b6060806000805b6098548110156129f9576000609882815481106129c2576129c26144a3565b6000918252602090912001546001600160a01b03169050338190036129e657600192505b50806129f1816144cf565b9150506129a3565b50600181151514612a1c5760405162461bcd60e51b8152600401610ca2906144e8565b600085815260a060205260409020600101546001600160a01b038781169116148015612a725750600085815260a0602090815260408083208784526009019091529020600201546001600160a01b038781169116145b80612a895750612a838686866122f0565b15156001145b612ad55760405162461bcd60e51b815260206004820152601860248201527f6e6f74206f776e6572206f6620696420616e6420736c6f7400000000000000006044820152606401610ca2565b600085815260a06020908152604080832087845260090190915290205460ff1615612b315760405162461bcd60e51b815260206004820152600c60248201526b11195b195d19590814db1bdd60a21b6044820152606401610ca2565b600085815260a06020908152604080832087845260090190915290206001810180549091600301908290612b6490614469565b80601f0160208091040260200160405190810160405280929190818152602001828054612b9090614469565b8015612bdd5780601f10612bb257610100808354040283529160200191612bdd565b820191906000526020600020905b815481529060010190602001808311612bc057829003601f168201915b50505050509150808054612bf090614469565b80601f0160208091040260200160405190810160405280929190818152602001828054612c1c90614469565b8015612c695780601f10612c3e57610100808354040283529160200191612c69565b820191906000526020600020905b815481529060010190602001808311612c4c57829003601f168201915b505050505090509250925050935093915050565b600083815260a060205260409020600101546001600160a01b0316331480612cbb5750600083815260a060205260409020546001600160a01b031633145b612cd75760405162461bcd60e51b8152600401610ca290614574565b600083815260a0602090815260408083208584526009019091529020600201546001600160a01b031633148015612d2b5750600083815260a06020908152604080832085845260090190915290205460ff16155b612d475760405162461bcd60e51b8152600401610ca290614742565b60008052609f60205260008051602061487583398151915254612d6b903490614537565b60008052609f60205260008051602061487583398151915255612d8d8361258c565b600083815260a16020908152604082208481556002810180546001808201835591855292842090920180546001600160a01b0319166001600160a01b03861617905585835201805491612ddf836144cf565b9190505550505050565b6060610b6182613b20565b6000805b609854811015612e4e57600060988281548110612e1757612e176144a3565b6000918252602090912001546001600160a01b0316905033819003612e3b57600192505b5080612e46816144cf565b915050612df8565b50600181151514612e715760405162461bcd60e51b8152600401610ca2906144e8565b612e7a85613721565b1515600114612e9b5760405162461bcd60e51b8152600401610ca2906146f7565b6001600160a01b038416612f7c57823411612eb557600080fd5b6000612ec1843461454a565b60008052609f60205260008051602061487583398151915254909150612ee8908290614537565b6000808052609f60205260008051602061487583398151915291909155604051309186156108fc02918791818181858888f19350505050158015612f30573d6000803e3d6000fd5b50600086815260a060209081526040808320838052600801909152902054612f59908590614537565b600087815260a06020908152604080832083805260080190915290205550613116565b6040516370a0823160e01b81526001600160a01b0383811660048301528491908616906370a0823190602401602060405180830381865afa158015612fc5573d6000803e3d6000fd5b505050506040513d601f19601f82011682018060405250810190612fe9919061459e565b10156130075760405162461bcd60e51b8152600401610ca290614517565b60008052609f6020526000805160206148758339815191525461302b903490614537565b60008052609f602052600080516020614875833981519152556040516323b872dd60e01b81526001600160a01b038381166004830152306024830152604482018590528516906323b872dd906064016020604051808303816000875af1158015613099573d6000803e3d6000fd5b505050506040513d601f19601f820116820180604052508101906130bd91906145b7565b50600085815260a0602090815260408083206001600160a01b03881684526008019091529020546130ef908490614537565b600086815260a0602090815260408083206001600160a01b03891684526008019091529020555b610f168561258c565b600081815260a0602052604081206004015442111561314057506001919050565b506000919050565b600083815260a060205260409020600101546001600160a01b03163314806131865750600083815260a060205260409020546001600160a01b031633145b6131a25760405162461bcd60e51b8152600401610ca290614574565b600083815260a0602090815260408083208584526009019091529020600201546001600160a01b0316331480156131f65750600083815260a06020908152604080832085845260090190915290205460ff16155b6132125760405162461bcd60e51b8152600401610ca290614742565b60008052609f60205260008051602061487583398151915254613236903490614537565b60008052609f602052600080516020614875833981519152556132588361258c565b600083815260a1602052604081208390555b600084815260a1602052604090206002015481101561333a57600084815260a1602052604081206002018054839081106132a6576132a66144a3565b6000918252602090912001546001600160a01b0390811691508316810361332757600085815260a1602052604090206002018054839081106132ea576132ea6144a3565b6000918252602080832090910180546001600160a01b031916905586825260a1905260409020600190810154613320919061454a565b505061333a565b5080613332816144cf565b91505061326a565b50600083815260a160205260409020600190810154613359919061454a565b50505050565b6000805b6098548110156133b957600060988281548110613382576133826144a3565b6000918252602090912001546001600160a01b03169050338190036133a657600192505b50806133b1816144cf565b915050613363565b506001811515146133dc5760405162461bcd60e51b8152600401610ca2906144e8565b600084815260a0602090815260408220918052609f90526000805160206148758339815191525461340e903490614537565b60008051602061487583398151915255600085815260a06020526040902060060154600582015411156134715760405162461bcd60e51b815260206004820152600b60248201526a1cdb1bdd08195e18d9595960aa1b6044820152606401610ca2565b60008481526009820160205260409020600201546001600160a01b0384811691161480156134ae575060018101546001600160a01b038481169116145b6134fa5760405162461bcd60e51b815260206004820152601760248201527f646964206e6f742073746f7265206461746120736c6f740000000000000000006044820152606401610ca2565b6001816005015461350b919061454a565b506135158561258c565b6000938452600901602052505060409020805460ff1916600117905550565b609b546001600160a01b0316331461354b57600080fd5b609b80546001600160a01b0319166001600160a01b0392909216919091179055565b6000805b6098548110156135c757600060988281548110613590576135906144a3565b6000918252602090912001546001600160a01b03169050338190036135b457600192505b50806135bf816144cf565b915050613571565b506001811515146135ea5760405162461bcd60e51b8152600401610ca2906144e8565b50600091825260a06020526040909120600101805461ffff909216600160b01b0261ffff60b01b19909216919091179055565b6000805b60985481101561367757600060988281548110613640576136406144a3565b6000918252602090912001546001600160a01b031690503381900361366457600192505b508061366f816144cf565b915050613621565b5060018115151461369a5760405162461bcd60e51b8152600401610ca2906144e8565b600082815260a060205260409020600601546136b7908490614537565b600092835260a06020526040909220600601919091555050565b60006001600160e01b03198216637aa5391d60e01b148061370257506001600160e01b03198216635b5e139f60e01b145b80610b6157506301ffc9a760e01b6001600160e01b0319831614610b61565b6000908152606860205260409020546001600160a01b0316151590565b6000818152606a6020526040902080546001600160a01b0319166001600160a01b038416908117909155819061377382611e20565b6001600160a01b03167f8c5be1e5ebec7d5bd14f71427d1e84f3dd0314c0f7b2291e5b200ac8c7c3b92560405160405180910390a45050565b6000806137b883611e20565b9050806001600160a01b0316846001600160a01b031614806137ff57506001600160a01b038082166000908152606b602090815260408083209388168352929052205460ff165b806138235750836001600160a01b031661381884610bf9565b6001600160a01b0316145b949350505050565b826001600160a01b031661383e82611e20565b6001600160a01b0316146138645760405162461bcd60e51b8152600401610ca290614783565b6001600160a01b0382166138c65760405162461bcd60e51b8152602060048201526024808201527f4552433732313a207472616e7366657220746f20746865207a65726f206164646044820152637265737360e01b6064820152608401610ca2565b6138d38383836001613bc2565b826001600160a01b03166138e682611e20565b6001600160a01b03161461390c5760405162461bcd60e51b8152600401610ca290614783565b6000818152606a6020908152604080832080546001600160a01b03199081169091556001600160a01b0387811680865260698552838620805460001901905590871680865283862080546001019055868652606890945282852080549092168417909155905184937fddf252ad1be2c89b69c2b068fc378daa952ba7f163c4a11628f55a4df523b3ef91a4505050565b6110b7828260405180602001604052806000815250613bf5565b600054610100900460ff16613a215760405162461bcd60e51b815260206004820152602b60248201527f496e697469616c697a61626c653a20636f6e7472616374206973206e6f74206960448201526a6e697469616c697a696e6760a81b6064820152608401610ca2565b6065613a2d8382614637565b506066610d438282614637565b6000828152606760205260409020610d438282614637565b816001600160a01b0316836001600160a01b031603613ab35760405162461bcd60e51b815260206004820152601960248201527f4552433732313a20617070726f766520746f2063616c6c6572000000000000006044820152606401610ca2565b6001600160a01b038381166000818152606b6020908152604080832094871680845294825291829020805460ff191686151590811790915591519182527f17307eab39ab6107e8899845ad3d59bd9653f200f220920489ca2b5937696c31910160405180910390a3505050565b6000818152606760205260409020805460609190613b3d90614469565b80601f0160208091040260200160405190810160405280929190818152602001828054613b6990614469565b8015613bb65780601f10613b8b57610100808354040283529160200191613bb6565b820191906000526020600020905b815481529060010190602001808311613b9957829003601f168201915b50505050509050919050565b50600090815260a06020526040902060010180546001600160a01b0319166001600160a01b039290921691909117905550565b613bff8383613c28565b613c0c6000848484613da3565b610d435760405162461bcd60e51b8152600401610ca2906147c8565b6001600160a01b038216613c7e5760405162461bcd60e51b815260206004820181905260248201527f4552433732313a206d696e7420746f20746865207a65726f20616464726573736044820152606401610ca2565b613c8781613721565b15613cd45760405162461bcd60e51b815260206004820152601c60248201527f4552433732313a20746f6b656e20616c7265616479206d696e746564000000006044820152606401610ca2565b613ce2600083836001613bc2565b613ceb81613721565b15613d385760405162461bcd60e51b815260206004820152601c60248201527f4552433732313a20746f6b656e20616c7265616479206d696e746564000000006044820152606401610ca2565b6001600160a01b038216600081815260696020908152604080832080546001019055848352606890915280822080546001600160a01b0319168417905551839291907fddf252ad1be2c89b69c2b068fc378daa952ba7f163c4a11628f55a4df523b3ef908290a45050565b60006001600160a01b0384163b15613e9957604051630a85bd0160e11b81526001600160a01b0385169063150b7a0290613de790339089908890889060040161481a565b6020604051808303816000875af1925050508015613e22575060408051601f3d908101601f19168201909252613e1f91810190614857565b60015b613e7f573d808015613e50576040519150601f19603f3d011682016040523d82523d6000602084013e613e55565b606091505b508051600003613e775760405162461bcd60e51b8152600401610ca2906147c8565b805181602001fd5b6001600160e01b031916630a85bd0160e11b149050613823565b506001949350505050565b600060208284031215613eb657600080fd5b5035919050565b6001600160e01b031981168114613ed357600080fd5b50565b600060208284031215613ee857600080fd5b8135613ef381613ebd565b9392505050565b6000815180845260005b81811015613f2057602081850181015186830182015201613f04565b506000602082860101526020601f19601f83011685010191505092915050565b602081526000613ef36020830184613efa565b80356001600160a01b0381168114613f6a57600080fd5b919050565b60008060408385031215613f8257600080fd5b613f8b83613f53565b946020939093013593505050565b60008060008060808587031215613faf57600080fd5b8435935060208501359250613fc660408601613f53565b9396929550929360600135925050565b600060208284031215613fe857600080fd5b613ef382613f53565b60008060006060848603121561400657600080fd5b61400f84613f53565b925061401d60208501613f53565b9150604084013590509250925092565b6000806040838503121561404057600080fd5b50508035926020909101359150565b634e487b7160e01b600052604160045260246000fd5b600067ffffffffffffffff808411156140805761408061404f565b604051601f8501601f19908116603f011681019082821181831017156140a8576140a861404f565b816040528093508581528686860111156140c157600080fd5b858560208301376000602087830101525050509392505050565b600082601f8301126140ec57600080fd5b613ef383833560208501614065565b6000806000806080858703121561411157600080fd5b843567ffffffffffffffff8082111561412957600080fd5b614135888389016140db565b955060208701359450604087013591508082111561415257600080fd5b508501601f8101871361416457600080fd5b61417387823560208401614065565b92505061418260608601613f53565b905092959194509250565b600080600080600060a086880312156141a557600080fd5b853594506141b560208701613f53565b9350604086013592506141ca60608701613f53565b91506141d860808701613f53565b90509295509295909350565b600080600080608085870312156141fa57600080fd5b61420385613f53565b9350602085013567ffffffffffffffff8082111561422057600080fd5b61422c888389016140db565b9450604087013591508082111561424257600080fd5b50614173878288016140db565b600080600080600060a0868803121561426757600080fd5b8535945061427760208701613f53565b935061428560408701613f53565b925061429360608701613f53565b949793965091946080013592915050565b600080604083850312156142b757600080fd5b82359150602083013567ffffffffffffffff8111156142d557600080fd5b6142e1858286016140db565b9150509250929050565b60008060006060848603121561430057600080fd5b61430984613f53565b95602085013595506040909401359392505050565b8015158114613ed357600080fd5b6000806040838503121561433f57600080fd5b61434883613f53565b915060208301356143588161431e565b809150509250929050565b6040815260006143766040830185613efa565b82810360208401526143888185613efa565b95945050505050565b6000806000606084860312156143a657600080fd5b83359250602084013591506143bd60408501613f53565b90509250925092565b600080600080608085870312156143dc57600080fd5b843593506143ec60208601613f53565b92506040850135915061418260608601613f53565b6000806040838503121561441457600080fd5b61441d83613f53565b915061442b60208401613f53565b90509250929050565b61ffff81168114613ed357600080fd5b6000806040838503121561445757600080fd5b82359150602083013561435881614434565b600181811c9082168061447d57607f821691505b60208210810361449d57634e487b7160e01b600052602260045260246000fd5b50919050565b634e487b7160e01b600052603260045260246000fd5b634e487b7160e01b600052601160045260246000fd5b6000600182016144e1576144e16144b9565b5060010190565b6020808252601590820152741858d8d95cdcc818dbdb9d1c9bdb0819195b9a5959605a1b604082015260600190565b6020808252600690820152651b9bc818985b60d21b604082015260600190565b80820180821115610b6157610b616144b9565b81810381811115610b6157610b616144b9565b8082028115828204841417610b6157610b616144b9565b60208082526010908201526f03737ba1037bbb732b91037b31034b2160851b604082015260600190565b6000602082840312156145b057600080fd5b5051919050565b6000602082840312156145c957600080fd5b8151613ef38161431e565b6000602082840312156145e657600080fd5b8151613ef381614434565b601f821115610d4357600081815260208120601f850160051c810160208610156146185750805b601f850160051c820191505b81811015611c3257828155600101614624565b815167ffffffffffffffff8111156146515761465161404f565b6146658161465f8454614469565b846145f1565b602080601f83116001811461469a57600084156146825750858301515b600019600386901b1c1916600185901b178555611c32565b600085815260208120601f198616915b828110156146c9578886015182559484019460019091019084016146aa565b50858210156146e75787850151600019600388901b60f8161c191681555b5050505050600190811b01905550565b6020808252600f908201526e1b9bdb88195e1a5cdd195b9d081a59608a1b604082015260600190565b60008261473d57634e487b7160e01b600052601260045260246000fd5b500490565b60208082526021908201527f6e6f2061636365737320746f20736c6f74206f722064656c6574656420736c6f6040820152601d60fa1b606082015260800190565b60208082526025908201527f4552433732313a207472616e736665722066726f6d20696e636f72726563742060408201526437bbb732b960d91b606082015260800190565b60208082526032908201527f4552433732313a207472616e7366657220746f206e6f6e20455243373231526560408201527131b2b4bb32b91034b6b83632b6b2b73a32b960711b606082015260800190565b6001600160a01b038581168252841660208201526040810183905260806060820181905260009061484d90830184613efa565b9695505050505050565b60006020828403121561486957600080fd5b8151613ef381613ebd56fea705961f203609058950cfd817eb7a7627c9e270651c936aad3abdfa253727eca26469706673582212207dad1cd095c2c2775cc50eeb960c193c3ef085305fb85aed3fcb58b95180c58364736f6c63430008110033",
			"opcodes": "PUSH1 0x80 PUSH1 0x40 MSTORE CALLVALUE DUP1 ISZERO PUSH2 0x10 JUMPI PUSH1 0x0 DUP1 REVERT JUMPDEST POP PUSH2 0x48CA DUP1 PUSH2 0x20 PUSH1 0x0 CODECOPY PUSH1 0x0 RETURN INVALID PUSH1 0x80 PUSH1 0x40 MSTORE PUSH1 0x4 CALLDATASIZE LT PUSH2 0x34F JUMPI PUSH1 0x0 CALLDATALOAD PUSH1 0xE0 SHR DUP1 PUSH4 0x73A3DAAD GT PUSH2 0x1C6 JUMPI DUP1 PUSH4 0xA26966FB GT PUSH2 0xF7 JUMPI DUP1 PUSH4 0xD9548E53 GT PUSH2 0x95 JUMPI DUP1 PUSH4 0xEC49FDA0 GT PUSH2 0x6F JUMPI DUP1 PUSH4 0xEC49FDA0 EQ PUSH2 0xAE3 JUMPI DUP1 PUSH4 0xF2FDE38B EQ PUSH2 0xAF6 JUMPI DUP1 PUSH4 0xF5A482E0 EQ PUSH2 0xB16 JUMPI DUP1 PUSH4 0xFD71CA47 EQ PUSH2 0xB36 JUMPI PUSH1 0x0 DUP1 REVERT JUMPDEST DUP1 PUSH4 0xD9548E53 EQ PUSH2 0xA67 JUMPI DUP1 PUSH4 0xDB2C6DD9 EQ PUSH2 0xA87 JUMPI DUP1 PUSH4 0xE985E9C5 EQ PUSH2 0xA9A JUMPI PUSH1 0x0 DUP1 REVERT JUMPDEST DUP1 PUSH4 0xB353AAA7 GT PUSH2 0xD1 JUMPI DUP1 PUSH4 0xB353AAA7 EQ PUSH2 0x9F6 JUMPI DUP1 PUSH4 0xC87B56DD EQ PUSH2 0xA16 JUMPI DUP1 PUSH4 0xCA709A25 EQ PUSH2 0xA36 JUMPI DUP1 PUSH4 0xCD88AF6E EQ PUSH2 0xA54 JUMPI PUSH1 0x0 DUP1 REVERT JUMPDEST DUP1 PUSH4 0xA26966FB EQ PUSH2 0x995 JUMPI DUP1 PUSH4 0xA9D36F5B EQ PUSH2 0x9C3 JUMPI DUP1 PUSH4 0xB2BDFA7B EQ PUSH2 0x9D6 JUMPI PUSH1 0x0 DUP1 REVERT JUMPDEST DUP1 PUSH4 0x8B973040 GT PUSH2 0x164 JUMPI DUP1 PUSH4 0x983B2D56 GT PUSH2 0x13E JUMPI DUP1 PUSH4 0x983B2D56 EQ PUSH2 0x915 JUMPI DUP1 PUSH4 0x999EBE55 EQ PUSH2 0x935 JUMPI DUP1 PUSH4 0x9E402DD6 EQ PUSH2 0x948 JUMPI DUP1 PUSH4 0xA22CB465 EQ PUSH2 0x975 JUMPI PUSH1 0x0 DUP1 REVERT JUMPDEST DUP1 PUSH4 0x8B973040 EQ PUSH2 0x8CF JUMPI DUP1 PUSH4 0x8DA5CB5B EQ PUSH2 0x8E2 JUMPI DUP1 PUSH4 0x95D89B41 EQ PUSH2 0x900 JUMPI PUSH1 0x0 DUP1 REVERT JUMPDEST DUP1 PUSH4 0x7BCE1B34 GT PUSH2 0x1A0 JUMPI DUP1 PUSH4 0x7BCE1B34 EQ PUSH2 0x826 JUMPI DUP1 PUSH4 0x8318DEA3 EQ PUSH2 0x846 JUMPI DUP1 PUSH4 0x864018B7 EQ PUSH2 0x88F JUMPI DUP1 PUSH4 0x8AF6C670 EQ PUSH2 0x8AF JUMPI PUSH1 0x0 DUP1 REVERT JUMPDEST DUP1 PUSH4 0x73A3DAAD EQ PUSH2 0x7D3 JUMPI DUP1 PUSH4 0x782F08AE EQ PUSH2 0x7E6 JUMPI DUP1 PUSH4 0x7907D11C EQ PUSH2 0x806 JUMPI PUSH1 0x0 DUP1 REVERT JUMPDEST DUP1 PUSH4 0x361C0F87 GT PUSH2 0x2A0 JUMPI DUP1 PUSH4 0x5557B279 GT PUSH2 0x23E JUMPI DUP1 PUSH4 0x60BD30DD GT PUSH2 0x218 JUMPI DUP1 PUSH4 0x60BD30DD EQ PUSH2 0x63A JUMPI DUP1 PUSH4 0x613D25BB EQ PUSH2 0x773 JUMPI DUP1 PUSH4 0x6352211E EQ PUSH2 0x793 JUMPI DUP1 PUSH4 0x70A08231 EQ PUSH2 0x7B3 JUMPI PUSH1 0x0 DUP1 REVERT JUMPDEST DUP1 PUSH4 0x5557B279 EQ PUSH2 0x72D JUMPI DUP1 PUSH4 0x5E34AE78 EQ PUSH2 0x74D JUMPI DUP1 PUSH4 0x5FDD03A2 EQ PUSH2 0x760 JUMPI PUSH1 0x0 DUP1 REVERT JUMPDEST DUP1 PUSH4 0x3E104A95 GT PUSH2 0x27A JUMPI DUP1 PUSH4 0x3E104A95 EQ PUSH2 0x69D JUMPI DUP1 PUSH4 0x40C10F19 EQ PUSH2 0x6BB JUMPI DUP1 PUSH4 0x40EE9B32 EQ PUSH2 0x6CE JUMPI DUP1 PUSH4 0x53F0620E EQ PUSH2 0x709 JUMPI PUSH1 0x0 DUP1 REVERT JUMPDEST DUP1 PUSH4 0x361C0F87 EQ PUSH2 0x627 JUMPI DUP1 PUSH4 0x3BF7E8F4 EQ PUSH2 0x63A JUMPI DUP1 PUSH4 0x3D654199 EQ PUSH2 0x65A JUMPI PUSH1 0x0 DUP1 REVERT JUMPDEST DUP1 PUSH4 0x13579820 GT PUSH2 0x30D JUMPI DUP1 PUSH4 0x228D0FD9 GT PUSH2 0x2E7 JUMPI DUP1 PUSH4 0x228D0FD9 EQ PUSH2 0x5B2 JUMPI DUP1 PUSH4 0x232B809F EQ PUSH2 0x5C7 JUMPI DUP1 PUSH4 0x23B872DD EQ PUSH2 0x5E7 JUMPI DUP1 PUSH4 0x3092AFD5 EQ PUSH2 0x607 JUMPI PUSH1 0x0 DUP1 REVERT JUMPDEST DUP1 PUSH4 0x13579820 EQ PUSH2 0x531 JUMPI DUP1 PUSH4 0x15CCE224 EQ PUSH2 0x544 JUMPI DUP1 PUSH4 0x1FE48AC7 EQ PUSH2 0x564 JUMPI PUSH1 0x0 DUP1 REVERT JUMPDEST DUP1 PUSH3 0x9C47A0 EQ PUSH2 0x354 JUMPI DUP1 PUSH4 0x1FFC9A7 EQ PUSH2 0x431 JUMPI DUP1 PUSH4 0x6FDDE03 EQ PUSH2 0x461 JUMPI DUP1 PUSH4 0x81812FC EQ PUSH2 0x483 JUMPI DUP1 PUSH4 0x95EA7B3 EQ PUSH2 0x4BB JUMPI DUP1 PUSH4 0xF9E8BC0 EQ PUSH2 0x4DD JUMPI JUMPDEST PUSH1 0x0 DUP1 REVERT JUMPDEST CALLVALUE DUP1 ISZERO PUSH2 0x360 JUMPI PUSH1 0x0 DUP1 REVERT JUMPDEST POP PUSH2 0x3D0 PUSH2 0x36F CALLDATASIZE PUSH1 0x4 PUSH2 0x3EA4 JUMP JUMPDEST PUSH1 0xA0 PUSH1 0x20 MSTORE PUSH1 0x0 SWAP1 DUP2 MSTORE PUSH1 0x40 SWAP1 KECCAK256 DUP1 SLOAD PUSH1 0x1 DUP3 ADD SLOAD PUSH1 0x2 DUP4 ADD SLOAD PUSH1 0x3 DUP5 ADD SLOAD PUSH1 0x4 DUP6 ADD SLOAD PUSH1 0x5 DUP7 ADD SLOAD PUSH1 0x6 DUP8 ADD SLOAD PUSH1 0x7 SWAP1 SWAP8 ADD SLOAD PUSH1 0x1 PUSH1 0x1 PUSH1 0xA0 SHL SUB SWAP7 DUP8 AND SWAP8 SWAP7 DUP7 AND SWAP7 PUSH2 0xFFFF PUSH1 0x1 PUSH1 0xA0 SHL DUP9 DIV DUP2 AND SWAP8 PUSH1 0x1 PUSH1 0xB0 SHL SWAP1 DIV AND SWAP6 SWAP5 SWAP4 SWAP3 SWAP2 DUP11 JUMP JUMPDEST PUSH1 0x40 DUP1 MLOAD PUSH1 0x1 PUSH1 0x1 PUSH1 0xA0 SHL SUB SWAP12 DUP13 AND DUP2 MSTORE SWAP11 SWAP1 SWAP10 AND PUSH1 0x20 DUP12 ADD MSTORE PUSH2 0xFFFF SWAP8 DUP9 AND SWAP9 DUP11 ADD SWAP9 SWAP1 SWAP9 MSTORE SWAP6 SWAP1 SWAP5 AND PUSH1 0x60 DUP9 ADD MSTORE PUSH1 0x80 DUP8 ADD SWAP3 SWAP1 SWAP3 MSTORE PUSH1 0xA0 DUP7 ADD MSTORE PUSH1 0xC0 DUP6 ADD MSTORE PUSH1 0xE0 DUP5 ADD MSTORE PUSH2 0x100 DUP4 ADD MSTORE PUSH2 0x120 DUP3 ADD MSTORE PUSH2 0x140 ADD JUMPDEST PUSH1 0x40 MLOAD DUP1 SWAP2 SUB SWAP1 RETURN JUMPDEST CALLVALUE DUP1 ISZERO PUSH2 0x43D JUMPI PUSH1 0x0 DUP1 REVERT JUMPDEST POP PUSH2 0x451 PUSH2 0x44C CALLDATASIZE PUSH1 0x4 PUSH2 0x3ED6 JUMP JUMPDEST PUSH2 0xB56 JUMP JUMPDEST PUSH1 0x40 MLOAD SWAP1 ISZERO ISZERO DUP2 MSTORE PUSH1 0x20 ADD PUSH2 0x428 JUMP JUMPDEST CALLVALUE DUP1 ISZERO PUSH2 0x46D JUMPI PUSH1 0x0 DUP1 REVERT JUMPDEST POP PUSH2 0x476 PUSH2 0xB67 JUMP JUMPDEST PUSH1 0x40 MLOAD PUSH2 0x428 SWAP2 SWAP1 PUSH2 0x3F40 JUMP JUMPDEST CALLVALUE DUP1 ISZERO PUSH2 0x48F JUMPI PUSH1 0x0 DUP1 REVERT JUMPDEST POP PUSH2 0x4A3 PUSH2 0x49E CALLDATASIZE PUSH1 0x4 PUSH2 0x3EA4 JUMP JUMPDEST PUSH2 0xBF9 JUMP JUMPDEST PUSH1 0x40 MLOAD PUSH1 0x1 PUSH1 0x1 PUSH1 0xA0 SHL SUB SWAP1 SWAP2 AND DUP2 MSTORE PUSH1 0x20 ADD PUSH2 0x428 JUMP JUMPDEST CALLVALUE DUP1 ISZERO PUSH2 0x4C7 JUMPI PUSH1 0x0 DUP1 REVERT JUMPDEST POP PUSH2 0x4DB PUSH2 0x4D6 CALLDATASIZE PUSH1 0x4 PUSH2 0x3F6F JUMP JUMPDEST PUSH2 0xC2E JUMP JUMPDEST STOP JUMPDEST CALLVALUE DUP1 ISZERO PUSH2 0x4E9 JUMPI PUSH1 0x0 DUP1 REVERT JUMPDEST POP PUSH2 0x523 PUSH2 0x4F8 CALLDATASIZE PUSH1 0x4 PUSH2 0x3F6F JUMP JUMPDEST PUSH1 0x0 SWAP1 DUP2 MSTORE PUSH1 0xA0 PUSH1 0x20 SWAP1 DUP2 MSTORE PUSH1 0x40 DUP1 DUP4 KECCAK256 PUSH1 0x1 PUSH1 0x1 PUSH1 0xA0 SHL SUB SWAP5 SWAP1 SWAP5 AND DUP4 MSTORE PUSH1 0x8 SWAP1 SWAP4 ADD SWAP1 MSTORE KECCAK256 SLOAD SWAP1 JUMP JUMPDEST PUSH1 0x40 MLOAD SWAP1 DUP2 MSTORE PUSH1 0x20 ADD PUSH2 0x428 JUMP JUMPDEST PUSH2 0x4DB PUSH2 0x53F CALLDATASIZE PUSH1 0x4 PUSH2 0x3F99 JUMP JUMPDEST PUSH2 0xD48 JUMP JUMPDEST CALLVALUE DUP1 ISZERO PUSH2 0x550 JUMPI PUSH1 0x0 DUP1 REVERT JUMPDEST POP PUSH2 0x4DB PUSH2 0x55F CALLDATASIZE PUSH1 0x4 PUSH2 0x3FD6 JUMP JUMPDEST PUSH2 0xF1D JUMP JUMPDEST CALLVALUE DUP1 ISZERO PUSH2 0x570 JUMPI PUSH1 0x0 DUP1 REVERT JUMPDEST POP PUSH2 0x59F PUSH2 0x57F CALLDATASIZE PUSH1 0x4 PUSH2 0x3EA4 JUMP JUMPDEST PUSH1 0x0 SWAP1 DUP2 MSTORE PUSH1 0xA0 PUSH1 0x20 MSTORE PUSH1 0x40 SWAP1 KECCAK256 PUSH1 0x1 ADD SLOAD PUSH1 0x1 PUSH1 0xB0 SHL SWAP1 DIV PUSH2 0xFFFF AND SWAP1 JUMP JUMPDEST PUSH1 0x40 MLOAD PUSH2 0xFFFF SWAP1 SWAP2 AND DUP2 MSTORE PUSH1 0x20 ADD PUSH2 0x428 JUMP JUMPDEST CALLVALUE DUP1 ISZERO PUSH2 0x5BE JUMPI PUSH1 0x0 DUP1 REVERT JUMPDEST POP PUSH2 0x523 PUSH2 0xF56 JUMP JUMPDEST CALLVALUE DUP1 ISZERO PUSH2 0x5D3 JUMPI PUSH1 0x0 DUP1 REVERT JUMPDEST POP PUSH2 0x4DB PUSH2 0x5E2 CALLDATASIZE PUSH1 0x4 PUSH2 0x3FD6 JUMP JUMPDEST PUSH2 0xF6C JUMP JUMPDEST CALLVALUE DUP1 ISZERO PUSH2 0x5F3 JUMPI PUSH1 0x0 DUP1 REVERT JUMPDEST POP PUSH2 0x4DB PUSH2 0x602 CALLDATASIZE PUSH1 0x4 PUSH2 0x3FF1 JUMP JUMPDEST PUSH2 0xFA5 JUMP JUMPDEST CALLVALUE DUP1 ISZERO PUSH2 0x613 JUMPI PUSH1 0x0 DUP1 REVERT JUMPDEST POP PUSH2 0x4DB PUSH2 0x622 CALLDATASIZE PUSH1 0x4 PUSH2 0x3FD6 JUMP JUMPDEST PUSH2 0x101C JUMP JUMPDEST PUSH2 0x4DB PUSH2 0x635 CALLDATASIZE PUSH1 0x4 PUSH2 0x402D JUMP JUMPDEST PUSH2 0x10BB JUMP JUMPDEST CALLVALUE DUP1 ISZERO PUSH2 0x646 JUMPI PUSH1 0x0 DUP1 REVERT JUMPDEST POP PUSH2 0x4DB PUSH2 0x655 CALLDATASIZE PUSH1 0x4 PUSH2 0x3EA4 JUMP JUMPDEST PUSH2 0x141A JUMP JUMPDEST CALLVALUE DUP1 ISZERO PUSH2 0x666 JUMPI PUSH1 0x0 DUP1 REVERT JUMPDEST POP PUSH2 0x67E PUSH1 0x9A SLOAD PUSH1 0x9D SLOAD PUSH1 0x1 PUSH1 0x1 PUSH1 0xA0 SHL SUB SWAP1 SWAP2 AND SWAP2 JUMP JUMPDEST PUSH1 0x40 DUP1 MLOAD PUSH1 0x1 PUSH1 0x1 PUSH1 0xA0 SHL SUB SWAP1 SWAP4 AND DUP4 MSTORE PUSH1 0x20 DUP4 ADD SWAP2 SWAP1 SWAP2 MSTORE ADD PUSH2 0x428 JUMP JUMPDEST CALLVALUE DUP1 ISZERO PUSH2 0x6A9 JUMPI PUSH1 0x0 DUP1 REVERT JUMPDEST POP PUSH1 0x99 SLOAD PUSH1 0x1 PUSH1 0x1 PUSH1 0xA0 SHL SUB AND PUSH2 0x4A3 JUMP JUMPDEST PUSH2 0x4DB PUSH2 0x6C9 CALLDATASIZE PUSH1 0x4 PUSH2 0x3F6F JUMP JUMPDEST PUSH2 0x1436 JUMP JUMPDEST CALLVALUE DUP1 ISZERO PUSH2 0x6DA JUMPI PUSH1 0x0 DUP1 REVERT JUMPDEST POP PUSH2 0x59F PUSH2 0x6E9 CALLDATASIZE PUSH1 0x4 PUSH2 0x3EA4 JUMP JUMPDEST PUSH1 0x0 SWAP1 DUP2 MSTORE PUSH1 0xA0 PUSH1 0x20 MSTORE PUSH1 0x40 SWAP1 KECCAK256 PUSH1 0x1 ADD SLOAD PUSH1 0x1 PUSH1 0xA0 SHL SWAP1 DIV PUSH2 0xFFFF AND SWAP1 JUMP JUMPDEST CALLVALUE DUP1 ISZERO PUSH2 0x715 JUMPI PUSH1 0x0 DUP1 REVERT JUMPDEST POP PUSH2 0x4DB PUSH1 0x99 DUP1 SLOAD PUSH1 0x1 PUSH1 0x1 PUSH1 0xA0 SHL SUB NOT AND CALLER OR SWAP1 SSTORE JUMP JUMPDEST CALLVALUE DUP1 ISZERO PUSH2 0x739 JUMPI PUSH1 0x0 DUP1 REVERT JUMPDEST POP PUSH2 0x4DB PUSH2 0x748 CALLDATASIZE PUSH1 0x4 PUSH2 0x402D JUMP JUMPDEST PUSH2 0x1644 JUMP JUMPDEST PUSH2 0x4DB PUSH2 0x75B CALLDATASIZE PUSH1 0x4 PUSH2 0x40FB JUMP JUMPDEST PUSH2 0x16F8 JUMP JUMPDEST PUSH2 0x4DB PUSH2 0x76E CALLDATASIZE PUSH1 0x4 PUSH2 0x418D JUMP JUMPDEST PUSH2 0x18D9 JUMP JUMPDEST CALLVALUE DUP1 ISZERO PUSH2 0x77F JUMPI PUSH1 0x0 DUP1 REVERT JUMPDEST POP PUSH2 0x4DB PUSH2 0x78E CALLDATASIZE PUSH1 0x4 PUSH2 0x41E4 JUMP JUMPDEST PUSH2 0x1C3A JUMP JUMPDEST CALLVALUE DUP1 ISZERO PUSH2 0x79F JUMPI PUSH1 0x0 DUP1 REVERT JUMPDEST POP PUSH2 0x4A3 PUSH2 0x7AE CALLDATASIZE PUSH1 0x4 PUSH2 0x3EA4 JUMP JUMPDEST PUSH2 0x1E20 JUMP JUMPDEST CALLVALUE DUP1 ISZERO PUSH2 0x7BF JUMPI PUSH1 0x0 DUP1 REVERT JUMPDEST POP PUSH2 0x523 PUSH2 0x7CE CALLDATASIZE PUSH1 0x4 PUSH2 0x3FD6 JUMP JUMPDEST PUSH2 0x1E85 JUMP JUMPDEST PUSH2 0x4DB PUSH2 0x7E1 CALLDATASIZE PUSH1 0x4 PUSH2 0x424F JUMP JUMPDEST PUSH2 0x1F0B JUMP JUMPDEST CALLVALUE DUP1 ISZERO PUSH2 0x7F2 JUMPI PUSH1 0x0 DUP1 REVERT JUMPDEST POP PUSH2 0x4DB PUSH2 0x801 CALLDATASIZE PUSH1 0x4 PUSH2 0x42A4 JUMP JUMPDEST PUSH2 0x2252 JUMP JUMPDEST CALLVALUE DUP1 ISZERO PUSH2 0x812 JUMPI PUSH1 0x0 DUP1 REVERT JUMPDEST POP PUSH2 0x451 PUSH2 0x821 CALLDATASIZE PUSH1 0x4 PUSH2 0x42EB JUMP JUMPDEST PUSH2 0x22F0 JUMP JUMPDEST CALLVALUE DUP1 ISZERO PUSH2 0x832 JUMPI PUSH1 0x0 DUP1 REVERT JUMPDEST POP PUSH2 0x4DB PUSH2 0x841 CALLDATASIZE PUSH1 0x4 PUSH2 0x3F6F JUMP JUMPDEST PUSH2 0x2392 JUMP JUMPDEST CALLVALUE DUP1 ISZERO PUSH2 0x852 JUMPI PUSH1 0x0 DUP1 REVERT JUMPDEST POP PUSH2 0x87A PUSH2 0x861 CALLDATASIZE PUSH1 0x4 PUSH2 0x3EA4 JUMP JUMPDEST PUSH1 0xA1 PUSH1 0x20 MSTORE PUSH1 0x0 SWAP1 DUP2 MSTORE PUSH1 0x40 SWAP1 KECCAK256 DUP1 SLOAD PUSH1 0x1 SWAP1 SWAP2 ADD SLOAD DUP3 JUMP JUMPDEST PUSH1 0x40 DUP1 MLOAD SWAP3 DUP4 MSTORE PUSH1 0x20 DUP4 ADD SWAP2 SWAP1 SWAP2 MSTORE ADD PUSH2 0x428 JUMP JUMPDEST CALLVALUE DUP1 ISZERO PUSH2 0x89B JUMPI PUSH1 0x0 DUP1 REVERT JUMPDEST POP PUSH2 0x4DB PUSH2 0x8AA CALLDATASIZE PUSH1 0x4 PUSH2 0x402D JUMP JUMPDEST PUSH2 0x24F2 JUMP JUMPDEST CALLVALUE DUP1 ISZERO PUSH2 0x8BB JUMPI PUSH1 0x0 DUP1 REVERT JUMPDEST POP PUSH2 0x4DB PUSH2 0x8CA CALLDATASIZE PUSH1 0x4 PUSH2 0x3EA4 JUMP JUMPDEST PUSH2 0x258C JUMP JUMPDEST PUSH2 0x4DB PUSH2 0x8DD CALLDATASIZE PUSH1 0x4 PUSH2 0x402D JUMP JUMPDEST PUSH2 0x262F JUMP JUMPDEST CALLVALUE DUP1 ISZERO PUSH2 0x8EE JUMPI PUSH1 0x0 DUP1 REVERT JUMPDEST POP PUSH1 0x9B SLOAD PUSH1 0x1 PUSH1 0x1 PUSH1 0xA0 SHL SUB AND PUSH2 0x4A3 JUMP JUMPDEST CALLVALUE DUP1 ISZERO PUSH2 0x90C JUMPI PUSH1 0x0 DUP1 REVERT JUMPDEST POP PUSH2 0x476 PUSH2 0x273F JUMP JUMPDEST CALLVALUE DUP1 ISZERO PUSH2 0x921 JUMPI PUSH1 0x0 DUP1 REVERT JUMPDEST POP PUSH2 0x4DB PUSH2 0x930 CALLDATASIZE PUSH1 0x4 PUSH2 0x3FD6 JUMP JUMPDEST PUSH2 0x274E JUMP JUMPDEST PUSH2 0x4DB PUSH2 0x943 CALLDATASIZE PUSH1 0x4 PUSH2 0x402D JUMP JUMPDEST PUSH2 0x27B7 JUMP JUMPDEST CALLVALUE DUP1 ISZERO PUSH2 0x954 JUMPI PUSH1 0x0 DUP1 REVERT JUMPDEST POP PUSH2 0x523 PUSH2 0x963 CALLDATASIZE PUSH1 0x4 PUSH2 0x3FD6 JUMP JUMPDEST PUSH1 0x9F PUSH1 0x20 MSTORE PUSH1 0x0 SWAP1 DUP2 MSTORE PUSH1 0x40 SWAP1 KECCAK256 SLOAD DUP2 JUMP JUMPDEST CALLVALUE DUP1 ISZERO PUSH2 0x981 JUMPI PUSH1 0x0 DUP1 REVERT JUMPDEST POP PUSH2 0x4DB PUSH2 0x990 CALLDATASIZE PUSH1 0x4 PUSH2 0x432C JUMP JUMPDEST PUSH2 0x2991 JUMP JUMPDEST CALLVALUE DUP1 ISZERO PUSH2 0x9A1 JUMPI PUSH1 0x0 DUP1 REVERT JUMPDEST POP PUSH2 0x9B5 PUSH2 0x9B0 CALLDATASIZE PUSH1 0x4 PUSH2 0x42EB JUMP JUMPDEST PUSH2 0x299C JUMP JUMPDEST PUSH1 0x40 MLOAD PUSH2 0x428 SWAP3 SWAP2 SWAP1 PUSH2 0x4363 JUMP JUMPDEST PUSH2 0x4DB PUSH2 0x9D1 CALLDATASIZE PUSH1 0x4 PUSH2 0x4391 JUMP JUMPDEST PUSH2 0x2C7D JUMP JUMPDEST CALLVALUE DUP1 ISZERO PUSH2 0x9E2 JUMPI PUSH1 0x0 DUP1 REVERT JUMPDEST POP PUSH1 0x9B SLOAD PUSH2 0x4A3 SWAP1 PUSH1 0x1 PUSH1 0x1 PUSH1 0xA0 SHL SUB AND DUP2 JUMP JUMPDEST CALLVALUE DUP1 ISZERO PUSH2 0xA02 JUMPI PUSH1 0x0 DUP1 REVERT JUMPDEST POP PUSH1 0x9E SLOAD PUSH2 0x4A3 SWAP1 PUSH1 0x1 PUSH1 0x1 PUSH1 0xA0 SHL SUB AND DUP2 JUMP JUMPDEST CALLVALUE DUP1 ISZERO PUSH2 0xA22 JUMPI PUSH1 0x0 DUP1 REVERT JUMPDEST POP PUSH2 0x476 PUSH2 0xA31 CALLDATASIZE PUSH1 0x4 PUSH2 0x3EA4 JUMP JUMPDEST PUSH2 0x2DE9 JUMP JUMPDEST CALLVALUE DUP1 ISZERO PUSH2 0xA42 JUMPI PUSH1 0x0 DUP1 REVERT JUMPDEST POP PUSH1 0x9A SLOAD PUSH1 0x1 PUSH1 0x1 PUSH1 0xA0 SHL SUB AND PUSH2 0x4A3 JUMP JUMPDEST PUSH2 0x4DB PUSH2 0xA62 CALLDATASIZE PUSH1 0x4 PUSH2 0x43C6 JUMP JUMPDEST PUSH2 0x2DF4 JUMP JUMPDEST CALLVALUE DUP1 ISZERO PUSH2 0xA73 JUMPI PUSH1 0x0 DUP1 REVERT JUMPDEST POP PUSH2 0x451 PUSH2 0xA82 CALLDATASIZE PUSH1 0x4 PUSH2 0x3EA4 JUMP JUMPDEST PUSH2 0x311F JUMP JUMPDEST PUSH2 0x4DB PUSH2 0xA95 CALLDATASIZE PUSH1 0x4 PUSH2 0x4391 JUMP JUMPDEST PUSH2 0x3148 JUMP JUMPDEST CALLVALUE DUP1 ISZERO PUSH2 0xAA6 JUMPI PUSH1 0x0 DUP1 REVERT JUMPDEST POP PUSH2 0x451 PUSH2 0xAB5 CALLDATASIZE PUSH1 0x4 PUSH2 0x4401 JUMP JUMPDEST PUSH1 0x1 PUSH1 0x1 PUSH1 0xA0 SHL SUB SWAP2 DUP3 AND PUSH1 0x0 SWAP1 DUP2 MSTORE PUSH1 0x6B PUSH1 0x20 SWAP1 DUP2 MSTORE PUSH1 0x40 DUP1 DUP4 KECCAK256 SWAP4 SWAP1 SWAP5 AND DUP3 MSTORE SWAP2 SWAP1 SWAP2 MSTORE KECCAK256 SLOAD PUSH1 0xFF AND SWAP1 JUMP JUMPDEST PUSH2 0x4DB PUSH2 0xAF1 CALLDATASIZE PUSH1 0x4 PUSH2 0x4391 JUMP JUMPDEST PUSH2 0x335F JUMP JUMPDEST CALLVALUE DUP1 ISZERO PUSH2 0xB02 JUMPI PUSH1 0x0 DUP1 REVERT JUMPDEST POP PUSH2 0x4DB PUSH2 0xB11 CALLDATASIZE PUSH1 0x4 PUSH2 0x3FD6 JUMP JUMPDEST PUSH2 0x3534 JUMP JUMPDEST CALLVALUE DUP1 ISZERO PUSH2 0xB22 JUMPI PUSH1 0x0 DUP1 REVERT JUMPDEST POP PUSH2 0x4DB PUSH2 0xB31 CALLDATASIZE PUSH1 0x4 PUSH2 0x4444 JUMP JUMPDEST PUSH2 0x356D JUMP JUMPDEST CALLVALUE DUP1 ISZERO PUSH2 0xB42 JUMPI PUSH1 0x0 DUP1 REVERT JUMPDEST POP PUSH2 0x4DB PUSH2 0xB51 CALLDATASIZE PUSH1 0x4 PUSH2 0x402D JUMP JUMPDEST PUSH2 0x361D JUMP JUMPDEST PUSH1 0x0 PUSH2 0xB61 DUP3 PUSH2 0x36D1 JUMP JUMPDEST SWAP3 SWAP2 POP POP JUMP JUMPDEST PUSH1 0x60 PUSH1 0x65 DUP1 SLOAD PUSH2 0xB76 SWAP1 PUSH2 0x4469 JUMP JUMPDEST DUP1 PUSH1 0x1F ADD PUSH1 0x20 DUP1 SWAP2 DIV MUL PUSH1 0x20 ADD PUSH1 0x40 MLOAD SWAP1 DUP2 ADD PUSH1 0x40 MSTORE DUP1 SWAP3 SWAP2 SWAP1 DUP2 DUP2 MSTORE PUSH1 0x20 ADD DUP3 DUP1 SLOAD PUSH2 0xBA2 SWAP1 PUSH2 0x4469 JUMP JUMPDEST DUP1 ISZERO PUSH2 0xBEF JUMPI DUP1 PUSH1 0x1F LT PUSH2 0xBC4 JUMPI PUSH2 0x100 DUP1 DUP4 SLOAD DIV MUL DUP4 MSTORE SWAP2 PUSH1 0x20 ADD SWAP2 PUSH2 0xBEF JUMP JUMPDEST DUP3 ADD SWAP2 SWAP1 PUSH1 0x0 MSTORE PUSH1 0x20 PUSH1 0x0 KECCAK256 SWAP1 JUMPDEST DUP2 SLOAD DUP2 MSTORE SWAP1 PUSH1 0x1 ADD SWAP1 PUSH1 0x20 ADD DUP1 DUP4 GT PUSH2 0xBD2 JUMPI DUP3 SWAP1 SUB PUSH1 0x1F AND DUP3 ADD SWAP2 JUMPDEST POP POP POP POP POP SWAP1 POP SWAP1 JUMP JUMPDEST PUSH1 0x0 PUSH2 0xC04 DUP3 PUSH2 0x3721 JUMP JUMPDEST ISZERO ISZERO PUSH1 0x1 EQ PUSH2 0xC12 JUMPI PUSH1 0x0 DUP1 REVERT JUMPDEST POP PUSH1 0x0 SWAP1 DUP2 MSTORE PUSH1 0x6A PUSH1 0x20 MSTORE PUSH1 0x40 SWAP1 KECCAK256 SLOAD PUSH1 0x1 PUSH1 0x1 PUSH1 0xA0 SHL SUB AND SWAP1 JUMP JUMPDEST PUSH1 0x0 PUSH2 0xC39 DUP3 PUSH2 0x1E20 JUMP JUMPDEST SWAP1 POP DUP1 PUSH1 0x1 PUSH1 0x1 PUSH1 0xA0 SHL SUB AND DUP4 PUSH1 0x1 PUSH1 0x1 PUSH1 0xA0 SHL SUB AND SUB PUSH2 0xCAB JUMPI PUSH1 0x40 MLOAD PUSH3 0x461BCD PUSH1 0xE5 SHL DUP2 MSTORE PUSH1 0x20 PUSH1 0x4 DUP3 ADD MSTORE PUSH1 0x21 PUSH1 0x24 DUP3 ADD MSTORE PUSH32 0x4552433732313A20617070726F76616C20746F2063757272656E74206F776E65 PUSH1 0x44 DUP3 ADD MSTORE PUSH1 0x39 PUSH1 0xF9 SHL PUSH1 0x64 DUP3 ADD MSTORE PUSH1 0x84 ADD JUMPDEST PUSH1 0x40 MLOAD DUP1 SWAP2 SUB SWAP1 REVERT JUMPDEST CALLER PUSH1 0x1 PUSH1 0x1 PUSH1 0xA0 SHL SUB DUP3 AND EQ DUP1 PUSH2 0xCC7 JUMPI POP PUSH2 0xCC7 DUP2 CALLER PUSH2 0xAB5 JUMP JUMPDEST PUSH2 0xD39 JUMPI PUSH1 0x40 MLOAD PUSH3 0x461BCD PUSH1 0xE5 SHL DUP2 MSTORE PUSH1 0x20 PUSH1 0x4 DUP3 ADD MSTORE PUSH1 0x3D PUSH1 0x24 DUP3 ADD MSTORE PUSH32 0x4552433732313A20617070726F76652063616C6C6572206973206E6F7420746F PUSH1 0x44 DUP3 ADD MSTORE PUSH32 0x6B656E206F776E6572206F7220617070726F76656420666F7220616C6C000000 PUSH1 0x64 DUP3 ADD MSTORE PUSH1 0x84 ADD PUSH2 0xCA2 JUMP JUMPDEST PUSH2 0xD43 DUP4 DUP4 PUSH2 0x373E JUMP JUMPDEST POP POP POP JUMP JUMPDEST PUSH1 0x0 DUP1 JUMPDEST PUSH1 0x98 SLOAD DUP2 LT ISZERO PUSH2 0xDA2 JUMPI PUSH1 0x0 PUSH1 0x98 DUP3 DUP2 SLOAD DUP2 LT PUSH2 0xD6B JUMPI PUSH2 0xD6B PUSH2 0x44A3 JUMP JUMPDEST PUSH1 0x0 SWAP2 DUP3 MSTORE PUSH1 0x20 SWAP1 SWAP2 KECCAK256 ADD SLOAD PUSH1 0x1 PUSH1 0x1 PUSH1 0xA0 SHL SUB AND SWAP1 POP CALLER DUP2 SWAP1 SUB PUSH2 0xD8F JUMPI PUSH1 0x1 SWAP3 POP JUMPDEST POP DUP1 PUSH2 0xD9A DUP2 PUSH2 0x44CF JUMP JUMPDEST SWAP2 POP POP PUSH2 0xD4C JUMP JUMPDEST POP PUSH1 0x1 DUP2 ISZERO ISZERO EQ PUSH2 0xDC5 JUMPI PUSH1 0x40 MLOAD PUSH3 0x461BCD PUSH1 0xE5 SHL DUP2 MSTORE PUSH1 0x4 ADD PUSH2 0xCA2 SWAP1 PUSH2 0x44E8 JUMP JUMPDEST PUSH1 0x0 DUP6 DUP2 MSTORE PUSH1 0xA0 PUSH1 0x20 SWAP1 DUP2 MSTORE PUSH1 0x40 DUP1 DUP4 KECCAK256 PUSH1 0x1 PUSH1 0x1 PUSH1 0xA0 SHL SUB DUP8 AND DUP5 MSTORE PUSH1 0x8 ADD SWAP1 SWAP2 MSTORE SWAP1 KECCAK256 SLOAD DUP3 GT ISZERO PUSH2 0xE0A JUMPI PUSH1 0x40 MLOAD PUSH3 0x461BCD PUSH1 0xE5 SHL DUP2 MSTORE PUSH1 0x4 ADD PUSH2 0xCA2 SWAP1 PUSH2 0x4517 JUMP JUMPDEST PUSH2 0xE13 DUP6 PUSH2 0x3721 JUMP JUMPDEST ISZERO ISZERO PUSH1 0x1 EQ DUP1 ISZERO PUSH2 0xE2E JUMPI POP PUSH2 0xE28 DUP5 PUSH2 0x3721 JUMP JUMPDEST ISZERO ISZERO PUSH1 0x1 EQ JUMPDEST PUSH2 0xE37 JUMPI PUSH1 0x0 DUP1 REVERT JUMPDEST PUSH1 0x0 DUP1 MSTORE PUSH1 0x9F PUSH1 0x20 MSTORE PUSH1 0x0 DUP1 MLOAD PUSH1 0x20 PUSH2 0x4875 DUP4 CODECOPY DUP2 MLOAD SWAP2 MSTORE SLOAD PUSH2 0xE5B SWAP1 CALLVALUE SWAP1 PUSH2 0x4537 JUMP JUMPDEST PUSH1 0x0 DUP1 MLOAD PUSH1 0x20 PUSH2 0x4875 DUP4 CODECOPY DUP2 MLOAD SWAP2 MSTORE SSTORE PUSH1 0x0 DUP6 DUP2 MSTORE PUSH1 0xA0 PUSH1 0x20 SWAP1 DUP2 MSTORE PUSH1 0x40 DUP1 DUP4 KECCAK256 PUSH1 0x1 PUSH1 0x1 PUSH1 0xA0 SHL SUB DUP8 AND DUP5 MSTORE PUSH1 0x8 ADD SWAP1 SWAP2 MSTORE SWAP1 KECCAK256 SLOAD PUSH2 0xE9C SWAP1 DUP4 SWAP1 PUSH2 0x454A JUMP JUMPDEST PUSH1 0x0 DUP7 DUP2 MSTORE PUSH1 0xA0 PUSH1 0x20 DUP2 DUP2 MSTORE PUSH1 0x40 DUP1 DUP5 KECCAK256 PUSH1 0x1 PUSH1 0x1 PUSH1 0xA0 SHL SUB DUP10 AND DUP1 DUP7 MSTORE PUSH1 0x8 SWAP2 DUP3 ADD DUP5 MSTORE DUP3 DUP7 KECCAK256 SWAP7 SWAP1 SWAP7 SSTORE DUP10 DUP6 MSTORE SWAP3 DUP3 MSTORE DUP1 DUP5 KECCAK256 SWAP5 DUP5 MSTORE SWAP4 SWAP1 SWAP2 ADD SWAP1 MSTORE KECCAK256 SLOAD PUSH2 0xEE7 SWAP1 DUP4 SWAP1 PUSH2 0x4537 JUMP JUMPDEST PUSH1 0x0 DUP6 DUP2 MSTORE PUSH1 0xA0 PUSH1 0x20 SWAP1 DUP2 MSTORE PUSH1 0x40 DUP1 DUP4 KECCAK256 PUSH1 0x1 PUSH1 0x1 PUSH1 0xA0 SHL SUB DUP9 AND DUP5 MSTORE PUSH1 0x8 ADD SWAP1 SWAP2 MSTORE SWAP1 KECCAK256 SSTORE PUSH2 0xF16 DUP6 PUSH2 0x258C JUMP JUMPDEST POP POP POP POP POP JUMP JUMPDEST PUSH1 0x9B SLOAD PUSH1 0x1 PUSH1 0x1 PUSH1 0xA0 SHL SUB AND CALLER EQ PUSH2 0xF34 JUMPI PUSH1 0x0 DUP1 REVERT JUMPDEST PUSH1 0x9A DUP1 SLOAD PUSH1 0x1 PUSH1 0x1 PUSH1 0xA0 SHL SUB NOT AND PUSH1 0x1 PUSH1 0x1 PUSH1 0xA0 SHL SUB SWAP3 SWAP1 SWAP3 AND SWAP2 SWAP1 SWAP2 OR SWAP1 SSTORE JUMP JUMPDEST PUSH1 0x0 PUSH1 0x9D SLOAD PUSH1 0x5 PUSH2 0xF67 SWAP2 SWAP1 PUSH2 0x455D JUMP JUMPDEST SWAP1 POP SWAP1 JUMP JUMPDEST PUSH1 0x9B SLOAD PUSH1 0x1 PUSH1 0x1 PUSH1 0xA0 SHL SUB AND CALLER EQ PUSH2 0xF83 JUMPI PUSH1 0x0 DUP1 REVERT JUMPDEST PUSH1 0x9E DUP1 SLOAD PUSH1 0x1 PUSH1 0x1 PUSH1 0xA0 SHL SUB NOT AND PUSH1 0x1 PUSH1 0x1 PUSH1 0xA0 SHL SUB SWAP3 SWAP1 SWAP3 AND SWAP2 SWAP1 SWAP2 OR SWAP1 SSTORE JUMP JUMPDEST PUSH2 0xFAF CALLER DUP3 PUSH2 0x37AC JUMP JUMPDEST PUSH2 0x1011 JUMPI PUSH1 0x40 MLOAD PUSH3 0x461BCD PUSH1 0xE5 SHL DUP2 MSTORE PUSH1 0x20 PUSH1 0x4 DUP3 ADD MSTORE PUSH1 0x2D PUSH1 0x24 DUP3 ADD MSTORE PUSH32 0x4552433732313A2063616C6C6572206973206E6F7420746F6B656E206F776E65 PUSH1 0x44 DUP3 ADD MSTORE PUSH13 0x1C881BDC88185C1C1C9BDD9959 PUSH1 0x9A SHL PUSH1 0x64 DUP3 ADD MSTORE PUSH1 0x84 ADD PUSH2 0xCA2 JUMP JUMPDEST PUSH2 0xD43 DUP4 DUP4 DUP4 PUSH2 0x382B JUMP JUMPDEST PUSH1 0x9B SLOAD PUSH1 0x1 PUSH1 0x1 PUSH1 0xA0 SHL SUB AND CALLER EQ PUSH2 0x1033 JUMPI PUSH1 0x0 DUP1 REVERT JUMPDEST PUSH1 0x0 JUMPDEST PUSH1 0x98 SLOAD DUP2 LT ISZERO PUSH2 0x10B7 JUMPI PUSH1 0x0 PUSH1 0x98 DUP3 DUP2 SLOAD DUP2 LT PUSH2 0x1055 JUMPI PUSH2 0x1055 PUSH2 0x44A3 JUMP JUMPDEST PUSH1 0x0 SWAP2 DUP3 MSTORE PUSH1 0x20 SWAP1 SWAP2 KECCAK256 ADD SLOAD PUSH1 0x1 PUSH1 0x1 PUSH1 0xA0 SHL SUB SWAP1 DUP2 AND SWAP2 POP DUP4 AND DUP2 SWAP1 SUB PUSH2 0x10A4 JUMPI PUSH1 0x98 DUP3 DUP2 SLOAD DUP2 LT PUSH2 0x108A JUMPI PUSH2 0x108A PUSH2 0x44A3 JUMP JUMPDEST PUSH1 0x0 SWAP2 DUP3 MSTORE PUSH1 0x20 SWAP1 SWAP2 KECCAK256 ADD DUP1 SLOAD PUSH1 0x1 PUSH1 0x1 PUSH1 0xA0 SHL SUB NOT AND SWAP1 SSTORE JUMPDEST POP DUP1 PUSH2 0x10AF DUP2 PUSH2 0x44CF JUMP JUMPDEST SWAP2 POP POP PUSH2 0x1036 JUMP JUMPDEST POP POP JUMP JUMPDEST PUSH1 0x0 DUP3 DUP2 MSTORE PUSH1 0xA0 PUSH1 0x20 MSTORE PUSH1 0x40 SWAP1 KECCAK256 PUSH1 0x1 DUP2 ADD SLOAD PUSH1 0x1 PUSH1 0x1 PUSH1 0xA0 SHL SUB AND CALLER EQ DUP1 PUSH2 0x10ED JUMPI POP DUP1 SLOAD PUSH1 0x1 PUSH1 0x1 PUSH1 0xA0 SHL SUB AND CALLER EQ JUMPDEST PUSH2 0x1109 JUMPI PUSH1 0x40 MLOAD PUSH3 0x461BCD PUSH1 0xE5 SHL DUP2 MSTORE PUSH1 0x4 ADD PUSH2 0xCA2 SWAP1 PUSH2 0x4574 JUMP JUMPDEST PUSH1 0x0 DUP3 DUP2 MSTORE PUSH1 0x9 DUP3 ADD PUSH1 0x20 MSTORE PUSH1 0x40 SWAP1 KECCAK256 PUSH1 0x2 ADD SLOAD PUSH1 0x1 PUSH1 0x1 PUSH1 0xA0 SHL SUB AND CALLER EQ PUSH2 0x1168 JUMPI PUSH1 0x40 MLOAD PUSH3 0x461BCD PUSH1 0xE5 SHL DUP2 MSTORE PUSH1 0x20 PUSH1 0x4 DUP3 ADD MSTORE PUSH1 0x11 PUSH1 0x24 DUP3 ADD MSTORE PUSH17 0x1B9BC81858D8D95CDCC81D1BC81CDB1BDD PUSH1 0x7A SHL PUSH1 0x44 DUP3 ADD MSTORE PUSH1 0x64 ADD PUSH2 0xCA2 JUMP JUMPDEST PUSH1 0x9D SLOAD PUSH2 0x1176 SWAP1 PUSH1 0x5 PUSH2 0x455D JUMP JUMPDEST PUSH1 0x9A SLOAD PUSH1 0x1 PUSH1 0x1 PUSH1 0xA0 SHL SUB AND PUSH1 0x0 SWAP1 DUP2 MSTORE PUSH1 0x8 DUP4 ADD PUSH1 0x20 MSTORE PUSH1 0x40 SWAP1 KECCAK256 SLOAD LT ISZERO DUP1 PUSH2 0x1218 JUMPI POP PUSH1 0x9D SLOAD PUSH2 0x11A9 SWAP1 PUSH1 0x5 PUSH2 0x455D JUMP JUMPDEST PUSH1 0x9A SLOAD PUSH1 0x40 MLOAD PUSH4 0x70A08231 PUSH1 0xE0 SHL DUP2 MSTORE CALLER PUSH1 0x4 DUP3 ADD MSTORE PUSH1 0x1 PUSH1 0x1 PUSH1 0xA0 SHL SUB SWAP1 SWAP2 AND SWAP1 PUSH4 0x70A08231 SWAP1 PUSH1 0x24 ADD PUSH1 0x20 PUSH1 0x40 MLOAD DUP1 DUP4 SUB DUP2 DUP7 GAS STATICCALL ISZERO DUP1 ISZERO PUSH2 0x11F1 JUMPI RETURNDATASIZE PUSH1 0x0 DUP1 RETURNDATACOPY RETURNDATASIZE PUSH1 0x0 REVERT JUMPDEST POP POP POP POP PUSH1 0x40 MLOAD RETURNDATASIZE PUSH1 0x1F NOT PUSH1 0x1F DUP3 ADD AND DUP3 ADD DUP1 PUSH1 0x40 MSTORE POP DUP2 ADD SWAP1 PUSH2 0x1215 SWAP2 SWAP1 PUSH2 0x459E JUMP JUMPDEST LT ISZERO JUMPDEST PUSH2 0x124F JUMPI PUSH1 0x40 MLOAD PUSH3 0x461BCD PUSH1 0xE5 SHL DUP2 MSTORE PUSH1 0x20 PUSH1 0x4 DUP3 ADD MSTORE PUSH1 0x8 PUSH1 0x24 DUP3 ADD MSTORE PUSH8 0x6E65656420666565 PUSH1 0xC0 SHL PUSH1 0x44 DUP3 ADD MSTORE PUSH1 0x64 ADD PUSH2 0xCA2 JUMP JUMPDEST PUSH1 0x1 DUP2 ADD SLOAD PUSH1 0x1 PUSH1 0x1 PUSH1 0xA0 SHL SUB AND CALLER SUB PUSH2 0x1308 JUMPI PUSH1 0x9D SLOAD PUSH2 0x1271 SWAP1 PUSH1 0x5 PUSH2 0x455D JUMP JUMPDEST PUSH1 0x9A SLOAD PUSH1 0x1 PUSH1 0x1 PUSH1 0xA0 SHL SUB AND PUSH1 0x0 SWAP1 DUP2 MSTORE PUSH1 0x8 DUP4 ADD PUSH1 0x20 MSTORE PUSH1 0x40 SWAP1 KECCAK256 SLOAD PUSH2 0x1298 SWAP2 SWAP1 PUSH2 0x454A JUMP JUMPDEST PUSH1 0x9A SLOAD PUSH1 0x1 PUSH1 0x1 PUSH1 0xA0 SHL SUB AND PUSH1 0x0 SWAP1 DUP2 MSTORE PUSH1 0x8 DUP4 ADD PUSH1 0x20 MSTORE PUSH1 0x40 SWAP1 KECCAK256 SSTORE PUSH1 0x9D SLOAD PUSH2 0x12C3 SWAP1 PUSH1 0x5 PUSH2 0x455D JUMP JUMPDEST PUSH1 0x9A SLOAD PUSH1 0x1 PUSH1 0x1 PUSH1 0xA0 SHL SUB AND PUSH1 0x0 SWAP1 DUP2 MSTORE PUSH1 0x9F PUSH1 0x20 MSTORE PUSH1 0x40 SWAP1 KECCAK256 SLOAD PUSH2 0x12E8 SWAP2 SWAP1 PUSH2 0x4537 JUMP JUMPDEST PUSH1 0x9A SLOAD PUSH1 0x1 PUSH1 0x1 PUSH1 0xA0 SHL SUB AND PUSH1 0x0 SWAP1 DUP2 MSTORE PUSH1 0x9F PUSH1 0x20 MSTORE PUSH1 0x40 SWAP1 KECCAK256 SSTORE PUSH2 0x13F7 JUMP JUMPDEST PUSH1 0x9A SLOAD PUSH1 0x9D SLOAD PUSH1 0x1 PUSH1 0x1 PUSH1 0xA0 SHL SUB SWAP1 SWAP2 AND SWAP1 PUSH4 0x23B872DD SWAP1 CALLER SWAP1 ADDRESS SWAP1 PUSH2 0x132F SWAP1 PUSH1 0x5 PUSH2 0x455D JUMP JUMPDEST PUSH1 0x40 MLOAD PUSH1 0x1 PUSH1 0x1 PUSH1 0xE0 SHL SUB NOT PUSH1 0xE0 DUP7 SWAP1 SHL AND DUP2 MSTORE PUSH1 0x1 PUSH1 0x1 PUSH1 0xA0 SHL SUB SWAP4 DUP5 AND PUSH1 0x4 DUP3 ADD MSTORE SWAP3 SWAP1 SWAP2 AND PUSH1 0x24 DUP4 ADD MSTORE PUSH1 0x44 DUP3 ADD MSTORE PUSH1 0x64 ADD PUSH1 0x20 PUSH1 0x40 MLOAD DUP1 DUP4 SUB DUP2 PUSH1 0x0 DUP8 GAS CALL ISZERO DUP1 ISZERO PUSH2 0x1383 JUMPI RETURNDATASIZE PUSH1 0x0 DUP1 RETURNDATACOPY RETURNDATASIZE PUSH1 0x0 REVERT JUMPDEST POP POP POP POP PUSH1 0x40 MLOAD RETURNDATASIZE PUSH1 0x1F NOT PUSH1 0x1F DUP3 ADD AND DUP3 ADD DUP1 PUSH1 0x40 MSTORE POP DUP2 ADD SWAP1 PUSH2 0x13A7 SWAP2 SWAP1 PUSH2 0x45B7 JUMP JUMPDEST POP PUSH1 0x9D SLOAD PUSH2 0x13B6 SWAP1 PUSH1 0x5 PUSH2 0x455D JUMP JUMPDEST PUSH1 0x9A SLOAD PUSH1 0x1 PUSH1 0x1 PUSH1 0xA0 SHL SUB AND PUSH1 0x0 SWAP1 DUP2 MSTORE PUSH1 0x9F PUSH1 0x20 MSTORE PUSH1 0x40 SWAP1 KECCAK256 SLOAD PUSH2 0x13DB SWAP2 SWAP1 PUSH2 0x4537 JUMP JUMPDEST PUSH1 0x9A SLOAD PUSH1 0x1 PUSH1 0x1 PUSH1 0xA0 SHL SUB AND PUSH1 0x0 SWAP1 DUP2 MSTORE PUSH1 0x9F PUSH1 0x20 MSTORE PUSH1 0x40 SWAP1 KECCAK256 SSTORE JUMPDEST PUSH2 0x1400 DUP4 PUSH2 0x258C JUMP JUMPDEST PUSH1 0x0 SWAP2 DUP3 MSTORE PUSH1 0x9 ADD PUSH1 0x20 MSTORE PUSH1 0x40 SWAP1 KECCAK256 DUP1 SLOAD PUSH1 0xFF NOT AND SWAP1 SSTORE POP JUMP JUMPDEST PUSH1 0x9B SLOAD PUSH1 0x1 PUSH1 0x1 PUSH1 0xA0 SHL SUB AND CALLER EQ PUSH2 0x1431 JUMPI PUSH1 0x0 DUP1 REVERT JUMPDEST PUSH1 0x9D SSTORE JUMP JUMPDEST PUSH1 0x0 DUP1 JUMPDEST PUSH1 0x98 SLOAD DUP2 LT ISZERO PUSH2 0x1490 JUMPI PUSH1 0x0 PUSH1 0x98 DUP3 DUP2 SLOAD DUP2 LT PUSH2 0x1459 JUMPI PUSH2 0x1459 PUSH2 0x44A3 JUMP JUMPDEST PUSH1 0x0 SWAP2 DUP3 MSTORE PUSH1 0x20 SWAP1 SWAP2 KECCAK256 ADD SLOAD PUSH1 0x1 PUSH1 0x1 PUSH1 0xA0 SHL SUB AND SWAP1 POP CALLER DUP2 SWAP1 SUB PUSH2 0x147D JUMPI PUSH1 0x1 SWAP3 POP JUMPDEST POP DUP1 PUSH2 0x1488 DUP2 PUSH2 0x44CF JUMP JUMPDEST SWAP2 POP POP PUSH2 0x143A JUMP JUMPDEST POP PUSH1 0x1 DUP2 ISZERO ISZERO EQ PUSH2 0x14B3 JUMPI PUSH1 0x40 MLOAD PUSH3 0x461BCD PUSH1 0xE5 SHL DUP2 MSTORE PUSH1 0x4 ADD PUSH2 0xCA2 SWAP1 PUSH2 0x44E8 JUMP JUMPDEST PUSH2 0x14BC DUP3 PUSH2 0x3721 JUMP JUMPDEST ISZERO PUSH2 0x14FA JUMPI PUSH1 0x40 MLOAD PUSH3 0x461BCD PUSH1 0xE5 SHL DUP2 MSTORE PUSH1 0x20 PUSH1 0x4 DUP3 ADD MSTORE PUSH1 0xE PUSH1 0x24 DUP3 ADD MSTORE PUSH14 0x185B1C9958591E481B5A5B9D1959 PUSH1 0x92 SHL PUSH1 0x44 DUP3 ADD MSTORE PUSH1 0x64 ADD PUSH2 0xCA2 JUMP JUMPDEST PUSH1 0x0 DUP1 MSTORE PUSH1 0x9F PUSH1 0x20 MSTORE PUSH1 0x0 DUP1 MLOAD PUSH1 0x20 PUSH2 0x4875 DUP4 CODECOPY DUP2 MLOAD SWAP2 MSTORE SLOAD PUSH2 0x151E SWAP1 CALLVALUE SWAP1 PUSH2 0x4537 JUMP JUMPDEST PUSH1 0x0 DUP1 MLOAD PUSH1 0x20 PUSH2 0x4875 DUP4 CODECOPY DUP2 MLOAD SWAP2 MSTORE SSTORE PUSH1 0x0 DUP3 DUP2 MSTORE PUSH1 0xA0 PUSH1 0x20 SWAP1 DUP2 MSTORE PUSH1 0x40 DUP1 DUP4 KECCAK256 PUSH1 0x9E SLOAD DUP3 MLOAD PUSH4 0x3408E47 PUSH1 0xE4 SHL DUP2 MSTORE SWAP3 MLOAD SWAP2 SWAP5 SWAP4 PUSH1 0x1 PUSH1 0x1 PUSH1 0xA0 SHL SUB SWAP1 SWAP2 AND SWAP3 PUSH4 0x3408E470 SWAP3 PUSH1 0x4 DUP1 DUP4 ADD SWAP4 SWAP3 DUP3 SWAP1 SUB ADD DUP2 DUP7 GAS STATICCALL ISZERO DUP1 ISZERO PUSH2 0x1585 JUMPI RETURNDATASIZE PUSH1 0x0 DUP1 RETURNDATACOPY RETURNDATASIZE PUSH1 0x0 REVERT JUMPDEST POP POP POP POP PUSH1 0x40 MLOAD RETURNDATASIZE PUSH1 0x1F NOT PUSH1 0x1F DUP3 ADD AND DUP3 ADD DUP1 PUSH1 0x40 MSTORE POP DUP2 ADD SWAP1 PUSH2 0x15A9 SWAP2 SWAP1 PUSH2 0x45D4 JUMP JUMPDEST SWAP1 POP PUSH2 0x15B5 DUP6 DUP6 PUSH2 0x399C JUMP JUMPDEST PUSH1 0x1 DUP3 ADD DUP1 SLOAD PUSH1 0x1 PUSH1 0x1 PUSH1 0xA0 SHL SUB DUP8 AND PUSH1 0x1 PUSH1 0x1 PUSH1 0xA0 SHL SUB NOT SWAP2 DUP3 AND DUP2 OR SWAP1 SWAP3 SSTORE DUP4 SLOAD AND OR DUP3 SSTORE TIMESTAMP PUSH1 0x2 DUP4 ADD DUP2 SWAP1 SSTORE PUSH2 0x15F2 SWAP1 PUSH4 0x1E13380 PUSH2 0x4537 JUMP JUMPDEST PUSH1 0x4 DUP4 ADD SSTORE PUSH2 0x1600 DUP5 PUSH2 0x258C JUMP JUMPDEST PUSH2 0x3E8 PUSH1 0x6 DUP4 ADD SSTORE PUSH1 0x1 SWAP1 SWAP2 ADD DUP1 SLOAD PUSH4 0xFFFFFFFF PUSH1 0xA0 SHL NOT AND PUSH1 0x1 PUSH1 0xA0 SHL PUSH2 0xFFFF SWAP1 SWAP4 AND SWAP3 DUP4 MUL PUSH2 0xFFFF PUSH1 0xB0 SHL NOT AND OR PUSH1 0x1 PUSH1 0xB0 SHL SWAP3 SWAP1 SWAP3 MUL SWAP2 SWAP1 SWAP2 OR SWAP1 SSTORE POP POP POP JUMP JUMPDEST PUSH1 0x0 DUP1 JUMPDEST PUSH1 0x98 SLOAD DUP2 LT ISZERO PUSH2 0x169E JUMPI PUSH1 0x0 PUSH1 0x98 DUP3 DUP2 SLOAD DUP2 LT PUSH2 0x1667 JUMPI PUSH2 0x1667 PUSH2 0x44A3 JUMP JUMPDEST PUSH1 0x0 SWAP2 DUP3 MSTORE PUSH1 0x20 SWAP1 SWAP2 KECCAK256 ADD SLOAD PUSH1 0x1 PUSH1 0x1 PUSH1 0xA0 SHL SUB AND SWAP1 POP CALLER DUP2 SWAP1 SUB PUSH2 0x168B JUMPI PUSH1 0x1 SWAP3 POP JUMPDEST POP DUP1 PUSH2 0x1696 DUP2 PUSH2 0x44CF JUMP JUMPDEST SWAP2 POP POP PUSH2 0x1648 JUMP JUMPDEST POP PUSH1 0x1 DUP2 ISZERO ISZERO EQ PUSH2 0x16C1 JUMPI PUSH1 0x40 MLOAD PUSH3 0x461BCD PUSH1 0xE5 SHL DUP2 MSTORE PUSH1 0x4 ADD PUSH2 0xCA2 SWAP1 PUSH2 0x44E8 JUMP JUMPDEST PUSH1 0x0 DUP4 DUP2 MSTORE PUSH1 0xA0 PUSH1 0x20 MSTORE PUSH1 0x40 SWAP1 KECCAK256 PUSH1 0x7 ADD SLOAD PUSH2 0x16DE SWAP1 DUP4 SWAP1 PUSH2 0x454A JUMP JUMPDEST PUSH1 0x0 SWAP4 DUP5 MSTORE PUSH1 0xA0 PUSH1 0x20 MSTORE PUSH1 0x40 SWAP1 SWAP4 KECCAK256 PUSH1 0x7 ADD SWAP3 SWAP1 SWAP3 SSTORE POP POP JUMP JUMPDEST PUSH1 0x0 DUP1 JUMPDEST PUSH1 0x98 SLOAD DUP2 LT ISZERO PUSH2 0x1752 JUMPI PUSH1 0x0 PUSH1 0x98 DUP3 DUP2 SLOAD DUP2 LT PUSH2 0x171B JUMPI PUSH2 0x171B PUSH2 0x44A3 JUMP JUMPDEST PUSH1 0x0 SWAP2 DUP3 MSTORE PUSH1 0x20 SWAP1 SWAP2 KECCAK256 ADD SLOAD PUSH1 0x1 PUSH1 0x1 PUSH1 0xA0 SHL SUB AND SWAP1 POP CALLER DUP2 SWAP1 SUB PUSH2 0x173F JUMPI PUSH1 0x1 SWAP3 POP JUMPDEST POP DUP1 PUSH2 0x174A DUP2 PUSH2 0x44CF JUMP JUMPDEST SWAP2 POP POP PUSH2 0x16FC JUMP JUMPDEST POP PUSH1 0x1 DUP2 ISZERO ISZERO EQ PUSH2 0x1775 JUMPI PUSH1 0x40 MLOAD PUSH3 0x461BCD PUSH1 0xE5 SHL DUP2 MSTORE PUSH1 0x4 ADD PUSH2 0xCA2 SWAP1 PUSH2 0x44E8 JUMP JUMPDEST PUSH1 0x0 DUP5 DUP2 MSTORE PUSH1 0xA0 PUSH1 0x20 SWAP1 DUP2 MSTORE PUSH1 0x40 DUP3 KECCAK256 PUSH1 0x5 DUP2 ADD SLOAD SWAP3 DUP1 MSTORE PUSH1 0x9F SWAP1 SWAP2 MSTORE PUSH1 0x0 DUP1 MLOAD PUSH1 0x20 PUSH2 0x4875 DUP4 CODECOPY DUP2 MLOAD SWAP2 MSTORE SLOAD SWAP1 SWAP2 SWAP1 PUSH2 0x17B0 SWAP1 CALLVALUE SWAP1 PUSH2 0x4537 JUMP JUMPDEST PUSH1 0x0 DUP1 MLOAD PUSH1 0x20 PUSH2 0x4875 DUP4 CODECOPY DUP2 MLOAD SWAP2 MSTORE SSTORE PUSH1 0x0 DUP7 DUP2 MSTORE PUSH1 0xA0 PUSH1 0x20 MSTORE PUSH1 0x40 SWAP1 KECCAK256 PUSH1 0x1 ADD SLOAD PUSH1 0x1 PUSH1 0x1 PUSH1 0xA0 SHL SUB DUP6 DUP2 AND SWAP2 AND EQ PUSH2 0x17E9 JUMPI PUSH1 0x0 DUP1 REVERT JUMPDEST PUSH1 0x0 DUP7 DUP2 MSTORE PUSH1 0xA0 PUSH1 0x20 MSTORE PUSH1 0x40 SWAP1 KECCAK256 PUSH1 0x6 ADD SLOAD DUP2 GT ISZERO PUSH2 0x1838 JUMPI PUSH1 0x40 MLOAD PUSH3 0x461BCD PUSH1 0xE5 SHL DUP2 MSTORE PUSH1 0x20 PUSH1 0x4 DUP3 ADD MSTORE PUSH1 0xB PUSH1 0x24 DUP3 ADD MSTORE PUSH11 0x1CDB1BDD08195E18D95959 PUSH1 0xAA SHL PUSH1 0x44 DUP3 ADD MSTORE PUSH1 0x64 ADD PUSH2 0xCA2 JUMP JUMPDEST PUSH1 0x0 DUP7 DUP2 MSTORE PUSH1 0xA0 PUSH1 0x20 MSTORE PUSH1 0x40 DUP2 KECCAK256 PUSH1 0x5 ADD DUP1 SLOAD SWAP2 PUSH2 0x1855 DUP4 PUSH2 0x44CF JUMP JUMPDEST SWAP2 SWAP1 POP SSTORE POP PUSH2 0x1863 DUP7 PUSH2 0x258C JUMP JUMPDEST PUSH1 0x0 DUP2 DUP2 MSTORE PUSH1 0x9 DUP4 ADD PUSH1 0x20 MSTORE PUSH1 0x40 SWAP1 KECCAK256 PUSH1 0x1 ADD PUSH2 0x1880 DUP9 DUP3 PUSH2 0x4637 JUMP JUMPDEST POP PUSH1 0x0 DUP2 DUP2 MSTORE PUSH1 0x9 DUP4 ADD PUSH1 0x20 MSTORE PUSH1 0x40 SWAP1 KECCAK256 PUSH1 0x3 ADD PUSH2 0x189E DUP7 DUP3 PUSH2 0x4637 JUMP JUMPDEST POP PUSH1 0x0 SWAP1 DUP2 MSTORE PUSH1 0x9 SWAP1 SWAP2 ADD PUSH1 0x20 MSTORE PUSH1 0x40 SWAP1 KECCAK256 PUSH1 0x2 ADD DUP1 SLOAD PUSH1 0x1 PUSH1 0x1 PUSH1 0xA0 SHL SUB SWAP1 SWAP4 AND PUSH1 0x1 PUSH1 0x1 PUSH1 0xA0 SHL SUB NOT SWAP1 SWAP4 AND SWAP3 SWAP1 SWAP3 OR SWAP1 SWAP2 SSTORE POP POP POP POP JUMP JUMPDEST PUSH1 0x0 DUP1 JUMPDEST PUSH1 0x98 SLOAD DUP2 LT ISZERO PUSH2 0x1933 JUMPI PUSH1 0x0 PUSH1 0x98 DUP3 DUP2 SLOAD DUP2 LT PUSH2 0x18FC JUMPI PUSH2 0x18FC PUSH2 0x44A3 JUMP JUMPDEST PUSH1 0x0 SWAP2 DUP3 MSTORE PUSH1 0x20 SWAP1 SWAP2 KECCAK256 ADD SLOAD PUSH1 0x1 PUSH1 0x1 PUSH1 0xA0 SHL SUB AND SWAP1 POP CALLER DUP2 SWAP1 SUB PUSH2 0x1920 JUMPI PUSH1 0x1 SWAP3 POP JUMPDEST POP DUP1 PUSH2 0x192B DUP2 PUSH2 0x44CF JUMP JUMPDEST SWAP2 POP POP PUSH2 0x18DD JUMP JUMPDEST POP PUSH1 0x1 DUP2 ISZERO ISZERO EQ PUSH2 0x1956 JUMPI PUSH1 0x40 MLOAD PUSH3 0x461BCD PUSH1 0xE5 SHL DUP2 MSTORE PUSH1 0x4 ADD PUSH2 0xCA2 SWAP1 PUSH2 0x44E8 JUMP JUMPDEST PUSH2 0x195F DUP7 PUSH2 0x3721 JUMP JUMPDEST ISZERO ISZERO PUSH1 0x1 EQ PUSH2 0x1980 JUMPI PUSH1 0x40 MLOAD PUSH3 0x461BCD PUSH1 0xE5 SHL DUP2 MSTORE PUSH1 0x4 ADD PUSH2 0xCA2 SWAP1 PUSH2 0x46F7 JUMP JUMPDEST PUSH1 0x40 MLOAD PUSH4 0x70A08231 PUSH1 0xE0 SHL DUP2 MSTORE ADDRESS PUSH1 0x4 DUP3 ADD MSTORE DUP5 SWAP1 PUSH1 0x1 PUSH1 0x1 PUSH1 0xA0 SHL SUB DUP8 AND SWAP1 PUSH4 0x70A08231 SWAP1 PUSH1 0x24 ADD PUSH1 0x20 PUSH1 0x40 MLOAD DUP1 DUP4 SUB DUP2 DUP7 GAS STATICCALL ISZERO DUP1 ISZERO PUSH2 0x19C6 JUMPI RETURNDATASIZE PUSH1 0x0 DUP1 RETURNDATACOPY RETURNDATASIZE PUSH1 0x0 REVERT JUMPDEST POP POP POP POP PUSH1 0x40 MLOAD RETURNDATASIZE PUSH1 0x1F NOT PUSH1 0x1F DUP3 ADD AND DUP3 ADD DUP1 PUSH1 0x40 MSTORE POP DUP2 ADD SWAP1 PUSH2 0x19EA SWAP2 SWAP1 PUSH2 0x459E JUMP JUMPDEST LT ISZERO DUP1 ISZERO PUSH2 0x1A1D JUMPI POP PUSH1 0x0 DUP7 DUP2 MSTORE PUSH1 0xA0 PUSH1 0x20 SWAP1 DUP2 MSTORE PUSH1 0x40 DUP1 DUP4 KECCAK256 PUSH1 0x1 PUSH1 0x1 PUSH1 0xA0 SHL SUB DUP10 AND DUP5 MSTORE PUSH1 0x8 ADD SWAP1 SWAP2 MSTORE SWAP1 KECCAK256 SLOAD DUP5 GT ISZERO JUMPDEST PUSH2 0x1A39 JUMPI PUSH1 0x40 MLOAD PUSH3 0x461BCD PUSH1 0xE5 SHL DUP2 MSTORE PUSH1 0x4 ADD PUSH2 0xCA2 SWAP1 PUSH2 0x4517 JUMP JUMPDEST PUSH1 0x0 DUP7 DUP2 MSTORE PUSH1 0xA0 PUSH1 0x20 MSTORE PUSH1 0x40 SWAP1 KECCAK256 PUSH1 0x1 ADD SLOAD PUSH1 0x1 PUSH1 0x1 PUSH1 0xA0 SHL SUB DUP4 DUP2 AND SWAP2 AND EQ PUSH2 0x1A91 JUMPI PUSH1 0x40 MLOAD PUSH3 0x461BCD PUSH1 0xE5 SHL DUP2 MSTORE PUSH1 0x20 PUSH1 0x4 DUP3 ADD MSTORE PUSH1 0x9 PUSH1 0x24 DUP3 ADD MSTORE PUSH9 0x3737BA1037BBB732B9 PUSH1 0xB9 SHL PUSH1 0x44 DUP3 ADD MSTORE PUSH1 0x64 ADD PUSH2 0xCA2 JUMP JUMPDEST PUSH1 0x0 DUP1 MSTORE PUSH1 0x9F PUSH1 0x20 MSTORE PUSH1 0x0 DUP1 MLOAD PUSH1 0x20 PUSH2 0x4875 DUP4 CODECOPY DUP2 MLOAD SWAP2 MSTORE SLOAD PUSH2 0x1AB5 SWAP1 CALLVALUE SWAP1 PUSH2 0x4537 JUMP JUMPDEST PUSH1 0x0 DUP1 MSTORE PUSH1 0x9F PUSH1 0x20 MSTORE PUSH1 0x0 DUP1 MLOAD PUSH1 0x20 PUSH2 0x4875 DUP4 CODECOPY DUP2 MLOAD SWAP2 MSTORE SSTORE PUSH1 0x1 PUSH1 0x1 PUSH1 0xA0 SHL SUB DUP6 AND PUSH2 0x1B5E JUMPI PUSH1 0x0 DUP7 DUP2 MSTORE PUSH1 0xA0 PUSH1 0x20 SWAP1 DUP2 MSTORE PUSH1 0x40 DUP1 DUP4 KECCAK256 DUP4 DUP1 MSTORE PUSH1 0x8 ADD SWAP1 SWAP2 MSTORE SWAP1 KECCAK256 SLOAD PUSH2 0x1B04 SWAP1 DUP6 SWAP1 PUSH2 0x454A JUMP JUMPDEST PUSH1 0x0 DUP8 DUP2 MSTORE PUSH1 0xA0 PUSH1 0x20 SWAP1 DUP2 MSTORE PUSH1 0x40 DUP1 DUP4 KECCAK256 DUP4 DUP1 MSTORE PUSH1 0x8 ADD SWAP1 SWAP2 MSTORE DUP1 DUP3 KECCAK256 SWAP3 SWAP1 SWAP3 SSTORE SWAP1 MLOAD PUSH1 0x1 PUSH1 0x1 PUSH1 0xA0 SHL SUB DUP6 AND SWAP2 DUP7 ISZERO PUSH2 0x8FC MUL SWAP2 DUP8 SWAP2 DUP2 DUP2 DUP2 DUP6 DUP9 DUP9 CALL SWAP4 POP POP POP POP ISZERO DUP1 ISZERO PUSH2 0x1B58 JUMPI RETURNDATASIZE PUSH1 0x0 DUP1 RETURNDATACOPY RETURNDATASIZE PUSH1 0x0 REVERT JUMPDEST POP PUSH2 0x1C29 JUMP JUMPDEST PUSH1 0x0 DUP7 DUP2 MSTORE PUSH1 0xA0 PUSH1 0x20 SWAP1 DUP2 MSTORE PUSH1 0x40 DUP1 DUP4 KECCAK256 PUSH1 0x1 PUSH1 0x1 PUSH1 0xA0 SHL SUB DUP10 AND DUP5 MSTORE PUSH1 0x8 ADD SWAP1 SWAP2 MSTORE SWAP1 KECCAK256 SLOAD PUSH2 0x1B8F SWAP1 DUP6 SWAP1 PUSH2 0x454A JUMP JUMPDEST PUSH1 0x0 DUP8 DUP2 MSTORE PUSH1 0xA0 PUSH1 0x20 SWAP1 DUP2 MSTORE PUSH1 0x40 DUP1 DUP4 KECCAK256 PUSH1 0x1 PUSH1 0x1 PUSH1 0xA0 SHL SUB DUP11 DUP2 AND DUP1 DUP7 MSTORE PUSH1 0x8 SWAP1 SWAP3 ADD SWAP1 SWAP4 MSTORE SWAP3 DUP2 SWAP1 KECCAK256 SWAP4 SWAP1 SWAP4 SSTORE SWAP2 MLOAD PUSH4 0xA9059CBB PUSH1 0xE0 SHL DUP2 MSTORE SWAP2 DUP6 AND PUSH1 0x4 DUP4 ADD MSTORE PUSH1 0x24 DUP3 ADD DUP7 SWAP1 MSTORE SWAP1 PUSH4 0xA9059CBB SWAP1 PUSH1 0x44 ADD JUMPDEST PUSH1 0x20 PUSH1 0x40 MLOAD DUP1 DUP4 SUB DUP2 PUSH1 0x0 DUP8 GAS CALL ISZERO DUP1 ISZERO PUSH2 0x1C03 JUMPI RETURNDATASIZE PUSH1 0x0 DUP1 RETURNDATACOPY RETURNDATASIZE PUSH1 0x0 REVERT JUMPDEST POP POP POP POP PUSH1 0x40 MLOAD RETURNDATASIZE PUSH1 0x1F NOT PUSH1 0x1F DUP3 ADD AND DUP3 ADD DUP1 PUSH1 0x40 MSTORE POP DUP2 ADD SWAP1 PUSH2 0x1C27 SWAP2 SWAP1 PUSH2 0x45B7 JUMP JUMPDEST POP JUMPDEST PUSH2 0x1C32 DUP7 PUSH2 0x258C JUMP JUMPDEST POP POP POP POP POP POP JUMP JUMPDEST PUSH1 0x0 SLOAD PUSH2 0x100 SWAP1 DIV PUSH1 0xFF AND ISZERO DUP1 DUP1 ISZERO PUSH2 0x1C5A JUMPI POP PUSH1 0x0 SLOAD PUSH1 0x1 PUSH1 0xFF SWAP1 SWAP2 AND LT JUMPDEST DUP1 PUSH2 0x1C74 JUMPI POP ADDRESS EXTCODESIZE ISZERO DUP1 ISZERO PUSH2 0x1C74 JUMPI POP PUSH1 0x0 SLOAD PUSH1 0xFF AND PUSH1 0x1 EQ JUMPDEST PUSH2 0x1CD7 JUMPI PUSH1 0x40 MLOAD PUSH3 0x461BCD PUSH1 0xE5 SHL DUP2 MSTORE PUSH1 0x20 PUSH1 0x4 DUP3 ADD MSTORE PUSH1 0x2E PUSH1 0x24 DUP3 ADD MSTORE PUSH32 0x496E697469616C697A61626C653A20636F6E747261637420697320616C726561 PUSH1 0x44 DUP3 ADD MSTORE PUSH14 0x191E481A5B9A5D1A585B1A5E9959 PUSH1 0x92 SHL PUSH1 0x64 DUP3 ADD MSTORE PUSH1 0x84 ADD PUSH2 0xCA2 JUMP JUMPDEST PUSH1 0x0 DUP1 SLOAD PUSH1 0xFF NOT AND PUSH1 0x1 OR SWAP1 SSTORE DUP1 ISZERO PUSH2 0x1CFA JUMPI PUSH1 0x0 DUP1 SLOAD PUSH2 0xFF00 NOT AND PUSH2 0x100 OR SWAP1 SSTORE JUMPDEST PUSH1 0x99 SLOAD PUSH1 0x1 PUSH1 0x1 PUSH1 0xA0 SHL SUB AND CALLER EQ PUSH2 0x1D43 JUMPI PUSH1 0x40 MLOAD PUSH3 0x461BCD PUSH1 0xE5 SHL DUP2 MSTORE PUSH1 0x20 PUSH1 0x4 DUP3 ADD MSTORE PUSH1 0xC PUSH1 0x24 DUP3 ADD MSTORE PUSH12 0x6E6F7420696E697420616363 PUSH1 0xA0 SHL PUSH1 0x44 DUP3 ADD MSTORE PUSH1 0x64 ADD PUSH2 0xCA2 JUMP JUMPDEST PUSH2 0x1D4D DUP5 DUP5 PUSH2 0x39B6 JUMP JUMPDEST PUSH1 0x9E DUP1 SLOAD PUSH1 0x1 PUSH1 0x1 PUSH1 0xA0 SHL SUB DUP1 DUP6 AND PUSH1 0x1 PUSH1 0x1 PUSH1 0xA0 SHL SUB NOT SWAP3 DUP4 AND OR SWAP1 SWAP3 SSTORE PUSH1 0x98 DUP1 SLOAD PUSH1 0x1 DUP2 ADD DUP3 SSTORE PUSH1 0x0 SWAP2 SWAP1 SWAP2 MSTORE PUSH32 0x2237A976FA961F5921FD19F2B03C925C725D77B20CE8F790C19709C03DE4D814 ADD DUP1 SLOAD DUP3 AND CALLER SWAP1 DUP2 OR SWAP1 SWAP2 SSTORE PUSH1 0x9B DUP1 SLOAD DUP4 AND SWAP1 SWAP2 OR SWAP1 SSTORE PUSH1 0x9A DUP1 SLOAD SWAP3 DUP9 AND SWAP3 SWAP1 SWAP2 AND SWAP2 SWAP1 SWAP2 OR SWAP1 SSTORE PUSH1 0x2 PUSH1 0x9C SSTORE PUSH6 0x5AF3107A4000 PUSH1 0x9D SSTORE DUP1 ISZERO PUSH2 0xF16 JUMPI PUSH1 0x0 DUP1 SLOAD PUSH2 0xFF00 NOT AND SWAP1 SSTORE PUSH1 0x40 MLOAD PUSH1 0x1 DUP2 MSTORE PUSH32 0x7F26B83FF96E1F2B6A682F133852F6798A09C465DA95921460CEFB3847402498 SWAP1 PUSH1 0x20 ADD PUSH1 0x40 MLOAD DUP1 SWAP2 SUB SWAP1 LOG1 POP POP POP POP POP JUMP JUMPDEST PUSH1 0x0 DUP2 DUP2 MSTORE PUSH1 0x68 PUSH1 0x20 MSTORE PUSH1 0x40 DUP2 KECCAK256 SLOAD PUSH1 0x1 PUSH1 0x1 PUSH1 0xA0 SHL SUB AND DUP1 PUSH2 0xB61 JUMPI PUSH1 0x40 MLOAD PUSH3 0x461BCD PUSH1 0xE5 SHL DUP2 MSTORE PUSH1 0x20 PUSH1 0x4 DUP3 ADD MSTORE PUSH1 0x18 PUSH1 0x24 DUP3 ADD MSTORE PUSH32 0x4552433732313A20696E76616C696420746F6B656E2049440000000000000000 PUSH1 0x44 DUP3 ADD MSTORE PUSH1 0x64 ADD PUSH2 0xCA2 JUMP JUMPDEST PUSH1 0x0 PUSH1 0x1 PUSH1 0x1 PUSH1 0xA0 SHL SUB DUP3 AND PUSH2 0x1EEF JUMPI PUSH1 0x40 MLOAD PUSH3 0x461BCD PUSH1 0xE5 SHL DUP2 MSTORE PUSH1 0x20 PUSH1 0x4 DUP3 ADD MSTORE PUSH1 0x29 PUSH1 0x24 DUP3 ADD MSTORE PUSH32 0x4552433732313A2061646472657373207A65726F206973206E6F742061207661 PUSH1 0x44 DUP3 ADD MSTORE PUSH9 0x3634B21037BBB732B9 PUSH1 0xB9 SHL PUSH1 0x64 DUP3 ADD MSTORE PUSH1 0x84 ADD PUSH2 0xCA2 JUMP JUMPDEST POP PUSH1 0x1 PUSH1 0x1 PUSH1 0xA0 SHL SUB AND PUSH1 0x0 SWAP1 DUP2 MSTORE PUSH1 0x69 PUSH1 0x20 MSTORE PUSH1 0x40 SWAP1 KECCAK256 SLOAD SWAP1 JUMP JUMPDEST PUSH1 0xA2 SLOAD DUP6 LT PUSH2 0x1F2C JUMPI PUSH1 0x40 MLOAD PUSH3 0x461BCD PUSH1 0xE5 SHL DUP2 MSTORE PUSH1 0x4 ADD PUSH2 0xCA2 SWAP1 PUSH2 0x46F7 JUMP JUMPDEST PUSH1 0x40 MLOAD PUSH4 0x70A08231 PUSH1 0xE0 SHL DUP2 MSTORE ADDRESS PUSH1 0x4 DUP3 ADD MSTORE DUP2 SWAP1 PUSH1 0x1 PUSH1 0x1 PUSH1 0xA0 SHL SUB DUP5 AND SWAP1 PUSH4 0x70A08231 SWAP1 PUSH1 0x24 ADD PUSH1 0x20 PUSH1 0x40 MLOAD DUP1 DUP4 SUB DUP2 DUP7 GAS STATICCALL ISZERO DUP1 ISZERO PUSH2 0x1F72 JUMPI RETURNDATASIZE PUSH1 0x0 DUP1 RETURNDATACOPY RETURNDATASIZE PUSH1 0x0 REVERT JUMPDEST POP POP POP POP PUSH1 0x40 MLOAD RETURNDATASIZE PUSH1 0x1F NOT PUSH1 0x1F DUP3 ADD AND DUP3 ADD DUP1 PUSH1 0x40 MSTORE POP DUP2 ADD SWAP1 PUSH2 0x1F96 SWAP2 SWAP1 PUSH2 0x459E JUMP JUMPDEST LT ISZERO DUP1 ISZERO PUSH2 0x1FC9 JUMPI POP PUSH1 0x0 DUP6 DUP2 MSTORE PUSH1 0xA0 PUSH1 0x20 SWAP1 DUP2 MSTORE PUSH1 0x40 DUP1 DUP4 KECCAK256 PUSH1 0x1 PUSH1 0x1 PUSH1 0xA0 SHL SUB DUP7 AND DUP5 MSTORE PUSH1 0x8 ADD SWAP1 SWAP2 MSTORE SWAP1 KECCAK256 SLOAD DUP2 GT ISZERO JUMPDEST PUSH2 0x1FE5 JUMPI PUSH1 0x40 MLOAD PUSH3 0x461BCD PUSH1 0xE5 SHL DUP2 MSTORE PUSH1 0x4 ADD PUSH2 0xCA2 SWAP1 PUSH2 0x4517 JUMP JUMPDEST PUSH1 0x0 DUP6 DUP2 MSTORE PUSH1 0xA0 PUSH1 0x20 MSTORE PUSH1 0x40 SWAP1 KECCAK256 PUSH1 0x1 ADD SLOAD PUSH1 0x1 PUSH1 0x1 PUSH1 0xA0 SHL SUB DUP5 DUP2 AND SWAP2 AND EQ PUSH2 0x203D JUMPI PUSH1 0x40 MLOAD PUSH3 0x461BCD PUSH1 0xE5 SHL DUP2 MSTORE PUSH1 0x20 PUSH1 0x4 DUP3 ADD MSTORE PUSH1 0x9 PUSH1 0x24 DUP3 ADD MSTORE PUSH9 0x3737BA1037BBB732B9 PUSH1 0xB9 SHL PUSH1 0x44 DUP3 ADD MSTORE PUSH1 0x64 ADD PUSH2 0xCA2 JUMP JUMPDEST PUSH1 0x0 DUP1 MSTORE PUSH1 0x9F PUSH1 0x20 MSTORE PUSH1 0x0 DUP1 MLOAD PUSH1 0x20 PUSH2 0x4875 DUP4 CODECOPY DUP2 MLOAD SWAP2 MSTORE SLOAD PUSH2 0x2061 SWAP1 CALLVALUE SWAP1 PUSH2 0x4537 JUMP JUMPDEST PUSH1 0x0 DUP1 DUP1 MSTORE PUSH1 0x9F PUSH1 0x20 MSTORE PUSH1 0x0 DUP1 MLOAD PUSH1 0x20 PUSH2 0x4875 DUP4 CODECOPY DUP2 MLOAD SWAP2 MSTORE SWAP2 SWAP1 SWAP2 SSTORE PUSH1 0x9C SLOAD PUSH2 0x3E8 SWAP1 PUSH2 0x208F SWAP1 DUP5 PUSH2 0x455D JUMP JUMPDEST PUSH2 0x2099 SWAP2 SWAP1 PUSH2 0x4720 JUMP JUMPDEST PUSH1 0x0 DUP8 DUP2 MSTORE PUSH1 0xA0 PUSH1 0x20 SWAP1 DUP2 MSTORE PUSH1 0x40 DUP1 DUP4 KECCAK256 PUSH1 0x1 PUSH1 0x1 PUSH1 0xA0 SHL SUB DUP9 AND DUP5 MSTORE PUSH1 0x8 ADD SWAP1 SWAP2 MSTORE SWAP1 KECCAK256 SLOAD SWAP1 SWAP2 POP PUSH2 0x20CD SWAP1 DUP4 SWAP1 PUSH2 0x454A JUMP JUMPDEST PUSH1 0x0 DUP8 DUP2 MSTORE PUSH1 0xA0 PUSH1 0x20 SWAP1 DUP2 MSTORE PUSH1 0x40 DUP1 DUP4 KECCAK256 PUSH1 0x1 PUSH1 0x1 PUSH1 0xA0 SHL SUB DUP9 AND DUP1 DUP6 MSTORE PUSH1 0x8 SWAP1 SWAP2 ADD SWAP1 SWAP3 MSTORE SWAP1 SWAP2 KECCAK256 SWAP2 SWAP1 SWAP2 SSTORE PUSH2 0x2182 JUMPI PUSH1 0x1 PUSH1 0x1 PUSH1 0xA0 SHL SUB DUP6 AND PUSH2 0x8FC PUSH2 0x2115 DUP4 DUP6 PUSH2 0x454A JUMP JUMPDEST PUSH1 0x40 MLOAD DUP2 ISZERO SWAP1 SWAP3 MUL SWAP2 PUSH1 0x0 DUP2 DUP2 DUP2 DUP6 DUP9 DUP9 CALL SWAP4 POP POP POP POP ISZERO DUP1 ISZERO PUSH2 0x213D JUMPI RETURNDATASIZE PUSH1 0x0 DUP1 RETURNDATACOPY RETURNDATASIZE PUSH1 0x0 REVERT JUMPDEST POP PUSH1 0x0 DUP7 DUP2 MSTORE PUSH1 0xA0 PUSH1 0x20 MSTORE PUSH1 0x40 DUP1 DUP3 KECCAK256 SLOAD SWAP1 MLOAD PUSH1 0x1 PUSH1 0x1 PUSH1 0xA0 SHL SUB SWAP1 SWAP2 AND SWAP2 DUP4 ISZERO PUSH2 0x8FC MUL SWAP2 DUP5 SWAP2 DUP2 DUP2 DUP2 DUP6 DUP9 DUP9 CALL SWAP4 POP POP POP POP ISZERO DUP1 ISZERO PUSH2 0x1B58 JUMPI RETURNDATASIZE PUSH1 0x0 DUP1 RETURNDATACOPY RETURNDATASIZE PUSH1 0x0 REVERT JUMPDEST PUSH1 0x1 PUSH1 0x1 PUSH1 0xA0 SHL SUB DUP4 AND PUSH4 0xA9059CBB DUP7 PUSH2 0x219C DUP5 DUP7 PUSH2 0x454A JUMP JUMPDEST PUSH1 0x40 MLOAD PUSH1 0x1 PUSH1 0x1 PUSH1 0xE0 SHL SUB NOT PUSH1 0xE0 DUP6 SWAP1 SHL AND DUP2 MSTORE PUSH1 0x1 PUSH1 0x1 PUSH1 0xA0 SHL SUB SWAP1 SWAP3 AND PUSH1 0x4 DUP4 ADD MSTORE PUSH1 0x24 DUP3 ADD MSTORE PUSH1 0x44 ADD PUSH1 0x20 PUSH1 0x40 MLOAD DUP1 DUP4 SUB DUP2 PUSH1 0x0 DUP8 GAS CALL ISZERO DUP1 ISZERO PUSH2 0x21E7 JUMPI RETURNDATASIZE PUSH1 0x0 DUP1 RETURNDATACOPY RETURNDATASIZE PUSH1 0x0 REVERT JUMPDEST POP POP POP POP PUSH1 0x40 MLOAD RETURNDATASIZE PUSH1 0x1F NOT PUSH1 0x1F DUP3 ADD AND DUP3 ADD DUP1 PUSH1 0x40 MSTORE POP DUP2 ADD SWAP1 PUSH2 0x220B SWAP2 SWAP1 PUSH2 0x45B7 JUMP JUMPDEST POP PUSH1 0x0 DUP7 DUP2 MSTORE PUSH1 0xA0 PUSH1 0x20 MSTORE PUSH1 0x40 SWAP1 DUP2 SWAP1 KECCAK256 SLOAD SWAP1 MLOAD PUSH4 0xA9059CBB PUSH1 0xE0 SHL DUP2 MSTORE PUSH1 0x1 PUSH1 0x1 PUSH1 0xA0 SHL SUB SWAP2 DUP3 AND PUSH1 0x4 DUP3 ADD MSTORE PUSH1 0x24 DUP2 ADD DUP4 SWAP1 MSTORE SWAP1 DUP5 AND SWAP1 PUSH4 0xA9059CBB SWAP1 PUSH1 0x44 ADD PUSH2 0x1BE4 JUMP JUMPDEST PUSH1 0x0 DUP1 JUMPDEST PUSH1 0x98 SLOAD DUP2 LT ISZERO PUSH2 0x22AC JUMPI PUSH1 0x0 PUSH1 0x98 DUP3 DUP2 SLOAD DUP2 LT PUSH2 0x2275 JUMPI PUSH2 0x2275 PUSH2 0x44A3 JUMP JUMPDEST PUSH1 0x0 SWAP2 DUP3 MSTORE PUSH1 0x20 SWAP1 SWAP2 KECCAK256 ADD SLOAD PUSH1 0x1 PUSH1 0x1 PUSH1 0xA0 SHL SUB AND SWAP1 POP CALLER DUP2 SWAP1 SUB PUSH2 0x2299 JUMPI PUSH1 0x1 SWAP3 POP JUMPDEST POP DUP1 PUSH2 0x22A4 DUP2 PUSH2 0x44CF JUMP JUMPDEST SWAP2 POP POP PUSH2 0x2256 JUMP JUMPDEST POP PUSH1 0x1 DUP2 ISZERO ISZERO EQ PUSH2 0x22CF JUMPI PUSH1 0x40 MLOAD PUSH3 0x461BCD PUSH1 0xE5 SHL DUP2 MSTORE PUSH1 0x4 ADD PUSH2 0xCA2 SWAP1 PUSH2 0x44E8 JUMP JUMPDEST PUSH2 0x22D8 DUP4 PUSH2 0x3721 JUMP JUMPDEST ISZERO ISZERO PUSH1 0x1 EQ PUSH2 0x22E6 JUMPI PUSH1 0x0 DUP1 REVERT JUMPDEST PUSH2 0xD43 DUP4 DUP4 PUSH2 0x3A3A JUMP JUMPDEST PUSH1 0x0 DUP1 DUP1 JUMPDEST PUSH1 0x0 DUP6 DUP2 MSTORE PUSH1 0xA1 PUSH1 0x20 MSTORE PUSH1 0x40 SWAP1 KECCAK256 PUSH1 0x2 ADD SLOAD DUP2 LT ISZERO PUSH2 0x2389 JUMPI PUSH1 0x0 DUP6 DUP2 MSTORE PUSH1 0xA1 PUSH1 0x20 MSTORE PUSH1 0x40 DUP2 KECCAK256 PUSH1 0x2 ADD DUP1 SLOAD DUP4 SWAP1 DUP2 LT PUSH2 0x2331 JUMPI PUSH2 0x2331 PUSH2 0x44A3 JUMP JUMPDEST PUSH1 0x0 SWAP2 DUP3 MSTORE PUSH1 0x20 SWAP1 SWAP2 KECCAK256 ADD SLOAD PUSH1 0x1 PUSH1 0x1 PUSH1 0xA0 SHL SUB SWAP1 DUP2 AND SWAP2 POP DUP8 AND DUP2 EQ DUP1 ISZERO PUSH2 0x2367 JUMPI POP PUSH1 0x0 DUP7 DUP2 MSTORE PUSH1 0xA1 PUSH1 0x20 MSTORE PUSH1 0x40 SWAP1 KECCAK256 SLOAD DUP6 EQ JUMPDEST ISZERO PUSH2 0x2376 JUMPI PUSH1 0x1 SWAP3 POP POP PUSH2 0x2389 JUMP JUMPDEST POP DUP1 PUSH2 0x2381 DUP2 PUSH2 0x44CF JUMP JUMPDEST SWAP2 POP POP PUSH2 0x22F5 JUMP JUMPDEST POP SWAP5 SWAP4 POP POP POP POP JUMP JUMPDEST PUSH1 0x9B SLOAD PUSH1 0x1 PUSH1 0x1 PUSH1 0xA0 SHL SUB AND CALLER EQ PUSH2 0x23A9 JUMPI PUSH1 0x0 DUP1 REVERT JUMPDEST PUSH1 0x1 PUSH1 0x1 PUSH1 0xA0 SHL SUB DUP3 AND PUSH1 0x0 SWAP1 DUP2 MSTORE PUSH1 0x9F PUSH1 0x20 MSTORE PUSH1 0x40 SWAP1 KECCAK256 SLOAD DUP2 GT ISZERO PUSH2 0x23FF JUMPI PUSH1 0x40 MLOAD PUSH3 0x461BCD PUSH1 0xE5 SHL DUP2 MSTORE PUSH1 0x20 PUSH1 0x4 DUP3 ADD MSTORE PUSH1 0xB PUSH1 0x24 DUP3 ADD MSTORE PUSH11 0x4E6F2062616C616E636573 PUSH1 0xA8 SHL PUSH1 0x44 DUP3 ADD MSTORE PUSH1 0x64 ADD PUSH2 0xCA2 JUMP JUMPDEST PUSH1 0x1 PUSH1 0x1 PUSH1 0xA0 SHL SUB DUP3 AND PUSH1 0x0 SWAP1 DUP2 MSTORE PUSH1 0x9F PUSH1 0x20 MSTORE PUSH1 0x40 SWAP1 KECCAK256 SLOAD PUSH2 0x2423 SWAP1 DUP3 SWAP1 PUSH2 0x454A JUMP JUMPDEST PUSH1 0x1 PUSH1 0x1 PUSH1 0xA0 SHL SUB DUP4 AND PUSH1 0x0 DUP2 DUP2 MSTORE PUSH1 0x9F PUSH1 0x20 MSTORE PUSH1 0x40 SWAP1 KECCAK256 SWAP2 SWAP1 SWAP2 SSTORE ISZERO PUSH2 0x24B7 JUMPI PUSH1 0x40 MLOAD PUSH4 0xA9059CBB PUSH1 0xE0 SHL DUP2 MSTORE CALLER PUSH1 0x4 DUP3 ADD MSTORE PUSH1 0x24 DUP2 ADD DUP3 SWAP1 MSTORE PUSH1 0x1 PUSH1 0x1 PUSH1 0xA0 SHL SUB DUP4 AND SWAP1 PUSH4 0xA9059CBB SWAP1 PUSH1 0x44 ADD PUSH1 0x20 PUSH1 0x40 MLOAD DUP1 DUP4 SUB DUP2 PUSH1 0x0 DUP8 GAS CALL ISZERO DUP1 ISZERO PUSH2 0x2491 JUMPI RETURNDATASIZE PUSH1 0x0 DUP1 RETURNDATACOPY RETURNDATASIZE PUSH1 0x0 REVERT JUMPDEST POP POP POP POP PUSH1 0x40 MLOAD RETURNDATASIZE PUSH1 0x1F NOT PUSH1 0x1F DUP3 ADD AND DUP3 ADD DUP1 PUSH1 0x40 MSTORE POP DUP2 ADD SWAP1 PUSH2 0x24B5 SWAP2 SWAP1 PUSH2 0x45B7 JUMP JUMPDEST POP JUMPDEST PUSH1 0x1 PUSH1 0x1 PUSH1 0xA0 SHL SUB DUP3 AND PUSH2 0x10B7 JUMPI PUSH1 0x40 MLOAD CALLER SWAP1 DUP3 ISZERO PUSH2 0x8FC MUL SWAP1 DUP4 SWAP1 PUSH1 0x0 DUP2 DUP2 DUP2 DUP6 DUP9 DUP9 CALL SWAP4 POP POP POP POP ISZERO DUP1 ISZERO PUSH2 0xD43 JUMPI RETURNDATASIZE PUSH1 0x0 DUP1 RETURNDATACOPY RETURNDATASIZE PUSH1 0x0 REVERT JUMPDEST PUSH1 0x0 DUP1 JUMPDEST PUSH1 0x98 SLOAD DUP2 LT ISZERO PUSH2 0x254C JUMPI PUSH1 0x0 PUSH1 0x98 DUP3 DUP2 SLOAD DUP2 LT PUSH2 0x2515 JUMPI PUSH2 0x2515 PUSH2 0x44A3 JUMP JUMPDEST PUSH1 0x0 SWAP2 DUP3 MSTORE PUSH1 0x20 SWAP1 SWAP2 KECCAK256 ADD SLOAD PUSH1 0x1 PUSH1 0x1 PUSH1 0xA0 SHL SUB AND SWAP1 POP CALLER DUP2 SWAP1 SUB PUSH2 0x2539 JUMPI PUSH1 0x1 SWAP3 POP JUMPDEST POP DUP1 PUSH2 0x2544 DUP2 PUSH2 0x44CF JUMP JUMPDEST SWAP2 POP POP PUSH2 0x24F6 JUMP JUMPDEST POP PUSH1 0x1 DUP2 ISZERO ISZERO EQ PUSH2 0x256F JUMPI PUSH1 0x40 MLOAD PUSH3 0x461BCD PUSH1 0xE5 SHL DUP2 MSTORE PUSH1 0x4 ADD PUSH2 0xCA2 SWAP1 PUSH2 0x44E8 JUMP JUMPDEST PUSH1 0x0 DUP4 DUP2 MSTORE PUSH1 0xA0 PUSH1 0x20 MSTORE PUSH1 0x40 SWAP1 KECCAK256 PUSH1 0x7 ADD SLOAD PUSH2 0x16DE SWAP1 DUP4 SWAP1 PUSH2 0x4537 JUMP JUMPDEST PUSH1 0x0 DUP1 JUMPDEST PUSH1 0x98 SLOAD DUP2 LT ISZERO PUSH2 0x25E6 JUMPI PUSH1 0x0 PUSH1 0x98 DUP3 DUP2 SLOAD DUP2 LT PUSH2 0x25AF JUMPI PUSH2 0x25AF PUSH2 0x44A3 JUMP JUMPDEST PUSH1 0x0 SWAP2 DUP3 MSTORE PUSH1 0x20 SWAP1 SWAP2 KECCAK256 ADD SLOAD PUSH1 0x1 PUSH1 0x1 PUSH1 0xA0 SHL SUB AND SWAP1 POP CALLER DUP2 SWAP1 SUB PUSH2 0x25D3 JUMPI PUSH1 0x1 SWAP3 POP JUMPDEST POP DUP1 PUSH2 0x25DE DUP2 PUSH2 0x44CF JUMP JUMPDEST SWAP2 POP POP PUSH2 0x2590 JUMP JUMPDEST POP PUSH1 0x1 DUP2 ISZERO ISZERO EQ PUSH2 0x2609 JUMPI PUSH1 0x40 MLOAD PUSH3 0x461BCD PUSH1 0xE5 SHL DUP2 MSTORE PUSH1 0x4 ADD PUSH2 0xCA2 SWAP1 PUSH2 0x44E8 JUMP JUMPDEST PUSH1 0x0 DUP3 DUP2 MSTORE PUSH1 0xA0 PUSH1 0x20 MSTORE PUSH1 0x40 DUP2 KECCAK256 PUSH1 0x7 ADD DUP1 SLOAD SWAP2 PUSH2 0x2626 DUP4 PUSH2 0x44CF JUMP JUMPDEST SWAP2 SWAP1 POP SSTORE POP POP POP JUMP JUMPDEST PUSH1 0x0 DUP1 JUMPDEST PUSH1 0x98 SLOAD DUP2 LT ISZERO PUSH2 0x2689 JUMPI PUSH1 0x0 PUSH1 0x98 DUP3 DUP2 SLOAD DUP2 LT PUSH2 0x2652 JUMPI PUSH2 0x2652 PUSH2 0x44A3 JUMP JUMPDEST PUSH1 0x0 SWAP2 DUP3 MSTORE PUSH1 0x20 SWAP1 SWAP2 KECCAK256 ADD SLOAD PUSH1 0x1 PUSH1 0x1 PUSH1 0xA0 SHL SUB AND SWAP1 POP CALLER DUP2 SWAP1 SUB PUSH2 0x2676 JUMPI PUSH1 0x1 SWAP3 POP JUMPDEST POP DUP1 PUSH2 0x2681 DUP2 PUSH2 0x44CF JUMP JUMPDEST SWAP2 POP POP PUSH2 0x2633 JUMP JUMPDEST POP PUSH1 0x1 DUP2 ISZERO ISZERO EQ PUSH2 0x26AC JUMPI PUSH1 0x40 MLOAD PUSH3 0x461BCD PUSH1 0xE5 SHL DUP2 MSTORE PUSH1 0x4 ADD PUSH2 0xCA2 SWAP1 PUSH2 0x44E8 JUMP JUMPDEST PUSH1 0xA2 SLOAD DUP4 LT PUSH2 0x26CD JUMPI PUSH1 0x40 MLOAD PUSH3 0x461BCD PUSH1 0xE5 SHL DUP2 MSTORE PUSH1 0x4 ADD PUSH2 0xCA2 SWAP1 PUSH2 0x46F7 JUMP JUMPDEST PUSH1 0x0 DUP1 MSTORE PUSH1 0x9F PUSH1 0x20 MSTORE PUSH1 0x0 DUP1 MLOAD PUSH1 0x20 PUSH2 0x4875 DUP4 CODECOPY DUP2 MLOAD SWAP2 MSTORE SLOAD PUSH2 0x26F1 SWAP1 CALLVALUE SWAP1 PUSH2 0x4537 JUMP JUMPDEST PUSH1 0x0 DUP1 MLOAD PUSH1 0x20 PUSH2 0x4875 DUP4 CODECOPY DUP2 MLOAD SWAP2 MSTORE SSTORE PUSH1 0x0 DUP4 DUP2 MSTORE PUSH1 0xA0 PUSH1 0x20 MSTORE PUSH1 0x40 SWAP1 KECCAK256 TIMESTAMP PUSH1 0x3 DUP3 ADD SSTORE PUSH1 0x4 ADD SLOAD PUSH2 0x2724 SWAP1 DUP4 SWAP1 PUSH2 0x4537 JUMP JUMPDEST PUSH1 0x0 DUP5 DUP2 MSTORE PUSH1 0xA0 PUSH1 0x20 MSTORE PUSH1 0x40 SWAP1 KECCAK256 PUSH1 0x4 ADD SSTORE PUSH2 0xD43 DUP4 PUSH2 0x258C JUMP JUMPDEST PUSH1 0x60 PUSH1 0x66 DUP1 SLOAD PUSH2 0xB76 SWAP1 PUSH2 0x4469 JUMP JUMPDEST PUSH1 0x9B SLOAD PUSH1 0x1 PUSH1 0x1 PUSH1 0xA0 SHL SUB AND CALLER EQ PUSH2 0x2765 JUMPI PUSH1 0x0 DUP1 REVERT JUMPDEST PUSH1 0x98 DUP1 SLOAD PUSH1 0x1 DUP2 ADD DUP3 SSTORE PUSH1 0x0 SWAP2 SWAP1 SWAP2 MSTORE PUSH32 0x2237A976FA961F5921FD19F2B03C925C725D77B20CE8F790C19709C03DE4D814 ADD DUP1 SLOAD PUSH1 0x1 PUSH1 0x1 PUSH1 0xA0 SHL SUB NOT AND PUSH1 0x1 PUSH1 0x1 PUSH1 0xA0 SHL SUB SWAP3 SWAP1 SWAP3 AND SWAP2 SWAP1 SWAP2 OR SWAP1 SSTORE JUMP JUMPDEST DUP2 PUSH1 0x9D SLOAD PUSH2 0x27C5 SWAP2 SWAP1 PUSH2 0x455D JUMP JUMPDEST PUSH1 0x9A SLOAD PUSH1 0x40 MLOAD PUSH4 0x70A08231 PUSH1 0xE0 SHL DUP2 MSTORE CALLER PUSH1 0x4 DUP3 ADD MSTORE PUSH1 0x1 PUSH1 0x1 PUSH1 0xA0 SHL SUB SWAP1 SWAP2 AND SWAP1 PUSH4 0x70A08231 SWAP1 PUSH1 0x24 ADD PUSH1 0x20 PUSH1 0x40 MLOAD DUP1 DUP4 SUB DUP2 DUP7 GAS STATICCALL ISZERO DUP1 ISZERO PUSH2 0x280D JUMPI RETURNDATASIZE PUSH1 0x0 DUP1 RETURNDATACOPY RETURNDATASIZE PUSH1 0x0 REVERT JUMPDEST POP POP POP POP PUSH1 0x40 MLOAD RETURNDATASIZE PUSH1 0x1F NOT PUSH1 0x1F DUP3 ADD AND DUP3 ADD DUP1 PUSH1 0x40 MSTORE POP DUP2 ADD SWAP1 PUSH2 0x2831 SWAP2 SWAP1 PUSH2 0x459E JUMP JUMPDEST LT ISZERO PUSH2 0x2870 JUMPI PUSH1 0x40 MLOAD PUSH3 0x461BCD PUSH1 0xE5 SHL DUP2 MSTORE PUSH1 0x20 PUSH1 0x4 DUP3 ADD MSTORE PUSH1 0xE PUSH1 0x24 DUP3 ADD MSTORE PUSH14 0x149958DA185C99D948199A5C9CDD PUSH1 0x92 SHL PUSH1 0x44 DUP3 ADD MSTORE PUSH1 0x64 ADD PUSH2 0xCA2 JUMP JUMPDEST PUSH1 0x0 DUP2 DUP2 MSTORE PUSH1 0xA0 PUSH1 0x20 MSTORE PUSH1 0x40 SWAP1 KECCAK256 PUSH1 0x1 ADD SLOAD PUSH1 0x1 PUSH1 0x1 PUSH1 0xA0 SHL SUB AND CALLER EQ PUSH2 0x2896 JUMPI PUSH1 0x0 DUP1 REVERT JUMPDEST PUSH1 0x0 DUP1 MSTORE PUSH1 0x9F PUSH1 0x20 MSTORE PUSH1 0x0 DUP1 MLOAD PUSH1 0x20 PUSH2 0x4875 DUP4 CODECOPY DUP2 MLOAD SWAP2 MSTORE SLOAD PUSH2 0x28BA SWAP1 CALLVALUE SWAP1 PUSH2 0x4537 JUMP JUMPDEST PUSH1 0x0 DUP1 MSTORE PUSH1 0x9F PUSH1 0x20 MSTORE PUSH1 0x0 DUP1 MLOAD PUSH1 0x20 PUSH2 0x4875 DUP4 CODECOPY DUP2 MLOAD SWAP2 MSTORE SSTORE PUSH1 0x9D SLOAD PUSH2 0x28E1 SWAP1 DUP4 SWAP1 PUSH2 0x455D JUMP JUMPDEST PUSH1 0x0 DUP3 DUP2 MSTORE PUSH1 0xA0 PUSH1 0x20 SWAP1 DUP2 MSTORE PUSH1 0x40 DUP1 DUP4 KECCAK256 PUSH1 0x9A SLOAD PUSH1 0x1 PUSH1 0x1 PUSH1 0xA0 SHL SUB AND DUP5 MSTORE PUSH1 0x8 ADD SWAP1 SWAP2 MSTORE SWAP1 KECCAK256 SLOAD PUSH2 0x2913 SWAP2 SWAP1 PUSH2 0x454A JUMP JUMPDEST PUSH1 0x0 DUP3 DUP2 MSTORE PUSH1 0xA0 PUSH1 0x20 DUP2 DUP2 MSTORE PUSH1 0x40 DUP1 DUP5 KECCAK256 PUSH1 0x9A SLOAD PUSH1 0x1 PUSH1 0x1 PUSH1 0xA0 SHL SUB AND DUP6 MSTORE PUSH1 0x8 DUP2 ADD DUP4 MSTORE SWAP1 DUP5 KECCAK256 SWAP5 SWAP1 SWAP5 SSTORE SWAP2 DUP5 SWAP1 MSTORE SWAP1 MSTORE TIMESTAMP PUSH1 0x3 SWAP1 SWAP2 ADD SSTORE PUSH3 0x93A80 PUSH2 0x295A DUP2 DUP5 PUSH2 0x455D JUMP JUMPDEST PUSH1 0x0 DUP4 DUP2 MSTORE PUSH1 0xA0 PUSH1 0x20 MSTORE PUSH1 0x40 SWAP1 KECCAK256 PUSH1 0x4 ADD SLOAD PUSH2 0x2976 SWAP2 SWAP1 PUSH2 0x4537 JUMP JUMPDEST PUSH1 0x0 DUP4 DUP2 MSTORE PUSH1 0xA0 PUSH1 0x20 MSTORE PUSH1 0x40 SWAP1 KECCAK256 PUSH1 0x4 ADD SSTORE PUSH2 0xD43 DUP3 PUSH2 0x258C JUMP JUMPDEST PUSH2 0x10B7 CALLER DUP4 DUP4 PUSH2 0x3A52 JUMP JUMPDEST PUSH1 0x60 DUP1 PUSH1 0x0 DUP1 JUMPDEST PUSH1 0x98 SLOAD DUP2 LT ISZERO PUSH2 0x29F9 JUMPI PUSH1 0x0 PUSH1 0x98 DUP3 DUP2 SLOAD DUP2 LT PUSH2 0x29C2 JUMPI PUSH2 0x29C2 PUSH2 0x44A3 JUMP JUMPDEST PUSH1 0x0 SWAP2 DUP3 MSTORE PUSH1 0x20 SWAP1 SWAP2 KECCAK256 ADD SLOAD PUSH1 0x1 PUSH1 0x1 PUSH1 0xA0 SHL SUB AND SWAP1 POP CALLER DUP2 SWAP1 SUB PUSH2 0x29E6 JUMPI PUSH1 0x1 SWAP3 POP JUMPDEST POP DUP1 PUSH2 0x29F1 DUP2 PUSH2 0x44CF JUMP JUMPDEST SWAP2 POP POP PUSH2 0x29A3 JUMP JUMPDEST POP PUSH1 0x1 DUP2 ISZERO ISZERO EQ PUSH2 0x2A1C JUMPI PUSH1 0x40 MLOAD PUSH3 0x461BCD PUSH1 0xE5 SHL DUP2 MSTORE PUSH1 0x4 ADD PUSH2 0xCA2 SWAP1 PUSH2 0x44E8 JUMP JUMPDEST PUSH1 0x0 DUP6 DUP2 MSTORE PUSH1 0xA0 PUSH1 0x20 MSTORE PUSH1 0x40 SWAP1 KECCAK256 PUSH1 0x1 ADD SLOAD PUSH1 0x1 PUSH1 0x1 PUSH1 0xA0 SHL SUB DUP8 DUP2 AND SWAP2 AND EQ DUP1 ISZERO PUSH2 0x2A72 JUMPI POP PUSH1 0x0 DUP6 DUP2 MSTORE PUSH1 0xA0 PUSH1 0x20 SWAP1 DUP2 MSTORE PUSH1 0x40 DUP1 DUP4 KECCAK256 DUP8 DUP5 MSTORE PUSH1 0x9 ADD SWAP1 SWAP2 MSTORE SWAP1 KECCAK256 PUSH1 0x2 ADD SLOAD PUSH1 0x1 PUSH1 0x1 PUSH1 0xA0 SHL SUB DUP8 DUP2 AND SWAP2 AND EQ JUMPDEST DUP1 PUSH2 0x2A89 JUMPI POP PUSH2 0x2A83 DUP7 DUP7 DUP7 PUSH2 0x22F0 JUMP JUMPDEST ISZERO ISZERO PUSH1 0x1 EQ JUMPDEST PUSH2 0x2AD5 JUMPI PUSH1 0x40 MLOAD PUSH3 0x461BCD PUSH1 0xE5 SHL DUP2 MSTORE PUSH1 0x20 PUSH1 0x4 DUP3 ADD MSTORE PUSH1 0x18 PUSH1 0x24 DUP3 ADD MSTORE PUSH32 0x6E6F74206F776E6572206F6620696420616E6420736C6F740000000000000000 PUSH1 0x44 DUP3 ADD MSTORE PUSH1 0x64 ADD PUSH2 0xCA2 JUMP JUMPDEST PUSH1 0x0 DUP6 DUP2 MSTORE PUSH1 0xA0 PUSH1 0x20 SWAP1 DUP2 MSTORE PUSH1 0x40 DUP1 DUP4 KECCAK256 DUP8 DUP5 MSTORE PUSH1 0x9 ADD SWAP1 SWAP2 MSTORE SWAP1 KECCAK256 SLOAD PUSH1 0xFF AND ISZERO PUSH2 0x2B31 JUMPI PUSH1 0x40 MLOAD PUSH3 0x461BCD PUSH1 0xE5 SHL DUP2 MSTORE PUSH1 0x20 PUSH1 0x4 DUP3 ADD MSTORE PUSH1 0xC PUSH1 0x24 DUP3 ADD MSTORE PUSH12 0x11195B195D19590814DB1BDD PUSH1 0xA2 SHL PUSH1 0x44 DUP3 ADD MSTORE PUSH1 0x64 ADD PUSH2 0xCA2 JUMP JUMPDEST PUSH1 0x0 DUP6 DUP2 MSTORE PUSH1 0xA0 PUSH1 0x20 SWAP1 DUP2 MSTORE PUSH1 0x40 DUP1 DUP4 KECCAK256 DUP8 DUP5 MSTORE PUSH1 0x9 ADD SWAP1 SWAP2 MSTORE SWAP1 KECCAK256 PUSH1 0x1 DUP2 ADD DUP1 SLOAD SWAP1 SWAP2 PUSH1 0x3 ADD SWAP1 DUP3 SWAP1 PUSH2 0x2B64 SWAP1 PUSH2 0x4469 JUMP JUMPDEST DUP1 PUSH1 0x1F ADD PUSH1 0x20 DUP1 SWAP2 DIV MUL PUSH1 0x20 ADD PUSH1 0x40 MLOAD SWAP1 DUP2 ADD PUSH1 0x40 MSTORE DUP1 SWAP3 SWAP2 SWAP1 DUP2 DUP2 MSTORE PUSH1 0x20 ADD DUP3 DUP1 SLOAD PUSH2 0x2B90 SWAP1 PUSH2 0x4469 JUMP JUMPDEST DUP1 ISZERO PUSH2 0x2BDD JUMPI DUP1 PUSH1 0x1F LT PUSH2 0x2BB2 JUMPI PUSH2 0x100 DUP1 DUP4 SLOAD DIV MUL DUP4 MSTORE SWAP2 PUSH1 0x20 ADD SWAP2 PUSH2 0x2BDD JUMP JUMPDEST DUP3 ADD SWAP2 SWAP1 PUSH1 0x0 MSTORE PUSH1 0x20 PUSH1 0x0 KECCAK256 SWAP1 JUMPDEST DUP2 SLOAD DUP2 MSTORE SWAP1 PUSH1 0x1 ADD SWAP1 PUSH1 0x20 ADD DUP1 DUP4 GT PUSH2 0x2BC0 JUMPI DUP3 SWAP1 SUB PUSH1 0x1F AND DUP3 ADD SWAP2 JUMPDEST POP POP POP POP POP SWAP2 POP DUP1 DUP1 SLOAD PUSH2 0x2BF0 SWAP1 PUSH2 0x4469 JUMP JUMPDEST DUP1 PUSH1 0x1F ADD PUSH1 0x20 DUP1 SWAP2 DIV MUL PUSH1 0x20 ADD PUSH1 0x40 MLOAD SWAP1 DUP2 ADD PUSH1 0x40 MSTORE DUP1 SWAP3 SWAP2 SWAP1 DUP2 DUP2 MSTORE PUSH1 0x20 ADD DUP3 DUP1 SLOAD PUSH2 0x2C1C SWAP1 PUSH2 0x4469 JUMP JUMPDEST DUP1 ISZERO PUSH2 0x2C69 JUMPI DUP1 PUSH1 0x1F LT PUSH2 0x2C3E JUMPI PUSH2 0x100 DUP1 DUP4 SLOAD DIV MUL DUP4 MSTORE SWAP2 PUSH1 0x20 ADD SWAP2 PUSH2 0x2C69 JUMP JUMPDEST DUP3 ADD SWAP2 SWAP1 PUSH1 0x0 MSTORE PUSH1 0x20 PUSH1 0x0 KECCAK256 SWAP1 JUMPDEST DUP2 SLOAD DUP2 MSTORE SWAP1 PUSH1 0x1 ADD SWAP1 PUSH1 0x20 ADD DUP1 DUP4 GT PUSH2 0x2C4C JUMPI DUP3 SWAP1 SUB PUSH1 0x1F AND DUP3 ADD SWAP2 JUMPDEST POP POP POP POP POP SWAP1 POP SWAP3 POP SWAP3 POP POP SWAP4 POP SWAP4 SWAP2 POP POP JUMP JUMPDEST PUSH1 0x0 DUP4 DUP2 MSTORE PUSH1 0xA0 PUSH1 0x20 MSTORE PUSH1 0x40 SWAP1 KECCAK256 PUSH1 0x1 ADD SLOAD PUSH1 0x1 PUSH1 0x1 PUSH1 0xA0 SHL SUB AND CALLER EQ DUP1 PUSH2 0x2CBB JUMPI POP PUSH1 0x0 DUP4 DUP2 MSTORE PUSH1 0xA0 PUSH1 0x20 MSTORE PUSH1 0x40 SWAP1 KECCAK256 SLOAD PUSH1 0x1 PUSH1 0x1 PUSH1 0xA0 SHL SUB AND CALLER EQ JUMPDEST PUSH2 0x2CD7 JUMPI PUSH1 0x40 MLOAD PUSH3 0x461BCD PUSH1 0xE5 SHL DUP2 MSTORE PUSH1 0x4 ADD PUSH2 0xCA2 SWAP1 PUSH2 0x4574 JUMP JUMPDEST PUSH1 0x0 DUP4 DUP2 MSTORE PUSH1 0xA0 PUSH1 0x20 SWAP1 DUP2 MSTORE PUSH1 0x40 DUP1 DUP4 KECCAK256 DUP6 DUP5 MSTORE PUSH1 0x9 ADD SWAP1 SWAP2 MSTORE SWAP1 KECCAK256 PUSH1 0x2 ADD SLOAD PUSH1 0x1 PUSH1 0x1 PUSH1 0xA0 SHL SUB AND CALLER EQ DUP1 ISZERO PUSH2 0x2D2B JUMPI POP PUSH1 0x0 DUP4 DUP2 MSTORE PUSH1 0xA0 PUSH1 0x20 SWAP1 DUP2 MSTORE PUSH1 0x40 DUP1 DUP4 KECCAK256 DUP6 DUP5 MSTORE PUSH1 0x9 ADD SWAP1 SWAP2 MSTORE SWAP1 KECCAK256 SLOAD PUSH1 0xFF AND ISZERO JUMPDEST PUSH2 0x2D47 JUMPI PUSH1 0x40 MLOAD PUSH3 0x461BCD PUSH1 0xE5 SHL DUP2 MSTORE PUSH1 0x4 ADD PUSH2 0xCA2 SWAP1 PUSH2 0x4742 JUMP JUMPDEST PUSH1 0x0 DUP1 MSTORE PUSH1 0x9F PUSH1 0x20 MSTORE PUSH1 0x0 DUP1 MLOAD PUSH1 0x20 PUSH2 0x4875 DUP4 CODECOPY DUP2 MLOAD SWAP2 MSTORE SLOAD PUSH2 0x2D6B SWAP1 CALLVALUE SWAP1 PUSH2 0x4537 JUMP JUMPDEST PUSH1 0x0 DUP1 MSTORE PUSH1 0x9F PUSH1 0x20 MSTORE PUSH1 0x0 DUP1 MLOAD PUSH1 0x20 PUSH2 0x4875 DUP4 CODECOPY DUP2 MLOAD SWAP2 MSTORE SSTORE PUSH2 0x2D8D DUP4 PUSH2 0x258C JUMP JUMPDEST PUSH1 0x0 DUP4 DUP2 MSTORE PUSH1 0xA1 PUSH1 0x20 SWAP1 DUP2 MSTORE PUSH1 0x40 DUP3 KECCAK256 DUP5 DUP2 SSTORE PUSH1 0x2 DUP2 ADD DUP1 SLOAD PUSH1 0x1 DUP1 DUP3 ADD DUP4 SSTORE SWAP2 DUP6 MSTORE SWAP3 DUP5 KECCAK256 SWAP1 SWAP3 ADD DUP1 SLOAD PUSH1 0x1 PUSH1 0x1 PUSH1 0xA0 SHL SUB NOT AND PUSH1 0x1 PUSH1 0x1 PUSH1 0xA0 SHL SUB DUP7 AND OR SWAP1 SSTORE DUP6 DUP4 MSTORE ADD DUP1 SLOAD SWAP2 PUSH2 0x2DDF DUP4 PUSH2 0x44CF JUMP JUMPDEST SWAP2 SWAP1 POP SSTORE POP POP POP POP JUMP JUMPDEST PUSH1 0x60 PUSH2 0xB61 DUP3 PUSH2 0x3B20 JUMP JUMPDEST PUSH1 0x0 DUP1 JUMPDEST PUSH1 0x98 SLOAD DUP2 LT ISZERO PUSH2 0x2E4E JUMPI PUSH1 0x0 PUSH1 0x98 DUP3 DUP2 SLOAD DUP2 LT PUSH2 0x2E17 JUMPI PUSH2 0x2E17 PUSH2 0x44A3 JUMP JUMPDEST PUSH1 0x0 SWAP2 DUP3 MSTORE PUSH1 0x20 SWAP1 SWAP2 KECCAK256 ADD SLOAD PUSH1 0x1 PUSH1 0x1 PUSH1 0xA0 SHL SUB AND SWAP1 POP CALLER DUP2 SWAP1 SUB PUSH2 0x2E3B JUMPI PUSH1 0x1 SWAP3 POP JUMPDEST POP DUP1 PUSH2 0x2E46 DUP2 PUSH2 0x44CF JUMP JUMPDEST SWAP2 POP POP PUSH2 0x2DF8 JUMP JUMPDEST POP PUSH1 0x1 DUP2 ISZERO ISZERO EQ PUSH2 0x2E71 JUMPI PUSH1 0x40 MLOAD PUSH3 0x461BCD PUSH1 0xE5 SHL DUP2 MSTORE PUSH1 0x4 ADD PUSH2 0xCA2 SWAP1 PUSH2 0x44E8 JUMP JUMPDEST PUSH2 0x2E7A DUP6 PUSH2 0x3721 JUMP JUMPDEST ISZERO ISZERO PUSH1 0x1 EQ PUSH2 0x2E9B JUMPI PUSH1 0x40 MLOAD PUSH3 0x461BCD PUSH1 0xE5 SHL DUP2 MSTORE PUSH1 0x4 ADD PUSH2 0xCA2 SWAP1 PUSH2 0x46F7 JUMP JUMPDEST PUSH1 0x1 PUSH1 0x1 PUSH1 0xA0 SHL SUB DUP5 AND PUSH2 0x2F7C JUMPI DUP3 CALLVALUE GT PUSH2 0x2EB5 JUMPI PUSH1 0x0 DUP1 REVERT JUMPDEST PUSH1 0x0 PUSH2 0x2EC1 DUP5 CALLVALUE PUSH2 0x454A JUMP JUMPDEST PUSH1 0x0 DUP1 MSTORE PUSH1 0x9F PUSH1 0x20 MSTORE PUSH1 0x0 DUP1 MLOAD PUSH1 0x20 PUSH2 0x4875 DUP4 CODECOPY DUP2 MLOAD SWAP2 MSTORE SLOAD SWAP1 SWAP2 POP PUSH2 0x2EE8 SWAP1 DUP3 SWAP1 PUSH2 0x4537 JUMP JUMPDEST PUSH1 0x0 DUP1 DUP1 MSTORE PUSH1 0x9F PUSH1 0x20 MSTORE PUSH1 0x0 DUP1 MLOAD PUSH1 0x20 PUSH2 0x4875 DUP4 CODECOPY DUP2 MLOAD SWAP2 MSTORE SWAP2 SWAP1 SWAP2 SSTORE PUSH1 0x40 MLOAD ADDRESS SWAP2 DUP7 ISZERO PUSH2 0x8FC MUL SWAP2 DUP8 SWAP2 DUP2 DUP2 DUP2 DUP6 DUP9 DUP9 CALL SWAP4 POP POP POP POP ISZERO DUP1 ISZERO PUSH2 0x2F30 JUMPI RETURNDATASIZE PUSH1 0x0 DUP1 RETURNDATACOPY RETURNDATASIZE PUSH1 0x0 REVERT JUMPDEST POP PUSH1 0x0 DUP7 DUP2 MSTORE PUSH1 0xA0 PUSH1 0x20 SWAP1 DUP2 MSTORE PUSH1 0x40 DUP1 DUP4 KECCAK256 DUP4 DUP1 MSTORE PUSH1 0x8 ADD SWAP1 SWAP2 MSTORE SWAP1 KECCAK256 SLOAD PUSH2 0x2F59 SWAP1 DUP6 SWAP1 PUSH2 0x4537 JUMP JUMPDEST PUSH1 0x0 DUP8 DUP2 MSTORE PUSH1 0xA0 PUSH1 0x20 SWAP1 DUP2 MSTORE PUSH1 0x40 DUP1 DUP4 KECCAK256 DUP4 DUP1 MSTORE PUSH1 0x8 ADD SWAP1 SWAP2 MSTORE SWAP1 KECCAK256 SSTORE POP PUSH2 0x3116 JUMP JUMPDEST PUSH1 0x40 MLOAD PUSH4 0x70A08231 PUSH1 0xE0 SHL DUP2 MSTORE PUSH1 0x1 PUSH1 0x1 PUSH1 0xA0 SHL SUB DUP4 DUP2 AND PUSH1 0x4 DUP4 ADD MSTORE DUP5 SWAP2 SWAP1 DUP7 AND SWAP1 PUSH4 0x70A08231 SWAP1 PUSH1 0x24 ADD PUSH1 0x20 PUSH1 0x40 MLOAD DUP1 DUP4 SUB DUP2 DUP7 GAS STATICCALL ISZERO DUP1 ISZERO PUSH2 0x2FC5 JUMPI RETURNDATASIZE PUSH1 0x0 DUP1 RETURNDATACOPY RETURNDATASIZE PUSH1 0x0 REVERT JUMPDEST POP POP POP POP PUSH1 0x40 MLOAD RETURNDATASIZE PUSH1 0x1F NOT PUSH1 0x1F DUP3 ADD AND DUP3 ADD DUP1 PUSH1 0x40 MSTORE POP DUP2 ADD SWAP1 PUSH2 0x2FE9 SWAP2 SWAP1 PUSH2 0x459E JUMP JUMPDEST LT ISZERO PUSH2 0x3007 JUMPI PUSH1 0x40 MLOAD PUSH3 0x461BCD PUSH1 0xE5 SHL DUP2 MSTORE PUSH1 0x4 ADD PUSH2 0xCA2 SWAP1 PUSH2 0x4517 JUMP JUMPDEST PUSH1 0x0 DUP1 MSTORE PUSH1 0x9F PUSH1 0x20 MSTORE PUSH1 0x0 DUP1 MLOAD PUSH1 0x20 PUSH2 0x4875 DUP4 CODECOPY DUP2 MLOAD SWAP2 MSTORE SLOAD PUSH2 0x302B SWAP1 CALLVALUE SWAP1 PUSH2 0x4537 JUMP JUMPDEST PUSH1 0x0 DUP1 MSTORE PUSH1 0x9F PUSH1 0x20 MSTORE PUSH1 0x0 DUP1 MLOAD PUSH1 0x20 PUSH2 0x4875 DUP4 CODECOPY DUP2 MLOAD SWAP2 MSTORE SSTORE PUSH1 0x40 MLOAD PUSH4 0x23B872DD PUSH1 0xE0 SHL DUP2 MSTORE PUSH1 0x1 PUSH1 0x1 PUSH1 0xA0 SHL SUB DUP4 DUP2 AND PUSH1 0x4 DUP4 ADD MSTORE ADDRESS PUSH1 0x24 DUP4 ADD MSTORE PUSH1 0x44 DUP3 ADD DUP6 SWAP1 MSTORE DUP6 AND SWAP1 PUSH4 0x23B872DD SWAP1 PUSH1 0x64 ADD PUSH1 0x20 PUSH1 0x40 MLOAD DUP1 DUP4 SUB DUP2 PUSH1 0x0 DUP8 GAS CALL ISZERO DUP1 ISZERO PUSH2 0x3099 JUMPI RETURNDATASIZE PUSH1 0x0 DUP1 RETURNDATACOPY RETURNDATASIZE PUSH1 0x0 REVERT JUMPDEST POP POP POP POP PUSH1 0x40 MLOAD RETURNDATASIZE PUSH1 0x1F NOT PUSH1 0x1F DUP3 ADD AND DUP3 ADD DUP1 PUSH1 0x40 MSTORE POP DUP2 ADD SWAP1 PUSH2 0x30BD SWAP2 SWAP1 PUSH2 0x45B7 JUMP JUMPDEST POP PUSH1 0x0 DUP6 DUP2 MSTORE PUSH1 0xA0 PUSH1 0x20 SWAP1 DUP2 MSTORE PUSH1 0x40 DUP1 DUP4 KECCAK256 PUSH1 0x1 PUSH1 0x1 PUSH1 0xA0 SHL SUB DUP9 AND DUP5 MSTORE PUSH1 0x8 ADD SWAP1 SWAP2 MSTORE SWAP1 KECCAK256 SLOAD PUSH2 0x30EF SWAP1 DUP5 SWAP1 PUSH2 0x4537 JUMP JUMPDEST PUSH1 0x0 DUP7 DUP2 MSTORE PUSH1 0xA0 PUSH1 0x20 SWAP1 DUP2 MSTORE PUSH1 0x40 DUP1 DUP4 KECCAK256 PUSH1 0x1 PUSH1 0x1 PUSH1 0xA0 SHL SUB DUP10 AND DUP5 MSTORE PUSH1 0x8 ADD SWAP1 SWAP2 MSTORE SWAP1 KECCAK256 SSTORE JUMPDEST PUSH2 0xF16 DUP6 PUSH2 0x258C JUMP JUMPDEST PUSH1 0x0 DUP2 DUP2 MSTORE PUSH1 0xA0 PUSH1 0x20 MSTORE PUSH1 0x40 DUP2 KECCAK256 PUSH1 0x4 ADD SLOAD TIMESTAMP GT ISZERO PUSH2 0x3140 JUMPI POP PUSH1 0x1 SWAP2 SWAP1 POP JUMP JUMPDEST POP PUSH1 0x0 SWAP2 SWAP1 POP JUMP JUMPDEST PUSH1 0x0 DUP4 DUP2 MSTORE PUSH1 0xA0 PUSH1 0x20 MSTORE PUSH1 0x40 SWAP1 KECCAK256 PUSH1 0x1 ADD SLOAD PUSH1 0x1 PUSH1 0x1 PUSH1 0xA0 SHL SUB AND CALLER EQ DUP1 PUSH2 0x3186 JUMPI POP PUSH1 0x0 DUP4 DUP2 MSTORE PUSH1 0xA0 PUSH1 0x20 MSTORE PUSH1 0x40 SWAP1 KECCAK256 SLOAD PUSH1 0x1 PUSH1 0x1 PUSH1 0xA0 SHL SUB AND CALLER EQ JUMPDEST PUSH2 0x31A2 JUMPI PUSH1 0x40 MLOAD PUSH3 0x461BCD PUSH1 0xE5 SHL DUP2 MSTORE PUSH1 0x4 ADD PUSH2 0xCA2 SWAP1 PUSH2 0x4574 JUMP JUMPDEST PUSH1 0x0 DUP4 DUP2 MSTORE PUSH1 0xA0 PUSH1 0x20 SWAP1 DUP2 MSTORE PUSH1 0x40 DUP1 DUP4 KECCAK256 DUP6 DUP5 MSTORE PUSH1 0x9 ADD SWAP1 SWAP2 MSTORE SWAP1 KECCAK256 PUSH1 0x2 ADD SLOAD PUSH1 0x1 PUSH1 0x1 PUSH1 0xA0 SHL SUB AND CALLER EQ DUP1 ISZERO PUSH2 0x31F6 JUMPI POP PUSH1 0x0 DUP4 DUP2 MSTORE PUSH1 0xA0 PUSH1 0x20 SWAP1 DUP2 MSTORE PUSH1 0x40 DUP1 DUP4 KECCAK256 DUP6 DUP5 MSTORE PUSH1 0x9 ADD SWAP1 SWAP2 MSTORE SWAP1 KECCAK256 SLOAD PUSH1 0xFF AND ISZERO JUMPDEST PUSH2 0x3212 JUMPI PUSH1 0x40 MLOAD PUSH3 0x461BCD PUSH1 0xE5 SHL DUP2 MSTORE PUSH1 0x4 ADD PUSH2 0xCA2 SWAP1 PUSH2 0x4742 JUMP JUMPDEST PUSH1 0x0 DUP1 MSTORE PUSH1 0x9F PUSH1 0x20 MSTORE PUSH1 0x0 DUP1 MLOAD PUSH1 0x20 PUSH2 0x4875 DUP4 CODECOPY DUP2 MLOAD SWAP2 MSTORE SLOAD PUSH2 0x3236 SWAP1 CALLVALUE SWAP1 PUSH2 0x4537 JUMP JUMPDEST PUSH1 0x0 DUP1 MSTORE PUSH1 0x9F PUSH1 0x20 MSTORE PUSH1 0x0 DUP1 MLOAD PUSH1 0x20 PUSH2 0x4875 DUP4 CODECOPY DUP2 MLOAD SWAP2 MSTORE SSTORE PUSH2 0x3258 DUP4 PUSH2 0x258C JUMP JUMPDEST PUSH1 0x0 DUP4 DUP2 MSTORE PUSH1 0xA1 PUSH1 0x20 MSTORE PUSH1 0x40 DUP2 KECCAK256 DUP4 SWAP1 SSTORE JUMPDEST PUSH1 0x0 DUP5 DUP2 MSTORE PUSH1 0xA1 PUSH1 0x20 MSTORE PUSH1 0x40 SWAP1 KECCAK256 PUSH1 0x2 ADD SLOAD DUP2 LT ISZERO PUSH2 0x333A JUMPI PUSH1 0x0 DUP5 DUP2 MSTORE PUSH1 0xA1 PUSH1 0x20 MSTORE PUSH1 0x40 DUP2 KECCAK256 PUSH1 0x2 ADD DUP1 SLOAD DUP4 SWAP1 DUP2 LT PUSH2 0x32A6 JUMPI PUSH2 0x32A6 PUSH2 0x44A3 JUMP JUMPDEST PUSH1 0x0 SWAP2 DUP3 MSTORE PUSH1 0x20 SWAP1 SWAP2 KECCAK256 ADD SLOAD PUSH1 0x1 PUSH1 0x1 PUSH1 0xA0 SHL SUB SWAP1 DUP2 AND SWAP2 POP DUP4 AND DUP2 SUB PUSH2 0x3327 JUMPI PUSH1 0x0 DUP6 DUP2 MSTORE PUSH1 0xA1 PUSH1 0x20 MSTORE PUSH1 0x40 SWAP1 KECCAK256 PUSH1 0x2 ADD DUP1 SLOAD DUP4 SWAP1 DUP2 LT PUSH2 0x32EA JUMPI PUSH2 0x32EA PUSH2 0x44A3 JUMP JUMPDEST PUSH1 0x0 SWAP2 DUP3 MSTORE PUSH1 0x20 DUP1 DUP4 KECCAK256 SWAP1 SWAP2 ADD DUP1 SLOAD PUSH1 0x1 PUSH1 0x1 PUSH1 0xA0 SHL SUB NOT AND SWAP1 SSTORE DUP7 DUP3 MSTORE PUSH1 0xA1 SWAP1 MSTORE PUSH1 0x40 SWAP1 KECCAK256 PUSH1 0x1 SWAP1 DUP2 ADD SLOAD PUSH2 0x3320 SWAP2 SWAP1 PUSH2 0x454A JUMP JUMPDEST POP POP PUSH2 0x333A JUMP JUMPDEST POP DUP1 PUSH2 0x3332 DUP2 PUSH2 0x44CF JUMP JUMPDEST SWAP2 POP POP PUSH2 0x326A JUMP JUMPDEST POP PUSH1 0x0 DUP4 DUP2 MSTORE PUSH1 0xA1 PUSH1 0x20 MSTORE PUSH1 0x40 SWAP1 KECCAK256 PUSH1 0x1 SWAP1 DUP2 ADD SLOAD PUSH2 0x3359 SWAP2 SWAP1 PUSH2 0x454A JUMP JUMPDEST POP POP POP POP JUMP JUMPDEST PUSH1 0x0 DUP1 JUMPDEST PUSH1 0x98 SLOAD DUP2 LT ISZERO PUSH2 0x33B9 JUMPI PUSH1 0x0 PUSH1 0x98 DUP3 DUP2 SLOAD DUP2 LT PUSH2 0x3382 JUMPI PUSH2 0x3382 PUSH2 0x44A3 JUMP JUMPDEST PUSH1 0x0 SWAP2 DUP3 MSTORE PUSH1 0x20 SWAP1 SWAP2 KECCAK256 ADD SLOAD PUSH1 0x1 PUSH1 0x1 PUSH1 0xA0 SHL SUB AND SWAP1 POP CALLER DUP2 SWAP1 SUB PUSH2 0x33A6 JUMPI PUSH1 0x1 SWAP3 POP JUMPDEST POP DUP1 PUSH2 0x33B1 DUP2 PUSH2 0x44CF JUMP JUMPDEST SWAP2 POP POP PUSH2 0x3363 JUMP JUMPDEST POP PUSH1 0x1 DUP2 ISZERO ISZERO EQ PUSH2 0x33DC JUMPI PUSH1 0x40 MLOAD PUSH3 0x461BCD PUSH1 0xE5 SHL DUP2 MSTORE PUSH1 0x4 ADD PUSH2 0xCA2 SWAP1 PUSH2 0x44E8 JUMP JUMPDEST PUSH1 0x0 DUP5 DUP2 MSTORE PUSH1 0xA0 PUSH1 0x20 SWAP1 DUP2 MSTORE PUSH1 0x40 DUP3 KECCAK256 SWAP2 DUP1 MSTORE PUSH1 0x9F SWAP1 MSTORE PUSH1 0x0 DUP1 MLOAD PUSH1 0x20 PUSH2 0x4875 DUP4 CODECOPY DUP2 MLOAD SWAP2 MSTORE SLOAD PUSH2 0x340E SWAP1 CALLVALUE SWAP1 PUSH2 0x4537 JUMP JUMPDEST PUSH1 0x0 DUP1 MLOAD PUSH1 0x20 PUSH2 0x4875 DUP4 CODECOPY DUP2 MLOAD SWAP2 MSTORE SSTORE PUSH1 0x0 DUP6 DUP2 MSTORE PUSH1 0xA0 PUSH1 0x20 MSTORE PUSH1 0x40 SWAP1 KECCAK256 PUSH1 0x6 ADD SLOAD PUSH1 0x5 DUP3 ADD SLOAD GT ISZERO PUSH2 0x3471 JUMPI PUSH1 0x40 MLOAD PUSH3 0x461BCD PUSH1 0xE5 SHL DUP2 MSTORE PUSH1 0x20 PUSH1 0x4 DUP3 ADD MSTORE PUSH1 0xB PUSH1 0x24 DUP3 ADD MSTORE PUSH11 0x1CDB1BDD08195E18D95959 PUSH1 0xAA SHL PUSH1 0x44 DUP3 ADD MSTORE PUSH1 0x64 ADD PUSH2 0xCA2 JUMP JUMPDEST PUSH1 0x0 DUP5 DUP2 MSTORE PUSH1 0x9 DUP3 ADD PUSH1 0x20 MSTORE PUSH1 0x40 SWAP1 KECCAK256 PUSH1 0x2 ADD SLOAD PUSH1 0x1 PUSH1 0x1 PUSH1 0xA0 SHL SUB DUP5 DUP2 AND SWAP2 AND EQ DUP1 ISZERO PUSH2 0x34AE JUMPI POP PUSH1 0x1 DUP2 ADD SLOAD PUSH1 0x1 PUSH1 0x1 PUSH1 0xA0 SHL SUB DUP5 DUP2 AND SWAP2 AND EQ JUMPDEST PUSH2 0x34FA JUMPI PUSH1 0x40 MLOAD PUSH3 0x461BCD PUSH1 0xE5 SHL DUP2 MSTORE PUSH1 0x20 PUSH1 0x4 DUP3 ADD MSTORE PUSH1 0x17 PUSH1 0x24 DUP3 ADD MSTORE PUSH32 0x646964206E6F742073746F7265206461746120736C6F74000000000000000000 PUSH1 0x44 DUP3 ADD MSTORE PUSH1 0x64 ADD PUSH2 0xCA2 JUMP JUMPDEST PUSH1 0x1 DUP2 PUSH1 0x5 ADD SLOAD PUSH2 0x350B SWAP2 SWAP1 PUSH2 0x454A JUMP JUMPDEST POP PUSH2 0x3515 DUP6 PUSH2 0x258C JUMP JUMPDEST PUSH1 0x0 SWAP4 DUP5 MSTORE PUSH1 0x9 ADD PUSH1 0x20 MSTORE POP POP PUSH1 0x40 SWAP1 KECCAK256 DUP1 SLOAD PUSH1 0xFF NOT AND PUSH1 0x1 OR SWAP1 SSTORE POP JUMP JUMPDEST PUSH1 0x9B SLOAD PUSH1 0x1 PUSH1 0x1 PUSH1 0xA0 SHL SUB AND CALLER EQ PUSH2 0x354B JUMPI PUSH1 0x0 DUP1 REVERT JUMPDEST PUSH1 0x9B DUP1 SLOAD PUSH1 0x1 PUSH1 0x1 PUSH1 0xA0 SHL SUB NOT AND PUSH1 0x1 PUSH1 0x1 PUSH1 0xA0 SHL SUB SWAP3 SWAP1 SWAP3 AND SWAP2 SWAP1 SWAP2 OR SWAP1 SSTORE JUMP JUMPDEST PUSH1 0x0 DUP1 JUMPDEST PUSH1 0x98 SLOAD DUP2 LT ISZERO PUSH2 0x35C7 JUMPI PUSH1 0x0 PUSH1 0x98 DUP3 DUP2 SLOAD DUP2 LT PUSH2 0x3590 JUMPI PUSH2 0x3590 PUSH2 0x44A3 JUMP JUMPDEST PUSH1 0x0 SWAP2 DUP3 MSTORE PUSH1 0x20 SWAP1 SWAP2 KECCAK256 ADD SLOAD PUSH1 0x1 PUSH1 0x1 PUSH1 0xA0 SHL SUB AND SWAP1 POP CALLER DUP2 SWAP1 SUB PUSH2 0x35B4 JUMPI PUSH1 0x1 SWAP3 POP JUMPDEST POP DUP1 PUSH2 0x35BF DUP2 PUSH2 0x44CF JUMP JUMPDEST SWAP2 POP POP PUSH2 0x3571 JUMP JUMPDEST POP PUSH1 0x1 DUP2 ISZERO ISZERO EQ PUSH2 0x35EA JUMPI PUSH1 0x40 MLOAD PUSH3 0x461BCD PUSH1 0xE5 SHL DUP2 MSTORE PUSH1 0x4 ADD PUSH2 0xCA2 SWAP1 PUSH2 0x44E8 JUMP JUMPDEST POP PUSH1 0x0 SWAP2 DUP3 MSTORE PUSH1 0xA0 PUSH1 0x20 MSTORE PUSH1 0x40 SWAP1 SWAP2 KECCAK256 PUSH1 0x1 ADD DUP1 SLOAD PUSH2 0xFFFF SWAP1 SWAP3 AND PUSH1 0x1 PUSH1 0xB0 SHL MUL PUSH2 0xFFFF PUSH1 0xB0 SHL NOT SWAP1 SWAP3 AND SWAP2 SWAP1 SWAP2 OR SWAP1 SSTORE JUMP JUMPDEST PUSH1 0x0 DUP1 JUMPDEST PUSH1 0x98 SLOAD DUP2 LT ISZERO PUSH2 0x3677 JUMPI PUSH1 0x0 PUSH1 0x98 DUP3 DUP2 SLOAD DUP2 LT PUSH2 0x3640 JUMPI PUSH2 0x3640 PUSH2 0x44A3 JUMP JUMPDEST PUSH1 0x0 SWAP2 DUP3 MSTORE PUSH1 0x20 SWAP1 SWAP2 KECCAK256 ADD SLOAD PUSH1 0x1 PUSH1 0x1 PUSH1 0xA0 SHL SUB AND SWAP1 POP CALLER DUP2 SWAP1 SUB PUSH2 0x3664 JUMPI PUSH1 0x1 SWAP3 POP JUMPDEST POP DUP1 PUSH2 0x366F DUP2 PUSH2 0x44CF JUMP JUMPDEST SWAP2 POP POP PUSH2 0x3621 JUMP JUMPDEST POP PUSH1 0x1 DUP2 ISZERO ISZERO EQ PUSH2 0x369A JUMPI PUSH1 0x40 MLOAD PUSH3 0x461BCD PUSH1 0xE5 SHL DUP2 MSTORE PUSH1 0x4 ADD PUSH2 0xCA2 SWAP1 PUSH2 0x44E8 JUMP JUMPDEST PUSH1 0x0 DUP3 DUP2 MSTORE PUSH1 0xA0 PUSH1 0x20 MSTORE PUSH1 0x40 SWAP1 KECCAK256 PUSH1 0x6 ADD SLOAD PUSH2 0x36B7 SWAP1 DUP5 SWAP1 PUSH2 0x4537 JUMP JUMPDEST PUSH1 0x0 SWAP3 DUP4 MSTORE PUSH1 0xA0 PUSH1 0x20 MSTORE PUSH1 0x40 SWAP1 SWAP3 KECCAK256 PUSH1 0x6 ADD SWAP2 SWAP1 SWAP2 SSTORE POP POP JUMP JUMPDEST PUSH1 0x0 PUSH1 0x1 PUSH1 0x1 PUSH1 0xE0 SHL SUB NOT DUP3 AND PUSH4 0x7AA5391D PUSH1 0xE0 SHL EQ DUP1 PUSH2 0x3702 JUMPI POP PUSH1 0x1 PUSH1 0x1 PUSH1 0xE0 SHL SUB NOT DUP3 AND PUSH4 0x5B5E139F PUSH1 0xE0 SHL EQ JUMPDEST DUP1 PUSH2 0xB61 JUMPI POP PUSH4 0x1FFC9A7 PUSH1 0xE0 SHL PUSH1 0x1 PUSH1 0x1 PUSH1 0xE0 SHL SUB NOT DUP4 AND EQ PUSH2 0xB61 JUMP JUMPDEST PUSH1 0x0 SWAP1 DUP2 MSTORE PUSH1 0x68 PUSH1 0x20 MSTORE PUSH1 0x40 SWAP1 KECCAK256 SLOAD PUSH1 0x1 PUSH1 0x1 PUSH1 0xA0 SHL SUB AND ISZERO ISZERO SWAP1 JUMP JUMPDEST PUSH1 0x0 DUP2 DUP2 MSTORE PUSH1 0x6A PUSH1 0x20 MSTORE PUSH1 0x40 SWAP1 KECCAK256 DUP1 SLOAD PUSH1 0x1 PUSH1 0x1 PUSH1 0xA0 SHL SUB NOT AND PUSH1 0x1 PUSH1 0x1 PUSH1 0xA0 SHL SUB DUP5 AND SWAP1 DUP2 OR SWAP1 SWAP2 SSTORE DUP2 SWAP1 PUSH2 0x3773 DUP3 PUSH2 0x1E20 JUMP JUMPDEST PUSH1 0x1 PUSH1 0x1 PUSH1 0xA0 SHL SUB AND PUSH32 0x8C5BE1E5EBEC7D5BD14F71427D1E84F3DD0314C0F7B2291E5B200AC8C7C3B925 PUSH1 0x40 MLOAD PUSH1 0x40 MLOAD DUP1 SWAP2 SUB SWAP1 LOG4 POP POP JUMP JUMPDEST PUSH1 0x0 DUP1 PUSH2 0x37B8 DUP4 PUSH2 0x1E20 JUMP JUMPDEST SWAP1 POP DUP1 PUSH1 0x1 PUSH1 0x1 PUSH1 0xA0 SHL SUB AND DUP5 PUSH1 0x1 PUSH1 0x1 PUSH1 0xA0 SHL SUB AND EQ DUP1 PUSH2 0x37FF JUMPI POP PUSH1 0x1 PUSH1 0x1 PUSH1 0xA0 SHL SUB DUP1 DUP3 AND PUSH1 0x0 SWAP1 DUP2 MSTORE PUSH1 0x6B PUSH1 0x20 SWAP1 DUP2 MSTORE PUSH1 0x40 DUP1 DUP4 KECCAK256 SWAP4 DUP9 AND DUP4 MSTORE SWAP3 SWAP1 MSTORE KECCAK256 SLOAD PUSH1 0xFF AND JUMPDEST DUP1 PUSH2 0x3823 JUMPI POP DUP4 PUSH1 0x1 PUSH1 0x1 PUSH1 0xA0 SHL SUB AND PUSH2 0x3818 DUP5 PUSH2 0xBF9 JUMP JUMPDEST PUSH1 0x1 PUSH1 0x1 PUSH1 0xA0 SHL SUB AND EQ JUMPDEST SWAP5 SWAP4 POP POP POP POP JUMP JUMPDEST DUP3 PUSH1 0x1 PUSH1 0x1 PUSH1 0xA0 SHL SUB AND PUSH2 0x383E DUP3 PUSH2 0x1E20 JUMP JUMPDEST PUSH1 0x1 PUSH1 0x1 PUSH1 0xA0 SHL SUB AND EQ PUSH2 0x3864 JUMPI PUSH1 0x40 MLOAD PUSH3 0x461BCD PUSH1 0xE5 SHL DUP2 MSTORE PUSH1 0x4 ADD PUSH2 0xCA2 SWAP1 PUSH2 0x4783 JUMP JUMPDEST PUSH1 0x1 PUSH1 0x1 PUSH1 0xA0 SHL SUB DUP3 AND PUSH2 0x38C6 JUMPI PUSH1 0x40 MLOAD PUSH3 0x461BCD PUSH1 0xE5 SHL DUP2 MSTORE PUSH1 0x20 PUSH1 0x4 DUP3 ADD MSTORE PUSH1 0x24 DUP1 DUP3 ADD MSTORE PUSH32 0x4552433732313A207472616E7366657220746F20746865207A65726F20616464 PUSH1 0x44 DUP3 ADD MSTORE PUSH4 0x72657373 PUSH1 0xE0 SHL PUSH1 0x64 DUP3 ADD MSTORE PUSH1 0x84 ADD PUSH2 0xCA2 JUMP JUMPDEST PUSH2 0x38D3 DUP4 DUP4 DUP4 PUSH1 0x1 PUSH2 0x3BC2 JUMP JUMPDEST DUP3 PUSH1 0x1 PUSH1 0x1 PUSH1 0xA0 SHL SUB AND PUSH2 0x38E6 DUP3 PUSH2 0x1E20 JUMP JUMPDEST PUSH1 0x1 PUSH1 0x1 PUSH1 0xA0 SHL SUB AND EQ PUSH2 0x390C JUMPI PUSH1 0x40 MLOAD PUSH3 0x461BCD PUSH1 0xE5 SHL DUP2 MSTORE PUSH1 0x4 ADD PUSH2 0xCA2 SWAP1 PUSH2 0x4783 JUMP JUMPDEST PUSH1 0x0 DUP2 DUP2 MSTORE PUSH1 0x6A PUSH1 0x20 SWAP1 DUP2 MSTORE PUSH1 0x40 DUP1 DUP4 KECCAK256 DUP1 SLOAD PUSH1 0x1 PUSH1 0x1 PUSH1 0xA0 SHL SUB NOT SWAP1 DUP2 AND SWAP1 SWAP2 SSTORE PUSH1 0x1 PUSH1 0x1 PUSH1 0xA0 SHL SUB DUP8 DUP2 AND DUP1 DUP7 MSTORE PUSH1 0x69 DUP6 MSTORE DUP4 DUP7 KECCAK256 DUP1 SLOAD PUSH1 0x0 NOT ADD SWAP1 SSTORE SWAP1 DUP8 AND DUP1 DUP7 MSTORE DUP4 DUP7 KECCAK256 DUP1 SLOAD PUSH1 0x1 ADD SWAP1 SSTORE DUP7 DUP7 MSTORE PUSH1 0x68 SWAP1 SWAP5 MSTORE DUP3 DUP6 KECCAK256 DUP1 SLOAD SWAP1 SWAP3 AND DUP5 OR SWAP1 SWAP2 SSTORE SWAP1 MLOAD DUP5 SWAP4 PUSH32 0xDDF252AD1BE2C89B69C2B068FC378DAA952BA7F163C4A11628F55A4DF523B3EF SWAP2 LOG4 POP POP POP JUMP JUMPDEST PUSH2 0x10B7 DUP3 DUP3 PUSH1 0x40 MLOAD DUP1 PUSH1 0x20 ADD PUSH1 0x40 MSTORE DUP1 PUSH1 0x0 DUP2 MSTORE POP PUSH2 0x3BF5 JUMP JUMPDEST PUSH1 0x0 SLOAD PUSH2 0x100 SWAP1 DIV PUSH1 0xFF AND PUSH2 0x3A21 JUMPI PUSH1 0x40 MLOAD PUSH3 0x461BCD PUSH1 0xE5 SHL DUP2 MSTORE PUSH1 0x20 PUSH1 0x4 DUP3 ADD MSTORE PUSH1 0x2B PUSH1 0x24 DUP3 ADD MSTORE PUSH32 0x496E697469616C697A61626C653A20636F6E7472616374206973206E6F742069 PUSH1 0x44 DUP3 ADD MSTORE PUSH11 0x6E697469616C697A696E67 PUSH1 0xA8 SHL PUSH1 0x64 DUP3 ADD MSTORE PUSH1 0x84 ADD PUSH2 0xCA2 JUMP JUMPDEST PUSH1 0x65 PUSH2 0x3A2D DUP4 DUP3 PUSH2 0x4637 JUMP JUMPDEST POP PUSH1 0x66 PUSH2 0xD43 DUP3 DUP3 PUSH2 0x4637 JUMP JUMPDEST PUSH1 0x0 DUP3 DUP2 MSTORE PUSH1 0x67 PUSH1 0x20 MSTORE PUSH1 0x40 SWAP1 KECCAK256 PUSH2 0xD43 DUP3 DUP3 PUSH2 0x4637 JUMP JUMPDEST DUP2 PUSH1 0x1 PUSH1 0x1 PUSH1 0xA0 SHL SUB AND DUP4 PUSH1 0x1 PUSH1 0x1 PUSH1 0xA0 SHL SUB AND SUB PUSH2 0x3AB3 JUMPI PUSH1 0x40 MLOAD PUSH3 0x461BCD PUSH1 0xE5 SHL DUP2 MSTORE PUSH1 0x20 PUSH1 0x4 DUP3 ADD MSTORE PUSH1 0x19 PUSH1 0x24 DUP3 ADD MSTORE PUSH32 0x4552433732313A20617070726F766520746F2063616C6C657200000000000000 PUSH1 0x44 DUP3 ADD MSTORE PUSH1 0x64 ADD PUSH2 0xCA2 JUMP JUMPDEST PUSH1 0x1 PUSH1 0x1 PUSH1 0xA0 SHL SUB DUP4 DUP2 AND PUSH1 0x0 DUP2 DUP2 MSTORE PUSH1 0x6B PUSH1 0x20 SWAP1 DUP2 MSTORE PUSH1 0x40 DUP1 DUP4 KECCAK256 SWAP5 DUP8 AND DUP1 DUP5 MSTORE SWAP5 DUP3 MSTORE SWAP2 DUP3 SWAP1 KECCAK256 DUP1 SLOAD PUSH1 0xFF NOT AND DUP7 ISZERO ISZERO SWAP1 DUP2 OR SWAP1 SWAP2 SSTORE SWAP2 MLOAD SWAP2 DUP3 MSTORE PUSH32 0x17307EAB39AB6107E8899845AD3D59BD9653F200F220920489CA2B5937696C31 SWAP2 ADD PUSH1 0x40 MLOAD DUP1 SWAP2 SUB SWAP1 LOG3 POP POP POP JUMP JUMPDEST PUSH1 0x0 DUP2 DUP2 MSTORE PUSH1 0x67 PUSH1 0x20 MSTORE PUSH1 0x40 SWAP1 KECCAK256 DUP1 SLOAD PUSH1 0x60 SWAP2 SWAP1 PUSH2 0x3B3D SWAP1 PUSH2 0x4469 JUMP JUMPDEST DUP1 PUSH1 0x1F ADD PUSH1 0x20 DUP1 SWAP2 DIV MUL PUSH1 0x20 ADD PUSH1 0x40 MLOAD SWAP1 DUP2 ADD PUSH1 0x40 MSTORE DUP1 SWAP3 SWAP2 SWAP1 DUP2 DUP2 MSTORE PUSH1 0x20 ADD DUP3 DUP1 SLOAD PUSH2 0x3B69 SWAP1 PUSH2 0x4469 JUMP JUMPDEST DUP1 ISZERO PUSH2 0x3BB6 JUMPI DUP1 PUSH1 0x1F LT PUSH2 0x3B8B JUMPI PUSH2 0x100 DUP1 DUP4 SLOAD DIV MUL DUP4 MSTORE SWAP2 PUSH1 0x20 ADD SWAP2 PUSH2 0x3BB6 JUMP JUMPDEST DUP3 ADD SWAP2 SWAP1 PUSH1 0x0 MSTORE PUSH1 0x20 PUSH1 0x0 KECCAK256 SWAP1 JUMPDEST DUP2 SLOAD DUP2 MSTORE SWAP1 PUSH1 0x1 ADD SWAP1 PUSH1 0x20 ADD DUP1 DUP4 GT PUSH2 0x3B99 JUMPI DUP3 SWAP1 SUB PUSH1 0x1F AND DUP3 ADD SWAP2 JUMPDEST POP POP POP POP POP SWAP1 POP SWAP2 SWAP1 POP JUMP JUMPDEST POP PUSH1 0x0 SWAP1 DUP2 MSTORE PUSH1 0xA0 PUSH1 0x20 MSTORE PUSH1 0x40 SWAP1 KECCAK256 PUSH1 0x1 ADD DUP1 SLOAD PUSH1 0x1 PUSH1 0x1 PUSH1 0xA0 SHL SUB NOT AND PUSH1 0x1 PUSH1 0x1 PUSH1 0xA0 SHL SUB SWAP3 SWAP1 SWAP3 AND SWAP2 SWAP1 SWAP2 OR SWAP1 SSTORE POP JUMP JUMPDEST PUSH2 0x3BFF DUP4 DUP4 PUSH2 0x3C28 JUMP JUMPDEST PUSH2 0x3C0C PUSH1 0x0 DUP5 DUP5 DUP5 PUSH2 0x3DA3 JUMP JUMPDEST PUSH2 0xD43 JUMPI PUSH1 0x40 MLOAD PUSH3 0x461BCD PUSH1 0xE5 SHL DUP2 MSTORE PUSH1 0x4 ADD PUSH2 0xCA2 SWAP1 PUSH2 0x47C8 JUMP JUMPDEST PUSH1 0x1 PUSH1 0x1 PUSH1 0xA0 SHL SUB DUP3 AND PUSH2 0x3C7E JUMPI PUSH1 0x40 MLOAD PUSH3 0x461BCD PUSH1 0xE5 SHL DUP2 MSTORE PUSH1 0x20 PUSH1 0x4 DUP3 ADD DUP2 SWAP1 MSTORE PUSH1 0x24 DUP3 ADD MSTORE PUSH32 0x4552433732313A206D696E7420746F20746865207A65726F2061646472657373 PUSH1 0x44 DUP3 ADD MSTORE PUSH1 0x64 ADD PUSH2 0xCA2 JUMP JUMPDEST PUSH2 0x3C87 DUP2 PUSH2 0x3721 JUMP JUMPDEST ISZERO PUSH2 0x3CD4 JUMPI PUSH1 0x40 MLOAD PUSH3 0x461BCD PUSH1 0xE5 SHL DUP2 MSTORE PUSH1 0x20 PUSH1 0x4 DUP3 ADD MSTORE PUSH1 0x1C PUSH1 0x24 DUP3 ADD MSTORE PUSH32 0x4552433732313A20746F6B656E20616C7265616479206D696E74656400000000 PUSH1 0x44 DUP3 ADD MSTORE PUSH1 0x64 ADD PUSH2 0xCA2 JUMP JUMPDEST PUSH2 0x3CE2 PUSH1 0x0 DUP4 DUP4 PUSH1 0x1 PUSH2 0x3BC2 JUMP JUMPDEST PUSH2 0x3CEB DUP2 PUSH2 0x3721 JUMP JUMPDEST ISZERO PUSH2 0x3D38 JUMPI PUSH1 0x40 MLOAD PUSH3 0x461BCD PUSH1 0xE5 SHL DUP2 MSTORE PUSH1 0x20 PUSH1 0x4 DUP3 ADD MSTORE PUSH1 0x1C PUSH1 0x24 DUP3 ADD MSTORE PUSH32 0x4552433732313A20746F6B656E20616C7265616479206D696E74656400000000 PUSH1 0x44 DUP3 ADD MSTORE PUSH1 0x64 ADD PUSH2 0xCA2 JUMP JUMPDEST PUSH1 0x1 PUSH1 0x1 PUSH1 0xA0 SHL SUB DUP3 AND PUSH1 0x0 DUP2 DUP2 MSTORE PUSH1 0x69 PUSH1 0x20 SWAP1 DUP2 MSTORE PUSH1 0x40 DUP1 DUP4 KECCAK256 DUP1 SLOAD PUSH1 0x1 ADD SWAP1 SSTORE DUP5 DUP4 MSTORE PUSH1 0x68 SWAP1 SWAP2 MSTORE DUP1 DUP3 KECCAK256 DUP1 SLOAD PUSH1 0x1 PUSH1 0x1 PUSH1 0xA0 SHL SUB NOT AND DUP5 OR SWAP1 SSTORE MLOAD DUP4 SWAP3 SWAP2 SWAP1 PUSH32 0xDDF252AD1BE2C89B69C2B068FC378DAA952BA7F163C4A11628F55A4DF523B3EF SWAP1 DUP3 SWAP1 LOG4 POP POP JUMP JUMPDEST PUSH1 0x0 PUSH1 0x1 PUSH1 0x1 PUSH1 0xA0 SHL SUB DUP5 AND EXTCODESIZE ISZERO PUSH2 0x3E99 JUMPI PUSH1 0x40 MLOAD PUSH4 0xA85BD01 PUSH1 0xE1 SHL DUP2 MSTORE PUSH1 0x1 PUSH1 0x1 PUSH1 0xA0 SHL SUB DUP6 AND SWAP1 PUSH4 0x150B7A02 SWAP1 PUSH2 0x3DE7 SWAP1 CALLER SWAP1 DUP10 SWAP1 DUP9 SWAP1 DUP9 SWAP1 PUSH1 0x4 ADD PUSH2 0x481A JUMP JUMPDEST PUSH1 0x20 PUSH1 0x40 MLOAD DUP1 DUP4 SUB DUP2 PUSH1 0x0 DUP8 GAS CALL SWAP3 POP POP POP DUP1 ISZERO PUSH2 0x3E22 JUMPI POP PUSH1 0x40 DUP1 MLOAD PUSH1 0x1F RETURNDATASIZE SWAP1 DUP2 ADD PUSH1 0x1F NOT AND DUP3 ADD SWAP1 SWAP3 MSTORE PUSH2 0x3E1F SWAP2 DUP2 ADD SWAP1 PUSH2 0x4857 JUMP JUMPDEST PUSH1 0x1 JUMPDEST PUSH2 0x3E7F JUMPI RETURNDATASIZE DUP1 DUP1 ISZERO PUSH2 0x3E50 JUMPI PUSH1 0x40 MLOAD SWAP2 POP PUSH1 0x1F NOT PUSH1 0x3F RETURNDATASIZE ADD AND DUP3 ADD PUSH1 0x40 MSTORE RETURNDATASIZE DUP3 MSTORE RETURNDATASIZE PUSH1 0x0 PUSH1 0x20 DUP5 ADD RETURNDATACOPY PUSH2 0x3E55 JUMP JUMPDEST PUSH1 0x60 SWAP2 POP JUMPDEST POP DUP1 MLOAD PUSH1 0x0 SUB PUSH2 0x3E77 JUMPI PUSH1 0x40 MLOAD PUSH3 0x461BCD PUSH1 0xE5 SHL DUP2 MSTORE PUSH1 0x4 ADD PUSH2 0xCA2 SWAP1 PUSH2 0x47C8 JUMP JUMPDEST DUP1 MLOAD DUP2 PUSH1 0x20 ADD REVERT JUMPDEST PUSH1 0x1 PUSH1 0x1 PUSH1 0xE0 SHL SUB NOT AND PUSH4 0xA85BD01 PUSH1 0xE1 SHL EQ SWAP1 POP PUSH2 0x3823 JUMP JUMPDEST POP PUSH1 0x1 SWAP5 SWAP4 POP POP POP POP JUMP JUMPDEST PUSH1 0x0 PUSH1 0x20 DUP3 DUP5 SUB SLT ISZERO PUSH2 0x3EB6 JUMPI PUSH1 0x0 DUP1 REVERT JUMPDEST POP CALLDATALOAD SWAP2 SWAP1 POP JUMP JUMPDEST PUSH1 0x1 PUSH1 0x1 PUSH1 0xE0 SHL SUB NOT DUP2 AND DUP2 EQ PUSH2 0x3ED3 JUMPI PUSH1 0x0 DUP1 REVERT JUMPDEST POP JUMP JUMPDEST PUSH1 0x0 PUSH1 0x20 DUP3 DUP5 SUB SLT ISZERO PUSH2 0x3EE8 JUMPI PUSH1 0x0 DUP1 REVERT JUMPDEST DUP2 CALLDATALOAD PUSH2 0x3EF3 DUP2 PUSH2 0x3EBD JUMP JUMPDEST SWAP4 SWAP3 POP POP POP JUMP JUMPDEST PUSH1 0x0 DUP2 MLOAD DUP1 DUP5 MSTORE PUSH1 0x0 JUMPDEST DUP2 DUP2 LT ISZERO PUSH2 0x3F20 JUMPI PUSH1 0x20 DUP2 DUP6 ADD DUP2 ADD MLOAD DUP7 DUP4 ADD DUP3 ADD MSTORE ADD PUSH2 0x3F04 JUMP JUMPDEST POP PUSH1 0x0 PUSH1 0x20 DUP3 DUP7 ADD ADD MSTORE PUSH1 0x20 PUSH1 0x1F NOT PUSH1 0x1F DUP4 ADD AND DUP6 ADD ADD SWAP2 POP POP SWAP3 SWAP2 POP POP JUMP JUMPDEST PUSH1 0x20 DUP2 MSTORE PUSH1 0x0 PUSH2 0x3EF3 PUSH1 0x20 DUP4 ADD DUP5 PUSH2 0x3EFA JUMP JUMPDEST DUP1 CALLDATALOAD PUSH1 0x1 PUSH1 0x1 PUSH1 0xA0 SHL SUB DUP2 AND DUP2 EQ PUSH2 0x3F6A JUMPI PUSH1 0x0 DUP1 REVERT JUMPDEST SWAP2 SWAP1 POP JUMP JUMPDEST PUSH1 0x0 DUP1 PUSH1 0x40 DUP4 DUP6 SUB SLT ISZERO PUSH2 0x3F82 JUMPI PUSH1 0x0 DUP1 REVERT JUMPDEST PUSH2 0x3F8B DUP4 PUSH2 0x3F53 JUMP JUMPDEST SWAP5 PUSH1 0x20 SWAP4 SWAP1 SWAP4 ADD CALLDATALOAD SWAP4 POP POP POP JUMP JUMPDEST PUSH1 0x0 DUP1 PUSH1 0x0 DUP1 PUSH1 0x80 DUP6 DUP8 SUB SLT ISZERO PUSH2 0x3FAF JUMPI PUSH1 0x0 DUP1 REVERT JUMPDEST DUP5 CALLDATALOAD SWAP4 POP PUSH1 0x20 DUP6 ADD CALLDATALOAD SWAP3 POP PUSH2 0x3FC6 PUSH1 0x40 DUP7 ADD PUSH2 0x3F53 JUMP JUMPDEST SWAP4 SWAP7 SWAP3 SWAP6 POP SWAP3 SWAP4 PUSH1 0x60 ADD CALLDATALOAD SWAP3 POP POP JUMP JUMPDEST PUSH1 0x0 PUSH1 0x20 DUP3 DUP5 SUB SLT ISZERO PUSH2 0x3FE8 JUMPI PUSH1 0x0 DUP1 REVERT JUMPDEST PUSH2 0x3EF3 DUP3 PUSH2 0x3F53 JUMP JUMPDEST PUSH1 0x0 DUP1 PUSH1 0x0 PUSH1 0x60 DUP5 DUP7 SUB SLT ISZERO PUSH2 0x4006 JUMPI PUSH1 0x0 DUP1 REVERT JUMPDEST PUSH2 0x400F DUP5 PUSH2 0x3F53 JUMP JUMPDEST SWAP3 POP PUSH2 0x401D PUSH1 0x20 DUP6 ADD PUSH2 0x3F53 JUMP JUMPDEST SWAP2 POP PUSH1 0x40 DUP5 ADD CALLDATALOAD SWAP1 POP SWAP3 POP SWAP3 POP SWAP3 JUMP JUMPDEST PUSH1 0x0 DUP1 PUSH1 0x40 DUP4 DUP6 SUB SLT ISZERO PUSH2 0x4040 JUMPI PUSH1 0x0 DUP1 REVERT JUMPDEST POP POP DUP1 CALLDATALOAD SWAP3 PUSH1 0x20 SWAP1 SWAP2 ADD CALLDATALOAD SWAP2 POP JUMP JUMPDEST PUSH4 0x4E487B71 PUSH1 0xE0 SHL PUSH1 0x0 MSTORE PUSH1 0x41 PUSH1 0x4 MSTORE PUSH1 0x24 PUSH1 0x0 REVERT JUMPDEST PUSH1 0x0 PUSH8 0xFFFFFFFFFFFFFFFF DUP1 DUP5 GT ISZERO PUSH2 0x4080 JUMPI PUSH2 0x4080 PUSH2 0x404F JUMP JUMPDEST PUSH1 0x40 MLOAD PUSH1 0x1F DUP6 ADD PUSH1 0x1F NOT SWAP1 DUP2 AND PUSH1 0x3F ADD AND DUP2 ADD SWAP1 DUP3 DUP3 GT DUP2 DUP4 LT OR ISZERO PUSH2 0x40A8 JUMPI PUSH2 0x40A8 PUSH2 0x404F JUMP JUMPDEST DUP2 PUSH1 0x40 MSTORE DUP1 SWAP4 POP DUP6 DUP2 MSTORE DUP7 DUP7 DUP7 ADD GT ISZERO PUSH2 0x40C1 JUMPI PUSH1 0x0 DUP1 REVERT JUMPDEST DUP6 DUP6 PUSH1 0x20 DUP4 ADD CALLDATACOPY PUSH1 0x0 PUSH1 0x20 DUP8 DUP4 ADD ADD MSTORE POP POP POP SWAP4 SWAP3 POP POP POP JUMP JUMPDEST PUSH1 0x0 DUP3 PUSH1 0x1F DUP4 ADD SLT PUSH2 0x40EC JUMPI PUSH1 0x0 DUP1 REVERT JUMPDEST PUSH2 0x3EF3 DUP4 DUP4 CALLDATALOAD PUSH1 0x20 DUP6 ADD PUSH2 0x4065 JUMP JUMPDEST PUSH1 0x0 DUP1 PUSH1 0x0 DUP1 PUSH1 0x80 DUP6 DUP8 SUB SLT ISZERO PUSH2 0x4111 JUMPI PUSH1 0x0 DUP1 REVERT JUMPDEST DUP5 CALLDATALOAD PUSH8 0xFFFFFFFFFFFFFFFF DUP1 DUP3 GT ISZERO PUSH2 0x4129 JUMPI PUSH1 0x0 DUP1 REVERT JUMPDEST PUSH2 0x4135 DUP9 DUP4 DUP10 ADD PUSH2 0x40DB JUMP JUMPDEST SWAP6 POP PUSH1 0x20 DUP8 ADD CALLDATALOAD SWAP5 POP PUSH1 0x40 DUP8 ADD CALLDATALOAD SWAP2 POP DUP1 DUP3 GT ISZERO PUSH2 0x4152 JUMPI PUSH1 0x0 DUP1 REVERT JUMPDEST POP DUP6 ADD PUSH1 0x1F DUP2 ADD DUP8 SGT PUSH2 0x4164 JUMPI PUSH1 0x0 DUP1 REVERT JUMPDEST PUSH2 0x4173 DUP8 DUP3 CALLDATALOAD PUSH1 0x20 DUP5 ADD PUSH2 0x4065 JUMP JUMPDEST SWAP3 POP POP PUSH2 0x4182 PUSH1 0x60 DUP7 ADD PUSH2 0x3F53 JUMP JUMPDEST SWAP1 POP SWAP3 SWAP6 SWAP2 SWAP5 POP SWAP3 POP JUMP JUMPDEST PUSH1 0x0 DUP1 PUSH1 0x0 DUP1 PUSH1 0x0 PUSH1 0xA0 DUP7 DUP9 SUB SLT ISZERO PUSH2 0x41A5 JUMPI PUSH1 0x0 DUP1 REVERT JUMPDEST DUP6 CALLDATALOAD SWAP5 POP PUSH2 0x41B5 PUSH1 0x20 DUP8 ADD PUSH2 0x3F53 JUMP JUMPDEST SWAP4 POP PUSH1 0x40 DUP7 ADD CALLDATALOAD SWAP3 POP PUSH2 0x41CA PUSH1 0x60 DUP8 ADD PUSH2 0x3F53 JUMP JUMPDEST SWAP2 POP PUSH2 0x41D8 PUSH1 0x80 DUP8 ADD PUSH2 0x3F53 JUMP JUMPDEST SWAP1 POP SWAP3 SWAP6 POP SWAP3 SWAP6 SWAP1 SWAP4 POP JUMP JUMPDEST PUSH1 0x0 DUP1 PUSH1 0x0 DUP1 PUSH1 0x80 DUP6 DUP8 SUB SLT ISZERO PUSH2 0x41FA JUMPI PUSH1 0x0 DUP1 REVERT JUMPDEST PUSH2 0x4203 DUP6 PUSH2 0x3F53 JUMP JUMPDEST SWAP4 POP PUSH1 0x20 DUP6 ADD CALLDATALOAD PUSH8 0xFFFFFFFFFFFFFFFF DUP1 DUP3 GT ISZERO PUSH2 0x4220 JUMPI PUSH1 0x0 DUP1 REVERT JUMPDEST PUSH2 0x422C DUP9 DUP4 DUP10 ADD PUSH2 0x40DB JUMP JUMPDEST SWAP5 POP PUSH1 0x40 DUP8 ADD CALLDATALOAD SWAP2 POP DUP1 DUP3 GT ISZERO PUSH2 0x4242 JUMPI PUSH1 0x0 DUP1 REVERT JUMPDEST POP PUSH2 0x4173 DUP8 DUP3 DUP9 ADD PUSH2 0x40DB JUMP JUMPDEST PUSH1 0x0 DUP1 PUSH1 0x0 DUP1 PUSH1 0x0 PUSH1 0xA0 DUP7 DUP9 SUB SLT ISZERO PUSH2 0x4267 JUMPI PUSH1 0x0 DUP1 REVERT JUMPDEST DUP6 CALLDATALOAD SWAP5 POP PUSH2 0x4277 PUSH1 0x20 DUP8 ADD PUSH2 0x3F53 JUMP JUMPDEST SWAP4 POP PUSH2 0x4285 PUSH1 0x40 DUP8 ADD PUSH2 0x3F53 JUMP JUMPDEST SWAP3 POP PUSH2 0x4293 PUSH1 0x60 DUP8 ADD PUSH2 0x3F53 JUMP JUMPDEST SWAP5 SWAP8 SWAP4 SWAP7 POP SWAP2 SWAP5 PUSH1 0x80 ADD CALLDATALOAD SWAP3 SWAP2 POP POP JUMP JUMPDEST PUSH1 0x0 DUP1 PUSH1 0x40 DUP4 DUP6 SUB SLT ISZERO PUSH2 0x42B7 JUMPI PUSH1 0x0 DUP1 REVERT JUMPDEST DUP3 CALLDATALOAD SWAP2 POP PUSH1 0x20 DUP4 ADD CALLDATALOAD PUSH8 0xFFFFFFFFFFFFFFFF DUP2 GT ISZERO PUSH2 0x42D5 JUMPI PUSH1 0x0 DUP1 REVERT JUMPDEST PUSH2 0x42E1 DUP6 DUP3 DUP7 ADD PUSH2 0x40DB JUMP JUMPDEST SWAP2 POP POP SWAP3 POP SWAP3 SWAP1 POP JUMP JUMPDEST PUSH1 0x0 DUP1 PUSH1 0x0 PUSH1 0x60 DUP5 DUP7 SUB SLT ISZERO PUSH2 0x4300 JUMPI PUSH1 0x0 DUP1 REVERT JUMPDEST PUSH2 0x4309 DUP5 PUSH2 0x3F53 JUMP JUMPDEST SWAP6 PUSH1 0x20 DUP6 ADD CALLDATALOAD SWAP6 POP PUSH1 0x40 SWAP1 SWAP5 ADD CALLDATALOAD SWAP4 SWAP3 POP POP POP JUMP JUMPDEST DUP1 ISZERO ISZERO DUP2 EQ PUSH2 0x3ED3 JUMPI PUSH1 0x0 DUP1 REVERT JUMPDEST PUSH1 0x0 DUP1 PUSH1 0x40 DUP4 DUP6 SUB SLT ISZERO PUSH2 0x433F JUMPI PUSH1 0x0 DUP1 REVERT JUMPDEST PUSH2 0x4348 DUP4 PUSH2 0x3F53 JUMP JUMPDEST SWAP2 POP PUSH1 0x20 DUP4 ADD CALLDATALOAD PUSH2 0x4358 DUP2 PUSH2 0x431E JUMP JUMPDEST DUP1 SWAP2 POP POP SWAP3 POP SWAP3 SWAP1 POP JUMP JUMPDEST PUSH1 0x40 DUP2 MSTORE PUSH1 0x0 PUSH2 0x4376 PUSH1 0x40 DUP4 ADD DUP6 PUSH2 0x3EFA JUMP JUMPDEST DUP3 DUP2 SUB PUSH1 0x20 DUP5 ADD MSTORE PUSH2 0x4388 DUP2 DUP6 PUSH2 0x3EFA JUMP JUMPDEST SWAP6 SWAP5 POP POP POP POP POP JUMP JUMPDEST PUSH1 0x0 DUP1 PUSH1 0x0 PUSH1 0x60 DUP5 DUP7 SUB SLT ISZERO PUSH2 0x43A6 JUMPI PUSH1 0x0 DUP1 REVERT JUMPDEST DUP4 CALLDATALOAD SWAP3 POP PUSH1 0x20 DUP5 ADD CALLDATALOAD SWAP2 POP PUSH2 0x43BD PUSH1 0x40 DUP6 ADD PUSH2 0x3F53 JUMP JUMPDEST SWAP1 POP SWAP3 POP SWAP3 POP SWAP3 JUMP JUMPDEST PUSH1 0x0 DUP1 PUSH1 0x0 DUP1 PUSH1 0x80 DUP6 DUP8 SUB SLT ISZERO PUSH2 0x43DC JUMPI PUSH1 0x0 DUP1 REVERT JUMPDEST DUP5 CALLDATALOAD SWAP4 POP PUSH2 0x43EC PUSH1 0x20 DUP7 ADD PUSH2 0x3F53 JUMP JUMPDEST SWAP3 POP PUSH1 0x40 DUP6 ADD CALLDATALOAD SWAP2 POP PUSH2 0x4182 PUSH1 0x60 DUP7 ADD PUSH2 0x3F53 JUMP JUMPDEST PUSH1 0x0 DUP1 PUSH1 0x40 DUP4 DUP6 SUB SLT ISZERO PUSH2 0x4414 JUMPI PUSH1 0x0 DUP1 REVERT JUMPDEST PUSH2 0x441D DUP4 PUSH2 0x3F53 JUMP JUMPDEST SWAP2 POP PUSH2 0x442B PUSH1 0x20 DUP5 ADD PUSH2 0x3F53 JUMP JUMPDEST SWAP1 POP SWAP3 POP SWAP3 SWAP1 POP JUMP JUMPDEST PUSH2 0xFFFF DUP2 AND DUP2 EQ PUSH2 0x3ED3 JUMPI PUSH1 0x0 DUP1 REVERT JUMPDEST PUSH1 0x0 DUP1 PUSH1 0x40 DUP4 DUP6 SUB SLT ISZERO PUSH2 0x4457 JUMPI PUSH1 0x0 DUP1 REVERT JUMPDEST DUP3 CALLDATALOAD SWAP2 POP PUSH1 0x20 DUP4 ADD CALLDATALOAD PUSH2 0x4358 DUP2 PUSH2 0x4434 JUMP JUMPDEST PUSH1 0x1 DUP2 DUP2 SHR SWAP1 DUP3 AND DUP1 PUSH2 0x447D JUMPI PUSH1 0x7F DUP3 AND SWAP2 POP JUMPDEST PUSH1 0x20 DUP3 LT DUP2 SUB PUSH2 0x449D JUMPI PUSH4 0x4E487B71 PUSH1 0xE0 SHL PUSH1 0x0 MSTORE PUSH1 0x22 PUSH1 0x4 MSTORE PUSH1 0x24 PUSH1 0x0 REVERT JUMPDEST POP SWAP2 SWAP1 POP JUMP JUMPDEST PUSH4 0x4E487B71 PUSH1 0xE0 SHL PUSH1 0x0 MSTORE PUSH1 0x32 PUSH1 0x4 MSTORE PUSH1 0x24 PUSH1 0x0 REVERT JUMPDEST PUSH4 0x4E487B71 PUSH1 0xE0 SHL PUSH1 0x0 MSTORE PUSH1 0x11 PUSH1 0x4 MSTORE PUSH1 0x24 PUSH1 0x0 REVERT JUMPDEST PUSH1 0x0 PUSH1 0x1 DUP3 ADD PUSH2 0x44E1 JUMPI PUSH2 0x44E1 PUSH2 0x44B9 JUMP JUMPDEST POP PUSH1 0x1 ADD SWAP1 JUMP JUMPDEST PUSH1 0x20 DUP1 DUP3 MSTORE PUSH1 0x15 SWAP1 DUP3 ADD MSTORE PUSH21 0x1858D8D95CDCC818DBDB9D1C9BDB0819195B9A5959 PUSH1 0x5A SHL PUSH1 0x40 DUP3 ADD MSTORE PUSH1 0x60 ADD SWAP1 JUMP JUMPDEST PUSH1 0x20 DUP1 DUP3 MSTORE PUSH1 0x6 SWAP1 DUP3 ADD MSTORE PUSH6 0x1B9BC818985B PUSH1 0xD2 SHL PUSH1 0x40 DUP3 ADD MSTORE PUSH1 0x60 ADD SWAP1 JUMP JUMPDEST DUP1 DUP3 ADD DUP1 DUP3 GT ISZERO PUSH2 0xB61 JUMPI PUSH2 0xB61 PUSH2 0x44B9 JUMP JUMPDEST DUP2 DUP2 SUB DUP2 DUP2 GT ISZERO PUSH2 0xB61 JUMPI PUSH2 0xB61 PUSH2 0x44B9 JUMP JUMPDEST DUP1 DUP3 MUL DUP2 ISZERO DUP3 DUP3 DIV DUP5 EQ OR PUSH2 0xB61 JUMPI PUSH2 0xB61 PUSH2 0x44B9 JUMP JUMPDEST PUSH1 0x20 DUP1 DUP3 MSTORE PUSH1 0x10 SWAP1 DUP3 ADD MSTORE PUSH16 0x3737BA1037BBB732B91037B31034B21 PUSH1 0x85 SHL PUSH1 0x40 DUP3 ADD MSTORE PUSH1 0x60 ADD SWAP1 JUMP JUMPDEST PUSH1 0x0 PUSH1 0x20 DUP3 DUP5 SUB SLT ISZERO PUSH2 0x45B0 JUMPI PUSH1 0x0 DUP1 REVERT JUMPDEST POP MLOAD SWAP2 SWAP1 POP JUMP JUMPDEST PUSH1 0x0 PUSH1 0x20 DUP3 DUP5 SUB SLT ISZERO PUSH2 0x45C9 JUMPI PUSH1 0x0 DUP1 REVERT JUMPDEST DUP2 MLOAD PUSH2 0x3EF3 DUP2 PUSH2 0x431E JUMP JUMPDEST PUSH1 0x0 PUSH1 0x20 DUP3 DUP5 SUB SLT ISZERO PUSH2 0x45E6 JUMPI PUSH1 0x0 DUP1 REVERT JUMPDEST DUP2 MLOAD PUSH2 0x3EF3 DUP2 PUSH2 0x4434 JUMP JUMPDEST PUSH1 0x1F DUP3 GT ISZERO PUSH2 0xD43 JUMPI PUSH1 0x0 DUP2 DUP2 MSTORE PUSH1 0x20 DUP2 KECCAK256 PUSH1 0x1F DUP6 ADD PUSH1 0x5 SHR DUP2 ADD PUSH1 0x20 DUP7 LT ISZERO PUSH2 0x4618 JUMPI POP DUP1 JUMPDEST PUSH1 0x1F DUP6 ADD PUSH1 0x5 SHR DUP3 ADD SWAP2 POP JUMPDEST DUP2 DUP2 LT ISZERO PUSH2 0x1C32 JUMPI DUP3 DUP2 SSTORE PUSH1 0x1 ADD PUSH2 0x4624 JUMP JUMPDEST DUP2 MLOAD PUSH8 0xFFFFFFFFFFFFFFFF DUP2 GT ISZERO PUSH2 0x4651 JUMPI PUSH2 0x4651 PUSH2 0x404F JUMP JUMPDEST PUSH2 0x4665 DUP2 PUSH2 0x465F DUP5 SLOAD PUSH2 0x4469 JUMP JUMPDEST DUP5 PUSH2 0x45F1 JUMP JUMPDEST PUSH1 0x20 DUP1 PUSH1 0x1F DUP4 GT PUSH1 0x1 DUP2 EQ PUSH2 0x469A JUMPI PUSH1 0x0 DUP5 ISZERO PUSH2 0x4682 JUMPI POP DUP6 DUP4 ADD MLOAD JUMPDEST PUSH1 0x0 NOT PUSH1 0x3 DUP7 SWAP1 SHL SHR NOT AND PUSH1 0x1 DUP6 SWAP1 SHL OR DUP6 SSTORE PUSH2 0x1C32 JUMP JUMPDEST PUSH1 0x0 DUP6 DUP2 MSTORE PUSH1 0x20 DUP2 KECCAK256 PUSH1 0x1F NOT DUP7 AND SWAP2 JUMPDEST DUP3 DUP2 LT ISZERO PUSH2 0x46C9 JUMPI DUP9 DUP7 ADD MLOAD DUP3 SSTORE SWAP5 DUP5 ADD SWAP5 PUSH1 0x1 SWAP1 SWAP2 ADD SWAP1 DUP5 ADD PUSH2 0x46AA JUMP JUMPDEST POP DUP6 DUP3 LT ISZERO PUSH2 0x46E7 JUMPI DUP8 DUP6 ADD MLOAD PUSH1 0x0 NOT PUSH1 0x3 DUP9 SWAP1 SHL PUSH1 0xF8 AND SHR NOT AND DUP2 SSTORE JUMPDEST POP POP POP POP POP PUSH1 0x1 SWAP1 DUP2 SHL ADD SWAP1 SSTORE POP JUMP JUMPDEST PUSH1 0x20 DUP1 DUP3 MSTORE PUSH1 0xF SWAP1 DUP3 ADD MSTORE PUSH15 0x1B9BDB88195E1A5CDD195B9D081A59 PUSH1 0x8A SHL PUSH1 0x40 DUP3 ADD MSTORE PUSH1 0x60 ADD SWAP1 JUMP JUMPDEST PUSH1 0x0 DUP3 PUSH2 0x473D JUMPI PUSH4 0x4E487B71 PUSH1 0xE0 SHL PUSH1 0x0 MSTORE PUSH1 0x12 PUSH1 0x4 MSTORE PUSH1 0x24 PUSH1 0x0 REVERT JUMPDEST POP DIV SWAP1 JUMP JUMPDEST PUSH1 0x20 DUP1 DUP3 MSTORE PUSH1 0x21 SWAP1 DUP3 ADD MSTORE PUSH32 0x6E6F2061636365737320746F20736C6F74206F722064656C6574656420736C6F PUSH1 0x40 DUP3 ADD MSTORE PUSH1 0x1D PUSH1 0xFA SHL PUSH1 0x60 DUP3 ADD MSTORE PUSH1 0x80 ADD SWAP1 JUMP JUMPDEST PUSH1 0x20 DUP1 DUP3 MSTORE PUSH1 0x25 SWAP1 DUP3 ADD MSTORE PUSH32 0x4552433732313A207472616E736665722066726F6D20696E636F727265637420 PUSH1 0x40 DUP3 ADD MSTORE PUSH5 0x37BBB732B9 PUSH1 0xD9 SHL PUSH1 0x60 DUP3 ADD MSTORE PUSH1 0x80 ADD SWAP1 JUMP JUMPDEST PUSH1 0x20 DUP1 DUP3 MSTORE PUSH1 0x32 SWAP1 DUP3 ADD MSTORE PUSH32 0x4552433732313A207472616E7366657220746F206E6F6E204552433732315265 PUSH1 0x40 DUP3 ADD MSTORE PUSH18 0x31B2B4BB32B91034B6B83632B6B2B73A32B9 PUSH1 0x71 SHL PUSH1 0x60 DUP3 ADD MSTORE PUSH1 0x80 ADD SWAP1 JUMP JUMPDEST PUSH1 0x1 PUSH1 0x1 PUSH1 0xA0 SHL SUB DUP6 DUP2 AND DUP3 MSTORE DUP5 AND PUSH1 0x20 DUP3 ADD MSTORE PUSH1 0x40 DUP2 ADD DUP4 SWAP1 MSTORE PUSH1 0x80 PUSH1 0x60 DUP3 ADD DUP2 SWAP1 MSTORE PUSH1 0x0 SWAP1 PUSH2 0x484D SWAP1 DUP4 ADD DUP5 PUSH2 0x3EFA JUMP JUMPDEST SWAP7 SWAP6 POP POP POP POP POP POP JUMP JUMPDEST PUSH1 0x0 PUSH1 0x20 DUP3 DUP5 SUB SLT ISZERO PUSH2 0x4869 JUMPI PUSH1 0x0 DUP1 REVERT JUMPDEST DUP2 MLOAD PUSH2 0x3EF3 DUP2 PUSH2 0x3EBD JUMP INVALID 0xA7 SDIV SWAP7 0x1F KECCAK256 CALLDATASIZE MULMOD SDIV DUP10 POP 0xCF 0xD8 OR 0xEB PUSH27 0x7627C9E270651C936AAD3ABDFA253727ECA2646970667358221220 PUSH30 0xAD1CD095C2C2775CC50EEB960C193C3EF085305FB85AED3FCB58B95180C5 DUP4 PUSH5 0x736F6C6343 STOP ADDMOD GT STOP CALLER "
		},
		"gasEstimates": {
			"creation": {
				"codeDepositCost": "3726800",
				"executionCost": "4212",
				"totalCost": "3731012"
			},
			"external": {
				"__fx()": "24501",
				"_owner()": "2449",
				"_zonepassmaps(uint256)": "17559",
				"addMinter(address)": "51014",
				"addToStorage(string,uint256,bytes,address)": "infinite",
				"approve(address,uint256)": "infinite",
				"balanceOf(address)": "2722",
				"boostPass(uint256,uint256)": "infinite",
				"changeDirectFee(uint256)": "24555",
				"contractAccruedFee(address)": "2630",
				"decrementServices(uint256,uint256)": "infinite",
				"delFromStorage(uint256,uint256,address)": "infinite",
				"deposit(uint256,address,uint256,address)": "infinite",
				"extendPassTime(uint256,uint256)": "infinite",
				"getActiveChain(uint256)": "2589",
				"getApproved(uint256)": "4856",
				"getFeeToken()": "2442",
				"getIdBalance(address,uint256)": "2799",
				"getInitializer()": "2399",
				"getMintChain(uint256)": "2588",
				"getRecoveryFee()": "2477",
				"getStorage(address,uint256,uint256)": "infinite",
				"getWeeklyFee()": "4580",
				"haveStorageAccess(address,uint256,uint256)": "infinite",
				"idToAddress(uint256,address,address,address,uint256)": "infinite",
				"idToId(uint256,uint256,address,uint256)": "infinite",
				"increaseSlots(uint256,uint256)": "infinite",
				"incrementServices(uint256,uint256)": "infinite",
				"incrementTotalServices(uint256)": "infinite",
				"initialize(address,string,string,address)": "infinite",
				"isApprovedForAll(address,address)": "infinite",
				"isExpired(uint256)": "2561",
				"lzEndpoint()": "2404",
				"mint(address,uint256)": "infinite",
				"name()": "infinite",
				"owner()": "2421",
				"ownerOf(uint256)": "2643",
				"recoverData(uint256,uint256)": "infinite",
				"removeMinter(address)": "infinite",
				"removeShare(uint256,uint256,address)": "infinite",
				"setActiveChain(uint256,uint16)": "infinite",
				"setApprovalForAll(address,bool)": "26845",
				"setFeeToken(address)": "26802",
				"setLzPoint(address)": "26801",
				"setUri(uint256,string)": "infinite",
				"setWeeklyFee(uint256)": "24531",
				"shareStorage(uint256,uint256,address)": "infinite",
				"storageViewAccess(uint256)": "4667",
				"supportsInterface(bytes4)": "infinite",
				"symbol()": "infinite",
				"tokenURI(uint256)": "infinite",
				"transferFrom(address,address,uint256)": "infinite",
				"transferOwnership(address)": "26799",
				"withdraw(uint256,address,uint256,address,address)": "infinite",
				"withdrawContractFee(address,uint256)": "infinite"
			},
			"internal": {
				"_beforeTokenTransfer(address,address,uint256,uint256)": "24360",
				"_burn(uint256)": "infinite"
			}
		},
		"methodIdentifiers": {
			"__fx()": "53f0620e",
			"_owner()": "b2bdfa7b",
			"_zonepassmaps(uint256)": "009c47a0",
			"addMinter(address)": "983b2d56",
			"addToStorage(string,uint256,bytes,address)": "5e34ae78",
			"approve(address,uint256)": "095ea7b3",
			"balanceOf(address)": "70a08231",
			"boostPass(uint256,uint256)": "999ebe55",
			"changeDirectFee(uint256)": "3bf7e8f4",
			"contractAccruedFee(address)": "9e402dd6",
			"decrementServices(uint256,uint256)": "5557b279",
			"delFromStorage(uint256,uint256,address)": "ec49fda0",
			"deposit(uint256,address,uint256,address)": "cd88af6e",
			"extendPassTime(uint256,uint256)": "8b973040",
			"getActiveChain(uint256)": "1fe48ac7",
			"getApproved(uint256)": "081812fc",
			"getFeeToken()": "ca709a25",
			"getIdBalance(address,uint256)": "0f9e8bc0",
			"getInitializer()": "3e104a95",
			"getMintChain(uint256)": "40ee9b32",
			"getRecoveryFee()": "228d0fd9",
			"getStorage(address,uint256,uint256)": "a26966fb",
			"getWeeklyFee()": "3d654199",
			"haveStorageAccess(address,uint256,uint256)": "7907d11c",
			"idToAddress(uint256,address,address,address,uint256)": "73a3daad",
			"idToId(uint256,uint256,address,uint256)": "13579820",
			"increaseSlots(uint256,uint256)": "fd71ca47",
			"incrementServices(uint256,uint256)": "864018b7",
			"incrementTotalServices(uint256)": "8af6c670",
			"initialize(address,string,string,address)": "613d25bb",
			"isApprovedForAll(address,address)": "e985e9c5",
			"isExpired(uint256)": "d9548e53",
			"lzEndpoint()": "b353aaa7",
			"mint(address,uint256)": "40c10f19",
			"name()": "06fdde03",
			"owner()": "8da5cb5b",
			"ownerOf(uint256)": "6352211e",
			"recoverData(uint256,uint256)": "361c0f87",
			"removeMinter(address)": "3092afd5",
			"removeShare(uint256,uint256,address)": "db2c6dd9",
			"setActiveChain(uint256,uint16)": "f5a482e0",
			"setApprovalForAll(address,bool)": "a22cb465",
			"setFeeToken(address)": "15cce224",
			"setLzPoint(address)": "232b809f",
			"setUri(uint256,string)": "782f08ae",
			"setWeeklyFee(uint256)": "60bd30dd",
			"shareStorage(uint256,uint256,address)": "a9d36f5b",
			"storageViewAccess(uint256)": "8318dea3",
			"supportsInterface(bytes4)": "01ffc9a7",
			"symbol()": "95d89b41",
			"tokenURI(uint256)": "c87b56dd",
			"transferFrom(address,address,uint256)": "23b872dd",
			"transferOwnership(address)": "f2fde38b",
			"withdraw(uint256,address,uint256,address,address)": "5fdd03a2",
			"withdrawContractFee(address,uint256)": "7bce1b34"
		}
	},
	"abi": [
		{
			"anonymous": false,
			"inputs": [
				{
					"indexed": true,
					"internalType": "address",
					"name": "owner",
					"type": "address"
				},
				{
					"indexed": true,
					"internalType": "address",
					"name": "approved",
					"type": "address"
				},
				{
					"indexed": true,
					"internalType": "uint256",
					"name": "tokenId",
					"type": "uint256"
				}
			],
			"name": "Approval",
			"type": "event"
		},
		{
			"anonymous": false,
			"inputs": [
				{
					"indexed": true,
					"internalType": "address",
					"name": "owner",
					"type": "address"
				},
				{
					"indexed": true,
					"internalType": "address",
					"name": "operator",
					"type": "address"
				},
				{
					"indexed": false,
					"internalType": "bool",
					"name": "approved",
					"type": "bool"
				}
			],
			"name": "ApprovalForAll",
			"type": "event"
		},
		{
			"anonymous": false,
			"inputs": [
				{
					"indexed": false,
					"internalType": "uint8",
					"name": "version",
					"type": "uint8"
				}
			],
			"name": "Initialized",
			"type": "event"
		},
		{
			"anonymous": false,
			"inputs": [
				{
					"indexed": true,
					"internalType": "address",
					"name": "from",
					"type": "address"
				},
				{
					"indexed": true,
					"internalType": "address",
					"name": "to",
					"type": "address"
				},
				{
					"indexed": true,
					"internalType": "uint256",
					"name": "tokenId",
					"type": "uint256"
				}
			],
			"name": "Transfer",
			"type": "event"
		},
		{
			"inputs": [],
			"name": "__fx",
			"outputs": [],
			"stateMutability": "nonpayable",
			"type": "function"
		},
		{
			"inputs": [],
			"name": "_owner",
			"outputs": [
				{
					"internalType": "address",
					"name": "",
					"type": "address"
				}
			],
			"stateMutability": "view",
			"type": "function"
		},
		{
			"inputs": [
				{
					"internalType": "uint256",
					"name": "",
					"type": "uint256"
				}
			],
			"name": "_zonepassmaps",
			"outputs": [
				{
					"internalType": "address",
					"name": "minter",
					"type": "address"
				},
				{
					"internalType": "address",
					"name": "holder",
					"type": "address"
				},
				{
					"internalType": "uint16",
					"name": "mintCh",
					"type": "uint16"
				},
				{
					"internalType": "uint16",
					"name": "activeCh",
					"type": "uint16"
				},
				{
					"internalType": "uint256",
					"name": "mintTime",
					"type": "uint256"
				},
				{
					"internalType": "uint256",
					"name": "lastRenewal",
					"type": "uint256"
				},
				{
					"internalType": "uint256",
					"name": "nextExpiry",
					"type": "uint256"
				},
				{
					"internalType": "uint256",
					"name": "usedSlots",
					"type": "uint256"
				},
				{
					"internalType": "uint256",
					"name": "allowedSlots",
					"type": "uint256"
				},
				{
					"internalType": "uint256",
					"name": "totalServiceUses",
					"type": "uint256"
				}
			],
			"stateMutability": "view",
			"type": "function"
		},
		{
			"inputs": [
				{
					"internalType": "address",
					"name": "minter_",
					"type": "address"
				}
			],
			"name": "addMinter",
			"outputs": [],
			"stateMutability": "nonpayable",
			"type": "function"
		},
		{
			"inputs": [
				{
					"internalType": "string",
					"name": "hash",
					"type": "string"
				},
				{
					"internalType": "uint256",
					"name": "id",
					"type": "uint256"
				},
				{
					"internalType": "bytes",
					"name": "extraData",
					"type": "bytes"
				},
				{
					"internalType": "address",
					"name": "by",
					"type": "address"
				}
			],
			"name": "addToStorage",
			"outputs": [],
			"stateMutability": "payable",
			"type": "function"
		},
		{
			"inputs": [
				{
					"internalType": "address",
					"name": "to",
					"type": "address"
				},
				{
					"internalType": "uint256",
					"name": "tokenId",
					"type": "uint256"
				}
			],
			"name": "approve",
			"outputs": [],
			"stateMutability": "nonpayable",
			"type": "function"
		},
		{
			"inputs": [
				{
					"internalType": "address",
					"name": "owner",
					"type": "address"
				}
			],
			"name": "balanceOf",
			"outputs": [
				{
					"internalType": "uint256",
					"name": "",
					"type": "uint256"
				}
			],
			"stateMutability": "view",
			"type": "function"
		},
		{
			"inputs": [
				{
					"internalType": "uint256",
					"name": "timeInWeeks",
					"type": "uint256"
				},
				{
					"internalType": "uint256",
					"name": "id",
					"type": "uint256"
				}
			],
			"name": "boostPass",
			"outputs": [],
			"stateMutability": "payable",
			"type": "function"
		},
		{
			"inputs": [
				{
					"internalType": "uint256",
					"name": "newAmt",
					"type": "uint256"
				}
			],
			"name": "changeDirectFee",
			"outputs": [],
			"stateMutability": "nonpayable",
			"type": "function"
		},
		{
			"inputs": [
				{
					"internalType": "address",
					"name": "",
					"type": "address"
				}
			],
			"name": "contractAccruedFee",
			"outputs": [
				{
					"internalType": "uint256",
					"name": "",
					"type": "uint256"
				}
			],
			"stateMutability": "view",
			"type": "function"
		},
		{
			"inputs": [
				{
					"internalType": "uint256",
					"name": "id",
					"type": "uint256"
				},
				{
					"internalType": "uint256",
					"name": "num",
					"type": "uint256"
				}
			],
			"name": "decrementServices",
			"outputs": [],
			"stateMutability": "nonpayable",
			"type": "function"
		},
		{
			"inputs": [
				{
					"internalType": "uint256",
					"name": "id",
					"type": "uint256"
				},
				{
					"internalType": "uint256",
					"name": "slot",
					"type": "uint256"
				},
				{
					"internalType": "address",
					"name": "storer",
					"type": "address"
				}
			],
			"name": "delFromStorage",
			"outputs": [],
			"stateMutability": "payable",
			"type": "function"
		},
		{
			"inputs": [
				{
					"internalType": "uint256",
					"name": "id",
					"type": "uint256"
				},
				{
					"internalType": "address",
					"name": "token",
					"type": "address"
				},
				{
					"internalType": "uint256",
					"name": "amt",
					"type": "uint256"
				},
				{
					"internalType": "address",
					"name": "from",
					"type": "address"
				}
			],
			"name": "deposit",
			"outputs": [],
			"stateMutability": "payable",
			"type": "function"
		},
		{
			"inputs": [
				{
					"internalType": "uint256",
					"name": "id",
					"type": "uint256"
				},
				{
					"internalType": "uint256",
					"name": "time",
					"type": "uint256"
				}
			],
			"name": "extendPassTime",
			"outputs": [],
			"stateMutability": "payable",
			"type": "function"
		},
		{
			"inputs": [
				{
					"internalType": "uint256",
					"name": "id",
					"type": "uint256"
				}
			],
			"name": "getActiveChain",
			"outputs": [
				{
					"internalType": "uint16",
					"name": "",
					"type": "uint16"
				}
			],
			"stateMutability": "view",
			"type": "function"
		},
		{
			"inputs": [
				{
					"internalType": "uint256",
					"name": "tokenId",
					"type": "uint256"
				}
			],
			"name": "getApproved",
			"outputs": [
				{
					"internalType": "address",
					"name": "",
					"type": "address"
				}
			],
			"stateMutability": "view",
			"type": "function"
		},
		{
			"inputs": [],
			"name": "getFeeToken",
			"outputs": [
				{
					"internalType": "address",
					"name": "",
					"type": "address"
				}
			],
			"stateMutability": "view",
			"type": "function"
		},
		{
			"inputs": [
				{
					"internalType": "address",
					"name": "token",
					"type": "address"
				},
				{
					"internalType": "uint256",
					"name": "id",
					"type": "uint256"
				}
			],
			"name": "getIdBalance",
			"outputs": [
				{
					"internalType": "uint256",
					"name": "",
					"type": "uint256"
				}
			],
			"stateMutability": "view",
			"type": "function"
		},
		{
			"inputs": [],
			"name": "getInitializer",
			"outputs": [
				{
					"internalType": "address",
					"name": "",
					"type": "address"
				}
			],
			"stateMutability": "view",
			"type": "function"
		},
		{
			"inputs": [
				{
					"internalType": "uint256",
					"name": "id",
					"type": "uint256"
				}
			],
			"name": "getMintChain",
			"outputs": [
				{
					"internalType": "uint16",
					"name": "",
					"type": "uint16"
				}
			],
			"stateMutability": "view",
			"type": "function"
		},
		{
			"inputs": [],
			"name": "getRecoveryFee",
			"outputs": [
				{
					"internalType": "uint256",
					"name": "",
					"type": "uint256"
				}
			],
			"stateMutability": "view",
			"type": "function"
		},
		{
			"inputs": [
				{
					"internalType": "address",
					"name": "by",
					"type": "address"
				},
				{
					"internalType": "uint256",
					"name": "id",
					"type": "uint256"
				},
				{
					"internalType": "uint256",
					"name": "slot",
					"type": "uint256"
				}
			],
			"name": "getStorage",
			"outputs": [
				{
					"internalType": "string",
					"name": "",
					"type": "string"
				},
				{
					"internalType": "bytes",
					"name": "",
					"type": "bytes"
				}
			],
			"stateMutability": "view",
			"type": "function"
		},
		{
			"inputs": [],
			"name": "getWeeklyFee",
			"outputs": [
				{
					"internalType": "address",
					"name": "token",
					"type": "address"
				},
				{
					"internalType": "uint256",
					"name": "amount",
					"type": "uint256"
				}
			],
			"stateMutability": "view",
			"type": "function"
		},
		{
			"inputs": [
				{
					"internalType": "address",
					"name": "user",
					"type": "address"
				},
				{
					"internalType": "uint256",
					"name": "id",
					"type": "uint256"
				},
				{
					"internalType": "uint256",
					"name": "slot",
					"type": "uint256"
				}
			],
			"name": "haveStorageAccess",
			"outputs": [
				{
					"internalType": "bool",
					"name": "",
					"type": "bool"
				}
			],
			"stateMutability": "view",
			"type": "function"
		},
		{
			"inputs": [
				{
					"internalType": "uint256",
					"name": "fromId",
					"type": "uint256"
				},
				{
					"internalType": "address",
					"name": "toAddress",
					"type": "address"
				},
				{
					"internalType": "address",
					"name": "from",
					"type": "address"
				},
				{
					"internalType": "address",
					"name": "token",
					"type": "address"
				},
				{
					"internalType": "uint256",
					"name": "amt",
					"type": "uint256"
				}
			],
			"name": "idToAddress",
			"outputs": [],
			"stateMutability": "payable",
			"type": "function"
		},
		{
			"inputs": [
				{
					"internalType": "uint256",
					"name": "fromId",
					"type": "uint256"
				},
				{
					"internalType": "uint256",
					"name": "toId",
					"type": "uint256"
				},
				{
					"internalType": "address",
					"name": "token",
					"type": "address"
				},
				{
					"internalType": "uint256",
					"name": "amount",
					"type": "uint256"
				}
			],
			"name": "idToId",
			"outputs": [],
			"stateMutability": "payable",
			"type": "function"
		},
		{
			"inputs": [
				{
					"internalType": "uint256",
					"name": "slots",
					"type": "uint256"
				},
				{
					"internalType": "uint256",
					"name": "id",
					"type": "uint256"
				}
			],
			"name": "increaseSlots",
			"outputs": [],
			"stateMutability": "nonpayable",
			"type": "function"
		},
		{
			"inputs": [
				{
					"internalType": "uint256",
					"name": "id",
					"type": "uint256"
				},
				{
					"internalType": "uint256",
					"name": "num",
					"type": "uint256"
				}
			],
			"name": "incrementServices",
			"outputs": [],
			"stateMutability": "nonpayable",
			"type": "function"
		},
		{
			"inputs": [
				{
					"internalType": "uint256",
					"name": "id",
					"type": "uint256"
				}
			],
			"name": "incrementTotalServices",
			"outputs": [],
			"stateMutability": "nonpayable",
			"type": "function"
		},
		{
			"inputs": [
				{
					"internalType": "address",
					"name": "weth",
					"type": "address"
				},
				{
					"internalType": "string",
					"name": "name",
					"type": "string"
				},
				{
					"internalType": "string",
					"name": "symbol",
					"type": "string"
				},
				{
					"internalType": "address",
					"name": "_endpoint",
					"type": "address"
				}
			],
			"name": "initialize",
			"outputs": [],
			"stateMutability": "nonpayable",
			"type": "function"
		},
		{
			"inputs": [
				{
					"internalType": "address",
					"name": "owner",
					"type": "address"
				},
				{
					"internalType": "address",
					"name": "operator",
					"type": "address"
				}
			],
			"name": "isApprovedForAll",
			"outputs": [
				{
					"internalType": "bool",
					"name": "",
					"type": "bool"
				}
			],
			"stateMutability": "view",
			"type": "function"
		},
		{
			"inputs": [
				{
					"internalType": "uint256",
					"name": "id",
					"type": "uint256"
				}
			],
			"name": "isExpired",
			"outputs": [
				{
					"internalType": "bool",
					"name": "",
					"type": "bool"
				}
			],
			"stateMutability": "view",
			"type": "function"
		},
		{
			"inputs": [],
			"name": "lzEndpoint",
			"outputs": [
				{
					"internalType": "contract ILayerZeroEndpoint",
					"name": "",
					"type": "address"
				}
			],
			"stateMutability": "view",
			"type": "function"
		},
		{
			"inputs": [
				{
					"internalType": "address",
					"name": "to",
					"type": "address"
				},
				{
					"internalType": "uint256",
					"name": "tokenId",
					"type": "uint256"
				}
			],
			"name": "mint",
			"outputs": [],
			"stateMutability": "payable",
			"type": "function"
		},
		{
			"inputs": [],
			"name": "name",
			"outputs": [
				{
					"internalType": "string",
					"name": "",
					"type": "string"
				}
			],
			"stateMutability": "view",
			"type": "function"
		},
		{
			"inputs": [],
			"name": "owner",
			"outputs": [
				{
					"internalType": "address",
					"name": "",
					"type": "address"
				}
			],
			"stateMutability": "view",
			"type": "function"
		},
		{
			"inputs": [
				{
					"internalType": "uint256",
					"name": "tokenId",
					"type": "uint256"
				}
			],
			"name": "ownerOf",
			"outputs": [
				{
					"internalType": "address",
					"name": "",
					"type": "address"
				}
			],
			"stateMutability": "view",
			"type": "function"
		},
		{
			"inputs": [
				{
					"internalType": "uint256",
					"name": "id",
					"type": "uint256"
				},
				{
					"internalType": "uint256",
					"name": "slot",
					"type": "uint256"
				}
			],
			"name": "recoverData",
			"outputs": [],
			"stateMutability": "payable",
			"type": "function"
		},
		{
			"inputs": [
				{
					"internalType": "address",
					"name": "minter_",
					"type": "address"
				}
			],
			"name": "removeMinter",
			"outputs": [],
			"stateMutability": "nonpayable",
			"type": "function"
		},
		{
			"inputs": [
				{
					"internalType": "uint256",
					"name": "id",
					"type": "uint256"
				},
				{
					"internalType": "uint256",
					"name": "slot",
					"type": "uint256"
				},
				{
					"internalType": "address",
					"name": "to",
					"type": "address"
				}
			],
			"name": "removeShare",
			"outputs": [],
			"stateMutability": "payable",
			"type": "function"
		},
		{
			"inputs": [
				{
					"internalType": "uint256",
					"name": "id",
					"type": "uint256"
				},
				{
					"internalType": "uint16",
					"name": "ch",
					"type": "uint16"
				}
			],
			"name": "setActiveChain",
			"outputs": [],
			"stateMutability": "nonpayable",
			"type": "function"
		},
		{
			"inputs": [
				{
					"internalType": "address",
					"name": "operator",
					"type": "address"
				},
				{
					"internalType": "bool",
					"name": "approved",
					"type": "bool"
				}
			],
			"name": "setApprovalForAll",
			"outputs": [],
			"stateMutability": "nonpayable",
			"type": "function"
		},
		{
			"inputs": [
				{
					"internalType": "address",
					"name": "token",
					"type": "address"
				}
			],
			"name": "setFeeToken",
			"outputs": [],
			"stateMutability": "nonpayable",
			"type": "function"
		},
		{
			"inputs": [
				{
					"internalType": "address",
					"name": "endPoint",
					"type": "address"
				}
			],
			"name": "setLzPoint",
			"outputs": [],
			"stateMutability": "nonpayable",
			"type": "function"
		},
		{
			"inputs": [
				{
					"internalType": "uint256",
					"name": "id",
					"type": "uint256"
				},
				{
					"internalType": "string",
					"name": "uri_",
					"type": "string"
				}
			],
			"name": "setUri",
			"outputs": [],
			"stateMutability": "nonpayable",
			"type": "function"
		},
		{
			"inputs": [
				{
					"internalType": "uint256",
					"name": "amount",
					"type": "uint256"
				}
			],
			"name": "setWeeklyFee",
			"outputs": [],
			"stateMutability": "nonpayable",
			"type": "function"
		},
		{
			"inputs": [
				{
					"internalType": "uint256",
					"name": "id",
					"type": "uint256"
				},
				{
					"internalType": "uint256",
					"name": "slot",
					"type": "uint256"
				},
				{
					"internalType": "address",
					"name": "to",
					"type": "address"
				}
			],
			"name": "shareStorage",
			"outputs": [],
			"stateMutability": "payable",
			"type": "function"
		},
		{
			"inputs": [
				{
					"internalType": "uint256",
					"name": "",
					"type": "uint256"
				}
			],
			"name": "storageViewAccess",
			"outputs": [
				{
					"internalType": "uint256",
					"name": "slot",
					"type": "uint256"
				},
				{
					"internalType": "uint256",
					"name": "accesees",
					"type": "uint256"
				}
			],
			"stateMutability": "view",
			"type": "function"
		},
		{
			"inputs": [
				{
					"internalType": "bytes4",
					"name": "interfaceId",
					"type": "bytes4"
				}
			],
			"name": "supportsInterface",
			"outputs": [
				{
					"internalType": "bool",
					"name": "",
					"type": "bool"
				}
			],
			"stateMutability": "view",
			"type": "function"
		},
		{
			"inputs": [],
			"name": "symbol",
			"outputs": [
				{
					"internalType": "string",
					"name": "",
					"type": "string"
				}
			],
			"stateMutability": "view",
			"type": "function"
		},
		{
			"inputs": [
				{
					"internalType": "uint256",
					"name": "tokenId",
					"type": "uint256"
				}
			],
			"name": "tokenURI",
			"outputs": [
				{
					"internalType": "string",
					"name": "",
					"type": "string"
				}
			],
			"stateMutability": "view",
			"type": "function"
		},
		{
			"inputs": [
				{
					"internalType": "address",
					"name": "from",
					"type": "address"
				},
				{
					"internalType": "address",
					"name": "to",
					"type": "address"
				},
				{
					"internalType": "uint256",
					"name": "tokenId",
					"type": "uint256"
				}
			],
			"name": "transferFrom",
			"outputs": [],
			"stateMutability": "nonpayable",
			"type": "function"
		},
		{
			"inputs": [
				{
					"internalType": "address",
					"name": "nOwner",
					"type": "address"
				}
			],
			"name": "transferOwnership",
			"outputs": [],
			"stateMutability": "nonpayable",
			"type": "function"
		},
		{
			"inputs": [
				{
					"internalType": "uint256",
					"name": "id",
					"type": "uint256"
				},
				{
					"internalType": "address",
					"name": "token",
					"type": "address"
				},
				{
					"internalType": "uint256",
					"name": "amt",
					"type": "uint256"
				},
				{
					"internalType": "address",
					"name": "to",
					"type": "address"
				},
				{
					"internalType": "address",
					"name": "from",
					"type": "address"
				}
			],
			"name": "withdraw",
			"outputs": [],
			"stateMutability": "payable",
			"type": "function"
		},
		{
			"inputs": [
				{
					"internalType": "address",
					"name": "token",
					"type": "address"
				},
				{
					"internalType": "uint256",
					"name": "amount",
					"type": "uint256"
				}
			],
			"name": "withdrawContractFee",
			"outputs": [],
			"stateMutability": "nonpayable",
			"type": "function"
		}
	]
}