{
	"data": {
		"bytecode": {
			"linkReferences": {},
			"object": "608060405262093a8060ca5534801561001757600080fd5b50614f8b806100276000396000f3fe6080604052600436106103ac5760003560e01c80637adcb9a2116101e7578063b353aaa71161010d578063e4cf3b28116100a0578063f101d8d21161006f578063f101d8d214610c0b578063f2fde38b14610c2b578063f5a482e014610c4b578063fd71ca4714610c6b57600080fd5b8063e4cf3b2814610b89578063e985e9c514610b9c578063ec49fda014610be5578063ed50aeb914610bf857600080fd5b8063d58f1179116100dc578063d58f117914610b16578063d9548e5314610b36578063db2c6dd914610b56578063df39a6ba14610b6957600080fd5b8063b353aaa714610aa5578063c87b56dd14610ac5578063ca709a2514610ae5578063cd88af6e14610b0357600080fd5b8063983b2d5611610185578063a26966fb11610154578063a26966fb14610a31578063a9d36f5b14610a5f578063b2034d2314610a72578063b2bdfa7b14610a8557600080fd5b8063983b2d56146109b1578063999ebe55146109d15780639e402dd6146109e4578063a22cb46514610a1157600080fd5b80638b973040116101c15780638b9730401461094b5780638da5cb5b1461095e5780638ebe4b301461097c57806395d89b411461099c57600080fd5b80637adcb9a2146108c15780638318dea3146108d4578063864018b71461092b57600080fd5b80633a56836e116102d75780635e34ae781161026a5780636352211e116102395780636352211e1461084157806370a0823114610861578063782f08ae146108815780637907d11c146108a157600080fd5b80635e34ae78146107fb5780635fdd03a21461080e57806360bd30dd146106ec578063613d25bb1461082157600080fd5b806340c10f19116102a657806340c10f191461076d57806340ee9b32146107805780634f6ccce7146107bb5780635557b279146107db57600080fd5b80633a56836e146106cc5780633bf7e8f4146106ec5780633d6541991461070c5780633e104a951461074f57600080fd5b806315cce2241161034f578063232b809f1161031e578063232b809f1461064857806323b872dd146106685780632769a8b4146106885780632f745c59146106ac57600080fd5b806315cce224146105b057806318160ddd146105d05780631fe48ac7146105e5578063228d0fd91461063357600080fd5b8063081812fc1161038b578063081812fc146104ef578063095ea7b3146105275780630f9e8bc014610549578063135798201461059d57600080fd5b80629c47a0146103b157806301ffc9a71461049d57806306fdde03146104cd575b600080fd5b3480156103bd57600080fd5b506104336103cc3660046144bd565b60d4602052600090815260409020805460018201546002830154600384015460048501546005860154600687015460078801546008909801546001600160a01b03978816989787169761ffff600160a01b8904811698600160b01b9004169695949392918b565b604080516001600160a01b039c8d1681529b909a1660208c015261ffff988916998b0199909952969095166060890152608088019390935260a087019190915260c086015260e0850152610100840152610120830152610140820152610160015b60405180910390f35b3480156104a957600080fd5b506104bd6104b83660046144ef565b610c8b565b6040519015158152602001610494565b3480156104d957600080fd5b506104e2610c9c565b6040516104949190614559565b3480156104fb57600080fd5b5061050f61050a3660046144bd565b610d2e565b6040516001600160a01b039091168152602001610494565b34801561053357600080fd5b50610547610542366004614588565b610d63565b005b34801561055557600080fd5b5061058f610564366004614588565b600090815260d4602090815260408083206001600160a01b0394909416835260099093019052205490565b604051908152602001610494565b6105476105ab3660046145b2565b610e7d565b3480156105bc57600080fd5b506105476105cb3660046145ef565b611041565b3480156105dc57600080fd5b50609a5461058f565b3480156105f157600080fd5b506106206106003660046144bd565b600090815260d46020526040902060010154600160b01b900461ffff1690565b60405161ffff9091168152602001610494565b34801561063f57600080fd5b5061058f61107a565b34801561065457600080fd5b506105476106633660046145ef565b611090565b34801561067457600080fd5b5061054761068336600461460a565b6110c9565b34801561069457600080fd5b5061054760cc80546001600160a01b03191633179055565b3480156106b857600080fd5b5061058f6106c7366004614588565b611140565b3480156106d857600080fd5b506105476106e7366004614588565b6111d6565b3480156106f857600080fd5b506105476107073660046144bd565b6112ea565b34801561071857600080fd5b5061073060cd5460d0546001600160a01b0390911691565b604080516001600160a01b039093168352602083019190915201610494565b34801561075b57600080fd5b5060cc546001600160a01b031661050f565b61054761077b366004614588565b611306565b34801561078c57600080fd5b5061062061079b3660046144bd565b600090815260d46020526040902060010154600160a01b900461ffff1690565b3480156107c757600080fd5b5061058f6107d63660046144bd565b611520565b3480156107e757600080fd5b506105476107f6366004614646565b6115b3565b610547610809366004614714565b611656565b61054761081c3660046147a6565b611856565b34801561082d57600080fd5b5061054761083c3660046147fd565b611b1f565b34801561084d57600080fd5b5061050f61085c3660046144bd565b611d12565b34801561086d57600080fd5b5061058f61087c3660046145ef565b611d77565b34801561088d57600080fd5b5061054761089c366004614868565b611dfd565b3480156108ad57600080fd5b506104bd6108bc3660046148af565b611e8a565b6105476108cf3660046148f0565b611f2c565b3480156108e057600080fd5b506109106108ef3660046144bd565b60d56020526000908152604090208054600182015460029092015490919083565b60408051938452602084019290925290820152606001610494565b34801561093757600080fd5b50610547610946366004614646565b61246c565b610547610959366004614646565b6124f5565b34801561096a57600080fd5b5060ce546001600160a01b031661050f565b34801561098857600080fd5b506106206109973660046145ef565b6125f4565b3480156109a857600080fd5b506104e261265f565b3480156109bd57600080fd5b506105476109cc3660046145ef565b61266e565b6105476109df366004614646565b6126d7565b3480156109f057600080fd5b5061058f6109ff3660046145ef565b60d36020526000908152604090205481565b348015610a1d57600080fd5b50610547610a2c366004614929565b6128b4565b348015610a3d57600080fd5b50610a51610a4c3660046148af565b6128bf565b604051610494929190614960565b610547610a6d36600461498e565b612b67565b610547610a803660046149c3565b612d40565b348015610a9157600080fd5b5060ce5461050f906001600160a01b031681565b348015610ab157600080fd5b5060d25461050f906001600160a01b031681565b348015610ad157600080fd5b506104e2610ae03660046144bd565b612ea7565b348015610af157600080fd5b5060cd546001600160a01b031661050f565b610547610b113660046149fe565b612eb2565b348015610b2257600080fd5b50610547610b313660046144bd565b6130ea565b348015610b4257600080fd5b506104bd610b513660046144bd565b6131c3565b610547610b6436600461498e565b6131ec565b348015610b7557600080fd5b50610547610b84366004614a49565b613426565b610547610b97366004614a75565b6134d9565b348015610ba857600080fd5b506104bd610bb7366004614aa9565b6001600160a01b039182166000908152606b6020908152604080832093909416825291909152205460ff1690565b610547610bf336600461498e565b6135b5565b610547610c06366004614646565b613780565b348015610c1757600080fd5b50610547610c263660046144bd565b61382f565b348015610c3757600080fd5b50610547610c463660046145ef565b61384b565b348015610c5757600080fd5b50610547610c66366004614adc565b613884565b348015610c7757600080fd5b50610547610c86366004614646565b61391f565b6000610c96826139e3565b92915050565b606060658054610cab90614b01565b80601f0160208091040260200160405190810160405280929190818152602001828054610cd790614b01565b8015610d245780601f10610cf957610100808354040283529160200191610d24565b820191906000526020600020905b815481529060010190602001808311610d0757829003601f168201915b5050505050905090565b6000610d3982613a08565b1515600114610d4757600080fd5b506000908152606a60205260409020546001600160a01b031690565b6000610d6e82611d12565b9050806001600160a01b0316836001600160a01b031603610de05760405162461bcd60e51b815260206004820152602160248201527f4552433732313a20617070726f76616c20746f2063757272656e74206f776e656044820152603960f91b60648201526084015b60405180910390fd5b336001600160a01b0382161480610dfc5750610dfc8133610bb7565b610e6e5760405162461bcd60e51b815260206004820152603d60248201527f4552433732313a20617070726f76652063616c6c6572206973206e6f7420746f60448201527f6b656e206f776e6572206f7220617070726f76656420666f7220616c6c0000006064820152608401610dd7565b610e788383613a25565b505050565b6000805b60cb5461ffff82161015610ee457600060cb8261ffff1681548110610ea857610ea8614b3b565b6000918252602090912001546001600160a01b0316905033819003610ed1576001925050610ee4565b5080610edc81614b67565b915050610e81565b5060019050600085815260d4602090815260408083206001600160a01b0387168452600901909152902054821115610f2e5760405162461bcd60e51b8152600401610dd790614b88565b610f3785613a08565b15156001148015610f525750610f4c84613a08565b15156001145b610f5b57600080fd5b6000805260d3602052600080516020614f3683398151915254610f7f903490614ba8565b600080516020614f3683398151915255600085815260d4602090815260408083206001600160a01b0387168452600901909152902054610fc0908390614bbb565b600086815260d4602081815260408084206001600160a01b0389168086526009918201845282862096909655898552928252808420948452939091019052205461100b908390614ba8565b600085815260d4602090815260408083206001600160a01b038816845260090190915290205561103a85613a93565b5050505050565b60ce546001600160a01b0316331461105857600080fd5b60cd80546001600160a01b0319166001600160a01b0392909216919091179055565b600060d054600561108b9190614bce565b905090565b60ce546001600160a01b031633146110a757600080fd5b60d280546001600160a01b0319166001600160a01b0392909216919091179055565b6110d33382613ac7565b6111355760405162461bcd60e51b815260206004820152602d60248201527f4552433732313a2063616c6c6572206973206e6f7420746f6b656e206f776e6560448201526c1c881bdc88185c1c1c9bdd9959609a1b6064820152608401610dd7565b610e78838383613b46565b600061114b83611d77565b82106111ad5760405162461bcd60e51b815260206004820152602b60248201527f455243373231456e756d657261626c653a206f776e657220696e646578206f7560448201526a74206f6620626f756e647360a81b6064820152608401610dd7565b506001600160a01b03919091166000908152609860209081526040808320938352929052205490565b60ce546001600160a01b031633146111ed57600080fd5b6001600160a01b038216600090815260d360205260409020548111156112435760405162461bcd60e51b815260206004820152600b60248201526a4e6f2062616c616e63657360a81b6044820152606401610dd7565b6001600160a01b038216600090815260d36020526040902054611267908290614bbb565b6001600160a01b038316600081815260d360205260409081902092909255905163a9059cbb60e01b81523360048201526024810183905263a9059cbb906044016020604051808303816000875af11580156112c6573d6000803e3d6000fd5b505050506040513d601f19601f82011682018060405250810190610e789190614be5565b60ce546001600160a01b0316331461130157600080fd5b60d055565b6000805b60cb5461ffff8216101561136d57600060cb8261ffff168154811061133157611331614b3b565b6000918252602090912001546001600160a01b031690503381900361135a57600192505061136d565b508061136581614b67565b91505061130a565b506001905061137b82613a08565b156113b95760405162461bcd60e51b815260206004820152600e60248201526d185b1c9958591e481b5a5b9d195960921b6044820152606401610dd7565b6000805260d3602052600080516020614f36833981519152546113dd903490614ba8565b600080516020614f3683398151915255600082815260d46020908152604080832060d25482516303408e4760e41b815292519194936001600160a01b0390911692633408e47092600480830193928290030181865afa158015611444573d6000803e3d6000fd5b505050506040513d601f19601f820116820180604052508101906114689190614c02565b90506114748585613cb7565b6001820180546001600160a01b0387166001600160a01b0319918216811790925583541617825542600383018190556114b1906301e13380614ba8565b60058301556114bf84613a93565b60c8600783015560018201805463ffffffff60a01b1916600160a01b61ffff9390931692830261ffff60b01b191617600160b01b929092029190911790556002908101839055600092835260d56020526040909220600a9201919091555050565b600061152b609a5490565b821061158e5760405162461bcd60e51b815260206004820152602c60248201527f455243373231456e756d657261626c653a20676c6f62616c20696e646578206f60448201526b7574206f6620626f756e647360a01b6064820152608401610dd7565b609a82815481106115a1576115a1614b3b565b90600052602060002001549050919050565b6000805b60cb5461ffff8216101561161a57600060cb8261ffff16815481106115de576115de614b3b565b6000918252602090912001546001600160a01b031690503381900361160757600192505061161a565b508061161281614b67565b9150506115b7565b5060019050600083815260d4602052604090206008015461163c908390614bbb565b600093845260d46020526040909320600801929092555050565b6000805b60cb5461ffff821610156116bd57600060cb8261ffff168154811061168157611681614b3b565b6000918252602090912001546001600160a01b03169050338190036116aa5760019250506116bd565b50806116b581614b67565b91505061165a565b5060019050600084815260d460205260409020600101546001600160a01b0383811691161461171b5760405162461bcd60e51b815260206004820152600a6024820152693737ba103437b63232b960b11b6044820152606401610dd7565b600084815260d4602052604090206006810154600790910154811080156117525750600085815260d4602052604090206005015442105b6117975760405162461bcd60e51b81526020600482015260166024820152751cdb1bdd08195e18d95959081bdc88195e1c1a5c995960521b6044820152606401610dd7565b600085815260d460209081526040808320848452600a018252822091805260d39052600080516020614f36833981519152546117d4903490614ba8565b600080516020614f3683398151915255600086815260d46020526040812060060180549161180183614c1f565b919050555061180f86613a93565b6001810161181d8882614c7e565b506003810161182c8682614c7e565b5060020180546001600160a01b0319166001600160a01b0394909416939093179092555050505050565b6000805b60cb5461ffff821610156118bd57600060cb8261ffff168154811061188157611881614b3b565b6000918252602090912001546001600160a01b03169050338190036118aa5760019250506118bd565b50806118b581614b67565b91505061185a565b50600190506118cb86613a08565b151560011480156118e457506001600160a01b03851615155b6119005760405162461bcd60e51b8152600401610dd790614d3e565b6040516370a0823160e01b815230600482015284906001600160a01b038716906370a0823190602401602060405180830381865afa158015611946573d6000803e3d6000fd5b505050506040513d601f19601f8201168201806040525081019061196a9190614d67565b1015801561199d5750600086815260d4602090815260408083206001600160a01b03891684526009019091529020548411155b6119b95760405162461bcd60e51b8152600401610dd790614b88565b600086815260d460205260409020600101546001600160a01b03838116911614611a115760405162461bcd60e51b81526020600482015260096024820152683737ba1037bbb732b960b91b6044820152606401610dd7565b6000805260d3602052600080516020614f3683398151915254611a35903490614ba8565b600080516020614f3683398151915255600086815260d4602090815260408083206001600160a01b0389168452600901909152902054611a76908590614bbb565b600087815260d4602090815260408083206001600160a01b038a811680865260099092019093529281902093909355915163a9059cbb60e01b81529185166004830152602482018690529063a9059cbb906044016020604051808303816000875af1158015611ae9573d6000803e3d6000fd5b505050506040513d601f19601f82011682018060405250810190611b0d9190614be5565b50611b1786613a93565b505050505050565b600054610100900460ff1615808015611b3f5750600054600160ff909116105b80611b595750303b158015611b59575060005460ff166001145b611bbc5760405162461bcd60e51b815260206004820152602e60248201527f496e697469616c697a61626c653a20636f6e747261637420697320616c72656160448201526d191e481a5b9a5d1a585b1a5e995960921b6064820152608401610dd7565b6000805460ff191660011790558015611bdf576000805461ff0019166101001790555b60cc546001600160a01b03163314611c285760405162461bcd60e51b815260206004820152600c60248201526b6e6f7420696e69742061636360a01b6044820152606401610dd7565b611c328484613cd1565b611c3a613d11565b60d280546001600160a01b038085166001600160a01b03199283161790925560cb80546001810182556000919091527fa7ce836d032b2bf62b7e2097a8e0a6d8aeb35405ad15271e96d3b0188a1d06fb01805482163390811790915560ce80548316909117905560cd805492881692909116919091179055600260cf55655af3107a400060d055600360d155801561103a576000805461ff0019169055604051600181527f7f26b83ff96e1f2b6a682f133852f6798a09c465da95921460cefb38474024989060200160405180910390a15050505050565b6000818152606860205260408120546001600160a01b031680610c965760405162461bcd60e51b815260206004820152601860248201527f4552433732313a20696e76616c696420746f6b656e20494400000000000000006044820152606401610dd7565b60006001600160a01b038216611de15760405162461bcd60e51b815260206004820152602960248201527f4552433732313a2061646472657373207a65726f206973206e6f7420612076616044820152683634b21037bbb732b960b91b6064820152608401610dd7565b506001600160a01b031660009081526069602052604090205490565b6000805b60cb5461ffff82161015611e6457600060cb8261ffff1681548110611e2857611e28614b3b565b6000918252602090912001546001600160a01b0316905033819003611e51576001925050611e64565b5080611e5c81614b67565b915050611e01565b5060019050611e7283613a08565b1515600114611e8057600080fd5b610e788383613d3a565b600080805b600085815260d56020526040902060030154811015611f2357600085815260d560205260408120600301805483908110611ecb57611ecb614b3b565b6000918252602090912001546001600160a01b039081169150871681148015611f015750600086815260d5602052604090205485145b15611f10576001925050611f23565b5080611f1b81614c1f565b915050611e8f565b50949350505050565b600083815260d46020526040902060018101546001600160a01b0316331480611f5e575080546001600160a01b031633145b611f9e5760405162461bcd60e51b815260206004820152601160248201527003737ba1030b1b1b2b9b9903a379034b21607d1b6044820152606401610dd7565b6000838152600a820160205260409020600201546001600160a01b03163314611ffd5760405162461bcd60e51b81526020600482015260116024820152701b9bc81858d8d95cdcc81d1bc81cdb1bdd607a1b6044820152606401610dd7565b60018101546001600160a01b03163314801561201b57506001821515145b1561210a5760d05461202e906005614bce565b60cd546001600160a01b0316600090815260098301602052604090205410156120695760405162461bcd60e51b8152600401610dd790614d80565b60d054612077906005614bce565b60cd546001600160a01b0316600090815260098301602052604090205461209e9190614bbb565b60cd546001600160a01b0316600090815260098301602052604090205560d0546120c9906005614bce565b60cd546001600160a01b0316600090815260d360205260409020546120ee9190614ba8565b60cd546001600160a01b0316600090815260d360205260409020555b60018101546001600160a01b031633148015612124575081155b156122b05760d054612137906005614bce565b60cd546040516370a0823160e01b81523360048201526001600160a01b03909116906370a0823190602401602060405180830381865afa15801561217f573d6000803e3d6000fd5b505050506040513d601f19601f820116820180604052508101906121a39190614d67565b10156121c15760405162461bcd60e51b8152600401610dd790614d80565b60cd5460d0546001600160a01b03909116906323b872dd90339030906121e8906005614bce565b6040516001600160e01b031960e086901b1681526001600160a01b03938416600482015292909116602483015260448201526064016020604051808303816000875af115801561223c573d6000803e3d6000fd5b505050506040513d601f19601f820116820180604052508101906122609190614be5565b5060d05461226f906005614bce565b60cd546001600160a01b0316600090815260d360205260409020546122949190614ba8565b60cd546001600160a01b0316600090815260d360205260409020555b80546001600160a01b031633036124485760d0546122cf906005614bce565b60cd546040516370a0823160e01b81523360048201526001600160a01b03909116906370a0823190602401602060405180830381865afa158015612317573d6000803e3d6000fd5b505050506040513d601f19601f8201168201806040525081019061233b9190614d67565b10156123595760405162461bcd60e51b8152600401610dd790614d80565b60cd5460d0546001600160a01b03909116906323b872dd9033903090612380906005614bce565b6040516001600160e01b031960e086901b1681526001600160a01b03938416600482015292909116602483015260448201526064016020604051808303816000875af11580156123d4573d6000803e3d6000fd5b505050506040513d601f19601f820116820180604052508101906123f89190614be5565b5060d054612407906005614bce565b60cd546001600160a01b0316600090815260d3602052604090205461242c9190614ba8565b60cd546001600160a01b0316600090815260d360205260409020555b61245184613a93565b6000928352600a016020525060409020805460ff1916905550565b6000805b60cb5461ffff821610156124d357600060cb8261ffff168154811061249757612497614b3b565b6000918252602090912001546001600160a01b03169050338190036124c05760019250506124d3565b50806124cb81614b67565b915050612470565b5060019050600083815260d4602052604090206008015461163c908390614ba8565b6000805b60cb5461ffff8216101561255c57600060cb8261ffff168154811061252057612520614b3b565b6000918252602090912001546001600160a01b031690503381900361254957600192505061255c565b508061255481614b67565b9150506124f9565b506001905060d65483106125825760405162461bcd60e51b8152600401610dd790614d3e565b6000805260d3602052600080516020614f36833981519152546125a6903490614ba8565b600080516020614f3683398151915255600083815260d460205260409020426004820155600501546125d9908390614ba8565b600084815260d46020526040902060050155610e7883613a93565b60008060005b60cb5461ffff821610156126585760cb8161ffff168154811061261f5761261f614b3b565b6000918252602090912001546001600160a01b039081169085160361264657809150612658565b8061265081614b67565b9150506125fa565b5092915050565b606060668054610cab90614b01565b60ce546001600160a01b0316331461268557600080fd5b60cb80546001810182556000919091527fa7ce836d032b2bf62b7e2097a8e0a6d8aeb35405ad15271e96d3b0188a1d06fb0180546001600160a01b0319166001600160a01b0392909216919091179055565b8160d0546126e59190614bce565b60cd546040516370a0823160e01b81523360048201526001600160a01b03909116906370a0823190602401602060405180830381865afa15801561272d573d6000803e3d6000fd5b505050506040513d601f19601f820116820180604052508101906127519190614d67565b10156127905760405162461bcd60e51b815260206004820152600e60248201526d149958da185c99d948199a5c9cdd60921b6044820152606401610dd7565b600081815260d460205260409020600101546001600160a01b031633146127b657600080fd5b6000805260d3602052600080516020614f36833981519152546127da903490614ba8565b6000805260d3602052600080516020614f368339815191525560d054612801908390614bce565b600082815260d46020908152604080832060cd546001600160a01b031684526009019091529020546128339190614bbb565b600082815260d46020818152604080842060cd546001600160a01b03168552600981018352908420949094559184905290524260049091015560ca546128799083614bce565b600082815260d460205260409020600501546128959190614ba8565b600082815260d460205260409020600501556128b081613a93565b5050565b6128b0338383613d52565b6060806000805b60cb5461ffff8216101561292957600060cb8261ffff16815481106128ed576128ed614b3b565b6000918252602090912001546001600160a01b0316905033819003612916576001925050612929565b508061292181614b67565b9150506128c6565b5060019050600085815260d460209081526040808320878452600a019091529020600201546001600160a01b0387811691161480612973575061296d868686611e8a565b15156001145b6129bf5760405162461bcd60e51b815260206004820152601860248201527f6e6f74206f776e6572206f6620696420616e6420736c6f7400000000000000006044820152606401610dd7565b600085815260d460209081526040808320878452600a0190915290205460ff1615612a1b5760405162461bcd60e51b815260206004820152600c60248201526b11195b195d19590814db1bdd60a21b6044820152606401610dd7565b600085815260d460209081526040808320878452600a0190915290206001810180549091600301908290612a4e90614b01565b80601f0160208091040260200160405190810160405280929190818152602001828054612a7a90614b01565b8015612ac75780601f10612a9c57610100808354040283529160200191612ac7565b820191906000526020600020905b815481529060010190602001808311612aaa57829003601f168201915b50505050509150808054612ada90614b01565b80601f0160208091040260200160405190810160405280929190818152602001828054612b0690614b01565b8015612b535780601f10612b2857610100808354040283529160200191612b53565b820191906000526020600020905b815481529060010190602001808311612b3657829003601f168201915b505050505090509250925050935093915050565b600083815260d460209081526040808320858452600a01825280832086845260d5909252909120600281015460039091015410612be65760405162461bcd60e51b815260206004820152601f60248201527f6d617820736861726520616c6c6f7765642031302062792064656661756c74006044820152606401610dd7565b600084815260d460205260409020600101546001600160a01b0316331480612c245750600084815260d460205260409020546001600160a01b031633145b612c635760405162461bcd60e51b815260206004820152601060248201526f03737ba1037bbb732b91037b31034b2160851b6044820152606401610dd7565b60028101546001600160a01b031633148015612c815750805460ff16155b612c9d5760405162461bcd60e51b8152600401610dd790614da2565b6000805260d3602052600080516020614f3683398151915254612cc1903490614ba8565b6000805260d3602052600080516020614f3683398151915255612ce384613a93565b600084815260d56020908152604082208581556003810180546001808201835591855292842090920180546001600160a01b0319166001600160a01b03871617905586835201805491612d3583614c1f565b919050555050505050565b612d4984613a08565b1515600114612d5757600080fd5b824710158015612d835750600084815260d4602090815260408083208380526009019091529020548311155b612d9f5760405162461bcd60e51b8152600401610dd790614b88565b600084815260d460205260409020600101546001600160a01b03828116911614612df75760405162461bcd60e51b81526020600482015260096024820152683737ba1037bbb732b960b91b6044820152606401610dd7565b6000805260d3602052600080516020614f3683398151915254612e1b903490614ba8565b600080516020614f3683398151915255600084815260d460209081526040808320838052600901909152902054612e53908490614bbb565b600085815260d4602090815260408083208380526009019091528082209290925590516001600160a01b0384169185156108fc02918691818181858888f1935050505015801561103a573d6000803e3d6000fd5b6060610c9682613e20565b6000805b60cb5461ffff82161015612f1957600060cb8261ffff1681548110612edd57612edd614b3b565b6000918252602090912001546001600160a01b0316905033819003612f06576001925050612f19565b5080612f1181614b67565b915050612eb6565b5060019050612f2785613a08565b1515600114612f485760405162461bcd60e51b8152600401610dd790614d3e565b6040516370a0823160e01b81526001600160a01b0383811660048301528491908616906370a0823190602401602060405180830381865afa158015612f91573d6000803e3d6000fd5b505050506040513d601f19601f82011682018060405250810190612fb59190614d67565b1015612fd35760405162461bcd60e51b8152600401610dd790614b88565b6000805260d3602052600080516020614f3683398151915254612ff7903490614ba8565b6000805260d3602052600080516020614f36833981519152556040516323b872dd60e01b81526001600160a01b038381166004830152306024830152604482018590528516906323b872dd906064016020604051808303816000875af1158015613065573d6000803e3d6000fd5b505050506040513d601f19601f820116820180604052508101906130899190614be5565b50600085815260d4602090815260408083206001600160a01b03881684526009019091529020546130bb908490614ba8565b600086815260d4602090815260408083206001600160a01b038916845260090190915290205561103a85613a93565b60ce546001600160a01b0316331461310157600080fd5b600080805260d3602052600080516020614f36833981519152548211156131585760405162461bcd60e51b815260206004820152600b60248201526a4e6f2062616c616e63657360a81b6044820152606401610dd7565b6001600160a01b038116600090815260d3602052604090205461317c908390614bbb565b6001600160a01b038216600090815260d36020526040808220929092559051339184156108fc02918591818181858888f19350505050158015610e78573d6000803e3d6000fd5b600081815260d460205260408120600501544211156131e457506001919050565b506000919050565b600083815260d460205260409020600101546001600160a01b031633148061322a5750600083815260d460205260409020546001600160a01b031633145b6132695760405162461bcd60e51b815260206004820152601060248201526f03737ba1037bbb732b91037b31034b2160851b6044820152606401610dd7565b600083815260d460209081526040808320858452600a019091529020600201546001600160a01b0316331480156132bd5750600083815260d460209081526040808320858452600a0190915290205460ff16155b6132d95760405162461bcd60e51b8152600401610dd790614da2565b6000805260d3602052600080516020614f36833981519152546132fd903490614ba8565b6000805260d3602052600080516020614f368339815191525561331f83613a93565b600083815260d5602052604081208390555b600084815260d5602052604090206002015481101561340157600084815260d56020526040812060030180548390811061336d5761336d614b3b565b6000918252602090912001546001600160a01b039081169150831681036133ee57600085815260d5602052604090206003018054839081106133b1576133b1614b3b565b6000918252602080832090910180546001600160a01b031916905586825260d59052604090206001908101546133e79190614bbb565b5050613401565b50806133f981614c1f565b915050613331565b50600083815260d5602052604090206001908101546134209190614bbb565b50505050565b60ce546001600160a01b0316331461343d57600080fd5b60cb8161ffff168154811061345457613454614b3b565b6000918252602090912001546001600160a01b038381169116146134a55760405162461bcd60e51b81526020600482015260086024820152670dad2e6dac2e8c6d60c31b6044820152606401610dd7565b60cb8161ffff16815481106134bc576134bc614b3b565b600091825260209091200180546001600160a01b03191690555050565b6000805b60cb5461ffff8216101561354057600060cb8261ffff168154811061350457613504614b3b565b6000918252602090912001546001600160a01b031690503381900361352d576001925050613540565b508061353881614b67565b9150506134dd565b5060019050600085815260d460209081526040808320878452600a019091529020600201546001600160a01b0383811691161461357c57600080fd5b600085815260d56020526040902060020154613599908490614ba8565b600095865260d560205260409095206002019490945550505050565b6000805b60cb5461ffff8216101561361c57600060cb8261ffff16815481106135e0576135e0614b3b565b6000918252602090912001546001600160a01b031690503381900361360957600192505061361c565b508061361481614b67565b9150506135b9565b5060019050600084815260d460208181526040808420878552600a81018352908420938890529190526006015484118015906136685750600085815260d4602052604090206005015442105b6136a25760405162461bcd60e51b815260206004820152600b60248201526a1cdb1bdd08195e18d9595960aa1b6044820152606401610dd7565b60028101546001600160a01b0384811691161480156136dd5750600085815260d460205260409020600101546001600160a01b038481169116145b6137295760405162461bcd60e51b815260206004820152601760248201527f646964206e6f742073746f7265206461746120736c6f740000000000000000006044820152606401610dd7565b6000805260d3602052600080516020614f368339815191525461374d903490614ba8565b6000805260d3602052600080516020614f368339815191525561376f85613a93565b805460ff1916600117905550505050565b61378982613a08565b151560011461379757600080fd5b803410156137a457600080fd5b6137ae8134614bbb565b6000805260d3602052600080516020614f36833981519152546137d19190614ba8565b600080516020614f3683398151915255600082815260d460209081526040808320838052600901909152902054613809908290614ba8565b600083815260d4602090815260408083208380526009019091529020556128b082613a93565b60ce546001600160a01b0316331461384657600080fd5b60d155565b60ce546001600160a01b0316331461386257600080fd5b60ce80546001600160a01b0319166001600160a01b0392909216919091179055565b6000805b60cb5461ffff821610156138eb57600060cb8261ffff16815481106138af576138af614b3b565b6000918252602090912001546001600160a01b03169050338190036138d85760019250506138eb565b50806138e381614b67565b915050613888565b5050600091825260d46020526040909120600101805461ffff909216600160b01b0261ffff60b01b19909216919091179055565b6000805b60cb5461ffff8216101561398657600060cb8261ffff168154811061394a5761394a614b3b565b6000918252602090912001546001600160a01b0316905033819003613973576001925050613986565b508061397e81614b67565b915050613923565b506001905060d65482106139ac5760405162461bcd60e51b8152600401610dd790614d3e565b600082815260d460205260409020600701546139c9908490614ba8565b600092835260d46020526040909220600701919091555050565b60006001600160e01b0319821663780e9d6360e01b1480610c965750610c9682613ec2565b6000908152606860205260409020546001600160a01b0316151590565b6000818152606a6020526040902080546001600160a01b0319166001600160a01b0384169081179091558190613a5a82611d12565b6001600160a01b03167f8c5be1e5ebec7d5bd14f71427d1e84f3dd0314c0f7b2291e5b200ac8c7c3b92560405160405180910390a45050565b60d154600082815260d46020526040902060080154613ab29190614ba8565b600091825260d4602052604090912060080155565b600080613ad383611d12565b9050806001600160a01b0316846001600160a01b03161480613b1a57506001600160a01b038082166000908152606b602090815260408083209388168352929052205460ff165b80613b3e5750836001600160a01b0316613b3384610d2e565b6001600160a01b0316145b949350505050565b826001600160a01b0316613b5982611d12565b6001600160a01b031614613b7f5760405162461bcd60e51b8152600401610dd790614de3565b6001600160a01b038216613be15760405162461bcd60e51b8152602060048201526024808201527f4552433732313a207472616e7366657220746f20746865207a65726f206164646044820152637265737360e01b6064820152608401610dd7565b613bee8383836001613f12565b826001600160a01b0316613c0182611d12565b6001600160a01b031614613c275760405162461bcd60e51b8152600401610dd790614de3565b6000818152606a6020908152604080832080546001600160a01b03199081169091556001600160a01b0387811680865260698552838620805460001901905590871680865283862080546001019055868652606890945282852080549092168417909155905184937fddf252ad1be2c89b69c2b068fc378daa952ba7f163c4a11628f55a4df523b3ef91a4505050565b6128b0828260405180602001604052806000815250613f51565b600054610100900460ff16613cf85760405162461bcd60e51b8152600401610dd790614e28565b6065613d048382614c7e565b506066610e788282614c7e565b600054610100900460ff16613d385760405162461bcd60e51b8152600401610dd790614e28565b565b6000828152606760205260409020610e788282614c7e565b816001600160a01b0316836001600160a01b031603613db35760405162461bcd60e51b815260206004820152601960248201527f4552433732313a20617070726f766520746f2063616c6c6572000000000000006044820152606401610dd7565b6001600160a01b038381166000818152606b6020908152604080832094871680845294825291829020805460ff191686151590811790915591519182527f17307eab39ab6107e8899845ad3d59bd9653f200f220920489ca2b5937696c31910160405180910390a3505050565b6000818152606760205260409020805460609190613e3d90614b01565b80601f0160208091040260200160405190810160405280929190818152602001828054613e6990614b01565b8015613eb65780601f10613e8b57610100808354040283529160200191613eb6565b820191906000526020600020905b815481529060010190602001808311613e9957829003601f168201915b50505050509050919050565b60006001600160e01b03198216637aa5391d60e01b1480613ef357506001600160e01b03198216635b5e139f60e01b145b80610c9657506301ffc9a760e01b6001600160e01b0319831614610c96565b613f1e84848484613f84565b50600090815260d46020526040902060010180546001600160a01b0319166001600160a01b039290921691909117905550565b613f5b83836140b1565b613f68600084848461422c565b610e785760405162461bcd60e51b8152600401610dd790614e73565b6001811115613ff35760405162461bcd60e51b815260206004820152603560248201527f455243373231456e756d657261626c653a20636f6e7365637574697665207472604482015274185b9cd9995c9cc81b9bdd081cdd5c1c1bdc9d1959605a1b6064820152608401610dd7565b816001600160a01b03851661404f5761404a81609a80546000838152609b60205260408120829055600182018355919091527f44da158ba27f9252712a74ff6a55c5d531f69609f1f6e7f17c4443a8e2089be40155565b614072565b836001600160a01b0316856001600160a01b03161461407257614072858261432d565b6001600160a01b03841661408e57614089816143ca565b61103a565b846001600160a01b0316846001600160a01b03161461103a5761103a8482614479565b6001600160a01b0382166141075760405162461bcd60e51b815260206004820181905260248201527f4552433732313a206d696e7420746f20746865207a65726f20616464726573736044820152606401610dd7565b61411081613a08565b1561415d5760405162461bcd60e51b815260206004820152601c60248201527f4552433732313a20746f6b656e20616c7265616479206d696e746564000000006044820152606401610dd7565b61416b600083836001613f12565b61417481613a08565b156141c15760405162461bcd60e51b815260206004820152601c60248201527f4552433732313a20746f6b656e20616c7265616479206d696e746564000000006044820152606401610dd7565b6001600160a01b038216600081815260696020908152604080832080546001019055848352606890915280822080546001600160a01b0319168417905551839291907fddf252ad1be2c89b69c2b068fc378daa952ba7f163c4a11628f55a4df523b3ef908290a45050565b60006001600160a01b0384163b1561432257604051630a85bd0160e11b81526001600160a01b0385169063150b7a0290614270903390899088908890600401614ec5565b6020604051808303816000875af19250505080156142ab575060408051601f3d908101601f191682019092526142a891810190614f02565b60015b614308573d8080156142d9576040519150601f19603f3d011682016040523d82523d6000602084013e6142de565b606091505b5080516000036143005760405162461bcd60e51b8152600401610dd790614e73565b805181602001fd5b6001600160e01b031916630a85bd0160e11b149050613b3e565b506001949350505050565b6000600161433a84611d77565b6143449190614bbb565b600083815260996020526040902054909150808214614397576001600160a01b03841660009081526098602090815260408083208584528252808320548484528184208190558352609990915290208190555b5060009182526099602090815260408084208490556001600160a01b039094168352609881528383209183525290812055565b609a546000906143dc90600190614bbb565b6000838152609b6020526040812054609a805493945090928490811061440457614404614b3b565b9060005260206000200154905080609a838154811061442557614425614b3b565b6000918252602080832090910192909255828152609b9091526040808220849055858252812055609a80548061445d5761445d614f1f565b6001900381819060005260206000200160009055905550505050565b600061448483611d77565b6001600160a01b039093166000908152609860209081526040808320868452825280832085905593825260999052919091209190915550565b6000602082840312156144cf57600080fd5b5035919050565b6001600160e01b0319811681146144ec57600080fd5b50565b60006020828403121561450157600080fd5b813561450c816144d6565b9392505050565b6000815180845260005b818110156145395760208185018101518683018201520161451d565b506000602082860101526020601f19601f83011685010191505092915050565b60208152600061450c6020830184614513565b80356001600160a01b038116811461458357600080fd5b919050565b6000806040838503121561459b57600080fd5b6145a48361456c565b946020939093013593505050565b600080600080608085870312156145c857600080fd5b84359350602085013592506145df6040860161456c565b9396929550929360600135925050565b60006020828403121561460157600080fd5b61450c8261456c565b60008060006060848603121561461f57600080fd5b6146288461456c565b92506146366020850161456c565b9150604084013590509250925092565b6000806040838503121561465957600080fd5b50508035926020909101359150565b634e487b7160e01b600052604160045260246000fd5b600067ffffffffffffffff8084111561469957614699614668565b604051601f8501601f19908116603f011681019082821181831017156146c1576146c1614668565b816040528093508581528686860111156146da57600080fd5b858560208301376000602087830101525050509392505050565b600082601f83011261470557600080fd5b61450c8383356020850161467e565b6000806000806080858703121561472a57600080fd5b843567ffffffffffffffff8082111561474257600080fd5b61474e888389016146f4565b955060208701359450604087013591508082111561476b57600080fd5b508501601f8101871361477d57600080fd5b61478c8782356020840161467e565b92505061479b6060860161456c565b905092959194509250565b600080600080600060a086880312156147be57600080fd5b853594506147ce6020870161456c565b9350604086013592506147e36060870161456c565b91506147f16080870161456c565b90509295509295909350565b6000806000806080858703121561481357600080fd5b61481c8561456c565b9350602085013567ffffffffffffffff8082111561483957600080fd5b614845888389016146f4565b9450604087013591508082111561485b57600080fd5b5061478c878288016146f4565b6000806040838503121561487b57600080fd5b82359150602083013567ffffffffffffffff81111561489957600080fd5b6148a5858286016146f4565b9150509250929050565b6000806000606084860312156148c457600080fd5b6148cd8461456c565b95602085013595506040909401359392505050565b80151581146144ec57600080fd5b60008060006060848603121561490557600080fd5b8335925060208401359150604084013561491e816148e2565b809150509250925092565b6000806040838503121561493c57600080fd5b6149458361456c565b91506020830135614955816148e2565b809150509250929050565b6040815260006149736040830185614513565b82810360208401526149858185614513565b95945050505050565b6000806000606084860312156149a357600080fd5b83359250602084013591506149ba6040850161456c565b90509250925092565b600080600080608085870312156149d957600080fd5b84359350602085013592506149f06040860161456c565b915061479b6060860161456c565b60008060008060808587031215614a1457600080fd5b84359350614a246020860161456c565b92506040850135915061479b6060860161456c565b61ffff811681146144ec57600080fd5b60008060408385031215614a5c57600080fd5b614a658361456c565b9150602083013561495581614a39565b60008060008060808587031215614a8b57600080fd5b84359350602085013592506040850135915061479b6060860161456c565b60008060408385031215614abc57600080fd5b614ac58361456c565b9150614ad36020840161456c565b90509250929050565b60008060408385031215614aef57600080fd5b82359150602083013561495581614a39565b600181811c90821680614b1557607f821691505b602082108103614b3557634e487b7160e01b600052602260045260246000fd5b50919050565b634e487b7160e01b600052603260045260246000fd5b634e487b7160e01b600052601160045260246000fd5b600061ffff808316818103614b7e57614b7e614b51565b6001019392505050565b6020808252600690820152651b9bc818985b60d21b604082015260600190565b80820180821115610c9657610c96614b51565b81810381811115610c9657610c96614b51565b8082028115828204841417610c9657610c96614b51565b600060208284031215614bf757600080fd5b815161450c816148e2565b600060208284031215614c1457600080fd5b815161450c81614a39565b600060018201614c3157614c31614b51565b5060010190565b601f821115610e7857600081815260208120601f850160051c81016020861015614c5f5750805b601f850160051c820191505b81811015611b1757828155600101614c6b565b815167ffffffffffffffff811115614c9857614c98614668565b614cac81614ca68454614b01565b84614c38565b602080601f831160018114614ce15760008415614cc95750858301515b600019600386901b1c1916600185901b178555611b17565b600085815260208120601f198616915b82811015614d1057888601518255948401946001909101908401614cf1565b5085821015614d2e5787850151600019600388901b60f8161c191681555b5050505050600190811b01905550565b6020808252600f908201526e1b9bdb88195e1a5cdd195b9d081a59608a1b604082015260600190565b600060208284031215614d7957600080fd5b5051919050565b6020808252600890820152676e6565642066656560c01b604082015260600190565b60208082526021908201527f6e6f2061636365737320746f20736c6f74206f722064656c6574656420736c6f6040820152601d60fa1b606082015260800190565b60208082526025908201527f4552433732313a207472616e736665722066726f6d20696e636f72726563742060408201526437bbb732b960d91b606082015260800190565b6020808252602b908201527f496e697469616c697a61626c653a20636f6e7472616374206973206e6f74206960408201526a6e697469616c697a696e6760a81b606082015260800190565b60208082526032908201527f4552433732313a207472616e7366657220746f206e6f6e20455243373231526560408201527131b2b4bb32b91034b6b83632b6b2b73a32b960711b606082015260800190565b6001600160a01b0385811682528416602082015260408101839052608060608201819052600090614ef890830184614513565b9695505050505050565b600060208284031215614f1457600080fd5b815161450c816144d6565b634e487b7160e01b600052603160045260246000fdfe938258ec6d8d468a3507d140e1c026dc2afa285c097847a088da7b50946fb91ba264697066735822122045115f491849570894f6b98baff13b86e265fbe1b09541e9ecd9893220310e1a64736f6c63430008110033",
			"opcodes": "PUSH1 0x80 PUSH1 0x40 MSTORE PUSH3 0x93A80 PUSH1 0xCA SSTORE CALLVALUE DUP1 ISZERO PUSH2 0x17 JUMPI PUSH1 0x0 DUP1 REVERT JUMPDEST POP PUSH2 0x4F8B DUP1 PUSH2 0x27 PUSH1 0x0 CODECOPY PUSH1 0x0 RETURN INVALID PUSH1 0x80 PUSH1 0x40 MSTORE PUSH1 0x4 CALLDATASIZE LT PUSH2 0x3AC JUMPI PUSH1 0x0 CALLDATALOAD PUSH1 0xE0 SHR DUP1 PUSH4 0x7ADCB9A2 GT PUSH2 0x1E7 JUMPI DUP1 PUSH4 0xB353AAA7 GT PUSH2 0x10D JUMPI DUP1 PUSH4 0xE4CF3B28 GT PUSH2 0xA0 JUMPI DUP1 PUSH4 0xF101D8D2 GT PUSH2 0x6F JUMPI DUP1 PUSH4 0xF101D8D2 EQ PUSH2 0xC0B JUMPI DUP1 PUSH4 0xF2FDE38B EQ PUSH2 0xC2B JUMPI DUP1 PUSH4 0xF5A482E0 EQ PUSH2 0xC4B JUMPI DUP1 PUSH4 0xFD71CA47 EQ PUSH2 0xC6B JUMPI PUSH1 0x0 DUP1 REVERT JUMPDEST DUP1 PUSH4 0xE4CF3B28 EQ PUSH2 0xB89 JUMPI DUP1 PUSH4 0xE985E9C5 EQ PUSH2 0xB9C JUMPI DUP1 PUSH4 0xEC49FDA0 EQ PUSH2 0xBE5 JUMPI DUP1 PUSH4 0xED50AEB9 EQ PUSH2 0xBF8 JUMPI PUSH1 0x0 DUP1 REVERT JUMPDEST DUP1 PUSH4 0xD58F1179 GT PUSH2 0xDC JUMPI DUP1 PUSH4 0xD58F1179 EQ PUSH2 0xB16 JUMPI DUP1 PUSH4 0xD9548E53 EQ PUSH2 0xB36 JUMPI DUP1 PUSH4 0xDB2C6DD9 EQ PUSH2 0xB56 JUMPI DUP1 PUSH4 0xDF39A6BA EQ PUSH2 0xB69 JUMPI PUSH1 0x0 DUP1 REVERT JUMPDEST DUP1 PUSH4 0xB353AAA7 EQ PUSH2 0xAA5 JUMPI DUP1 PUSH4 0xC87B56DD EQ PUSH2 0xAC5 JUMPI DUP1 PUSH4 0xCA709A25 EQ PUSH2 0xAE5 JUMPI DUP1 PUSH4 0xCD88AF6E EQ PUSH2 0xB03 JUMPI PUSH1 0x0 DUP1 REVERT JUMPDEST DUP1 PUSH4 0x983B2D56 GT PUSH2 0x185 JUMPI DUP1 PUSH4 0xA26966FB GT PUSH2 0x154 JUMPI DUP1 PUSH4 0xA26966FB EQ PUSH2 0xA31 JUMPI DUP1 PUSH4 0xA9D36F5B EQ PUSH2 0xA5F JUMPI DUP1 PUSH4 0xB2034D23 EQ PUSH2 0xA72 JUMPI DUP1 PUSH4 0xB2BDFA7B EQ PUSH2 0xA85 JUMPI PUSH1 0x0 DUP1 REVERT JUMPDEST DUP1 PUSH4 0x983B2D56 EQ PUSH2 0x9B1 JUMPI DUP1 PUSH4 0x999EBE55 EQ PUSH2 0x9D1 JUMPI DUP1 PUSH4 0x9E402DD6 EQ PUSH2 0x9E4 JUMPI DUP1 PUSH4 0xA22CB465 EQ PUSH2 0xA11 JUMPI PUSH1 0x0 DUP1 REVERT JUMPDEST DUP1 PUSH4 0x8B973040 GT PUSH2 0x1C1 JUMPI DUP1 PUSH4 0x8B973040 EQ PUSH2 0x94B JUMPI DUP1 PUSH4 0x8DA5CB5B EQ PUSH2 0x95E JUMPI DUP1 PUSH4 0x8EBE4B30 EQ PUSH2 0x97C JUMPI DUP1 PUSH4 0x95D89B41 EQ PUSH2 0x99C JUMPI PUSH1 0x0 DUP1 REVERT JUMPDEST DUP1 PUSH4 0x7ADCB9A2 EQ PUSH2 0x8C1 JUMPI DUP1 PUSH4 0x8318DEA3 EQ PUSH2 0x8D4 JUMPI DUP1 PUSH4 0x864018B7 EQ PUSH2 0x92B JUMPI PUSH1 0x0 DUP1 REVERT JUMPDEST DUP1 PUSH4 0x3A56836E GT PUSH2 0x2D7 JUMPI DUP1 PUSH4 0x5E34AE78 GT PUSH2 0x26A JUMPI DUP1 PUSH4 0x6352211E GT PUSH2 0x239 JUMPI DUP1 PUSH4 0x6352211E EQ PUSH2 0x841 JUMPI DUP1 PUSH4 0x70A08231 EQ PUSH2 0x861 JUMPI DUP1 PUSH4 0x782F08AE EQ PUSH2 0x881 JUMPI DUP1 PUSH4 0x7907D11C EQ PUSH2 0x8A1 JUMPI PUSH1 0x0 DUP1 REVERT JUMPDEST DUP1 PUSH4 0x5E34AE78 EQ PUSH2 0x7FB JUMPI DUP1 PUSH4 0x5FDD03A2 EQ PUSH2 0x80E JUMPI DUP1 PUSH4 0x60BD30DD EQ PUSH2 0x6EC JUMPI DUP1 PUSH4 0x613D25BB EQ PUSH2 0x821 JUMPI PUSH1 0x0 DUP1 REVERT JUMPDEST DUP1 PUSH4 0x40C10F19 GT PUSH2 0x2A6 JUMPI DUP1 PUSH4 0x40C10F19 EQ PUSH2 0x76D JUMPI DUP1 PUSH4 0x40EE9B32 EQ PUSH2 0x780 JUMPI DUP1 PUSH4 0x4F6CCCE7 EQ PUSH2 0x7BB JUMPI DUP1 PUSH4 0x5557B279 EQ PUSH2 0x7DB JUMPI PUSH1 0x0 DUP1 REVERT JUMPDEST DUP1 PUSH4 0x3A56836E EQ PUSH2 0x6CC JUMPI DUP1 PUSH4 0x3BF7E8F4 EQ PUSH2 0x6EC JUMPI DUP1 PUSH4 0x3D654199 EQ PUSH2 0x70C JUMPI DUP1 PUSH4 0x3E104A95 EQ PUSH2 0x74F JUMPI PUSH1 0x0 DUP1 REVERT JUMPDEST DUP1 PUSH4 0x15CCE224 GT PUSH2 0x34F JUMPI DUP1 PUSH4 0x232B809F GT PUSH2 0x31E JUMPI DUP1 PUSH4 0x232B809F EQ PUSH2 0x648 JUMPI DUP1 PUSH4 0x23B872DD EQ PUSH2 0x668 JUMPI DUP1 PUSH4 0x2769A8B4 EQ PUSH2 0x688 JUMPI DUP1 PUSH4 0x2F745C59 EQ PUSH2 0x6AC JUMPI PUSH1 0x0 DUP1 REVERT JUMPDEST DUP1 PUSH4 0x15CCE224 EQ PUSH2 0x5B0 JUMPI DUP1 PUSH4 0x18160DDD EQ PUSH2 0x5D0 JUMPI DUP1 PUSH4 0x1FE48AC7 EQ PUSH2 0x5E5 JUMPI DUP1 PUSH4 0x228D0FD9 EQ PUSH2 0x633 JUMPI PUSH1 0x0 DUP1 REVERT JUMPDEST DUP1 PUSH4 0x81812FC GT PUSH2 0x38B JUMPI DUP1 PUSH4 0x81812FC EQ PUSH2 0x4EF JUMPI DUP1 PUSH4 0x95EA7B3 EQ PUSH2 0x527 JUMPI DUP1 PUSH4 0xF9E8BC0 EQ PUSH2 0x549 JUMPI DUP1 PUSH4 0x13579820 EQ PUSH2 0x59D JUMPI PUSH1 0x0 DUP1 REVERT JUMPDEST DUP1 PUSH3 0x9C47A0 EQ PUSH2 0x3B1 JUMPI DUP1 PUSH4 0x1FFC9A7 EQ PUSH2 0x49D JUMPI DUP1 PUSH4 0x6FDDE03 EQ PUSH2 0x4CD JUMPI JUMPDEST PUSH1 0x0 DUP1 REVERT JUMPDEST CALLVALUE DUP1 ISZERO PUSH2 0x3BD JUMPI PUSH1 0x0 DUP1 REVERT JUMPDEST POP PUSH2 0x433 PUSH2 0x3CC CALLDATASIZE PUSH1 0x4 PUSH2 0x44BD JUMP JUMPDEST PUSH1 0xD4 PUSH1 0x20 MSTORE PUSH1 0x0 SWAP1 DUP2 MSTORE PUSH1 0x40 SWAP1 KECCAK256 DUP1 SLOAD PUSH1 0x1 DUP3 ADD SLOAD PUSH1 0x2 DUP4 ADD SLOAD PUSH1 0x3 DUP5 ADD SLOAD PUSH1 0x4 DUP6 ADD SLOAD PUSH1 0x5 DUP7 ADD SLOAD PUSH1 0x6 DUP8 ADD SLOAD PUSH1 0x7 DUP9 ADD SLOAD PUSH1 0x8 SWAP1 SWAP9 ADD SLOAD PUSH1 0x1 PUSH1 0x1 PUSH1 0xA0 SHL SUB SWAP8 DUP9 AND SWAP9 SWAP8 DUP8 AND SWAP8 PUSH2 0xFFFF PUSH1 0x1 PUSH1 0xA0 SHL DUP10 DIV DUP2 AND SWAP9 PUSH1 0x1 PUSH1 0xB0 SHL SWAP1 DIV AND SWAP7 SWAP6 SWAP5 SWAP4 SWAP3 SWAP2 DUP12 JUMP JUMPDEST PUSH1 0x40 DUP1 MLOAD PUSH1 0x1 PUSH1 0x1 PUSH1 0xA0 SHL SUB SWAP13 DUP14 AND DUP2 MSTORE SWAP12 SWAP1 SWAP11 AND PUSH1 0x20 DUP13 ADD MSTORE PUSH2 0xFFFF SWAP9 DUP10 AND SWAP10 DUP12 ADD SWAP10 SWAP1 SWAP10 MSTORE SWAP7 SWAP1 SWAP6 AND PUSH1 0x60 DUP10 ADD MSTORE PUSH1 0x80 DUP9 ADD SWAP4 SWAP1 SWAP4 MSTORE PUSH1 0xA0 DUP8 ADD SWAP2 SWAP1 SWAP2 MSTORE PUSH1 0xC0 DUP7 ADD MSTORE PUSH1 0xE0 DUP6 ADD MSTORE PUSH2 0x100 DUP5 ADD MSTORE PUSH2 0x120 DUP4 ADD MSTORE PUSH2 0x140 DUP3 ADD MSTORE PUSH2 0x160 ADD JUMPDEST PUSH1 0x40 MLOAD DUP1 SWAP2 SUB SWAP1 RETURN JUMPDEST CALLVALUE DUP1 ISZERO PUSH2 0x4A9 JUMPI PUSH1 0x0 DUP1 REVERT JUMPDEST POP PUSH2 0x4BD PUSH2 0x4B8 CALLDATASIZE PUSH1 0x4 PUSH2 0x44EF JUMP JUMPDEST PUSH2 0xC8B JUMP JUMPDEST PUSH1 0x40 MLOAD SWAP1 ISZERO ISZERO DUP2 MSTORE PUSH1 0x20 ADD PUSH2 0x494 JUMP JUMPDEST CALLVALUE DUP1 ISZERO PUSH2 0x4D9 JUMPI PUSH1 0x0 DUP1 REVERT JUMPDEST POP PUSH2 0x4E2 PUSH2 0xC9C JUMP JUMPDEST PUSH1 0x40 MLOAD PUSH2 0x494 SWAP2 SWAP1 PUSH2 0x4559 JUMP JUMPDEST CALLVALUE DUP1 ISZERO PUSH2 0x4FB JUMPI PUSH1 0x0 DUP1 REVERT JUMPDEST POP PUSH2 0x50F PUSH2 0x50A CALLDATASIZE PUSH1 0x4 PUSH2 0x44BD JUMP JUMPDEST PUSH2 0xD2E JUMP JUMPDEST PUSH1 0x40 MLOAD PUSH1 0x1 PUSH1 0x1 PUSH1 0xA0 SHL SUB SWAP1 SWAP2 AND DUP2 MSTORE PUSH1 0x20 ADD PUSH2 0x494 JUMP JUMPDEST CALLVALUE DUP1 ISZERO PUSH2 0x533 JUMPI PUSH1 0x0 DUP1 REVERT JUMPDEST POP PUSH2 0x547 PUSH2 0x542 CALLDATASIZE PUSH1 0x4 PUSH2 0x4588 JUMP JUMPDEST PUSH2 0xD63 JUMP JUMPDEST STOP JUMPDEST CALLVALUE DUP1 ISZERO PUSH2 0x555 JUMPI PUSH1 0x0 DUP1 REVERT JUMPDEST POP PUSH2 0x58F PUSH2 0x564 CALLDATASIZE PUSH1 0x4 PUSH2 0x4588 JUMP JUMPDEST PUSH1 0x0 SWAP1 DUP2 MSTORE PUSH1 0xD4 PUSH1 0x20 SWAP1 DUP2 MSTORE PUSH1 0x40 DUP1 DUP4 KECCAK256 PUSH1 0x1 PUSH1 0x1 PUSH1 0xA0 SHL SUB SWAP5 SWAP1 SWAP5 AND DUP4 MSTORE PUSH1 0x9 SWAP1 SWAP4 ADD SWAP1 MSTORE KECCAK256 SLOAD SWAP1 JUMP JUMPDEST PUSH1 0x40 MLOAD SWAP1 DUP2 MSTORE PUSH1 0x20 ADD PUSH2 0x494 JUMP JUMPDEST PUSH2 0x547 PUSH2 0x5AB CALLDATASIZE PUSH1 0x4 PUSH2 0x45B2 JUMP JUMPDEST PUSH2 0xE7D JUMP JUMPDEST CALLVALUE DUP1 ISZERO PUSH2 0x5BC JUMPI PUSH1 0x0 DUP1 REVERT JUMPDEST POP PUSH2 0x547 PUSH2 0x5CB CALLDATASIZE PUSH1 0x4 PUSH2 0x45EF JUMP JUMPDEST PUSH2 0x1041 JUMP JUMPDEST CALLVALUE DUP1 ISZERO PUSH2 0x5DC JUMPI PUSH1 0x0 DUP1 REVERT JUMPDEST POP PUSH1 0x9A SLOAD PUSH2 0x58F JUMP JUMPDEST CALLVALUE DUP1 ISZERO PUSH2 0x5F1 JUMPI PUSH1 0x0 DUP1 REVERT JUMPDEST POP PUSH2 0x620 PUSH2 0x600 CALLDATASIZE PUSH1 0x4 PUSH2 0x44BD JUMP JUMPDEST PUSH1 0x0 SWAP1 DUP2 MSTORE PUSH1 0xD4 PUSH1 0x20 MSTORE PUSH1 0x40 SWAP1 KECCAK256 PUSH1 0x1 ADD SLOAD PUSH1 0x1 PUSH1 0xB0 SHL SWAP1 DIV PUSH2 0xFFFF AND SWAP1 JUMP JUMPDEST PUSH1 0x40 MLOAD PUSH2 0xFFFF SWAP1 SWAP2 AND DUP2 MSTORE PUSH1 0x20 ADD PUSH2 0x494 JUMP JUMPDEST CALLVALUE DUP1 ISZERO PUSH2 0x63F JUMPI PUSH1 0x0 DUP1 REVERT JUMPDEST POP PUSH2 0x58F PUSH2 0x107A JUMP JUMPDEST CALLVALUE DUP1 ISZERO PUSH2 0x654 JUMPI PUSH1 0x0 DUP1 REVERT JUMPDEST POP PUSH2 0x547 PUSH2 0x663 CALLDATASIZE PUSH1 0x4 PUSH2 0x45EF JUMP JUMPDEST PUSH2 0x1090 JUMP JUMPDEST CALLVALUE DUP1 ISZERO PUSH2 0x674 JUMPI PUSH1 0x0 DUP1 REVERT JUMPDEST POP PUSH2 0x547 PUSH2 0x683 CALLDATASIZE PUSH1 0x4 PUSH2 0x460A JUMP JUMPDEST PUSH2 0x10C9 JUMP JUMPDEST CALLVALUE DUP1 ISZERO PUSH2 0x694 JUMPI PUSH1 0x0 DUP1 REVERT JUMPDEST POP PUSH2 0x547 PUSH1 0xCC DUP1 SLOAD PUSH1 0x1 PUSH1 0x1 PUSH1 0xA0 SHL SUB NOT AND CALLER OR SWAP1 SSTORE JUMP JUMPDEST CALLVALUE DUP1 ISZERO PUSH2 0x6B8 JUMPI PUSH1 0x0 DUP1 REVERT JUMPDEST POP PUSH2 0x58F PUSH2 0x6C7 CALLDATASIZE PUSH1 0x4 PUSH2 0x4588 JUMP JUMPDEST PUSH2 0x1140 JUMP JUMPDEST CALLVALUE DUP1 ISZERO PUSH2 0x6D8 JUMPI PUSH1 0x0 DUP1 REVERT JUMPDEST POP PUSH2 0x547 PUSH2 0x6E7 CALLDATASIZE PUSH1 0x4 PUSH2 0x4588 JUMP JUMPDEST PUSH2 0x11D6 JUMP JUMPDEST CALLVALUE DUP1 ISZERO PUSH2 0x6F8 JUMPI PUSH1 0x0 DUP1 REVERT JUMPDEST POP PUSH2 0x547 PUSH2 0x707 CALLDATASIZE PUSH1 0x4 PUSH2 0x44BD JUMP JUMPDEST PUSH2 0x12EA JUMP JUMPDEST CALLVALUE DUP1 ISZERO PUSH2 0x718 JUMPI PUSH1 0x0 DUP1 REVERT JUMPDEST POP PUSH2 0x730 PUSH1 0xCD SLOAD PUSH1 0xD0 SLOAD PUSH1 0x1 PUSH1 0x1 PUSH1 0xA0 SHL SUB SWAP1 SWAP2 AND SWAP2 JUMP JUMPDEST PUSH1 0x40 DUP1 MLOAD PUSH1 0x1 PUSH1 0x1 PUSH1 0xA0 SHL SUB SWAP1 SWAP4 AND DUP4 MSTORE PUSH1 0x20 DUP4 ADD SWAP2 SWAP1 SWAP2 MSTORE ADD PUSH2 0x494 JUMP JUMPDEST CALLVALUE DUP1 ISZERO PUSH2 0x75B JUMPI PUSH1 0x0 DUP1 REVERT JUMPDEST POP PUSH1 0xCC SLOAD PUSH1 0x1 PUSH1 0x1 PUSH1 0xA0 SHL SUB AND PUSH2 0x50F JUMP JUMPDEST PUSH2 0x547 PUSH2 0x77B CALLDATASIZE PUSH1 0x4 PUSH2 0x4588 JUMP JUMPDEST PUSH2 0x1306 JUMP JUMPDEST CALLVALUE DUP1 ISZERO PUSH2 0x78C JUMPI PUSH1 0x0 DUP1 REVERT JUMPDEST POP PUSH2 0x620 PUSH2 0x79B CALLDATASIZE PUSH1 0x4 PUSH2 0x44BD JUMP JUMPDEST PUSH1 0x0 SWAP1 DUP2 MSTORE PUSH1 0xD4 PUSH1 0x20 MSTORE PUSH1 0x40 SWAP1 KECCAK256 PUSH1 0x1 ADD SLOAD PUSH1 0x1 PUSH1 0xA0 SHL SWAP1 DIV PUSH2 0xFFFF AND SWAP1 JUMP JUMPDEST CALLVALUE DUP1 ISZERO PUSH2 0x7C7 JUMPI PUSH1 0x0 DUP1 REVERT JUMPDEST POP PUSH2 0x58F PUSH2 0x7D6 CALLDATASIZE PUSH1 0x4 PUSH2 0x44BD JUMP JUMPDEST PUSH2 0x1520 JUMP JUMPDEST CALLVALUE DUP1 ISZERO PUSH2 0x7E7 JUMPI PUSH1 0x0 DUP1 REVERT JUMPDEST POP PUSH2 0x547 PUSH2 0x7F6 CALLDATASIZE PUSH1 0x4 PUSH2 0x4646 JUMP JUMPDEST PUSH2 0x15B3 JUMP JUMPDEST PUSH2 0x547 PUSH2 0x809 CALLDATASIZE PUSH1 0x4 PUSH2 0x4714 JUMP JUMPDEST PUSH2 0x1656 JUMP JUMPDEST PUSH2 0x547 PUSH2 0x81C CALLDATASIZE PUSH1 0x4 PUSH2 0x47A6 JUMP JUMPDEST PUSH2 0x1856 JUMP JUMPDEST CALLVALUE DUP1 ISZERO PUSH2 0x82D JUMPI PUSH1 0x0 DUP1 REVERT JUMPDEST POP PUSH2 0x547 PUSH2 0x83C CALLDATASIZE PUSH1 0x4 PUSH2 0x47FD JUMP JUMPDEST PUSH2 0x1B1F JUMP JUMPDEST CALLVALUE DUP1 ISZERO PUSH2 0x84D JUMPI PUSH1 0x0 DUP1 REVERT JUMPDEST POP PUSH2 0x50F PUSH2 0x85C CALLDATASIZE PUSH1 0x4 PUSH2 0x44BD JUMP JUMPDEST PUSH2 0x1D12 JUMP JUMPDEST CALLVALUE DUP1 ISZERO PUSH2 0x86D JUMPI PUSH1 0x0 DUP1 REVERT JUMPDEST POP PUSH2 0x58F PUSH2 0x87C CALLDATASIZE PUSH1 0x4 PUSH2 0x45EF JUMP JUMPDEST PUSH2 0x1D77 JUMP JUMPDEST CALLVALUE DUP1 ISZERO PUSH2 0x88D JUMPI PUSH1 0x0 DUP1 REVERT JUMPDEST POP PUSH2 0x547 PUSH2 0x89C CALLDATASIZE PUSH1 0x4 PUSH2 0x4868 JUMP JUMPDEST PUSH2 0x1DFD JUMP JUMPDEST CALLVALUE DUP1 ISZERO PUSH2 0x8AD JUMPI PUSH1 0x0 DUP1 REVERT JUMPDEST POP PUSH2 0x4BD PUSH2 0x8BC CALLDATASIZE PUSH1 0x4 PUSH2 0x48AF JUMP JUMPDEST PUSH2 0x1E8A JUMP JUMPDEST PUSH2 0x547 PUSH2 0x8CF CALLDATASIZE PUSH1 0x4 PUSH2 0x48F0 JUMP JUMPDEST PUSH2 0x1F2C JUMP JUMPDEST CALLVALUE DUP1 ISZERO PUSH2 0x8E0 JUMPI PUSH1 0x0 DUP1 REVERT JUMPDEST POP PUSH2 0x910 PUSH2 0x8EF CALLDATASIZE PUSH1 0x4 PUSH2 0x44BD JUMP JUMPDEST PUSH1 0xD5 PUSH1 0x20 MSTORE PUSH1 0x0 SWAP1 DUP2 MSTORE PUSH1 0x40 SWAP1 KECCAK256 DUP1 SLOAD PUSH1 0x1 DUP3 ADD SLOAD PUSH1 0x2 SWAP1 SWAP3 ADD SLOAD SWAP1 SWAP2 SWAP1 DUP4 JUMP JUMPDEST PUSH1 0x40 DUP1 MLOAD SWAP4 DUP5 MSTORE PUSH1 0x20 DUP5 ADD SWAP3 SWAP1 SWAP3 MSTORE SWAP1 DUP3 ADD MSTORE PUSH1 0x60 ADD PUSH2 0x494 JUMP JUMPDEST CALLVALUE DUP1 ISZERO PUSH2 0x937 JUMPI PUSH1 0x0 DUP1 REVERT JUMPDEST POP PUSH2 0x547 PUSH2 0x946 CALLDATASIZE PUSH1 0x4 PUSH2 0x4646 JUMP JUMPDEST PUSH2 0x246C JUMP JUMPDEST PUSH2 0x547 PUSH2 0x959 CALLDATASIZE PUSH1 0x4 PUSH2 0x4646 JUMP JUMPDEST PUSH2 0x24F5 JUMP JUMPDEST CALLVALUE DUP1 ISZERO PUSH2 0x96A JUMPI PUSH1 0x0 DUP1 REVERT JUMPDEST POP PUSH1 0xCE SLOAD PUSH1 0x1 PUSH1 0x1 PUSH1 0xA0 SHL SUB AND PUSH2 0x50F JUMP JUMPDEST CALLVALUE DUP1 ISZERO PUSH2 0x988 JUMPI PUSH1 0x0 DUP1 REVERT JUMPDEST POP PUSH2 0x620 PUSH2 0x997 CALLDATASIZE PUSH1 0x4 PUSH2 0x45EF JUMP JUMPDEST PUSH2 0x25F4 JUMP JUMPDEST CALLVALUE DUP1 ISZERO PUSH2 0x9A8 JUMPI PUSH1 0x0 DUP1 REVERT JUMPDEST POP PUSH2 0x4E2 PUSH2 0x265F JUMP JUMPDEST CALLVALUE DUP1 ISZERO PUSH2 0x9BD JUMPI PUSH1 0x0 DUP1 REVERT JUMPDEST POP PUSH2 0x547 PUSH2 0x9CC CALLDATASIZE PUSH1 0x4 PUSH2 0x45EF JUMP JUMPDEST PUSH2 0x266E JUMP JUMPDEST PUSH2 0x547 PUSH2 0x9DF CALLDATASIZE PUSH1 0x4 PUSH2 0x4646 JUMP JUMPDEST PUSH2 0x26D7 JUMP JUMPDEST CALLVALUE DUP1 ISZERO PUSH2 0x9F0 JUMPI PUSH1 0x0 DUP1 REVERT JUMPDEST POP PUSH2 0x58F PUSH2 0x9FF CALLDATASIZE PUSH1 0x4 PUSH2 0x45EF JUMP JUMPDEST PUSH1 0xD3 PUSH1 0x20 MSTORE PUSH1 0x0 SWAP1 DUP2 MSTORE PUSH1 0x40 SWAP1 KECCAK256 SLOAD DUP2 JUMP JUMPDEST CALLVALUE DUP1 ISZERO PUSH2 0xA1D JUMPI PUSH1 0x0 DUP1 REVERT JUMPDEST POP PUSH2 0x547 PUSH2 0xA2C CALLDATASIZE PUSH1 0x4 PUSH2 0x4929 JUMP JUMPDEST PUSH2 0x28B4 JUMP JUMPDEST CALLVALUE DUP1 ISZERO PUSH2 0xA3D JUMPI PUSH1 0x0 DUP1 REVERT JUMPDEST POP PUSH2 0xA51 PUSH2 0xA4C CALLDATASIZE PUSH1 0x4 PUSH2 0x48AF JUMP JUMPDEST PUSH2 0x28BF JUMP JUMPDEST PUSH1 0x40 MLOAD PUSH2 0x494 SWAP3 SWAP2 SWAP1 PUSH2 0x4960 JUMP JUMPDEST PUSH2 0x547 PUSH2 0xA6D CALLDATASIZE PUSH1 0x4 PUSH2 0x498E JUMP JUMPDEST PUSH2 0x2B67 JUMP JUMPDEST PUSH2 0x547 PUSH2 0xA80 CALLDATASIZE PUSH1 0x4 PUSH2 0x49C3 JUMP JUMPDEST PUSH2 0x2D40 JUMP JUMPDEST CALLVALUE DUP1 ISZERO PUSH2 0xA91 JUMPI PUSH1 0x0 DUP1 REVERT JUMPDEST POP PUSH1 0xCE SLOAD PUSH2 0x50F SWAP1 PUSH1 0x1 PUSH1 0x1 PUSH1 0xA0 SHL SUB AND DUP2 JUMP JUMPDEST CALLVALUE DUP1 ISZERO PUSH2 0xAB1 JUMPI PUSH1 0x0 DUP1 REVERT JUMPDEST POP PUSH1 0xD2 SLOAD PUSH2 0x50F SWAP1 PUSH1 0x1 PUSH1 0x1 PUSH1 0xA0 SHL SUB AND DUP2 JUMP JUMPDEST CALLVALUE DUP1 ISZERO PUSH2 0xAD1 JUMPI PUSH1 0x0 DUP1 REVERT JUMPDEST POP PUSH2 0x4E2 PUSH2 0xAE0 CALLDATASIZE PUSH1 0x4 PUSH2 0x44BD JUMP JUMPDEST PUSH2 0x2EA7 JUMP JUMPDEST CALLVALUE DUP1 ISZERO PUSH2 0xAF1 JUMPI PUSH1 0x0 DUP1 REVERT JUMPDEST POP PUSH1 0xCD SLOAD PUSH1 0x1 PUSH1 0x1 PUSH1 0xA0 SHL SUB AND PUSH2 0x50F JUMP JUMPDEST PUSH2 0x547 PUSH2 0xB11 CALLDATASIZE PUSH1 0x4 PUSH2 0x49FE JUMP JUMPDEST PUSH2 0x2EB2 JUMP JUMPDEST CALLVALUE DUP1 ISZERO PUSH2 0xB22 JUMPI PUSH1 0x0 DUP1 REVERT JUMPDEST POP PUSH2 0x547 PUSH2 0xB31 CALLDATASIZE PUSH1 0x4 PUSH2 0x44BD JUMP JUMPDEST PUSH2 0x30EA JUMP JUMPDEST CALLVALUE DUP1 ISZERO PUSH2 0xB42 JUMPI PUSH1 0x0 DUP1 REVERT JUMPDEST POP PUSH2 0x4BD PUSH2 0xB51 CALLDATASIZE PUSH1 0x4 PUSH2 0x44BD JUMP JUMPDEST PUSH2 0x31C3 JUMP JUMPDEST PUSH2 0x547 PUSH2 0xB64 CALLDATASIZE PUSH1 0x4 PUSH2 0x498E JUMP JUMPDEST PUSH2 0x31EC JUMP JUMPDEST CALLVALUE DUP1 ISZERO PUSH2 0xB75 JUMPI PUSH1 0x0 DUP1 REVERT JUMPDEST POP PUSH2 0x547 PUSH2 0xB84 CALLDATASIZE PUSH1 0x4 PUSH2 0x4A49 JUMP JUMPDEST PUSH2 0x3426 JUMP JUMPDEST PUSH2 0x547 PUSH2 0xB97 CALLDATASIZE PUSH1 0x4 PUSH2 0x4A75 JUMP JUMPDEST PUSH2 0x34D9 JUMP JUMPDEST CALLVALUE DUP1 ISZERO PUSH2 0xBA8 JUMPI PUSH1 0x0 DUP1 REVERT JUMPDEST POP PUSH2 0x4BD PUSH2 0xBB7 CALLDATASIZE PUSH1 0x4 PUSH2 0x4AA9 JUMP JUMPDEST PUSH1 0x1 PUSH1 0x1 PUSH1 0xA0 SHL SUB SWAP2 DUP3 AND PUSH1 0x0 SWAP1 DUP2 MSTORE PUSH1 0x6B PUSH1 0x20 SWAP1 DUP2 MSTORE PUSH1 0x40 DUP1 DUP4 KECCAK256 SWAP4 SWAP1 SWAP5 AND DUP3 MSTORE SWAP2 SWAP1 SWAP2 MSTORE KECCAK256 SLOAD PUSH1 0xFF AND SWAP1 JUMP JUMPDEST PUSH2 0x547 PUSH2 0xBF3 CALLDATASIZE PUSH1 0x4 PUSH2 0x498E JUMP JUMPDEST PUSH2 0x35B5 JUMP JUMPDEST PUSH2 0x547 PUSH2 0xC06 CALLDATASIZE PUSH1 0x4 PUSH2 0x4646 JUMP JUMPDEST PUSH2 0x3780 JUMP JUMPDEST CALLVALUE DUP1 ISZERO PUSH2 0xC17 JUMPI PUSH1 0x0 DUP1 REVERT JUMPDEST POP PUSH2 0x547 PUSH2 0xC26 CALLDATASIZE PUSH1 0x4 PUSH2 0x44BD JUMP JUMPDEST PUSH2 0x382F JUMP JUMPDEST CALLVALUE DUP1 ISZERO PUSH2 0xC37 JUMPI PUSH1 0x0 DUP1 REVERT JUMPDEST POP PUSH2 0x547 PUSH2 0xC46 CALLDATASIZE PUSH1 0x4 PUSH2 0x45EF JUMP JUMPDEST PUSH2 0x384B JUMP JUMPDEST CALLVALUE DUP1 ISZERO PUSH2 0xC57 JUMPI PUSH1 0x0 DUP1 REVERT JUMPDEST POP PUSH2 0x547 PUSH2 0xC66 CALLDATASIZE PUSH1 0x4 PUSH2 0x4ADC JUMP JUMPDEST PUSH2 0x3884 JUMP JUMPDEST CALLVALUE DUP1 ISZERO PUSH2 0xC77 JUMPI PUSH1 0x0 DUP1 REVERT JUMPDEST POP PUSH2 0x547 PUSH2 0xC86 CALLDATASIZE PUSH1 0x4 PUSH2 0x4646 JUMP JUMPDEST PUSH2 0x391F JUMP JUMPDEST PUSH1 0x0 PUSH2 0xC96 DUP3 PUSH2 0x39E3 JUMP JUMPDEST SWAP3 SWAP2 POP POP JUMP JUMPDEST PUSH1 0x60 PUSH1 0x65 DUP1 SLOAD PUSH2 0xCAB SWAP1 PUSH2 0x4B01 JUMP JUMPDEST DUP1 PUSH1 0x1F ADD PUSH1 0x20 DUP1 SWAP2 DIV MUL PUSH1 0x20 ADD PUSH1 0x40 MLOAD SWAP1 DUP2 ADD PUSH1 0x40 MSTORE DUP1 SWAP3 SWAP2 SWAP1 DUP2 DUP2 MSTORE PUSH1 0x20 ADD DUP3 DUP1 SLOAD PUSH2 0xCD7 SWAP1 PUSH2 0x4B01 JUMP JUMPDEST DUP1 ISZERO PUSH2 0xD24 JUMPI DUP1 PUSH1 0x1F LT PUSH2 0xCF9 JUMPI PUSH2 0x100 DUP1 DUP4 SLOAD DIV MUL DUP4 MSTORE SWAP2 PUSH1 0x20 ADD SWAP2 PUSH2 0xD24 JUMP JUMPDEST DUP3 ADD SWAP2 SWAP1 PUSH1 0x0 MSTORE PUSH1 0x20 PUSH1 0x0 KECCAK256 SWAP1 JUMPDEST DUP2 SLOAD DUP2 MSTORE SWAP1 PUSH1 0x1 ADD SWAP1 PUSH1 0x20 ADD DUP1 DUP4 GT PUSH2 0xD07 JUMPI DUP3 SWAP1 SUB PUSH1 0x1F AND DUP3 ADD SWAP2 JUMPDEST POP POP POP POP POP SWAP1 POP SWAP1 JUMP JUMPDEST PUSH1 0x0 PUSH2 0xD39 DUP3 PUSH2 0x3A08 JUMP JUMPDEST ISZERO ISZERO PUSH1 0x1 EQ PUSH2 0xD47 JUMPI PUSH1 0x0 DUP1 REVERT JUMPDEST POP PUSH1 0x0 SWAP1 DUP2 MSTORE PUSH1 0x6A PUSH1 0x20 MSTORE PUSH1 0x40 SWAP1 KECCAK256 SLOAD PUSH1 0x1 PUSH1 0x1 PUSH1 0xA0 SHL SUB AND SWAP1 JUMP JUMPDEST PUSH1 0x0 PUSH2 0xD6E DUP3 PUSH2 0x1D12 JUMP JUMPDEST SWAP1 POP DUP1 PUSH1 0x1 PUSH1 0x1 PUSH1 0xA0 SHL SUB AND DUP4 PUSH1 0x1 PUSH1 0x1 PUSH1 0xA0 SHL SUB AND SUB PUSH2 0xDE0 JUMPI PUSH1 0x40 MLOAD PUSH3 0x461BCD PUSH1 0xE5 SHL DUP2 MSTORE PUSH1 0x20 PUSH1 0x4 DUP3 ADD MSTORE PUSH1 0x21 PUSH1 0x24 DUP3 ADD MSTORE PUSH32 0x4552433732313A20617070726F76616C20746F2063757272656E74206F776E65 PUSH1 0x44 DUP3 ADD MSTORE PUSH1 0x39 PUSH1 0xF9 SHL PUSH1 0x64 DUP3 ADD MSTORE PUSH1 0x84 ADD JUMPDEST PUSH1 0x40 MLOAD DUP1 SWAP2 SUB SWAP1 REVERT JUMPDEST CALLER PUSH1 0x1 PUSH1 0x1 PUSH1 0xA0 SHL SUB DUP3 AND EQ DUP1 PUSH2 0xDFC JUMPI POP PUSH2 0xDFC DUP2 CALLER PUSH2 0xBB7 JUMP JUMPDEST PUSH2 0xE6E JUMPI PUSH1 0x40 MLOAD PUSH3 0x461BCD PUSH1 0xE5 SHL DUP2 MSTORE PUSH1 0x20 PUSH1 0x4 DUP3 ADD MSTORE PUSH1 0x3D PUSH1 0x24 DUP3 ADD MSTORE PUSH32 0x4552433732313A20617070726F76652063616C6C6572206973206E6F7420746F PUSH1 0x44 DUP3 ADD MSTORE PUSH32 0x6B656E206F776E6572206F7220617070726F76656420666F7220616C6C000000 PUSH1 0x64 DUP3 ADD MSTORE PUSH1 0x84 ADD PUSH2 0xDD7 JUMP JUMPDEST PUSH2 0xE78 DUP4 DUP4 PUSH2 0x3A25 JUMP JUMPDEST POP POP POP JUMP JUMPDEST PUSH1 0x0 DUP1 JUMPDEST PUSH1 0xCB SLOAD PUSH2 0xFFFF DUP3 AND LT ISZERO PUSH2 0xEE4 JUMPI PUSH1 0x0 PUSH1 0xCB DUP3 PUSH2 0xFFFF AND DUP2 SLOAD DUP2 LT PUSH2 0xEA8 JUMPI PUSH2 0xEA8 PUSH2 0x4B3B JUMP JUMPDEST PUSH1 0x0 SWAP2 DUP3 MSTORE PUSH1 0x20 SWAP1 SWAP2 KECCAK256 ADD SLOAD PUSH1 0x1 PUSH1 0x1 PUSH1 0xA0 SHL SUB AND SWAP1 POP CALLER DUP2 SWAP1 SUB PUSH2 0xED1 JUMPI PUSH1 0x1 SWAP3 POP POP PUSH2 0xEE4 JUMP JUMPDEST POP DUP1 PUSH2 0xEDC DUP2 PUSH2 0x4B67 JUMP JUMPDEST SWAP2 POP POP PUSH2 0xE81 JUMP JUMPDEST POP PUSH1 0x1 SWAP1 POP PUSH1 0x0 DUP6 DUP2 MSTORE PUSH1 0xD4 PUSH1 0x20 SWAP1 DUP2 MSTORE PUSH1 0x40 DUP1 DUP4 KECCAK256 PUSH1 0x1 PUSH1 0x1 PUSH1 0xA0 SHL SUB DUP8 AND DUP5 MSTORE PUSH1 0x9 ADD SWAP1 SWAP2 MSTORE SWAP1 KECCAK256 SLOAD DUP3 GT ISZERO PUSH2 0xF2E JUMPI PUSH1 0x40 MLOAD PUSH3 0x461BCD PUSH1 0xE5 SHL DUP2 MSTORE PUSH1 0x4 ADD PUSH2 0xDD7 SWAP1 PUSH2 0x4B88 JUMP JUMPDEST PUSH2 0xF37 DUP6 PUSH2 0x3A08 JUMP JUMPDEST ISZERO ISZERO PUSH1 0x1 EQ DUP1 ISZERO PUSH2 0xF52 JUMPI POP PUSH2 0xF4C DUP5 PUSH2 0x3A08 JUMP JUMPDEST ISZERO ISZERO PUSH1 0x1 EQ JUMPDEST PUSH2 0xF5B JUMPI PUSH1 0x0 DUP1 REVERT JUMPDEST PUSH1 0x0 DUP1 MSTORE PUSH1 0xD3 PUSH1 0x20 MSTORE PUSH1 0x0 DUP1 MLOAD PUSH1 0x20 PUSH2 0x4F36 DUP4 CODECOPY DUP2 MLOAD SWAP2 MSTORE SLOAD PUSH2 0xF7F SWAP1 CALLVALUE SWAP1 PUSH2 0x4BA8 JUMP JUMPDEST PUSH1 0x0 DUP1 MLOAD PUSH1 0x20 PUSH2 0x4F36 DUP4 CODECOPY DUP2 MLOAD SWAP2 MSTORE SSTORE PUSH1 0x0 DUP6 DUP2 MSTORE PUSH1 0xD4 PUSH1 0x20 SWAP1 DUP2 MSTORE PUSH1 0x40 DUP1 DUP4 KECCAK256 PUSH1 0x1 PUSH1 0x1 PUSH1 0xA0 SHL SUB DUP8 AND DUP5 MSTORE PUSH1 0x9 ADD SWAP1 SWAP2 MSTORE SWAP1 KECCAK256 SLOAD PUSH2 0xFC0 SWAP1 DUP4 SWAP1 PUSH2 0x4BBB JUMP JUMPDEST PUSH1 0x0 DUP7 DUP2 MSTORE PUSH1 0xD4 PUSH1 0x20 DUP2 DUP2 MSTORE PUSH1 0x40 DUP1 DUP5 KECCAK256 PUSH1 0x1 PUSH1 0x1 PUSH1 0xA0 SHL SUB DUP10 AND DUP1 DUP7 MSTORE PUSH1 0x9 SWAP2 DUP3 ADD DUP5 MSTORE DUP3 DUP7 KECCAK256 SWAP7 SWAP1 SWAP7 SSTORE DUP10 DUP6 MSTORE SWAP3 DUP3 MSTORE DUP1 DUP5 KECCAK256 SWAP5 DUP5 MSTORE SWAP4 SWAP1 SWAP2 ADD SWAP1 MSTORE KECCAK256 SLOAD PUSH2 0x100B SWAP1 DUP4 SWAP1 PUSH2 0x4BA8 JUMP JUMPDEST PUSH1 0x0 DUP6 DUP2 MSTORE PUSH1 0xD4 PUSH1 0x20 SWAP1 DUP2 MSTORE PUSH1 0x40 DUP1 DUP4 KECCAK256 PUSH1 0x1 PUSH1 0x1 PUSH1 0xA0 SHL SUB DUP9 AND DUP5 MSTORE PUSH1 0x9 ADD SWAP1 SWAP2 MSTORE SWAP1 KECCAK256 SSTORE PUSH2 0x103A DUP6 PUSH2 0x3A93 JUMP JUMPDEST POP POP POP POP POP JUMP JUMPDEST PUSH1 0xCE SLOAD PUSH1 0x1 PUSH1 0x1 PUSH1 0xA0 SHL SUB AND CALLER EQ PUSH2 0x1058 JUMPI PUSH1 0x0 DUP1 REVERT JUMPDEST PUSH1 0xCD DUP1 SLOAD PUSH1 0x1 PUSH1 0x1 PUSH1 0xA0 SHL SUB NOT AND PUSH1 0x1 PUSH1 0x1 PUSH1 0xA0 SHL SUB SWAP3 SWAP1 SWAP3 AND SWAP2 SWAP1 SWAP2 OR SWAP1 SSTORE JUMP JUMPDEST PUSH1 0x0 PUSH1 0xD0 SLOAD PUSH1 0x5 PUSH2 0x108B SWAP2 SWAP1 PUSH2 0x4BCE JUMP JUMPDEST SWAP1 POP SWAP1 JUMP JUMPDEST PUSH1 0xCE SLOAD PUSH1 0x1 PUSH1 0x1 PUSH1 0xA0 SHL SUB AND CALLER EQ PUSH2 0x10A7 JUMPI PUSH1 0x0 DUP1 REVERT JUMPDEST PUSH1 0xD2 DUP1 SLOAD PUSH1 0x1 PUSH1 0x1 PUSH1 0xA0 SHL SUB NOT AND PUSH1 0x1 PUSH1 0x1 PUSH1 0xA0 SHL SUB SWAP3 SWAP1 SWAP3 AND SWAP2 SWAP1 SWAP2 OR SWAP1 SSTORE JUMP JUMPDEST PUSH2 0x10D3 CALLER DUP3 PUSH2 0x3AC7 JUMP JUMPDEST PUSH2 0x1135 JUMPI PUSH1 0x40 MLOAD PUSH3 0x461BCD PUSH1 0xE5 SHL DUP2 MSTORE PUSH1 0x20 PUSH1 0x4 DUP3 ADD MSTORE PUSH1 0x2D PUSH1 0x24 DUP3 ADD MSTORE PUSH32 0x4552433732313A2063616C6C6572206973206E6F7420746F6B656E206F776E65 PUSH1 0x44 DUP3 ADD MSTORE PUSH13 0x1C881BDC88185C1C1C9BDD9959 PUSH1 0x9A SHL PUSH1 0x64 DUP3 ADD MSTORE PUSH1 0x84 ADD PUSH2 0xDD7 JUMP JUMPDEST PUSH2 0xE78 DUP4 DUP4 DUP4 PUSH2 0x3B46 JUMP JUMPDEST PUSH1 0x0 PUSH2 0x114B DUP4 PUSH2 0x1D77 JUMP JUMPDEST DUP3 LT PUSH2 0x11AD JUMPI PUSH1 0x40 MLOAD PUSH3 0x461BCD PUSH1 0xE5 SHL DUP2 MSTORE PUSH1 0x20 PUSH1 0x4 DUP3 ADD MSTORE PUSH1 0x2B PUSH1 0x24 DUP3 ADD MSTORE PUSH32 0x455243373231456E756D657261626C653A206F776E657220696E646578206F75 PUSH1 0x44 DUP3 ADD MSTORE PUSH11 0x74206F6620626F756E6473 PUSH1 0xA8 SHL PUSH1 0x64 DUP3 ADD MSTORE PUSH1 0x84 ADD PUSH2 0xDD7 JUMP JUMPDEST POP PUSH1 0x1 PUSH1 0x1 PUSH1 0xA0 SHL SUB SWAP2 SWAP1 SWAP2 AND PUSH1 0x0 SWAP1 DUP2 MSTORE PUSH1 0x98 PUSH1 0x20 SWAP1 DUP2 MSTORE PUSH1 0x40 DUP1 DUP4 KECCAK256 SWAP4 DUP4 MSTORE SWAP3 SWAP1 MSTORE KECCAK256 SLOAD SWAP1 JUMP JUMPDEST PUSH1 0xCE SLOAD PUSH1 0x1 PUSH1 0x1 PUSH1 0xA0 SHL SUB AND CALLER EQ PUSH2 0x11ED JUMPI PUSH1 0x0 DUP1 REVERT JUMPDEST PUSH1 0x1 PUSH1 0x1 PUSH1 0xA0 SHL SUB DUP3 AND PUSH1 0x0 SWAP1 DUP2 MSTORE PUSH1 0xD3 PUSH1 0x20 MSTORE PUSH1 0x40 SWAP1 KECCAK256 SLOAD DUP2 GT ISZERO PUSH2 0x1243 JUMPI PUSH1 0x40 MLOAD PUSH3 0x461BCD PUSH1 0xE5 SHL DUP2 MSTORE PUSH1 0x20 PUSH1 0x4 DUP3 ADD MSTORE PUSH1 0xB PUSH1 0x24 DUP3 ADD MSTORE PUSH11 0x4E6F2062616C616E636573 PUSH1 0xA8 SHL PUSH1 0x44 DUP3 ADD MSTORE PUSH1 0x64 ADD PUSH2 0xDD7 JUMP JUMPDEST PUSH1 0x1 PUSH1 0x1 PUSH1 0xA0 SHL SUB DUP3 AND PUSH1 0x0 SWAP1 DUP2 MSTORE PUSH1 0xD3 PUSH1 0x20 MSTORE PUSH1 0x40 SWAP1 KECCAK256 SLOAD PUSH2 0x1267 SWAP1 DUP3 SWAP1 PUSH2 0x4BBB JUMP JUMPDEST PUSH1 0x1 PUSH1 0x1 PUSH1 0xA0 SHL SUB DUP4 AND PUSH1 0x0 DUP2 DUP2 MSTORE PUSH1 0xD3 PUSH1 0x20 MSTORE PUSH1 0x40 SWAP1 DUP2 SWAP1 KECCAK256 SWAP3 SWAP1 SWAP3 SSTORE SWAP1 MLOAD PUSH4 0xA9059CBB PUSH1 0xE0 SHL DUP2 MSTORE CALLER PUSH1 0x4 DUP3 ADD MSTORE PUSH1 0x24 DUP2 ADD DUP4 SWAP1 MSTORE PUSH4 0xA9059CBB SWAP1 PUSH1 0x44 ADD PUSH1 0x20 PUSH1 0x40 MLOAD DUP1 DUP4 SUB DUP2 PUSH1 0x0 DUP8 GAS CALL ISZERO DUP1 ISZERO PUSH2 0x12C6 JUMPI RETURNDATASIZE PUSH1 0x0 DUP1 RETURNDATACOPY RETURNDATASIZE PUSH1 0x0 REVERT JUMPDEST POP POP POP POP PUSH1 0x40 MLOAD RETURNDATASIZE PUSH1 0x1F NOT PUSH1 0x1F DUP3 ADD AND DUP3 ADD DUP1 PUSH1 0x40 MSTORE POP DUP2 ADD SWAP1 PUSH2 0xE78 SWAP2 SWAP1 PUSH2 0x4BE5 JUMP JUMPDEST PUSH1 0xCE SLOAD PUSH1 0x1 PUSH1 0x1 PUSH1 0xA0 SHL SUB AND CALLER EQ PUSH2 0x1301 JUMPI PUSH1 0x0 DUP1 REVERT JUMPDEST PUSH1 0xD0 SSTORE JUMP JUMPDEST PUSH1 0x0 DUP1 JUMPDEST PUSH1 0xCB SLOAD PUSH2 0xFFFF DUP3 AND LT ISZERO PUSH2 0x136D JUMPI PUSH1 0x0 PUSH1 0xCB DUP3 PUSH2 0xFFFF AND DUP2 SLOAD DUP2 LT PUSH2 0x1331 JUMPI PUSH2 0x1331 PUSH2 0x4B3B JUMP JUMPDEST PUSH1 0x0 SWAP2 DUP3 MSTORE PUSH1 0x20 SWAP1 SWAP2 KECCAK256 ADD SLOAD PUSH1 0x1 PUSH1 0x1 PUSH1 0xA0 SHL SUB AND SWAP1 POP CALLER DUP2 SWAP1 SUB PUSH2 0x135A JUMPI PUSH1 0x1 SWAP3 POP POP PUSH2 0x136D JUMP JUMPDEST POP DUP1 PUSH2 0x1365 DUP2 PUSH2 0x4B67 JUMP JUMPDEST SWAP2 POP POP PUSH2 0x130A JUMP JUMPDEST POP PUSH1 0x1 SWAP1 POP PUSH2 0x137B DUP3 PUSH2 0x3A08 JUMP JUMPDEST ISZERO PUSH2 0x13B9 JUMPI PUSH1 0x40 MLOAD PUSH3 0x461BCD PUSH1 0xE5 SHL DUP2 MSTORE PUSH1 0x20 PUSH1 0x4 DUP3 ADD MSTORE PUSH1 0xE PUSH1 0x24 DUP3 ADD MSTORE PUSH14 0x185B1C9958591E481B5A5B9D1959 PUSH1 0x92 SHL PUSH1 0x44 DUP3 ADD MSTORE PUSH1 0x64 ADD PUSH2 0xDD7 JUMP JUMPDEST PUSH1 0x0 DUP1 MSTORE PUSH1 0xD3 PUSH1 0x20 MSTORE PUSH1 0x0 DUP1 MLOAD PUSH1 0x20 PUSH2 0x4F36 DUP4 CODECOPY DUP2 MLOAD SWAP2 MSTORE SLOAD PUSH2 0x13DD SWAP1 CALLVALUE SWAP1 PUSH2 0x4BA8 JUMP JUMPDEST PUSH1 0x0 DUP1 MLOAD PUSH1 0x20 PUSH2 0x4F36 DUP4 CODECOPY DUP2 MLOAD SWAP2 MSTORE SSTORE PUSH1 0x0 DUP3 DUP2 MSTORE PUSH1 0xD4 PUSH1 0x20 SWAP1 DUP2 MSTORE PUSH1 0x40 DUP1 DUP4 KECCAK256 PUSH1 0xD2 SLOAD DUP3 MLOAD PUSH4 0x3408E47 PUSH1 0xE4 SHL DUP2 MSTORE SWAP3 MLOAD SWAP2 SWAP5 SWAP4 PUSH1 0x1 PUSH1 0x1 PUSH1 0xA0 SHL SUB SWAP1 SWAP2 AND SWAP3 PUSH4 0x3408E470 SWAP3 PUSH1 0x4 DUP1 DUP4 ADD SWAP4 SWAP3 DUP3 SWAP1 SUB ADD DUP2 DUP7 GAS STATICCALL ISZERO DUP1 ISZERO PUSH2 0x1444 JUMPI RETURNDATASIZE PUSH1 0x0 DUP1 RETURNDATACOPY RETURNDATASIZE PUSH1 0x0 REVERT JUMPDEST POP POP POP POP PUSH1 0x40 MLOAD RETURNDATASIZE PUSH1 0x1F NOT PUSH1 0x1F DUP3 ADD AND DUP3 ADD DUP1 PUSH1 0x40 MSTORE POP DUP2 ADD SWAP1 PUSH2 0x1468 SWAP2 SWAP1 PUSH2 0x4C02 JUMP JUMPDEST SWAP1 POP PUSH2 0x1474 DUP6 DUP6 PUSH2 0x3CB7 JUMP JUMPDEST PUSH1 0x1 DUP3 ADD DUP1 SLOAD PUSH1 0x1 PUSH1 0x1 PUSH1 0xA0 SHL SUB DUP8 AND PUSH1 0x1 PUSH1 0x1 PUSH1 0xA0 SHL SUB NOT SWAP2 DUP3 AND DUP2 OR SWAP1 SWAP3 SSTORE DUP4 SLOAD AND OR DUP3 SSTORE TIMESTAMP PUSH1 0x3 DUP4 ADD DUP2 SWAP1 SSTORE PUSH2 0x14B1 SWAP1 PUSH4 0x1E13380 PUSH2 0x4BA8 JUMP JUMPDEST PUSH1 0x5 DUP4 ADD SSTORE PUSH2 0x14BF DUP5 PUSH2 0x3A93 JUMP JUMPDEST PUSH1 0xC8 PUSH1 0x7 DUP4 ADD SSTORE PUSH1 0x1 DUP3 ADD DUP1 SLOAD PUSH4 0xFFFFFFFF PUSH1 0xA0 SHL NOT AND PUSH1 0x1 PUSH1 0xA0 SHL PUSH2 0xFFFF SWAP4 SWAP1 SWAP4 AND SWAP3 DUP4 MUL PUSH2 0xFFFF PUSH1 0xB0 SHL NOT AND OR PUSH1 0x1 PUSH1 0xB0 SHL SWAP3 SWAP1 SWAP3 MUL SWAP2 SWAP1 SWAP2 OR SWAP1 SSTORE PUSH1 0x2 SWAP1 DUP2 ADD DUP4 SWAP1 SSTORE PUSH1 0x0 SWAP3 DUP4 MSTORE PUSH1 0xD5 PUSH1 0x20 MSTORE PUSH1 0x40 SWAP1 SWAP3 KECCAK256 PUSH1 0xA SWAP3 ADD SWAP2 SWAP1 SWAP2 SSTORE POP POP JUMP JUMPDEST PUSH1 0x0 PUSH2 0x152B PUSH1 0x9A SLOAD SWAP1 JUMP JUMPDEST DUP3 LT PUSH2 0x158E JUMPI PUSH1 0x40 MLOAD PUSH3 0x461BCD PUSH1 0xE5 SHL DUP2 MSTORE PUSH1 0x20 PUSH1 0x4 DUP3 ADD MSTORE PUSH1 0x2C PUSH1 0x24 DUP3 ADD MSTORE PUSH32 0x455243373231456E756D657261626C653A20676C6F62616C20696E646578206F PUSH1 0x44 DUP3 ADD MSTORE PUSH12 0x7574206F6620626F756E6473 PUSH1 0xA0 SHL PUSH1 0x64 DUP3 ADD MSTORE PUSH1 0x84 ADD PUSH2 0xDD7 JUMP JUMPDEST PUSH1 0x9A DUP3 DUP2 SLOAD DUP2 LT PUSH2 0x15A1 JUMPI PUSH2 0x15A1 PUSH2 0x4B3B JUMP JUMPDEST SWAP1 PUSH1 0x0 MSTORE PUSH1 0x20 PUSH1 0x0 KECCAK256 ADD SLOAD SWAP1 POP SWAP2 SWAP1 POP JUMP JUMPDEST PUSH1 0x0 DUP1 JUMPDEST PUSH1 0xCB SLOAD PUSH2 0xFFFF DUP3 AND LT ISZERO PUSH2 0x161A JUMPI PUSH1 0x0 PUSH1 0xCB DUP3 PUSH2 0xFFFF AND DUP2 SLOAD DUP2 LT PUSH2 0x15DE JUMPI PUSH2 0x15DE PUSH2 0x4B3B JUMP JUMPDEST PUSH1 0x0 SWAP2 DUP3 MSTORE PUSH1 0x20 SWAP1 SWAP2 KECCAK256 ADD SLOAD PUSH1 0x1 PUSH1 0x1 PUSH1 0xA0 SHL SUB AND SWAP1 POP CALLER DUP2 SWAP1 SUB PUSH2 0x1607 JUMPI PUSH1 0x1 SWAP3 POP POP PUSH2 0x161A JUMP JUMPDEST POP DUP1 PUSH2 0x1612 DUP2 PUSH2 0x4B67 JUMP JUMPDEST SWAP2 POP POP PUSH2 0x15B7 JUMP JUMPDEST POP PUSH1 0x1 SWAP1 POP PUSH1 0x0 DUP4 DUP2 MSTORE PUSH1 0xD4 PUSH1 0x20 MSTORE PUSH1 0x40 SWAP1 KECCAK256 PUSH1 0x8 ADD SLOAD PUSH2 0x163C SWAP1 DUP4 SWAP1 PUSH2 0x4BBB JUMP JUMPDEST PUSH1 0x0 SWAP4 DUP5 MSTORE PUSH1 0xD4 PUSH1 0x20 MSTORE PUSH1 0x40 SWAP1 SWAP4 KECCAK256 PUSH1 0x8 ADD SWAP3 SWAP1 SWAP3 SSTORE POP POP JUMP JUMPDEST PUSH1 0x0 DUP1 JUMPDEST PUSH1 0xCB SLOAD PUSH2 0xFFFF DUP3 AND LT ISZERO PUSH2 0x16BD JUMPI PUSH1 0x0 PUSH1 0xCB DUP3 PUSH2 0xFFFF AND DUP2 SLOAD DUP2 LT PUSH2 0x1681 JUMPI PUSH2 0x1681 PUSH2 0x4B3B JUMP JUMPDEST PUSH1 0x0 SWAP2 DUP3 MSTORE PUSH1 0x20 SWAP1 SWAP2 KECCAK256 ADD SLOAD PUSH1 0x1 PUSH1 0x1 PUSH1 0xA0 SHL SUB AND SWAP1 POP CALLER DUP2 SWAP1 SUB PUSH2 0x16AA JUMPI PUSH1 0x1 SWAP3 POP POP PUSH2 0x16BD JUMP JUMPDEST POP DUP1 PUSH2 0x16B5 DUP2 PUSH2 0x4B67 JUMP JUMPDEST SWAP2 POP POP PUSH2 0x165A JUMP JUMPDEST POP PUSH1 0x1 SWAP1 POP PUSH1 0x0 DUP5 DUP2 MSTORE PUSH1 0xD4 PUSH1 0x20 MSTORE PUSH1 0x40 SWAP1 KECCAK256 PUSH1 0x1 ADD SLOAD PUSH1 0x1 PUSH1 0x1 PUSH1 0xA0 SHL SUB DUP4 DUP2 AND SWAP2 AND EQ PUSH2 0x171B JUMPI PUSH1 0x40 MLOAD PUSH3 0x461BCD PUSH1 0xE5 SHL DUP2 MSTORE PUSH1 0x20 PUSH1 0x4 DUP3 ADD MSTORE PUSH1 0xA PUSH1 0x24 DUP3 ADD MSTORE PUSH10 0x3737BA103437B63232B9 PUSH1 0xB1 SHL PUSH1 0x44 DUP3 ADD MSTORE PUSH1 0x64 ADD PUSH2 0xDD7 JUMP JUMPDEST PUSH1 0x0 DUP5 DUP2 MSTORE PUSH1 0xD4 PUSH1 0x20 MSTORE PUSH1 0x40 SWAP1 KECCAK256 PUSH1 0x6 DUP2 ADD SLOAD PUSH1 0x7 SWAP1 SWAP2 ADD SLOAD DUP2 LT DUP1 ISZERO PUSH2 0x1752 JUMPI POP PUSH1 0x0 DUP6 DUP2 MSTORE PUSH1 0xD4 PUSH1 0x20 MSTORE PUSH1 0x40 SWAP1 KECCAK256 PUSH1 0x5 ADD SLOAD TIMESTAMP LT JUMPDEST PUSH2 0x1797 JUMPI PUSH1 0x40 MLOAD PUSH3 0x461BCD PUSH1 0xE5 SHL DUP2 MSTORE PUSH1 0x20 PUSH1 0x4 DUP3 ADD MSTORE PUSH1 0x16 PUSH1 0x24 DUP3 ADD MSTORE PUSH22 0x1CDB1BDD08195E18D95959081BDC88195E1C1A5C9959 PUSH1 0x52 SHL PUSH1 0x44 DUP3 ADD MSTORE PUSH1 0x64 ADD PUSH2 0xDD7 JUMP JUMPDEST PUSH1 0x0 DUP6 DUP2 MSTORE PUSH1 0xD4 PUSH1 0x20 SWAP1 DUP2 MSTORE PUSH1 0x40 DUP1 DUP4 KECCAK256 DUP5 DUP5 MSTORE PUSH1 0xA ADD DUP3 MSTORE DUP3 KECCAK256 SWAP2 DUP1 MSTORE PUSH1 0xD3 SWAP1 MSTORE PUSH1 0x0 DUP1 MLOAD PUSH1 0x20 PUSH2 0x4F36 DUP4 CODECOPY DUP2 MLOAD SWAP2 MSTORE SLOAD PUSH2 0x17D4 SWAP1 CALLVALUE SWAP1 PUSH2 0x4BA8 JUMP JUMPDEST PUSH1 0x0 DUP1 MLOAD PUSH1 0x20 PUSH2 0x4F36 DUP4 CODECOPY DUP2 MLOAD SWAP2 MSTORE SSTORE PUSH1 0x0 DUP7 DUP2 MSTORE PUSH1 0xD4 PUSH1 0x20 MSTORE PUSH1 0x40 DUP2 KECCAK256 PUSH1 0x6 ADD DUP1 SLOAD SWAP2 PUSH2 0x1801 DUP4 PUSH2 0x4C1F JUMP JUMPDEST SWAP2 SWAP1 POP SSTORE POP PUSH2 0x180F DUP7 PUSH2 0x3A93 JUMP JUMPDEST PUSH1 0x1 DUP2 ADD PUSH2 0x181D DUP9 DUP3 PUSH2 0x4C7E JUMP JUMPDEST POP PUSH1 0x3 DUP2 ADD PUSH2 0x182C DUP7 DUP3 PUSH2 0x4C7E JUMP JUMPDEST POP PUSH1 0x2 ADD DUP1 SLOAD PUSH1 0x1 PUSH1 0x1 PUSH1 0xA0 SHL SUB NOT AND PUSH1 0x1 PUSH1 0x1 PUSH1 0xA0 SHL SUB SWAP5 SWAP1 SWAP5 AND SWAP4 SWAP1 SWAP4 OR SWAP1 SWAP3 SSTORE POP POP POP POP POP JUMP JUMPDEST PUSH1 0x0 DUP1 JUMPDEST PUSH1 0xCB SLOAD PUSH2 0xFFFF DUP3 AND LT ISZERO PUSH2 0x18BD JUMPI PUSH1 0x0 PUSH1 0xCB DUP3 PUSH2 0xFFFF AND DUP2 SLOAD DUP2 LT PUSH2 0x1881 JUMPI PUSH2 0x1881 PUSH2 0x4B3B JUMP JUMPDEST PUSH1 0x0 SWAP2 DUP3 MSTORE PUSH1 0x20 SWAP1 SWAP2 KECCAK256 ADD SLOAD PUSH1 0x1 PUSH1 0x1 PUSH1 0xA0 SHL SUB AND SWAP1 POP CALLER DUP2 SWAP1 SUB PUSH2 0x18AA JUMPI PUSH1 0x1 SWAP3 POP POP PUSH2 0x18BD JUMP JUMPDEST POP DUP1 PUSH2 0x18B5 DUP2 PUSH2 0x4B67 JUMP JUMPDEST SWAP2 POP POP PUSH2 0x185A JUMP JUMPDEST POP PUSH1 0x1 SWAP1 POP PUSH2 0x18CB DUP7 PUSH2 0x3A08 JUMP JUMPDEST ISZERO ISZERO PUSH1 0x1 EQ DUP1 ISZERO PUSH2 0x18E4 JUMPI POP PUSH1 0x1 PUSH1 0x1 PUSH1 0xA0 SHL SUB DUP6 AND ISZERO ISZERO JUMPDEST PUSH2 0x1900 JUMPI PUSH1 0x40 MLOAD PUSH3 0x461BCD PUSH1 0xE5 SHL DUP2 MSTORE PUSH1 0x4 ADD PUSH2 0xDD7 SWAP1 PUSH2 0x4D3E JUMP JUMPDEST PUSH1 0x40 MLOAD PUSH4 0x70A08231 PUSH1 0xE0 SHL DUP2 MSTORE ADDRESS PUSH1 0x4 DUP3 ADD MSTORE DUP5 SWAP1 PUSH1 0x1 PUSH1 0x1 PUSH1 0xA0 SHL SUB DUP8 AND SWAP1 PUSH4 0x70A08231 SWAP1 PUSH1 0x24 ADD PUSH1 0x20 PUSH1 0x40 MLOAD DUP1 DUP4 SUB DUP2 DUP7 GAS STATICCALL ISZERO DUP1 ISZERO PUSH2 0x1946 JUMPI RETURNDATASIZE PUSH1 0x0 DUP1 RETURNDATACOPY RETURNDATASIZE PUSH1 0x0 REVERT JUMPDEST POP POP POP POP PUSH1 0x40 MLOAD RETURNDATASIZE PUSH1 0x1F NOT PUSH1 0x1F DUP3 ADD AND DUP3 ADD DUP1 PUSH1 0x40 MSTORE POP DUP2 ADD SWAP1 PUSH2 0x196A SWAP2 SWAP1 PUSH2 0x4D67 JUMP JUMPDEST LT ISZERO DUP1 ISZERO PUSH2 0x199D JUMPI POP PUSH1 0x0 DUP7 DUP2 MSTORE PUSH1 0xD4 PUSH1 0x20 SWAP1 DUP2 MSTORE PUSH1 0x40 DUP1 DUP4 KECCAK256 PUSH1 0x1 PUSH1 0x1 PUSH1 0xA0 SHL SUB DUP10 AND DUP5 MSTORE PUSH1 0x9 ADD SWAP1 SWAP2 MSTORE SWAP1 KECCAK256 SLOAD DUP5 GT ISZERO JUMPDEST PUSH2 0x19B9 JUMPI PUSH1 0x40 MLOAD PUSH3 0x461BCD PUSH1 0xE5 SHL DUP2 MSTORE PUSH1 0x4 ADD PUSH2 0xDD7 SWAP1 PUSH2 0x4B88 JUMP JUMPDEST PUSH1 0x0 DUP7 DUP2 MSTORE PUSH1 0xD4 PUSH1 0x20 MSTORE PUSH1 0x40 SWAP1 KECCAK256 PUSH1 0x1 ADD SLOAD PUSH1 0x1 PUSH1 0x1 PUSH1 0xA0 SHL SUB DUP4 DUP2 AND SWAP2 AND EQ PUSH2 0x1A11 JUMPI PUSH1 0x40 MLOAD PUSH3 0x461BCD PUSH1 0xE5 SHL DUP2 MSTORE PUSH1 0x20 PUSH1 0x4 DUP3 ADD MSTORE PUSH1 0x9 PUSH1 0x24 DUP3 ADD MSTORE PUSH9 0x3737BA1037BBB732B9 PUSH1 0xB9 SHL PUSH1 0x44 DUP3 ADD MSTORE PUSH1 0x64 ADD PUSH2 0xDD7 JUMP JUMPDEST PUSH1 0x0 DUP1 MSTORE PUSH1 0xD3 PUSH1 0x20 MSTORE PUSH1 0x0 DUP1 MLOAD PUSH1 0x20 PUSH2 0x4F36 DUP4 CODECOPY DUP2 MLOAD SWAP2 MSTORE SLOAD PUSH2 0x1A35 SWAP1 CALLVALUE SWAP1 PUSH2 0x4BA8 JUMP JUMPDEST PUSH1 0x0 DUP1 MLOAD PUSH1 0x20 PUSH2 0x4F36 DUP4 CODECOPY DUP2 MLOAD SWAP2 MSTORE SSTORE PUSH1 0x0 DUP7 DUP2 MSTORE PUSH1 0xD4 PUSH1 0x20 SWAP1 DUP2 MSTORE PUSH1 0x40 DUP1 DUP4 KECCAK256 PUSH1 0x1 PUSH1 0x1 PUSH1 0xA0 SHL SUB DUP10 AND DUP5 MSTORE PUSH1 0x9 ADD SWAP1 SWAP2 MSTORE SWAP1 KECCAK256 SLOAD PUSH2 0x1A76 SWAP1 DUP6 SWAP1 PUSH2 0x4BBB JUMP JUMPDEST PUSH1 0x0 DUP8 DUP2 MSTORE PUSH1 0xD4 PUSH1 0x20 SWAP1 DUP2 MSTORE PUSH1 0x40 DUP1 DUP4 KECCAK256 PUSH1 0x1 PUSH1 0x1 PUSH1 0xA0 SHL SUB DUP11 DUP2 AND DUP1 DUP7 MSTORE PUSH1 0x9 SWAP1 SWAP3 ADD SWAP1 SWAP4 MSTORE SWAP3 DUP2 SWAP1 KECCAK256 SWAP4 SWAP1 SWAP4 SSTORE SWAP2 MLOAD PUSH4 0xA9059CBB PUSH1 0xE0 SHL DUP2 MSTORE SWAP2 DUP6 AND PUSH1 0x4 DUP4 ADD MSTORE PUSH1 0x24 DUP3 ADD DUP7 SWAP1 MSTORE SWAP1 PUSH4 0xA9059CBB SWAP1 PUSH1 0x44 ADD PUSH1 0x20 PUSH1 0x40 MLOAD DUP1 DUP4 SUB DUP2 PUSH1 0x0 DUP8 GAS CALL ISZERO DUP1 ISZERO PUSH2 0x1AE9 JUMPI RETURNDATASIZE PUSH1 0x0 DUP1 RETURNDATACOPY RETURNDATASIZE PUSH1 0x0 REVERT JUMPDEST POP POP POP POP PUSH1 0x40 MLOAD RETURNDATASIZE PUSH1 0x1F NOT PUSH1 0x1F DUP3 ADD AND DUP3 ADD DUP1 PUSH1 0x40 MSTORE POP DUP2 ADD SWAP1 PUSH2 0x1B0D SWAP2 SWAP1 PUSH2 0x4BE5 JUMP JUMPDEST POP PUSH2 0x1B17 DUP7 PUSH2 0x3A93 JUMP JUMPDEST POP POP POP POP POP POP JUMP JUMPDEST PUSH1 0x0 SLOAD PUSH2 0x100 SWAP1 DIV PUSH1 0xFF AND ISZERO DUP1 DUP1 ISZERO PUSH2 0x1B3F JUMPI POP PUSH1 0x0 SLOAD PUSH1 0x1 PUSH1 0xFF SWAP1 SWAP2 AND LT JUMPDEST DUP1 PUSH2 0x1B59 JUMPI POP ADDRESS EXTCODESIZE ISZERO DUP1 ISZERO PUSH2 0x1B59 JUMPI POP PUSH1 0x0 SLOAD PUSH1 0xFF AND PUSH1 0x1 EQ JUMPDEST PUSH2 0x1BBC JUMPI PUSH1 0x40 MLOAD PUSH3 0x461BCD PUSH1 0xE5 SHL DUP2 MSTORE PUSH1 0x20 PUSH1 0x4 DUP3 ADD MSTORE PUSH1 0x2E PUSH1 0x24 DUP3 ADD MSTORE PUSH32 0x496E697469616C697A61626C653A20636F6E747261637420697320616C726561 PUSH1 0x44 DUP3 ADD MSTORE PUSH14 0x191E481A5B9A5D1A585B1A5E9959 PUSH1 0x92 SHL PUSH1 0x64 DUP3 ADD MSTORE PUSH1 0x84 ADD PUSH2 0xDD7 JUMP JUMPDEST PUSH1 0x0 DUP1 SLOAD PUSH1 0xFF NOT AND PUSH1 0x1 OR SWAP1 SSTORE DUP1 ISZERO PUSH2 0x1BDF JUMPI PUSH1 0x0 DUP1 SLOAD PUSH2 0xFF00 NOT AND PUSH2 0x100 OR SWAP1 SSTORE JUMPDEST PUSH1 0xCC SLOAD PUSH1 0x1 PUSH1 0x1 PUSH1 0xA0 SHL SUB AND CALLER EQ PUSH2 0x1C28 JUMPI PUSH1 0x40 MLOAD PUSH3 0x461BCD PUSH1 0xE5 SHL DUP2 MSTORE PUSH1 0x20 PUSH1 0x4 DUP3 ADD MSTORE PUSH1 0xC PUSH1 0x24 DUP3 ADD MSTORE PUSH12 0x6E6F7420696E697420616363 PUSH1 0xA0 SHL PUSH1 0x44 DUP3 ADD MSTORE PUSH1 0x64 ADD PUSH2 0xDD7 JUMP JUMPDEST PUSH2 0x1C32 DUP5 DUP5 PUSH2 0x3CD1 JUMP JUMPDEST PUSH2 0x1C3A PUSH2 0x3D11 JUMP JUMPDEST PUSH1 0xD2 DUP1 SLOAD PUSH1 0x1 PUSH1 0x1 PUSH1 0xA0 SHL SUB DUP1 DUP6 AND PUSH1 0x1 PUSH1 0x1 PUSH1 0xA0 SHL SUB NOT SWAP3 DUP4 AND OR SWAP1 SWAP3 SSTORE PUSH1 0xCB DUP1 SLOAD PUSH1 0x1 DUP2 ADD DUP3 SSTORE PUSH1 0x0 SWAP2 SWAP1 SWAP2 MSTORE PUSH32 0xA7CE836D032B2BF62B7E2097A8E0A6D8AEB35405AD15271E96D3B0188A1D06FB ADD DUP1 SLOAD DUP3 AND CALLER SWAP1 DUP2 OR SWAP1 SWAP2 SSTORE PUSH1 0xCE DUP1 SLOAD DUP4 AND SWAP1 SWAP2 OR SWAP1 SSTORE PUSH1 0xCD DUP1 SLOAD SWAP3 DUP9 AND SWAP3 SWAP1 SWAP2 AND SWAP2 SWAP1 SWAP2 OR SWAP1 SSTORE PUSH1 0x2 PUSH1 0xCF SSTORE PUSH6 0x5AF3107A4000 PUSH1 0xD0 SSTORE PUSH1 0x3 PUSH1 0xD1 SSTORE DUP1 ISZERO PUSH2 0x103A JUMPI PUSH1 0x0 DUP1 SLOAD PUSH2 0xFF00 NOT AND SWAP1 SSTORE PUSH1 0x40 MLOAD PUSH1 0x1 DUP2 MSTORE PUSH32 0x7F26B83FF96E1F2B6A682F133852F6798A09C465DA95921460CEFB3847402498 SWAP1 PUSH1 0x20 ADD PUSH1 0x40 MLOAD DUP1 SWAP2 SUB SWAP1 LOG1 POP POP POP POP POP JUMP JUMPDEST PUSH1 0x0 DUP2 DUP2 MSTORE PUSH1 0x68 PUSH1 0x20 MSTORE PUSH1 0x40 DUP2 KECCAK256 SLOAD PUSH1 0x1 PUSH1 0x1 PUSH1 0xA0 SHL SUB AND DUP1 PUSH2 0xC96 JUMPI PUSH1 0x40 MLOAD PUSH3 0x461BCD PUSH1 0xE5 SHL DUP2 MSTORE PUSH1 0x20 PUSH1 0x4 DUP3 ADD MSTORE PUSH1 0x18 PUSH1 0x24 DUP3 ADD MSTORE PUSH32 0x4552433732313A20696E76616C696420746F6B656E2049440000000000000000 PUSH1 0x44 DUP3 ADD MSTORE PUSH1 0x64 ADD PUSH2 0xDD7 JUMP JUMPDEST PUSH1 0x0 PUSH1 0x1 PUSH1 0x1 PUSH1 0xA0 SHL SUB DUP3 AND PUSH2 0x1DE1 JUMPI PUSH1 0x40 MLOAD PUSH3 0x461BCD PUSH1 0xE5 SHL DUP2 MSTORE PUSH1 0x20 PUSH1 0x4 DUP3 ADD MSTORE PUSH1 0x29 PUSH1 0x24 DUP3 ADD MSTORE PUSH32 0x4552433732313A2061646472657373207A65726F206973206E6F742061207661 PUSH1 0x44 DUP3 ADD MSTORE PUSH9 0x3634B21037BBB732B9 PUSH1 0xB9 SHL PUSH1 0x64 DUP3 ADD MSTORE PUSH1 0x84 ADD PUSH2 0xDD7 JUMP JUMPDEST POP PUSH1 0x1 PUSH1 0x1 PUSH1 0xA0 SHL SUB AND PUSH1 0x0 SWAP1 DUP2 MSTORE PUSH1 0x69 PUSH1 0x20 MSTORE PUSH1 0x40 SWAP1 KECCAK256 SLOAD SWAP1 JUMP JUMPDEST PUSH1 0x0 DUP1 JUMPDEST PUSH1 0xCB SLOAD PUSH2 0xFFFF DUP3 AND LT ISZERO PUSH2 0x1E64 JUMPI PUSH1 0x0 PUSH1 0xCB DUP3 PUSH2 0xFFFF AND DUP2 SLOAD DUP2 LT PUSH2 0x1E28 JUMPI PUSH2 0x1E28 PUSH2 0x4B3B JUMP JUMPDEST PUSH1 0x0 SWAP2 DUP3 MSTORE PUSH1 0x20 SWAP1 SWAP2 KECCAK256 ADD SLOAD PUSH1 0x1 PUSH1 0x1 PUSH1 0xA0 SHL SUB AND SWAP1 POP CALLER DUP2 SWAP1 SUB PUSH2 0x1E51 JUMPI PUSH1 0x1 SWAP3 POP POP PUSH2 0x1E64 JUMP JUMPDEST POP DUP1 PUSH2 0x1E5C DUP2 PUSH2 0x4B67 JUMP JUMPDEST SWAP2 POP POP PUSH2 0x1E01 JUMP JUMPDEST POP PUSH1 0x1 SWAP1 POP PUSH2 0x1E72 DUP4 PUSH2 0x3A08 JUMP JUMPDEST ISZERO ISZERO PUSH1 0x1 EQ PUSH2 0x1E80 JUMPI PUSH1 0x0 DUP1 REVERT JUMPDEST PUSH2 0xE78 DUP4 DUP4 PUSH2 0x3D3A JUMP JUMPDEST PUSH1 0x0 DUP1 DUP1 JUMPDEST PUSH1 0x0 DUP6 DUP2 MSTORE PUSH1 0xD5 PUSH1 0x20 MSTORE PUSH1 0x40 SWAP1 KECCAK256 PUSH1 0x3 ADD SLOAD DUP2 LT ISZERO PUSH2 0x1F23 JUMPI PUSH1 0x0 DUP6 DUP2 MSTORE PUSH1 0xD5 PUSH1 0x20 MSTORE PUSH1 0x40 DUP2 KECCAK256 PUSH1 0x3 ADD DUP1 SLOAD DUP4 SWAP1 DUP2 LT PUSH2 0x1ECB JUMPI PUSH2 0x1ECB PUSH2 0x4B3B JUMP JUMPDEST PUSH1 0x0 SWAP2 DUP3 MSTORE PUSH1 0x20 SWAP1 SWAP2 KECCAK256 ADD SLOAD PUSH1 0x1 PUSH1 0x1 PUSH1 0xA0 SHL SUB SWAP1 DUP2 AND SWAP2 POP DUP8 AND DUP2 EQ DUP1 ISZERO PUSH2 0x1F01 JUMPI POP PUSH1 0x0 DUP7 DUP2 MSTORE PUSH1 0xD5 PUSH1 0x20 MSTORE PUSH1 0x40 SWAP1 KECCAK256 SLOAD DUP6 EQ JUMPDEST ISZERO PUSH2 0x1F10 JUMPI PUSH1 0x1 SWAP3 POP POP PUSH2 0x1F23 JUMP JUMPDEST POP DUP1 PUSH2 0x1F1B DUP2 PUSH2 0x4C1F JUMP JUMPDEST SWAP2 POP POP PUSH2 0x1E8F JUMP JUMPDEST POP SWAP5 SWAP4 POP POP POP POP JUMP JUMPDEST PUSH1 0x0 DUP4 DUP2 MSTORE PUSH1 0xD4 PUSH1 0x20 MSTORE PUSH1 0x40 SWAP1 KECCAK256 PUSH1 0x1 DUP2 ADD SLOAD PUSH1 0x1 PUSH1 0x1 PUSH1 0xA0 SHL SUB AND CALLER EQ DUP1 PUSH2 0x1F5E JUMPI POP DUP1 SLOAD PUSH1 0x1 PUSH1 0x1 PUSH1 0xA0 SHL SUB AND CALLER EQ JUMPDEST PUSH2 0x1F9E JUMPI PUSH1 0x40 MLOAD PUSH3 0x461BCD PUSH1 0xE5 SHL DUP2 MSTORE PUSH1 0x20 PUSH1 0x4 DUP3 ADD MSTORE PUSH1 0x11 PUSH1 0x24 DUP3 ADD MSTORE PUSH17 0x3737BA1030B1B1B2B9B9903A379034B21 PUSH1 0x7D SHL PUSH1 0x44 DUP3 ADD MSTORE PUSH1 0x64 ADD PUSH2 0xDD7 JUMP JUMPDEST PUSH1 0x0 DUP4 DUP2 MSTORE PUSH1 0xA DUP3 ADD PUSH1 0x20 MSTORE PUSH1 0x40 SWAP1 KECCAK256 PUSH1 0x2 ADD SLOAD PUSH1 0x1 PUSH1 0x1 PUSH1 0xA0 SHL SUB AND CALLER EQ PUSH2 0x1FFD JUMPI PUSH1 0x40 MLOAD PUSH3 0x461BCD PUSH1 0xE5 SHL DUP2 MSTORE PUSH1 0x20 PUSH1 0x4 DUP3 ADD MSTORE PUSH1 0x11 PUSH1 0x24 DUP3 ADD MSTORE PUSH17 0x1B9BC81858D8D95CDCC81D1BC81CDB1BDD PUSH1 0x7A SHL PUSH1 0x44 DUP3 ADD MSTORE PUSH1 0x64 ADD PUSH2 0xDD7 JUMP JUMPDEST PUSH1 0x1 DUP2 ADD SLOAD PUSH1 0x1 PUSH1 0x1 PUSH1 0xA0 SHL SUB AND CALLER EQ DUP1 ISZERO PUSH2 0x201B JUMPI POP PUSH1 0x1 DUP3 ISZERO ISZERO EQ JUMPDEST ISZERO PUSH2 0x210A JUMPI PUSH1 0xD0 SLOAD PUSH2 0x202E SWAP1 PUSH1 0x5 PUSH2 0x4BCE JUMP JUMPDEST PUSH1 0xCD SLOAD PUSH1 0x1 PUSH1 0x1 PUSH1 0xA0 SHL SUB AND PUSH1 0x0 SWAP1 DUP2 MSTORE PUSH1 0x9 DUP4 ADD PUSH1 0x20 MSTORE PUSH1 0x40 SWAP1 KECCAK256 SLOAD LT ISZERO PUSH2 0x2069 JUMPI PUSH1 0x40 MLOAD PUSH3 0x461BCD PUSH1 0xE5 SHL DUP2 MSTORE PUSH1 0x4 ADD PUSH2 0xDD7 SWAP1 PUSH2 0x4D80 JUMP JUMPDEST PUSH1 0xD0 SLOAD PUSH2 0x2077 SWAP1 PUSH1 0x5 PUSH2 0x4BCE JUMP JUMPDEST PUSH1 0xCD SLOAD PUSH1 0x1 PUSH1 0x1 PUSH1 0xA0 SHL SUB AND PUSH1 0x0 SWAP1 DUP2 MSTORE PUSH1 0x9 DUP4 ADD PUSH1 0x20 MSTORE PUSH1 0x40 SWAP1 KECCAK256 SLOAD PUSH2 0x209E SWAP2 SWAP1 PUSH2 0x4BBB JUMP JUMPDEST PUSH1 0xCD SLOAD PUSH1 0x1 PUSH1 0x1 PUSH1 0xA0 SHL SUB AND PUSH1 0x0 SWAP1 DUP2 MSTORE PUSH1 0x9 DUP4 ADD PUSH1 0x20 MSTORE PUSH1 0x40 SWAP1 KECCAK256 SSTORE PUSH1 0xD0 SLOAD PUSH2 0x20C9 SWAP1 PUSH1 0x5 PUSH2 0x4BCE JUMP JUMPDEST PUSH1 0xCD SLOAD PUSH1 0x1 PUSH1 0x1 PUSH1 0xA0 SHL SUB AND PUSH1 0x0 SWAP1 DUP2 MSTORE PUSH1 0xD3 PUSH1 0x20 MSTORE PUSH1 0x40 SWAP1 KECCAK256 SLOAD PUSH2 0x20EE SWAP2 SWAP1 PUSH2 0x4BA8 JUMP JUMPDEST PUSH1 0xCD SLOAD PUSH1 0x1 PUSH1 0x1 PUSH1 0xA0 SHL SUB AND PUSH1 0x0 SWAP1 DUP2 MSTORE PUSH1 0xD3 PUSH1 0x20 MSTORE PUSH1 0x40 SWAP1 KECCAK256 SSTORE JUMPDEST PUSH1 0x1 DUP2 ADD SLOAD PUSH1 0x1 PUSH1 0x1 PUSH1 0xA0 SHL SUB AND CALLER EQ DUP1 ISZERO PUSH2 0x2124 JUMPI POP DUP2 ISZERO JUMPDEST ISZERO PUSH2 0x22B0 JUMPI PUSH1 0xD0 SLOAD PUSH2 0x2137 SWAP1 PUSH1 0x5 PUSH2 0x4BCE JUMP JUMPDEST PUSH1 0xCD SLOAD PUSH1 0x40 MLOAD PUSH4 0x70A08231 PUSH1 0xE0 SHL DUP2 MSTORE CALLER PUSH1 0x4 DUP3 ADD MSTORE PUSH1 0x1 PUSH1 0x1 PUSH1 0xA0 SHL SUB SWAP1 SWAP2 AND SWAP1 PUSH4 0x70A08231 SWAP1 PUSH1 0x24 ADD PUSH1 0x20 PUSH1 0x40 MLOAD DUP1 DUP4 SUB DUP2 DUP7 GAS STATICCALL ISZERO DUP1 ISZERO PUSH2 0x217F JUMPI RETURNDATASIZE PUSH1 0x0 DUP1 RETURNDATACOPY RETURNDATASIZE PUSH1 0x0 REVERT JUMPDEST POP POP POP POP PUSH1 0x40 MLOAD RETURNDATASIZE PUSH1 0x1F NOT PUSH1 0x1F DUP3 ADD AND DUP3 ADD DUP1 PUSH1 0x40 MSTORE POP DUP2 ADD SWAP1 PUSH2 0x21A3 SWAP2 SWAP1 PUSH2 0x4D67 JUMP JUMPDEST LT ISZERO PUSH2 0x21C1 JUMPI PUSH1 0x40 MLOAD PUSH3 0x461BCD PUSH1 0xE5 SHL DUP2 MSTORE PUSH1 0x4 ADD PUSH2 0xDD7 SWAP1 PUSH2 0x4D80 JUMP JUMPDEST PUSH1 0xCD SLOAD PUSH1 0xD0 SLOAD PUSH1 0x1 PUSH1 0x1 PUSH1 0xA0 SHL SUB SWAP1 SWAP2 AND SWAP1 PUSH4 0x23B872DD SWAP1 CALLER SWAP1 ADDRESS SWAP1 PUSH2 0x21E8 SWAP1 PUSH1 0x5 PUSH2 0x4BCE JUMP JUMPDEST PUSH1 0x40 MLOAD PUSH1 0x1 PUSH1 0x1 PUSH1 0xE0 SHL SUB NOT PUSH1 0xE0 DUP7 SWAP1 SHL AND DUP2 MSTORE PUSH1 0x1 PUSH1 0x1 PUSH1 0xA0 SHL SUB SWAP4 DUP5 AND PUSH1 0x4 DUP3 ADD MSTORE SWAP3 SWAP1 SWAP2 AND PUSH1 0x24 DUP4 ADD MSTORE PUSH1 0x44 DUP3 ADD MSTORE PUSH1 0x64 ADD PUSH1 0x20 PUSH1 0x40 MLOAD DUP1 DUP4 SUB DUP2 PUSH1 0x0 DUP8 GAS CALL ISZERO DUP1 ISZERO PUSH2 0x223C JUMPI RETURNDATASIZE PUSH1 0x0 DUP1 RETURNDATACOPY RETURNDATASIZE PUSH1 0x0 REVERT JUMPDEST POP POP POP POP PUSH1 0x40 MLOAD RETURNDATASIZE PUSH1 0x1F NOT PUSH1 0x1F DUP3 ADD AND DUP3 ADD DUP1 PUSH1 0x40 MSTORE POP DUP2 ADD SWAP1 PUSH2 0x2260 SWAP2 SWAP1 PUSH2 0x4BE5 JUMP JUMPDEST POP PUSH1 0xD0 SLOAD PUSH2 0x226F SWAP1 PUSH1 0x5 PUSH2 0x4BCE JUMP JUMPDEST PUSH1 0xCD SLOAD PUSH1 0x1 PUSH1 0x1 PUSH1 0xA0 SHL SUB AND PUSH1 0x0 SWAP1 DUP2 MSTORE PUSH1 0xD3 PUSH1 0x20 MSTORE PUSH1 0x40 SWAP1 KECCAK256 SLOAD PUSH2 0x2294 SWAP2 SWAP1 PUSH2 0x4BA8 JUMP JUMPDEST PUSH1 0xCD SLOAD PUSH1 0x1 PUSH1 0x1 PUSH1 0xA0 SHL SUB AND PUSH1 0x0 SWAP1 DUP2 MSTORE PUSH1 0xD3 PUSH1 0x20 MSTORE PUSH1 0x40 SWAP1 KECCAK256 SSTORE JUMPDEST DUP1 SLOAD PUSH1 0x1 PUSH1 0x1 PUSH1 0xA0 SHL SUB AND CALLER SUB PUSH2 0x2448 JUMPI PUSH1 0xD0 SLOAD PUSH2 0x22CF SWAP1 PUSH1 0x5 PUSH2 0x4BCE JUMP JUMPDEST PUSH1 0xCD SLOAD PUSH1 0x40 MLOAD PUSH4 0x70A08231 PUSH1 0xE0 SHL DUP2 MSTORE CALLER PUSH1 0x4 DUP3 ADD MSTORE PUSH1 0x1 PUSH1 0x1 PUSH1 0xA0 SHL SUB SWAP1 SWAP2 AND SWAP1 PUSH4 0x70A08231 SWAP1 PUSH1 0x24 ADD PUSH1 0x20 PUSH1 0x40 MLOAD DUP1 DUP4 SUB DUP2 DUP7 GAS STATICCALL ISZERO DUP1 ISZERO PUSH2 0x2317 JUMPI RETURNDATASIZE PUSH1 0x0 DUP1 RETURNDATACOPY RETURNDATASIZE PUSH1 0x0 REVERT JUMPDEST POP POP POP POP PUSH1 0x40 MLOAD RETURNDATASIZE PUSH1 0x1F NOT PUSH1 0x1F DUP3 ADD AND DUP3 ADD DUP1 PUSH1 0x40 MSTORE POP DUP2 ADD SWAP1 PUSH2 0x233B SWAP2 SWAP1 PUSH2 0x4D67 JUMP JUMPDEST LT ISZERO PUSH2 0x2359 JUMPI PUSH1 0x40 MLOAD PUSH3 0x461BCD PUSH1 0xE5 SHL DUP2 MSTORE PUSH1 0x4 ADD PUSH2 0xDD7 SWAP1 PUSH2 0x4D80 JUMP JUMPDEST PUSH1 0xCD SLOAD PUSH1 0xD0 SLOAD PUSH1 0x1 PUSH1 0x1 PUSH1 0xA0 SHL SUB SWAP1 SWAP2 AND SWAP1 PUSH4 0x23B872DD SWAP1 CALLER SWAP1 ADDRESS SWAP1 PUSH2 0x2380 SWAP1 PUSH1 0x5 PUSH2 0x4BCE JUMP JUMPDEST PUSH1 0x40 MLOAD PUSH1 0x1 PUSH1 0x1 PUSH1 0xE0 SHL SUB NOT PUSH1 0xE0 DUP7 SWAP1 SHL AND DUP2 MSTORE PUSH1 0x1 PUSH1 0x1 PUSH1 0xA0 SHL SUB SWAP4 DUP5 AND PUSH1 0x4 DUP3 ADD MSTORE SWAP3 SWAP1 SWAP2 AND PUSH1 0x24 DUP4 ADD MSTORE PUSH1 0x44 DUP3 ADD MSTORE PUSH1 0x64 ADD PUSH1 0x20 PUSH1 0x40 MLOAD DUP1 DUP4 SUB DUP2 PUSH1 0x0 DUP8 GAS CALL ISZERO DUP1 ISZERO PUSH2 0x23D4 JUMPI RETURNDATASIZE PUSH1 0x0 DUP1 RETURNDATACOPY RETURNDATASIZE PUSH1 0x0 REVERT JUMPDEST POP POP POP POP PUSH1 0x40 MLOAD RETURNDATASIZE PUSH1 0x1F NOT PUSH1 0x1F DUP3 ADD AND DUP3 ADD DUP1 PUSH1 0x40 MSTORE POP DUP2 ADD SWAP1 PUSH2 0x23F8 SWAP2 SWAP1 PUSH2 0x4BE5 JUMP JUMPDEST POP PUSH1 0xD0 SLOAD PUSH2 0x2407 SWAP1 PUSH1 0x5 PUSH2 0x4BCE JUMP JUMPDEST PUSH1 0xCD SLOAD PUSH1 0x1 PUSH1 0x1 PUSH1 0xA0 SHL SUB AND PUSH1 0x0 SWAP1 DUP2 MSTORE PUSH1 0xD3 PUSH1 0x20 MSTORE PUSH1 0x40 SWAP1 KECCAK256 SLOAD PUSH2 0x242C SWAP2 SWAP1 PUSH2 0x4BA8 JUMP JUMPDEST PUSH1 0xCD SLOAD PUSH1 0x1 PUSH1 0x1 PUSH1 0xA0 SHL SUB AND PUSH1 0x0 SWAP1 DUP2 MSTORE PUSH1 0xD3 PUSH1 0x20 MSTORE PUSH1 0x40 SWAP1 KECCAK256 SSTORE JUMPDEST PUSH2 0x2451 DUP5 PUSH2 0x3A93 JUMP JUMPDEST PUSH1 0x0 SWAP3 DUP4 MSTORE PUSH1 0xA ADD PUSH1 0x20 MSTORE POP PUSH1 0x40 SWAP1 KECCAK256 DUP1 SLOAD PUSH1 0xFF NOT AND SWAP1 SSTORE POP JUMP JUMPDEST PUSH1 0x0 DUP1 JUMPDEST PUSH1 0xCB SLOAD PUSH2 0xFFFF DUP3 AND LT ISZERO PUSH2 0x24D3 JUMPI PUSH1 0x0 PUSH1 0xCB DUP3 PUSH2 0xFFFF AND DUP2 SLOAD DUP2 LT PUSH2 0x2497 JUMPI PUSH2 0x2497 PUSH2 0x4B3B JUMP JUMPDEST PUSH1 0x0 SWAP2 DUP3 MSTORE PUSH1 0x20 SWAP1 SWAP2 KECCAK256 ADD SLOAD PUSH1 0x1 PUSH1 0x1 PUSH1 0xA0 SHL SUB AND SWAP1 POP CALLER DUP2 SWAP1 SUB PUSH2 0x24C0 JUMPI PUSH1 0x1 SWAP3 POP POP PUSH2 0x24D3 JUMP JUMPDEST POP DUP1 PUSH2 0x24CB DUP2 PUSH2 0x4B67 JUMP JUMPDEST SWAP2 POP POP PUSH2 0x2470 JUMP JUMPDEST POP PUSH1 0x1 SWAP1 POP PUSH1 0x0 DUP4 DUP2 MSTORE PUSH1 0xD4 PUSH1 0x20 MSTORE PUSH1 0x40 SWAP1 KECCAK256 PUSH1 0x8 ADD SLOAD PUSH2 0x163C SWAP1 DUP4 SWAP1 PUSH2 0x4BA8 JUMP JUMPDEST PUSH1 0x0 DUP1 JUMPDEST PUSH1 0xCB SLOAD PUSH2 0xFFFF DUP3 AND LT ISZERO PUSH2 0x255C JUMPI PUSH1 0x0 PUSH1 0xCB DUP3 PUSH2 0xFFFF AND DUP2 SLOAD DUP2 LT PUSH2 0x2520 JUMPI PUSH2 0x2520 PUSH2 0x4B3B JUMP JUMPDEST PUSH1 0x0 SWAP2 DUP3 MSTORE PUSH1 0x20 SWAP1 SWAP2 KECCAK256 ADD SLOAD PUSH1 0x1 PUSH1 0x1 PUSH1 0xA0 SHL SUB AND SWAP1 POP CALLER DUP2 SWAP1 SUB PUSH2 0x2549 JUMPI PUSH1 0x1 SWAP3 POP POP PUSH2 0x255C JUMP JUMPDEST POP DUP1 PUSH2 0x2554 DUP2 PUSH2 0x4B67 JUMP JUMPDEST SWAP2 POP POP PUSH2 0x24F9 JUMP JUMPDEST POP PUSH1 0x1 SWAP1 POP PUSH1 0xD6 SLOAD DUP4 LT PUSH2 0x2582 JUMPI PUSH1 0x40 MLOAD PUSH3 0x461BCD PUSH1 0xE5 SHL DUP2 MSTORE PUSH1 0x4 ADD PUSH2 0xDD7 SWAP1 PUSH2 0x4D3E JUMP JUMPDEST PUSH1 0x0 DUP1 MSTORE PUSH1 0xD3 PUSH1 0x20 MSTORE PUSH1 0x0 DUP1 MLOAD PUSH1 0x20 PUSH2 0x4F36 DUP4 CODECOPY DUP2 MLOAD SWAP2 MSTORE SLOAD PUSH2 0x25A6 SWAP1 CALLVALUE SWAP1 PUSH2 0x4BA8 JUMP JUMPDEST PUSH1 0x0 DUP1 MLOAD PUSH1 0x20 PUSH2 0x4F36 DUP4 CODECOPY DUP2 MLOAD SWAP2 MSTORE SSTORE PUSH1 0x0 DUP4 DUP2 MSTORE PUSH1 0xD4 PUSH1 0x20 MSTORE PUSH1 0x40 SWAP1 KECCAK256 TIMESTAMP PUSH1 0x4 DUP3 ADD SSTORE PUSH1 0x5 ADD SLOAD PUSH2 0x25D9 SWAP1 DUP4 SWAP1 PUSH2 0x4BA8 JUMP JUMPDEST PUSH1 0x0 DUP5 DUP2 MSTORE PUSH1 0xD4 PUSH1 0x20 MSTORE PUSH1 0x40 SWAP1 KECCAK256 PUSH1 0x5 ADD SSTORE PUSH2 0xE78 DUP4 PUSH2 0x3A93 JUMP JUMPDEST PUSH1 0x0 DUP1 PUSH1 0x0 JUMPDEST PUSH1 0xCB SLOAD PUSH2 0xFFFF DUP3 AND LT ISZERO PUSH2 0x2658 JUMPI PUSH1 0xCB DUP2 PUSH2 0xFFFF AND DUP2 SLOAD DUP2 LT PUSH2 0x261F JUMPI PUSH2 0x261F PUSH2 0x4B3B JUMP JUMPDEST PUSH1 0x0 SWAP2 DUP3 MSTORE PUSH1 0x20 SWAP1 SWAP2 KECCAK256 ADD SLOAD PUSH1 0x1 PUSH1 0x1 PUSH1 0xA0 SHL SUB SWAP1 DUP2 AND SWAP1 DUP6 AND SUB PUSH2 0x2646 JUMPI DUP1 SWAP2 POP PUSH2 0x2658 JUMP JUMPDEST DUP1 PUSH2 0x2650 DUP2 PUSH2 0x4B67 JUMP JUMPDEST SWAP2 POP POP PUSH2 0x25FA JUMP JUMPDEST POP SWAP3 SWAP2 POP POP JUMP JUMPDEST PUSH1 0x60 PUSH1 0x66 DUP1 SLOAD PUSH2 0xCAB SWAP1 PUSH2 0x4B01 JUMP JUMPDEST PUSH1 0xCE SLOAD PUSH1 0x1 PUSH1 0x1 PUSH1 0xA0 SHL SUB AND CALLER EQ PUSH2 0x2685 JUMPI PUSH1 0x0 DUP1 REVERT JUMPDEST PUSH1 0xCB DUP1 SLOAD PUSH1 0x1 DUP2 ADD DUP3 SSTORE PUSH1 0x0 SWAP2 SWAP1 SWAP2 MSTORE PUSH32 0xA7CE836D032B2BF62B7E2097A8E0A6D8AEB35405AD15271E96D3B0188A1D06FB ADD DUP1 SLOAD PUSH1 0x1 PUSH1 0x1 PUSH1 0xA0 SHL SUB NOT AND PUSH1 0x1 PUSH1 0x1 PUSH1 0xA0 SHL SUB SWAP3 SWAP1 SWAP3 AND SWAP2 SWAP1 SWAP2 OR SWAP1 SSTORE JUMP JUMPDEST DUP2 PUSH1 0xD0 SLOAD PUSH2 0x26E5 SWAP2 SWAP1 PUSH2 0x4BCE JUMP JUMPDEST PUSH1 0xCD SLOAD PUSH1 0x40 MLOAD PUSH4 0x70A08231 PUSH1 0xE0 SHL DUP2 MSTORE CALLER PUSH1 0x4 DUP3 ADD MSTORE PUSH1 0x1 PUSH1 0x1 PUSH1 0xA0 SHL SUB SWAP1 SWAP2 AND SWAP1 PUSH4 0x70A08231 SWAP1 PUSH1 0x24 ADD PUSH1 0x20 PUSH1 0x40 MLOAD DUP1 DUP4 SUB DUP2 DUP7 GAS STATICCALL ISZERO DUP1 ISZERO PUSH2 0x272D JUMPI RETURNDATASIZE PUSH1 0x0 DUP1 RETURNDATACOPY RETURNDATASIZE PUSH1 0x0 REVERT JUMPDEST POP POP POP POP PUSH1 0x40 MLOAD RETURNDATASIZE PUSH1 0x1F NOT PUSH1 0x1F DUP3 ADD AND DUP3 ADD DUP1 PUSH1 0x40 MSTORE POP DUP2 ADD SWAP1 PUSH2 0x2751 SWAP2 SWAP1 PUSH2 0x4D67 JUMP JUMPDEST LT ISZERO PUSH2 0x2790 JUMPI PUSH1 0x40 MLOAD PUSH3 0x461BCD PUSH1 0xE5 SHL DUP2 MSTORE PUSH1 0x20 PUSH1 0x4 DUP3 ADD MSTORE PUSH1 0xE PUSH1 0x24 DUP3 ADD MSTORE PUSH14 0x149958DA185C99D948199A5C9CDD PUSH1 0x92 SHL PUSH1 0x44 DUP3 ADD MSTORE PUSH1 0x64 ADD PUSH2 0xDD7 JUMP JUMPDEST PUSH1 0x0 DUP2 DUP2 MSTORE PUSH1 0xD4 PUSH1 0x20 MSTORE PUSH1 0x40 SWAP1 KECCAK256 PUSH1 0x1 ADD SLOAD PUSH1 0x1 PUSH1 0x1 PUSH1 0xA0 SHL SUB AND CALLER EQ PUSH2 0x27B6 JUMPI PUSH1 0x0 DUP1 REVERT JUMPDEST PUSH1 0x0 DUP1 MSTORE PUSH1 0xD3 PUSH1 0x20 MSTORE PUSH1 0x0 DUP1 MLOAD PUSH1 0x20 PUSH2 0x4F36 DUP4 CODECOPY DUP2 MLOAD SWAP2 MSTORE SLOAD PUSH2 0x27DA SWAP1 CALLVALUE SWAP1 PUSH2 0x4BA8 JUMP JUMPDEST PUSH1 0x0 DUP1 MSTORE PUSH1 0xD3 PUSH1 0x20 MSTORE PUSH1 0x0 DUP1 MLOAD PUSH1 0x20 PUSH2 0x4F36 DUP4 CODECOPY DUP2 MLOAD SWAP2 MSTORE SSTORE PUSH1 0xD0 SLOAD PUSH2 0x2801 SWAP1 DUP4 SWAP1 PUSH2 0x4BCE JUMP JUMPDEST PUSH1 0x0 DUP3 DUP2 MSTORE PUSH1 0xD4 PUSH1 0x20 SWAP1 DUP2 MSTORE PUSH1 0x40 DUP1 DUP4 KECCAK256 PUSH1 0xCD SLOAD PUSH1 0x1 PUSH1 0x1 PUSH1 0xA0 SHL SUB AND DUP5 MSTORE PUSH1 0x9 ADD SWAP1 SWAP2 MSTORE SWAP1 KECCAK256 SLOAD PUSH2 0x2833 SWAP2 SWAP1 PUSH2 0x4BBB JUMP JUMPDEST PUSH1 0x0 DUP3 DUP2 MSTORE PUSH1 0xD4 PUSH1 0x20 DUP2 DUP2 MSTORE PUSH1 0x40 DUP1 DUP5 KECCAK256 PUSH1 0xCD SLOAD PUSH1 0x1 PUSH1 0x1 PUSH1 0xA0 SHL SUB AND DUP6 MSTORE PUSH1 0x9 DUP2 ADD DUP4 MSTORE SWAP1 DUP5 KECCAK256 SWAP5 SWAP1 SWAP5 SSTORE SWAP2 DUP5 SWAP1 MSTORE SWAP1 MSTORE TIMESTAMP PUSH1 0x4 SWAP1 SWAP2 ADD SSTORE PUSH1 0xCA SLOAD PUSH2 0x2879 SWAP1 DUP4 PUSH2 0x4BCE JUMP JUMPDEST PUSH1 0x0 DUP3 DUP2 MSTORE PUSH1 0xD4 PUSH1 0x20 MSTORE PUSH1 0x40 SWAP1 KECCAK256 PUSH1 0x5 ADD SLOAD PUSH2 0x2895 SWAP2 SWAP1 PUSH2 0x4BA8 JUMP JUMPDEST PUSH1 0x0 DUP3 DUP2 MSTORE PUSH1 0xD4 PUSH1 0x20 MSTORE PUSH1 0x40 SWAP1 KECCAK256 PUSH1 0x5 ADD SSTORE PUSH2 0x28B0 DUP2 PUSH2 0x3A93 JUMP JUMPDEST POP POP JUMP JUMPDEST PUSH2 0x28B0 CALLER DUP4 DUP4 PUSH2 0x3D52 JUMP JUMPDEST PUSH1 0x60 DUP1 PUSH1 0x0 DUP1 JUMPDEST PUSH1 0xCB SLOAD PUSH2 0xFFFF DUP3 AND LT ISZERO PUSH2 0x2929 JUMPI PUSH1 0x0 PUSH1 0xCB DUP3 PUSH2 0xFFFF AND DUP2 SLOAD DUP2 LT PUSH2 0x28ED JUMPI PUSH2 0x28ED PUSH2 0x4B3B JUMP JUMPDEST PUSH1 0x0 SWAP2 DUP3 MSTORE PUSH1 0x20 SWAP1 SWAP2 KECCAK256 ADD SLOAD PUSH1 0x1 PUSH1 0x1 PUSH1 0xA0 SHL SUB AND SWAP1 POP CALLER DUP2 SWAP1 SUB PUSH2 0x2916 JUMPI PUSH1 0x1 SWAP3 POP POP PUSH2 0x2929 JUMP JUMPDEST POP DUP1 PUSH2 0x2921 DUP2 PUSH2 0x4B67 JUMP JUMPDEST SWAP2 POP POP PUSH2 0x28C6 JUMP JUMPDEST POP PUSH1 0x1 SWAP1 POP PUSH1 0x0 DUP6 DUP2 MSTORE PUSH1 0xD4 PUSH1 0x20 SWAP1 DUP2 MSTORE PUSH1 0x40 DUP1 DUP4 KECCAK256 DUP8 DUP5 MSTORE PUSH1 0xA ADD SWAP1 SWAP2 MSTORE SWAP1 KECCAK256 PUSH1 0x2 ADD SLOAD PUSH1 0x1 PUSH1 0x1 PUSH1 0xA0 SHL SUB DUP8 DUP2 AND SWAP2 AND EQ DUP1 PUSH2 0x2973 JUMPI POP PUSH2 0x296D DUP7 DUP7 DUP7 PUSH2 0x1E8A JUMP JUMPDEST ISZERO ISZERO PUSH1 0x1 EQ JUMPDEST PUSH2 0x29BF JUMPI PUSH1 0x40 MLOAD PUSH3 0x461BCD PUSH1 0xE5 SHL DUP2 MSTORE PUSH1 0x20 PUSH1 0x4 DUP3 ADD MSTORE PUSH1 0x18 PUSH1 0x24 DUP3 ADD MSTORE PUSH32 0x6E6F74206F776E6572206F6620696420616E6420736C6F740000000000000000 PUSH1 0x44 DUP3 ADD MSTORE PUSH1 0x64 ADD PUSH2 0xDD7 JUMP JUMPDEST PUSH1 0x0 DUP6 DUP2 MSTORE PUSH1 0xD4 PUSH1 0x20 SWAP1 DUP2 MSTORE PUSH1 0x40 DUP1 DUP4 KECCAK256 DUP8 DUP5 MSTORE PUSH1 0xA ADD SWAP1 SWAP2 MSTORE SWAP1 KECCAK256 SLOAD PUSH1 0xFF AND ISZERO PUSH2 0x2A1B JUMPI PUSH1 0x40 MLOAD PUSH3 0x461BCD PUSH1 0xE5 SHL DUP2 MSTORE PUSH1 0x20 PUSH1 0x4 DUP3 ADD MSTORE PUSH1 0xC PUSH1 0x24 DUP3 ADD MSTORE PUSH12 0x11195B195D19590814DB1BDD PUSH1 0xA2 SHL PUSH1 0x44 DUP3 ADD MSTORE PUSH1 0x64 ADD PUSH2 0xDD7 JUMP JUMPDEST PUSH1 0x0 DUP6 DUP2 MSTORE PUSH1 0xD4 PUSH1 0x20 SWAP1 DUP2 MSTORE PUSH1 0x40 DUP1 DUP4 KECCAK256 DUP8 DUP5 MSTORE PUSH1 0xA ADD SWAP1 SWAP2 MSTORE SWAP1 KECCAK256 PUSH1 0x1 DUP2 ADD DUP1 SLOAD SWAP1 SWAP2 PUSH1 0x3 ADD SWAP1 DUP3 SWAP1 PUSH2 0x2A4E SWAP1 PUSH2 0x4B01 JUMP JUMPDEST DUP1 PUSH1 0x1F ADD PUSH1 0x20 DUP1 SWAP2 DIV MUL PUSH1 0x20 ADD PUSH1 0x40 MLOAD SWAP1 DUP2 ADD PUSH1 0x40 MSTORE DUP1 SWAP3 SWAP2 SWAP1 DUP2 DUP2 MSTORE PUSH1 0x20 ADD DUP3 DUP1 SLOAD PUSH2 0x2A7A SWAP1 PUSH2 0x4B01 JUMP JUMPDEST DUP1 ISZERO PUSH2 0x2AC7 JUMPI DUP1 PUSH1 0x1F LT PUSH2 0x2A9C JUMPI PUSH2 0x100 DUP1 DUP4 SLOAD DIV MUL DUP4 MSTORE SWAP2 PUSH1 0x20 ADD SWAP2 PUSH2 0x2AC7 JUMP JUMPDEST DUP3 ADD SWAP2 SWAP1 PUSH1 0x0 MSTORE PUSH1 0x20 PUSH1 0x0 KECCAK256 SWAP1 JUMPDEST DUP2 SLOAD DUP2 MSTORE SWAP1 PUSH1 0x1 ADD SWAP1 PUSH1 0x20 ADD DUP1 DUP4 GT PUSH2 0x2AAA JUMPI DUP3 SWAP1 SUB PUSH1 0x1F AND DUP3 ADD SWAP2 JUMPDEST POP POP POP POP POP SWAP2 POP DUP1 DUP1 SLOAD PUSH2 0x2ADA SWAP1 PUSH2 0x4B01 JUMP JUMPDEST DUP1 PUSH1 0x1F ADD PUSH1 0x20 DUP1 SWAP2 DIV MUL PUSH1 0x20 ADD PUSH1 0x40 MLOAD SWAP1 DUP2 ADD PUSH1 0x40 MSTORE DUP1 SWAP3 SWAP2 SWAP1 DUP2 DUP2 MSTORE PUSH1 0x20 ADD DUP3 DUP1 SLOAD PUSH2 0x2B06 SWAP1 PUSH2 0x4B01 JUMP JUMPDEST DUP1 ISZERO PUSH2 0x2B53 JUMPI DUP1 PUSH1 0x1F LT PUSH2 0x2B28 JUMPI PUSH2 0x100 DUP1 DUP4 SLOAD DIV MUL DUP4 MSTORE SWAP2 PUSH1 0x20 ADD SWAP2 PUSH2 0x2B53 JUMP JUMPDEST DUP3 ADD SWAP2 SWAP1 PUSH1 0x0 MSTORE PUSH1 0x20 PUSH1 0x0 KECCAK256 SWAP1 JUMPDEST DUP2 SLOAD DUP2 MSTORE SWAP1 PUSH1 0x1 ADD SWAP1 PUSH1 0x20 ADD DUP1 DUP4 GT PUSH2 0x2B36 JUMPI DUP3 SWAP1 SUB PUSH1 0x1F AND DUP3 ADD SWAP2 JUMPDEST POP POP POP POP POP SWAP1 POP SWAP3 POP SWAP3 POP POP SWAP4 POP SWAP4 SWAP2 POP POP JUMP JUMPDEST PUSH1 0x0 DUP4 DUP2 MSTORE PUSH1 0xD4 PUSH1 0x20 SWAP1 DUP2 MSTORE PUSH1 0x40 DUP1 DUP4 KECCAK256 DUP6 DUP5 MSTORE PUSH1 0xA ADD DUP3 MSTORE DUP1 DUP4 KECCAK256 DUP7 DUP5 MSTORE PUSH1 0xD5 SWAP1 SWAP3 MSTORE SWAP1 SWAP2 KECCAK256 PUSH1 0x2 DUP2 ADD SLOAD PUSH1 0x3 SWAP1 SWAP2 ADD SLOAD LT PUSH2 0x2BE6 JUMPI PUSH1 0x40 MLOAD PUSH3 0x461BCD PUSH1 0xE5 SHL DUP2 MSTORE PUSH1 0x20 PUSH1 0x4 DUP3 ADD MSTORE PUSH1 0x1F PUSH1 0x24 DUP3 ADD MSTORE PUSH32 0x6D617820736861726520616C6C6F7765642031302062792064656661756C7400 PUSH1 0x44 DUP3 ADD MSTORE PUSH1 0x64 ADD PUSH2 0xDD7 JUMP JUMPDEST PUSH1 0x0 DUP5 DUP2 MSTORE PUSH1 0xD4 PUSH1 0x20 MSTORE PUSH1 0x40 SWAP1 KECCAK256 PUSH1 0x1 ADD SLOAD PUSH1 0x1 PUSH1 0x1 PUSH1 0xA0 SHL SUB AND CALLER EQ DUP1 PUSH2 0x2C24 JUMPI POP PUSH1 0x0 DUP5 DUP2 MSTORE PUSH1 0xD4 PUSH1 0x20 MSTORE PUSH1 0x40 SWAP1 KECCAK256 SLOAD PUSH1 0x1 PUSH1 0x1 PUSH1 0xA0 SHL SUB AND CALLER EQ JUMPDEST PUSH2 0x2C63 JUMPI PUSH1 0x40 MLOAD PUSH3 0x461BCD PUSH1 0xE5 SHL DUP2 MSTORE PUSH1 0x20 PUSH1 0x4 DUP3 ADD MSTORE PUSH1 0x10 PUSH1 0x24 DUP3 ADD MSTORE PUSH16 0x3737BA1037BBB732B91037B31034B21 PUSH1 0x85 SHL PUSH1 0x44 DUP3 ADD MSTORE PUSH1 0x64 ADD PUSH2 0xDD7 JUMP JUMPDEST PUSH1 0x2 DUP2 ADD SLOAD PUSH1 0x1 PUSH1 0x1 PUSH1 0xA0 SHL SUB AND CALLER EQ DUP1 ISZERO PUSH2 0x2C81 JUMPI POP DUP1 SLOAD PUSH1 0xFF AND ISZERO JUMPDEST PUSH2 0x2C9D JUMPI PUSH1 0x40 MLOAD PUSH3 0x461BCD PUSH1 0xE5 SHL DUP2 MSTORE PUSH1 0x4 ADD PUSH2 0xDD7 SWAP1 PUSH2 0x4DA2 JUMP JUMPDEST PUSH1 0x0 DUP1 MSTORE PUSH1 0xD3 PUSH1 0x20 MSTORE PUSH1 0x0 DUP1 MLOAD PUSH1 0x20 PUSH2 0x4F36 DUP4 CODECOPY DUP2 MLOAD SWAP2 MSTORE SLOAD PUSH2 0x2CC1 SWAP1 CALLVALUE SWAP1 PUSH2 0x4BA8 JUMP JUMPDEST PUSH1 0x0 DUP1 MSTORE PUSH1 0xD3 PUSH1 0x20 MSTORE PUSH1 0x0 DUP1 MLOAD PUSH1 0x20 PUSH2 0x4F36 DUP4 CODECOPY DUP2 MLOAD SWAP2 MSTORE SSTORE PUSH2 0x2CE3 DUP5 PUSH2 0x3A93 JUMP JUMPDEST PUSH1 0x0 DUP5 DUP2 MSTORE PUSH1 0xD5 PUSH1 0x20 SWAP1 DUP2 MSTORE PUSH1 0x40 DUP3 KECCAK256 DUP6 DUP2 SSTORE PUSH1 0x3 DUP2 ADD DUP1 SLOAD PUSH1 0x1 DUP1 DUP3 ADD DUP4 SSTORE SWAP2 DUP6 MSTORE SWAP3 DUP5 KECCAK256 SWAP1 SWAP3 ADD DUP1 SLOAD PUSH1 0x1 PUSH1 0x1 PUSH1 0xA0 SHL SUB NOT AND PUSH1 0x1 PUSH1 0x1 PUSH1 0xA0 SHL SUB DUP8 AND OR SWAP1 SSTORE DUP7 DUP4 MSTORE ADD DUP1 SLOAD SWAP2 PUSH2 0x2D35 DUP4 PUSH2 0x4C1F JUMP JUMPDEST SWAP2 SWAP1 POP SSTORE POP POP POP POP POP JUMP JUMPDEST PUSH2 0x2D49 DUP5 PUSH2 0x3A08 JUMP JUMPDEST ISZERO ISZERO PUSH1 0x1 EQ PUSH2 0x2D57 JUMPI PUSH1 0x0 DUP1 REVERT JUMPDEST DUP3 SELFBALANCE LT ISZERO DUP1 ISZERO PUSH2 0x2D83 JUMPI POP PUSH1 0x0 DUP5 DUP2 MSTORE PUSH1 0xD4 PUSH1 0x20 SWAP1 DUP2 MSTORE PUSH1 0x40 DUP1 DUP4 KECCAK256 DUP4 DUP1 MSTORE PUSH1 0x9 ADD SWAP1 SWAP2 MSTORE SWAP1 KECCAK256 SLOAD DUP4 GT ISZERO JUMPDEST PUSH2 0x2D9F JUMPI PUSH1 0x40 MLOAD PUSH3 0x461BCD PUSH1 0xE5 SHL DUP2 MSTORE PUSH1 0x4 ADD PUSH2 0xDD7 SWAP1 PUSH2 0x4B88 JUMP JUMPDEST PUSH1 0x0 DUP5 DUP2 MSTORE PUSH1 0xD4 PUSH1 0x20 MSTORE PUSH1 0x40 SWAP1 KECCAK256 PUSH1 0x1 ADD SLOAD PUSH1 0x1 PUSH1 0x1 PUSH1 0xA0 SHL SUB DUP3 DUP2 AND SWAP2 AND EQ PUSH2 0x2DF7 JUMPI PUSH1 0x40 MLOAD PUSH3 0x461BCD PUSH1 0xE5 SHL DUP2 MSTORE PUSH1 0x20 PUSH1 0x4 DUP3 ADD MSTORE PUSH1 0x9 PUSH1 0x24 DUP3 ADD MSTORE PUSH9 0x3737BA1037BBB732B9 PUSH1 0xB9 SHL PUSH1 0x44 DUP3 ADD MSTORE PUSH1 0x64 ADD PUSH2 0xDD7 JUMP JUMPDEST PUSH1 0x0 DUP1 MSTORE PUSH1 0xD3 PUSH1 0x20 MSTORE PUSH1 0x0 DUP1 MLOAD PUSH1 0x20 PUSH2 0x4F36 DUP4 CODECOPY DUP2 MLOAD SWAP2 MSTORE SLOAD PUSH2 0x2E1B SWAP1 CALLVALUE SWAP1 PUSH2 0x4BA8 JUMP JUMPDEST PUSH1 0x0 DUP1 MLOAD PUSH1 0x20 PUSH2 0x4F36 DUP4 CODECOPY DUP2 MLOAD SWAP2 MSTORE SSTORE PUSH1 0x0 DUP5 DUP2 MSTORE PUSH1 0xD4 PUSH1 0x20 SWAP1 DUP2 MSTORE PUSH1 0x40 DUP1 DUP4 KECCAK256 DUP4 DUP1 MSTORE PUSH1 0x9 ADD SWAP1 SWAP2 MSTORE SWAP1 KECCAK256 SLOAD PUSH2 0x2E53 SWAP1 DUP5 SWAP1 PUSH2 0x4BBB JUMP JUMPDEST PUSH1 0x0 DUP6 DUP2 MSTORE PUSH1 0xD4 PUSH1 0x20 SWAP1 DUP2 MSTORE PUSH1 0x40 DUP1 DUP4 KECCAK256 DUP4 DUP1 MSTORE PUSH1 0x9 ADD SWAP1 SWAP2 MSTORE DUP1 DUP3 KECCAK256 SWAP3 SWAP1 SWAP3 SSTORE SWAP1 MLOAD PUSH1 0x1 PUSH1 0x1 PUSH1 0xA0 SHL SUB DUP5 AND SWAP2 DUP6 ISZERO PUSH2 0x8FC MUL SWAP2 DUP7 SWAP2 DUP2 DUP2 DUP2 DUP6 DUP9 DUP9 CALL SWAP4 POP POP POP POP ISZERO DUP1 ISZERO PUSH2 0x103A JUMPI RETURNDATASIZE PUSH1 0x0 DUP1 RETURNDATACOPY RETURNDATASIZE PUSH1 0x0 REVERT JUMPDEST PUSH1 0x60 PUSH2 0xC96 DUP3 PUSH2 0x3E20 JUMP JUMPDEST PUSH1 0x0 DUP1 JUMPDEST PUSH1 0xCB SLOAD PUSH2 0xFFFF DUP3 AND LT ISZERO PUSH2 0x2F19 JUMPI PUSH1 0x0 PUSH1 0xCB DUP3 PUSH2 0xFFFF AND DUP2 SLOAD DUP2 LT PUSH2 0x2EDD JUMPI PUSH2 0x2EDD PUSH2 0x4B3B JUMP JUMPDEST PUSH1 0x0 SWAP2 DUP3 MSTORE PUSH1 0x20 SWAP1 SWAP2 KECCAK256 ADD SLOAD PUSH1 0x1 PUSH1 0x1 PUSH1 0xA0 SHL SUB AND SWAP1 POP CALLER DUP2 SWAP1 SUB PUSH2 0x2F06 JUMPI PUSH1 0x1 SWAP3 POP POP PUSH2 0x2F19 JUMP JUMPDEST POP DUP1 PUSH2 0x2F11 DUP2 PUSH2 0x4B67 JUMP JUMPDEST SWAP2 POP POP PUSH2 0x2EB6 JUMP JUMPDEST POP PUSH1 0x1 SWAP1 POP PUSH2 0x2F27 DUP6 PUSH2 0x3A08 JUMP JUMPDEST ISZERO ISZERO PUSH1 0x1 EQ PUSH2 0x2F48 JUMPI PUSH1 0x40 MLOAD PUSH3 0x461BCD PUSH1 0xE5 SHL DUP2 MSTORE PUSH1 0x4 ADD PUSH2 0xDD7 SWAP1 PUSH2 0x4D3E JUMP JUMPDEST PUSH1 0x40 MLOAD PUSH4 0x70A08231 PUSH1 0xE0 SHL DUP2 MSTORE PUSH1 0x1 PUSH1 0x1 PUSH1 0xA0 SHL SUB DUP4 DUP2 AND PUSH1 0x4 DUP4 ADD MSTORE DUP5 SWAP2 SWAP1 DUP7 AND SWAP1 PUSH4 0x70A08231 SWAP1 PUSH1 0x24 ADD PUSH1 0x20 PUSH1 0x40 MLOAD DUP1 DUP4 SUB DUP2 DUP7 GAS STATICCALL ISZERO DUP1 ISZERO PUSH2 0x2F91 JUMPI RETURNDATASIZE PUSH1 0x0 DUP1 RETURNDATACOPY RETURNDATASIZE PUSH1 0x0 REVERT JUMPDEST POP POP POP POP PUSH1 0x40 MLOAD RETURNDATASIZE PUSH1 0x1F NOT PUSH1 0x1F DUP3 ADD AND DUP3 ADD DUP1 PUSH1 0x40 MSTORE POP DUP2 ADD SWAP1 PUSH2 0x2FB5 SWAP2 SWAP1 PUSH2 0x4D67 JUMP JUMPDEST LT ISZERO PUSH2 0x2FD3 JUMPI PUSH1 0x40 MLOAD PUSH3 0x461BCD PUSH1 0xE5 SHL DUP2 MSTORE PUSH1 0x4 ADD PUSH2 0xDD7 SWAP1 PUSH2 0x4B88 JUMP JUMPDEST PUSH1 0x0 DUP1 MSTORE PUSH1 0xD3 PUSH1 0x20 MSTORE PUSH1 0x0 DUP1 MLOAD PUSH1 0x20 PUSH2 0x4F36 DUP4 CODECOPY DUP2 MLOAD SWAP2 MSTORE SLOAD PUSH2 0x2FF7 SWAP1 CALLVALUE SWAP1 PUSH2 0x4BA8 JUMP JUMPDEST PUSH1 0x0 DUP1 MSTORE PUSH1 0xD3 PUSH1 0x20 MSTORE PUSH1 0x0 DUP1 MLOAD PUSH1 0x20 PUSH2 0x4F36 DUP4 CODECOPY DUP2 MLOAD SWAP2 MSTORE SSTORE PUSH1 0x40 MLOAD PUSH4 0x23B872DD PUSH1 0xE0 SHL DUP2 MSTORE PUSH1 0x1 PUSH1 0x1 PUSH1 0xA0 SHL SUB DUP4 DUP2 AND PUSH1 0x4 DUP4 ADD MSTORE ADDRESS PUSH1 0x24 DUP4 ADD MSTORE PUSH1 0x44 DUP3 ADD DUP6 SWAP1 MSTORE DUP6 AND SWAP1 PUSH4 0x23B872DD SWAP1 PUSH1 0x64 ADD PUSH1 0x20 PUSH1 0x40 MLOAD DUP1 DUP4 SUB DUP2 PUSH1 0x0 DUP8 GAS CALL ISZERO DUP1 ISZERO PUSH2 0x3065 JUMPI RETURNDATASIZE PUSH1 0x0 DUP1 RETURNDATACOPY RETURNDATASIZE PUSH1 0x0 REVERT JUMPDEST POP POP POP POP PUSH1 0x40 MLOAD RETURNDATASIZE PUSH1 0x1F NOT PUSH1 0x1F DUP3 ADD AND DUP3 ADD DUP1 PUSH1 0x40 MSTORE POP DUP2 ADD SWAP1 PUSH2 0x3089 SWAP2 SWAP1 PUSH2 0x4BE5 JUMP JUMPDEST POP PUSH1 0x0 DUP6 DUP2 MSTORE PUSH1 0xD4 PUSH1 0x20 SWAP1 DUP2 MSTORE PUSH1 0x40 DUP1 DUP4 KECCAK256 PUSH1 0x1 PUSH1 0x1 PUSH1 0xA0 SHL SUB DUP9 AND DUP5 MSTORE PUSH1 0x9 ADD SWAP1 SWAP2 MSTORE SWAP1 KECCAK256 SLOAD PUSH2 0x30BB SWAP1 DUP5 SWAP1 PUSH2 0x4BA8 JUMP JUMPDEST PUSH1 0x0 DUP7 DUP2 MSTORE PUSH1 0xD4 PUSH1 0x20 SWAP1 DUP2 MSTORE PUSH1 0x40 DUP1 DUP4 KECCAK256 PUSH1 0x1 PUSH1 0x1 PUSH1 0xA0 SHL SUB DUP10 AND DUP5 MSTORE PUSH1 0x9 ADD SWAP1 SWAP2 MSTORE SWAP1 KECCAK256 SSTORE PUSH2 0x103A DUP6 PUSH2 0x3A93 JUMP JUMPDEST PUSH1 0xCE SLOAD PUSH1 0x1 PUSH1 0x1 PUSH1 0xA0 SHL SUB AND CALLER EQ PUSH2 0x3101 JUMPI PUSH1 0x0 DUP1 REVERT JUMPDEST PUSH1 0x0 DUP1 DUP1 MSTORE PUSH1 0xD3 PUSH1 0x20 MSTORE PUSH1 0x0 DUP1 MLOAD PUSH1 0x20 PUSH2 0x4F36 DUP4 CODECOPY DUP2 MLOAD SWAP2 MSTORE SLOAD DUP3 GT ISZERO PUSH2 0x3158 JUMPI PUSH1 0x40 MLOAD PUSH3 0x461BCD PUSH1 0xE5 SHL DUP2 MSTORE PUSH1 0x20 PUSH1 0x4 DUP3 ADD MSTORE PUSH1 0xB PUSH1 0x24 DUP3 ADD MSTORE PUSH11 0x4E6F2062616C616E636573 PUSH1 0xA8 SHL PUSH1 0x44 DUP3 ADD MSTORE PUSH1 0x64 ADD PUSH2 0xDD7 JUMP JUMPDEST PUSH1 0x1 PUSH1 0x1 PUSH1 0xA0 SHL SUB DUP2 AND PUSH1 0x0 SWAP1 DUP2 MSTORE PUSH1 0xD3 PUSH1 0x20 MSTORE PUSH1 0x40 SWAP1 KECCAK256 SLOAD PUSH2 0x317C SWAP1 DUP4 SWAP1 PUSH2 0x4BBB JUMP JUMPDEST PUSH1 0x1 PUSH1 0x1 PUSH1 0xA0 SHL SUB DUP3 AND PUSH1 0x0 SWAP1 DUP2 MSTORE PUSH1 0xD3 PUSH1 0x20 MSTORE PUSH1 0x40 DUP1 DUP3 KECCAK256 SWAP3 SWAP1 SWAP3 SSTORE SWAP1 MLOAD CALLER SWAP2 DUP5 ISZERO PUSH2 0x8FC MUL SWAP2 DUP6 SWAP2 DUP2 DUP2 DUP2 DUP6 DUP9 DUP9 CALL SWAP4 POP POP POP POP ISZERO DUP1 ISZERO PUSH2 0xE78 JUMPI RETURNDATASIZE PUSH1 0x0 DUP1 RETURNDATACOPY RETURNDATASIZE PUSH1 0x0 REVERT JUMPDEST PUSH1 0x0 DUP2 DUP2 MSTORE PUSH1 0xD4 PUSH1 0x20 MSTORE PUSH1 0x40 DUP2 KECCAK256 PUSH1 0x5 ADD SLOAD TIMESTAMP GT ISZERO PUSH2 0x31E4 JUMPI POP PUSH1 0x1 SWAP2 SWAP1 POP JUMP JUMPDEST POP PUSH1 0x0 SWAP2 SWAP1 POP JUMP JUMPDEST PUSH1 0x0 DUP4 DUP2 MSTORE PUSH1 0xD4 PUSH1 0x20 MSTORE PUSH1 0x40 SWAP1 KECCAK256 PUSH1 0x1 ADD SLOAD PUSH1 0x1 PUSH1 0x1 PUSH1 0xA0 SHL SUB AND CALLER EQ DUP1 PUSH2 0x322A JUMPI POP PUSH1 0x0 DUP4 DUP2 MSTORE PUSH1 0xD4 PUSH1 0x20 MSTORE PUSH1 0x40 SWAP1 KECCAK256 SLOAD PUSH1 0x1 PUSH1 0x1 PUSH1 0xA0 SHL SUB AND CALLER EQ JUMPDEST PUSH2 0x3269 JUMPI PUSH1 0x40 MLOAD PUSH3 0x461BCD PUSH1 0xE5 SHL DUP2 MSTORE PUSH1 0x20 PUSH1 0x4 DUP3 ADD MSTORE PUSH1 0x10 PUSH1 0x24 DUP3 ADD MSTORE PUSH16 0x3737BA1037BBB732B91037B31034B21 PUSH1 0x85 SHL PUSH1 0x44 DUP3 ADD MSTORE PUSH1 0x64 ADD PUSH2 0xDD7 JUMP JUMPDEST PUSH1 0x0 DUP4 DUP2 MSTORE PUSH1 0xD4 PUSH1 0x20 SWAP1 DUP2 MSTORE PUSH1 0x40 DUP1 DUP4 KECCAK256 DUP6 DUP5 MSTORE PUSH1 0xA ADD SWAP1 SWAP2 MSTORE SWAP1 KECCAK256 PUSH1 0x2 ADD SLOAD PUSH1 0x1 PUSH1 0x1 PUSH1 0xA0 SHL SUB AND CALLER EQ DUP1 ISZERO PUSH2 0x32BD JUMPI POP PUSH1 0x0 DUP4 DUP2 MSTORE PUSH1 0xD4 PUSH1 0x20 SWAP1 DUP2 MSTORE PUSH1 0x40 DUP1 DUP4 KECCAK256 DUP6 DUP5 MSTORE PUSH1 0xA ADD SWAP1 SWAP2 MSTORE SWAP1 KECCAK256 SLOAD PUSH1 0xFF AND ISZERO JUMPDEST PUSH2 0x32D9 JUMPI PUSH1 0x40 MLOAD PUSH3 0x461BCD PUSH1 0xE5 SHL DUP2 MSTORE PUSH1 0x4 ADD PUSH2 0xDD7 SWAP1 PUSH2 0x4DA2 JUMP JUMPDEST PUSH1 0x0 DUP1 MSTORE PUSH1 0xD3 PUSH1 0x20 MSTORE PUSH1 0x0 DUP1 MLOAD PUSH1 0x20 PUSH2 0x4F36 DUP4 CODECOPY DUP2 MLOAD SWAP2 MSTORE SLOAD PUSH2 0x32FD SWAP1 CALLVALUE SWAP1 PUSH2 0x4BA8 JUMP JUMPDEST PUSH1 0x0 DUP1 MSTORE PUSH1 0xD3 PUSH1 0x20 MSTORE PUSH1 0x0 DUP1 MLOAD PUSH1 0x20 PUSH2 0x4F36 DUP4 CODECOPY DUP2 MLOAD SWAP2 MSTORE SSTORE PUSH2 0x331F DUP4 PUSH2 0x3A93 JUMP JUMPDEST PUSH1 0x0 DUP4 DUP2 MSTORE PUSH1 0xD5 PUSH1 0x20 MSTORE PUSH1 0x40 DUP2 KECCAK256 DUP4 SWAP1 SSTORE JUMPDEST PUSH1 0x0 DUP5 DUP2 MSTORE PUSH1 0xD5 PUSH1 0x20 MSTORE PUSH1 0x40 SWAP1 KECCAK256 PUSH1 0x2 ADD SLOAD DUP2 LT ISZERO PUSH2 0x3401 JUMPI PUSH1 0x0 DUP5 DUP2 MSTORE PUSH1 0xD5 PUSH1 0x20 MSTORE PUSH1 0x40 DUP2 KECCAK256 PUSH1 0x3 ADD DUP1 SLOAD DUP4 SWAP1 DUP2 LT PUSH2 0x336D JUMPI PUSH2 0x336D PUSH2 0x4B3B JUMP JUMPDEST PUSH1 0x0 SWAP2 DUP3 MSTORE PUSH1 0x20 SWAP1 SWAP2 KECCAK256 ADD SLOAD PUSH1 0x1 PUSH1 0x1 PUSH1 0xA0 SHL SUB SWAP1 DUP2 AND SWAP2 POP DUP4 AND DUP2 SUB PUSH2 0x33EE JUMPI PUSH1 0x0 DUP6 DUP2 MSTORE PUSH1 0xD5 PUSH1 0x20 MSTORE PUSH1 0x40 SWAP1 KECCAK256 PUSH1 0x3 ADD DUP1 SLOAD DUP4 SWAP1 DUP2 LT PUSH2 0x33B1 JUMPI PUSH2 0x33B1 PUSH2 0x4B3B JUMP JUMPDEST PUSH1 0x0 SWAP2 DUP3 MSTORE PUSH1 0x20 DUP1 DUP4 KECCAK256 SWAP1 SWAP2 ADD DUP1 SLOAD PUSH1 0x1 PUSH1 0x1 PUSH1 0xA0 SHL SUB NOT AND SWAP1 SSTORE DUP7 DUP3 MSTORE PUSH1 0xD5 SWAP1 MSTORE PUSH1 0x40 SWAP1 KECCAK256 PUSH1 0x1 SWAP1 DUP2 ADD SLOAD PUSH2 0x33E7 SWAP2 SWAP1 PUSH2 0x4BBB JUMP JUMPDEST POP POP PUSH2 0x3401 JUMP JUMPDEST POP DUP1 PUSH2 0x33F9 DUP2 PUSH2 0x4C1F JUMP JUMPDEST SWAP2 POP POP PUSH2 0x3331 JUMP JUMPDEST POP PUSH1 0x0 DUP4 DUP2 MSTORE PUSH1 0xD5 PUSH1 0x20 MSTORE PUSH1 0x40 SWAP1 KECCAK256 PUSH1 0x1 SWAP1 DUP2 ADD SLOAD PUSH2 0x3420 SWAP2 SWAP1 PUSH2 0x4BBB JUMP JUMPDEST POP POP POP POP JUMP JUMPDEST PUSH1 0xCE SLOAD PUSH1 0x1 PUSH1 0x1 PUSH1 0xA0 SHL SUB AND CALLER EQ PUSH2 0x343D JUMPI PUSH1 0x0 DUP1 REVERT JUMPDEST PUSH1 0xCB DUP2 PUSH2 0xFFFF AND DUP2 SLOAD DUP2 LT PUSH2 0x3454 JUMPI PUSH2 0x3454 PUSH2 0x4B3B JUMP JUMPDEST PUSH1 0x0 SWAP2 DUP3 MSTORE PUSH1 0x20 SWAP1 SWAP2 KECCAK256 ADD SLOAD PUSH1 0x1 PUSH1 0x1 PUSH1 0xA0 SHL SUB DUP4 DUP2 AND SWAP2 AND EQ PUSH2 0x34A5 JUMPI PUSH1 0x40 MLOAD PUSH3 0x461BCD PUSH1 0xE5 SHL DUP2 MSTORE PUSH1 0x20 PUSH1 0x4 DUP3 ADD MSTORE PUSH1 0x8 PUSH1 0x24 DUP3 ADD MSTORE PUSH8 0xDAD2E6DAC2E8C6D PUSH1 0xC3 SHL PUSH1 0x44 DUP3 ADD MSTORE PUSH1 0x64 ADD PUSH2 0xDD7 JUMP JUMPDEST PUSH1 0xCB DUP2 PUSH2 0xFFFF AND DUP2 SLOAD DUP2 LT PUSH2 0x34BC JUMPI PUSH2 0x34BC PUSH2 0x4B3B JUMP JUMPDEST PUSH1 0x0 SWAP2 DUP3 MSTORE PUSH1 0x20 SWAP1 SWAP2 KECCAK256 ADD DUP1 SLOAD PUSH1 0x1 PUSH1 0x1 PUSH1 0xA0 SHL SUB NOT AND SWAP1 SSTORE POP POP JUMP JUMPDEST PUSH1 0x0 DUP1 JUMPDEST PUSH1 0xCB SLOAD PUSH2 0xFFFF DUP3 AND LT ISZERO PUSH2 0x3540 JUMPI PUSH1 0x0 PUSH1 0xCB DUP3 PUSH2 0xFFFF AND DUP2 SLOAD DUP2 LT PUSH2 0x3504 JUMPI PUSH2 0x3504 PUSH2 0x4B3B JUMP JUMPDEST PUSH1 0x0 SWAP2 DUP3 MSTORE PUSH1 0x20 SWAP1 SWAP2 KECCAK256 ADD SLOAD PUSH1 0x1 PUSH1 0x1 PUSH1 0xA0 SHL SUB AND SWAP1 POP CALLER DUP2 SWAP1 SUB PUSH2 0x352D JUMPI PUSH1 0x1 SWAP3 POP POP PUSH2 0x3540 JUMP JUMPDEST POP DUP1 PUSH2 0x3538 DUP2 PUSH2 0x4B67 JUMP JUMPDEST SWAP2 POP POP PUSH2 0x34DD JUMP JUMPDEST POP PUSH1 0x1 SWAP1 POP PUSH1 0x0 DUP6 DUP2 MSTORE PUSH1 0xD4 PUSH1 0x20 SWAP1 DUP2 MSTORE PUSH1 0x40 DUP1 DUP4 KECCAK256 DUP8 DUP5 MSTORE PUSH1 0xA ADD SWAP1 SWAP2 MSTORE SWAP1 KECCAK256 PUSH1 0x2 ADD SLOAD PUSH1 0x1 PUSH1 0x1 PUSH1 0xA0 SHL SUB DUP4 DUP2 AND SWAP2 AND EQ PUSH2 0x357C JUMPI PUSH1 0x0 DUP1 REVERT JUMPDEST PUSH1 0x0 DUP6 DUP2 MSTORE PUSH1 0xD5 PUSH1 0x20 MSTORE PUSH1 0x40 SWAP1 KECCAK256 PUSH1 0x2 ADD SLOAD PUSH2 0x3599 SWAP1 DUP5 SWAP1 PUSH2 0x4BA8 JUMP JUMPDEST PUSH1 0x0 SWAP6 DUP7 MSTORE PUSH1 0xD5 PUSH1 0x20 MSTORE PUSH1 0x40 SWAP1 SWAP6 KECCAK256 PUSH1 0x2 ADD SWAP5 SWAP1 SWAP5 SSTORE POP POP POP POP JUMP JUMPDEST PUSH1 0x0 DUP1 JUMPDEST PUSH1 0xCB SLOAD PUSH2 0xFFFF DUP3 AND LT ISZERO PUSH2 0x361C JUMPI PUSH1 0x0 PUSH1 0xCB DUP3 PUSH2 0xFFFF AND DUP2 SLOAD DUP2 LT PUSH2 0x35E0 JUMPI PUSH2 0x35E0 PUSH2 0x4B3B JUMP JUMPDEST PUSH1 0x0 SWAP2 DUP3 MSTORE PUSH1 0x20 SWAP1 SWAP2 KECCAK256 ADD SLOAD PUSH1 0x1 PUSH1 0x1 PUSH1 0xA0 SHL SUB AND SWAP1 POP CALLER DUP2 SWAP1 SUB PUSH2 0x3609 JUMPI PUSH1 0x1 SWAP3 POP POP PUSH2 0x361C JUMP JUMPDEST POP DUP1 PUSH2 0x3614 DUP2 PUSH2 0x4B67 JUMP JUMPDEST SWAP2 POP POP PUSH2 0x35B9 JUMP JUMPDEST POP PUSH1 0x1 SWAP1 POP PUSH1 0x0 DUP5 DUP2 MSTORE PUSH1 0xD4 PUSH1 0x20 DUP2 DUP2 MSTORE PUSH1 0x40 DUP1 DUP5 KECCAK256 DUP8 DUP6 MSTORE PUSH1 0xA DUP2 ADD DUP4 MSTORE SWAP1 DUP5 KECCAK256 SWAP4 DUP9 SWAP1 MSTORE SWAP2 SWAP1 MSTORE PUSH1 0x6 ADD SLOAD DUP5 GT DUP1 ISZERO SWAP1 PUSH2 0x3668 JUMPI POP PUSH1 0x0 DUP6 DUP2 MSTORE PUSH1 0xD4 PUSH1 0x20 MSTORE PUSH1 0x40 SWAP1 KECCAK256 PUSH1 0x5 ADD SLOAD TIMESTAMP LT JUMPDEST PUSH2 0x36A2 JUMPI PUSH1 0x40 MLOAD PUSH3 0x461BCD PUSH1 0xE5 SHL DUP2 MSTORE PUSH1 0x20 PUSH1 0x4 DUP3 ADD MSTORE PUSH1 0xB PUSH1 0x24 DUP3 ADD MSTORE PUSH11 0x1CDB1BDD08195E18D95959 PUSH1 0xAA SHL PUSH1 0x44 DUP3 ADD MSTORE PUSH1 0x64 ADD PUSH2 0xDD7 JUMP JUMPDEST PUSH1 0x2 DUP2 ADD SLOAD PUSH1 0x1 PUSH1 0x1 PUSH1 0xA0 SHL SUB DUP5 DUP2 AND SWAP2 AND EQ DUP1 ISZERO PUSH2 0x36DD JUMPI POP PUSH1 0x0 DUP6 DUP2 MSTORE PUSH1 0xD4 PUSH1 0x20 MSTORE PUSH1 0x40 SWAP1 KECCAK256 PUSH1 0x1 ADD SLOAD PUSH1 0x1 PUSH1 0x1 PUSH1 0xA0 SHL SUB DUP5 DUP2 AND SWAP2 AND EQ JUMPDEST PUSH2 0x3729 JUMPI PUSH1 0x40 MLOAD PUSH3 0x461BCD PUSH1 0xE5 SHL DUP2 MSTORE PUSH1 0x20 PUSH1 0x4 DUP3 ADD MSTORE PUSH1 0x17 PUSH1 0x24 DUP3 ADD MSTORE PUSH32 0x646964206E6F742073746F7265206461746120736C6F74000000000000000000 PUSH1 0x44 DUP3 ADD MSTORE PUSH1 0x64 ADD PUSH2 0xDD7 JUMP JUMPDEST PUSH1 0x0 DUP1 MSTORE PUSH1 0xD3 PUSH1 0x20 MSTORE PUSH1 0x0 DUP1 MLOAD PUSH1 0x20 PUSH2 0x4F36 DUP4 CODECOPY DUP2 MLOAD SWAP2 MSTORE SLOAD PUSH2 0x374D SWAP1 CALLVALUE SWAP1 PUSH2 0x4BA8 JUMP JUMPDEST PUSH1 0x0 DUP1 MSTORE PUSH1 0xD3 PUSH1 0x20 MSTORE PUSH1 0x0 DUP1 MLOAD PUSH1 0x20 PUSH2 0x4F36 DUP4 CODECOPY DUP2 MLOAD SWAP2 MSTORE SSTORE PUSH2 0x376F DUP6 PUSH2 0x3A93 JUMP JUMPDEST DUP1 SLOAD PUSH1 0xFF NOT AND PUSH1 0x1 OR SWAP1 SSTORE POP POP POP POP JUMP JUMPDEST PUSH2 0x3789 DUP3 PUSH2 0x3A08 JUMP JUMPDEST ISZERO ISZERO PUSH1 0x1 EQ PUSH2 0x3797 JUMPI PUSH1 0x0 DUP1 REVERT JUMPDEST DUP1 CALLVALUE LT ISZERO PUSH2 0x37A4 JUMPI PUSH1 0x0 DUP1 REVERT JUMPDEST PUSH2 0x37AE DUP2 CALLVALUE PUSH2 0x4BBB JUMP JUMPDEST PUSH1 0x0 DUP1 MSTORE PUSH1 0xD3 PUSH1 0x20 MSTORE PUSH1 0x0 DUP1 MLOAD PUSH1 0x20 PUSH2 0x4F36 DUP4 CODECOPY DUP2 MLOAD SWAP2 MSTORE SLOAD PUSH2 0x37D1 SWAP2 SWAP1 PUSH2 0x4BA8 JUMP JUMPDEST PUSH1 0x0 DUP1 MLOAD PUSH1 0x20 PUSH2 0x4F36 DUP4 CODECOPY DUP2 MLOAD SWAP2 MSTORE SSTORE PUSH1 0x0 DUP3 DUP2 MSTORE PUSH1 0xD4 PUSH1 0x20 SWAP1 DUP2 MSTORE PUSH1 0x40 DUP1 DUP4 KECCAK256 DUP4 DUP1 MSTORE PUSH1 0x9 ADD SWAP1 SWAP2 MSTORE SWAP1 KECCAK256 SLOAD PUSH2 0x3809 SWAP1 DUP3 SWAP1 PUSH2 0x4BA8 JUMP JUMPDEST PUSH1 0x0 DUP4 DUP2 MSTORE PUSH1 0xD4 PUSH1 0x20 SWAP1 DUP2 MSTORE PUSH1 0x40 DUP1 DUP4 KECCAK256 DUP4 DUP1 MSTORE PUSH1 0x9 ADD SWAP1 SWAP2 MSTORE SWAP1 KECCAK256 SSTORE PUSH2 0x28B0 DUP3 PUSH2 0x3A93 JUMP JUMPDEST PUSH1 0xCE SLOAD PUSH1 0x1 PUSH1 0x1 PUSH1 0xA0 SHL SUB AND CALLER EQ PUSH2 0x3846 JUMPI PUSH1 0x0 DUP1 REVERT JUMPDEST PUSH1 0xD1 SSTORE JUMP JUMPDEST PUSH1 0xCE SLOAD PUSH1 0x1 PUSH1 0x1 PUSH1 0xA0 SHL SUB AND CALLER EQ PUSH2 0x3862 JUMPI PUSH1 0x0 DUP1 REVERT JUMPDEST PUSH1 0xCE DUP1 SLOAD PUSH1 0x1 PUSH1 0x1 PUSH1 0xA0 SHL SUB NOT AND PUSH1 0x1 PUSH1 0x1 PUSH1 0xA0 SHL SUB SWAP3 SWAP1 SWAP3 AND SWAP2 SWAP1 SWAP2 OR SWAP1 SSTORE JUMP JUMPDEST PUSH1 0x0 DUP1 JUMPDEST PUSH1 0xCB SLOAD PUSH2 0xFFFF DUP3 AND LT ISZERO PUSH2 0x38EB JUMPI PUSH1 0x0 PUSH1 0xCB DUP3 PUSH2 0xFFFF AND DUP2 SLOAD DUP2 LT PUSH2 0x38AF JUMPI PUSH2 0x38AF PUSH2 0x4B3B JUMP JUMPDEST PUSH1 0x0 SWAP2 DUP3 MSTORE PUSH1 0x20 SWAP1 SWAP2 KECCAK256 ADD SLOAD PUSH1 0x1 PUSH1 0x1 PUSH1 0xA0 SHL SUB AND SWAP1 POP CALLER DUP2 SWAP1 SUB PUSH2 0x38D8 JUMPI PUSH1 0x1 SWAP3 POP POP PUSH2 0x38EB JUMP JUMPDEST POP DUP1 PUSH2 0x38E3 DUP2 PUSH2 0x4B67 JUMP JUMPDEST SWAP2 POP POP PUSH2 0x3888 JUMP JUMPDEST POP POP PUSH1 0x0 SWAP2 DUP3 MSTORE PUSH1 0xD4 PUSH1 0x20 MSTORE PUSH1 0x40 SWAP1 SWAP2 KECCAK256 PUSH1 0x1 ADD DUP1 SLOAD PUSH2 0xFFFF SWAP1 SWAP3 AND PUSH1 0x1 PUSH1 0xB0 SHL MUL PUSH2 0xFFFF PUSH1 0xB0 SHL NOT SWAP1 SWAP3 AND SWAP2 SWAP1 SWAP2 OR SWAP1 SSTORE JUMP JUMPDEST PUSH1 0x0 DUP1 JUMPDEST PUSH1 0xCB SLOAD PUSH2 0xFFFF DUP3 AND LT ISZERO PUSH2 0x3986 JUMPI PUSH1 0x0 PUSH1 0xCB DUP3 PUSH2 0xFFFF AND DUP2 SLOAD DUP2 LT PUSH2 0x394A JUMPI PUSH2 0x394A PUSH2 0x4B3B JUMP JUMPDEST PUSH1 0x0 SWAP2 DUP3 MSTORE PUSH1 0x20 SWAP1 SWAP2 KECCAK256 ADD SLOAD PUSH1 0x1 PUSH1 0x1 PUSH1 0xA0 SHL SUB AND SWAP1 POP CALLER DUP2 SWAP1 SUB PUSH2 0x3973 JUMPI PUSH1 0x1 SWAP3 POP POP PUSH2 0x3986 JUMP JUMPDEST POP DUP1 PUSH2 0x397E DUP2 PUSH2 0x4B67 JUMP JUMPDEST SWAP2 POP POP PUSH2 0x3923 JUMP JUMPDEST POP PUSH1 0x1 SWAP1 POP PUSH1 0xD6 SLOAD DUP3 LT PUSH2 0x39AC JUMPI PUSH1 0x40 MLOAD PUSH3 0x461BCD PUSH1 0xE5 SHL DUP2 MSTORE PUSH1 0x4 ADD PUSH2 0xDD7 SWAP1 PUSH2 0x4D3E JUMP JUMPDEST PUSH1 0x0 DUP3 DUP2 MSTORE PUSH1 0xD4 PUSH1 0x20 MSTORE PUSH1 0x40 SWAP1 KECCAK256 PUSH1 0x7 ADD SLOAD PUSH2 0x39C9 SWAP1 DUP5 SWAP1 PUSH2 0x4BA8 JUMP JUMPDEST PUSH1 0x0 SWAP3 DUP4 MSTORE PUSH1 0xD4 PUSH1 0x20 MSTORE PUSH1 0x40 SWAP1 SWAP3 KECCAK256 PUSH1 0x7 ADD SWAP2 SWAP1 SWAP2 SSTORE POP POP JUMP JUMPDEST PUSH1 0x0 PUSH1 0x1 PUSH1 0x1 PUSH1 0xE0 SHL SUB NOT DUP3 AND PUSH4 0x780E9D63 PUSH1 0xE0 SHL EQ DUP1 PUSH2 0xC96 JUMPI POP PUSH2 0xC96 DUP3 PUSH2 0x3EC2 JUMP JUMPDEST PUSH1 0x0 SWAP1 DUP2 MSTORE PUSH1 0x68 PUSH1 0x20 MSTORE PUSH1 0x40 SWAP1 KECCAK256 SLOAD PUSH1 0x1 PUSH1 0x1 PUSH1 0xA0 SHL SUB AND ISZERO ISZERO SWAP1 JUMP JUMPDEST PUSH1 0x0 DUP2 DUP2 MSTORE PUSH1 0x6A PUSH1 0x20 MSTORE PUSH1 0x40 SWAP1 KECCAK256 DUP1 SLOAD PUSH1 0x1 PUSH1 0x1 PUSH1 0xA0 SHL SUB NOT AND PUSH1 0x1 PUSH1 0x1 PUSH1 0xA0 SHL SUB DUP5 AND SWAP1 DUP2 OR SWAP1 SWAP2 SSTORE DUP2 SWAP1 PUSH2 0x3A5A DUP3 PUSH2 0x1D12 JUMP JUMPDEST PUSH1 0x1 PUSH1 0x1 PUSH1 0xA0 SHL SUB AND PUSH32 0x8C5BE1E5EBEC7D5BD14F71427D1E84F3DD0314C0F7B2291E5B200AC8C7C3B925 PUSH1 0x40 MLOAD PUSH1 0x40 MLOAD DUP1 SWAP2 SUB SWAP1 LOG4 POP POP JUMP JUMPDEST PUSH1 0xD1 SLOAD PUSH1 0x0 DUP3 DUP2 MSTORE PUSH1 0xD4 PUSH1 0x20 MSTORE PUSH1 0x40 SWAP1 KECCAK256 PUSH1 0x8 ADD SLOAD PUSH2 0x3AB2 SWAP2 SWAP1 PUSH2 0x4BA8 JUMP JUMPDEST PUSH1 0x0 SWAP2 DUP3 MSTORE PUSH1 0xD4 PUSH1 0x20 MSTORE PUSH1 0x40 SWAP1 SWAP2 KECCAK256 PUSH1 0x8 ADD SSTORE JUMP JUMPDEST PUSH1 0x0 DUP1 PUSH2 0x3AD3 DUP4 PUSH2 0x1D12 JUMP JUMPDEST SWAP1 POP DUP1 PUSH1 0x1 PUSH1 0x1 PUSH1 0xA0 SHL SUB AND DUP5 PUSH1 0x1 PUSH1 0x1 PUSH1 0xA0 SHL SUB AND EQ DUP1 PUSH2 0x3B1A JUMPI POP PUSH1 0x1 PUSH1 0x1 PUSH1 0xA0 SHL SUB DUP1 DUP3 AND PUSH1 0x0 SWAP1 DUP2 MSTORE PUSH1 0x6B PUSH1 0x20 SWAP1 DUP2 MSTORE PUSH1 0x40 DUP1 DUP4 KECCAK256 SWAP4 DUP9 AND DUP4 MSTORE SWAP3 SWAP1 MSTORE KECCAK256 SLOAD PUSH1 0xFF AND JUMPDEST DUP1 PUSH2 0x3B3E JUMPI POP DUP4 PUSH1 0x1 PUSH1 0x1 PUSH1 0xA0 SHL SUB AND PUSH2 0x3B33 DUP5 PUSH2 0xD2E JUMP JUMPDEST PUSH1 0x1 PUSH1 0x1 PUSH1 0xA0 SHL SUB AND EQ JUMPDEST SWAP5 SWAP4 POP POP POP POP JUMP JUMPDEST DUP3 PUSH1 0x1 PUSH1 0x1 PUSH1 0xA0 SHL SUB AND PUSH2 0x3B59 DUP3 PUSH2 0x1D12 JUMP JUMPDEST PUSH1 0x1 PUSH1 0x1 PUSH1 0xA0 SHL SUB AND EQ PUSH2 0x3B7F JUMPI PUSH1 0x40 MLOAD PUSH3 0x461BCD PUSH1 0xE5 SHL DUP2 MSTORE PUSH1 0x4 ADD PUSH2 0xDD7 SWAP1 PUSH2 0x4DE3 JUMP JUMPDEST PUSH1 0x1 PUSH1 0x1 PUSH1 0xA0 SHL SUB DUP3 AND PUSH2 0x3BE1 JUMPI PUSH1 0x40 MLOAD PUSH3 0x461BCD PUSH1 0xE5 SHL DUP2 MSTORE PUSH1 0x20 PUSH1 0x4 DUP3 ADD MSTORE PUSH1 0x24 DUP1 DUP3 ADD MSTORE PUSH32 0x4552433732313A207472616E7366657220746F20746865207A65726F20616464 PUSH1 0x44 DUP3 ADD MSTORE PUSH4 0x72657373 PUSH1 0xE0 SHL PUSH1 0x64 DUP3 ADD MSTORE PUSH1 0x84 ADD PUSH2 0xDD7 JUMP JUMPDEST PUSH2 0x3BEE DUP4 DUP4 DUP4 PUSH1 0x1 PUSH2 0x3F12 JUMP JUMPDEST DUP3 PUSH1 0x1 PUSH1 0x1 PUSH1 0xA0 SHL SUB AND PUSH2 0x3C01 DUP3 PUSH2 0x1D12 JUMP JUMPDEST PUSH1 0x1 PUSH1 0x1 PUSH1 0xA0 SHL SUB AND EQ PUSH2 0x3C27 JUMPI PUSH1 0x40 MLOAD PUSH3 0x461BCD PUSH1 0xE5 SHL DUP2 MSTORE PUSH1 0x4 ADD PUSH2 0xDD7 SWAP1 PUSH2 0x4DE3 JUMP JUMPDEST PUSH1 0x0 DUP2 DUP2 MSTORE PUSH1 0x6A PUSH1 0x20 SWAP1 DUP2 MSTORE PUSH1 0x40 DUP1 DUP4 KECCAK256 DUP1 SLOAD PUSH1 0x1 PUSH1 0x1 PUSH1 0xA0 SHL SUB NOT SWAP1 DUP2 AND SWAP1 SWAP2 SSTORE PUSH1 0x1 PUSH1 0x1 PUSH1 0xA0 SHL SUB DUP8 DUP2 AND DUP1 DUP7 MSTORE PUSH1 0x69 DUP6 MSTORE DUP4 DUP7 KECCAK256 DUP1 SLOAD PUSH1 0x0 NOT ADD SWAP1 SSTORE SWAP1 DUP8 AND DUP1 DUP7 MSTORE DUP4 DUP7 KECCAK256 DUP1 SLOAD PUSH1 0x1 ADD SWAP1 SSTORE DUP7 DUP7 MSTORE PUSH1 0x68 SWAP1 SWAP5 MSTORE DUP3 DUP6 KECCAK256 DUP1 SLOAD SWAP1 SWAP3 AND DUP5 OR SWAP1 SWAP2 SSTORE SWAP1 MLOAD DUP5 SWAP4 PUSH32 0xDDF252AD1BE2C89B69C2B068FC378DAA952BA7F163C4A11628F55A4DF523B3EF SWAP2 LOG4 POP POP POP JUMP JUMPDEST PUSH2 0x28B0 DUP3 DUP3 PUSH1 0x40 MLOAD DUP1 PUSH1 0x20 ADD PUSH1 0x40 MSTORE DUP1 PUSH1 0x0 DUP2 MSTORE POP PUSH2 0x3F51 JUMP JUMPDEST PUSH1 0x0 SLOAD PUSH2 0x100 SWAP1 DIV PUSH1 0xFF AND PUSH2 0x3CF8 JUMPI PUSH1 0x40 MLOAD PUSH3 0x461BCD PUSH1 0xE5 SHL DUP2 MSTORE PUSH1 0x4 ADD PUSH2 0xDD7 SWAP1 PUSH2 0x4E28 JUMP JUMPDEST PUSH1 0x65 PUSH2 0x3D04 DUP4 DUP3 PUSH2 0x4C7E JUMP JUMPDEST POP PUSH1 0x66 PUSH2 0xE78 DUP3 DUP3 PUSH2 0x4C7E JUMP JUMPDEST PUSH1 0x0 SLOAD PUSH2 0x100 SWAP1 DIV PUSH1 0xFF AND PUSH2 0x3D38 JUMPI PUSH1 0x40 MLOAD PUSH3 0x461BCD PUSH1 0xE5 SHL DUP2 MSTORE PUSH1 0x4 ADD PUSH2 0xDD7 SWAP1 PUSH2 0x4E28 JUMP JUMPDEST JUMP JUMPDEST PUSH1 0x0 DUP3 DUP2 MSTORE PUSH1 0x67 PUSH1 0x20 MSTORE PUSH1 0x40 SWAP1 KECCAK256 PUSH2 0xE78 DUP3 DUP3 PUSH2 0x4C7E JUMP JUMPDEST DUP2 PUSH1 0x1 PUSH1 0x1 PUSH1 0xA0 SHL SUB AND DUP4 PUSH1 0x1 PUSH1 0x1 PUSH1 0xA0 SHL SUB AND SUB PUSH2 0x3DB3 JUMPI PUSH1 0x40 MLOAD PUSH3 0x461BCD PUSH1 0xE5 SHL DUP2 MSTORE PUSH1 0x20 PUSH1 0x4 DUP3 ADD MSTORE PUSH1 0x19 PUSH1 0x24 DUP3 ADD MSTORE PUSH32 0x4552433732313A20617070726F766520746F2063616C6C657200000000000000 PUSH1 0x44 DUP3 ADD MSTORE PUSH1 0x64 ADD PUSH2 0xDD7 JUMP JUMPDEST PUSH1 0x1 PUSH1 0x1 PUSH1 0xA0 SHL SUB DUP4 DUP2 AND PUSH1 0x0 DUP2 DUP2 MSTORE PUSH1 0x6B PUSH1 0x20 SWAP1 DUP2 MSTORE PUSH1 0x40 DUP1 DUP4 KECCAK256 SWAP5 DUP8 AND DUP1 DUP5 MSTORE SWAP5 DUP3 MSTORE SWAP2 DUP3 SWAP1 KECCAK256 DUP1 SLOAD PUSH1 0xFF NOT AND DUP7 ISZERO ISZERO SWAP1 DUP2 OR SWAP1 SWAP2 SSTORE SWAP2 MLOAD SWAP2 DUP3 MSTORE PUSH32 0x17307EAB39AB6107E8899845AD3D59BD9653F200F220920489CA2B5937696C31 SWAP2 ADD PUSH1 0x40 MLOAD DUP1 SWAP2 SUB SWAP1 LOG3 POP POP POP JUMP JUMPDEST PUSH1 0x0 DUP2 DUP2 MSTORE PUSH1 0x67 PUSH1 0x20 MSTORE PUSH1 0x40 SWAP1 KECCAK256 DUP1 SLOAD PUSH1 0x60 SWAP2 SWAP1 PUSH2 0x3E3D SWAP1 PUSH2 0x4B01 JUMP JUMPDEST DUP1 PUSH1 0x1F ADD PUSH1 0x20 DUP1 SWAP2 DIV MUL PUSH1 0x20 ADD PUSH1 0x40 MLOAD SWAP1 DUP2 ADD PUSH1 0x40 MSTORE DUP1 SWAP3 SWAP2 SWAP1 DUP2 DUP2 MSTORE PUSH1 0x20 ADD DUP3 DUP1 SLOAD PUSH2 0x3E69 SWAP1 PUSH2 0x4B01 JUMP JUMPDEST DUP1 ISZERO PUSH2 0x3EB6 JUMPI DUP1 PUSH1 0x1F LT PUSH2 0x3E8B JUMPI PUSH2 0x100 DUP1 DUP4 SLOAD DIV MUL DUP4 MSTORE SWAP2 PUSH1 0x20 ADD SWAP2 PUSH2 0x3EB6 JUMP JUMPDEST DUP3 ADD SWAP2 SWAP1 PUSH1 0x0 MSTORE PUSH1 0x20 PUSH1 0x0 KECCAK256 SWAP1 JUMPDEST DUP2 SLOAD DUP2 MSTORE SWAP1 PUSH1 0x1 ADD SWAP1 PUSH1 0x20 ADD DUP1 DUP4 GT PUSH2 0x3E99 JUMPI DUP3 SWAP1 SUB PUSH1 0x1F AND DUP3 ADD SWAP2 JUMPDEST POP POP POP POP POP SWAP1 POP SWAP2 SWAP1 POP JUMP JUMPDEST PUSH1 0x0 PUSH1 0x1 PUSH1 0x1 PUSH1 0xE0 SHL SUB NOT DUP3 AND PUSH4 0x7AA5391D PUSH1 0xE0 SHL EQ DUP1 PUSH2 0x3EF3 JUMPI POP PUSH1 0x1 PUSH1 0x1 PUSH1 0xE0 SHL SUB NOT DUP3 AND PUSH4 0x5B5E139F PUSH1 0xE0 SHL EQ JUMPDEST DUP1 PUSH2 0xC96 JUMPI POP PUSH4 0x1FFC9A7 PUSH1 0xE0 SHL PUSH1 0x1 PUSH1 0x1 PUSH1 0xE0 SHL SUB NOT DUP4 AND EQ PUSH2 0xC96 JUMP JUMPDEST PUSH2 0x3F1E DUP5 DUP5 DUP5 DUP5 PUSH2 0x3F84 JUMP JUMPDEST POP PUSH1 0x0 SWAP1 DUP2 MSTORE PUSH1 0xD4 PUSH1 0x20 MSTORE PUSH1 0x40 SWAP1 KECCAK256 PUSH1 0x1 ADD DUP1 SLOAD PUSH1 0x1 PUSH1 0x1 PUSH1 0xA0 SHL SUB NOT AND PUSH1 0x1 PUSH1 0x1 PUSH1 0xA0 SHL SUB SWAP3 SWAP1 SWAP3 AND SWAP2 SWAP1 SWAP2 OR SWAP1 SSTORE POP JUMP JUMPDEST PUSH2 0x3F5B DUP4 DUP4 PUSH2 0x40B1 JUMP JUMPDEST PUSH2 0x3F68 PUSH1 0x0 DUP5 DUP5 DUP5 PUSH2 0x422C JUMP JUMPDEST PUSH2 0xE78 JUMPI PUSH1 0x40 MLOAD PUSH3 0x461BCD PUSH1 0xE5 SHL DUP2 MSTORE PUSH1 0x4 ADD PUSH2 0xDD7 SWAP1 PUSH2 0x4E73 JUMP JUMPDEST PUSH1 0x1 DUP2 GT ISZERO PUSH2 0x3FF3 JUMPI PUSH1 0x40 MLOAD PUSH3 0x461BCD PUSH1 0xE5 SHL DUP2 MSTORE PUSH1 0x20 PUSH1 0x4 DUP3 ADD MSTORE PUSH1 0x35 PUSH1 0x24 DUP3 ADD MSTORE PUSH32 0x455243373231456E756D657261626C653A20636F6E7365637574697665207472 PUSH1 0x44 DUP3 ADD MSTORE PUSH21 0x185B9CD9995C9CC81B9BDD081CDD5C1C1BDC9D1959 PUSH1 0x5A SHL PUSH1 0x64 DUP3 ADD MSTORE PUSH1 0x84 ADD PUSH2 0xDD7 JUMP JUMPDEST DUP2 PUSH1 0x1 PUSH1 0x1 PUSH1 0xA0 SHL SUB DUP6 AND PUSH2 0x404F JUMPI PUSH2 0x404A DUP2 PUSH1 0x9A DUP1 SLOAD PUSH1 0x0 DUP4 DUP2 MSTORE PUSH1 0x9B PUSH1 0x20 MSTORE PUSH1 0x40 DUP2 KECCAK256 DUP3 SWAP1 SSTORE PUSH1 0x1 DUP3 ADD DUP4 SSTORE SWAP2 SWAP1 SWAP2 MSTORE PUSH32 0x44DA158BA27F9252712A74FF6A55C5D531F69609F1F6E7F17C4443A8E2089BE4 ADD SSTORE JUMP JUMPDEST PUSH2 0x4072 JUMP JUMPDEST DUP4 PUSH1 0x1 PUSH1 0x1 PUSH1 0xA0 SHL SUB AND DUP6 PUSH1 0x1 PUSH1 0x1 PUSH1 0xA0 SHL SUB AND EQ PUSH2 0x4072 JUMPI PUSH2 0x4072 DUP6 DUP3 PUSH2 0x432D JUMP JUMPDEST PUSH1 0x1 PUSH1 0x1 PUSH1 0xA0 SHL SUB DUP5 AND PUSH2 0x408E JUMPI PUSH2 0x4089 DUP2 PUSH2 0x43CA JUMP JUMPDEST PUSH2 0x103A JUMP JUMPDEST DUP5 PUSH1 0x1 PUSH1 0x1 PUSH1 0xA0 SHL SUB AND DUP5 PUSH1 0x1 PUSH1 0x1 PUSH1 0xA0 SHL SUB AND EQ PUSH2 0x103A JUMPI PUSH2 0x103A DUP5 DUP3 PUSH2 0x4479 JUMP JUMPDEST PUSH1 0x1 PUSH1 0x1 PUSH1 0xA0 SHL SUB DUP3 AND PUSH2 0x4107 JUMPI PUSH1 0x40 MLOAD PUSH3 0x461BCD PUSH1 0xE5 SHL DUP2 MSTORE PUSH1 0x20 PUSH1 0x4 DUP3 ADD DUP2 SWAP1 MSTORE PUSH1 0x24 DUP3 ADD MSTORE PUSH32 0x4552433732313A206D696E7420746F20746865207A65726F2061646472657373 PUSH1 0x44 DUP3 ADD MSTORE PUSH1 0x64 ADD PUSH2 0xDD7 JUMP JUMPDEST PUSH2 0x4110 DUP2 PUSH2 0x3A08 JUMP JUMPDEST ISZERO PUSH2 0x415D JUMPI PUSH1 0x40 MLOAD PUSH3 0x461BCD PUSH1 0xE5 SHL DUP2 MSTORE PUSH1 0x20 PUSH1 0x4 DUP3 ADD MSTORE PUSH1 0x1C PUSH1 0x24 DUP3 ADD MSTORE PUSH32 0x4552433732313A20746F6B656E20616C7265616479206D696E74656400000000 PUSH1 0x44 DUP3 ADD MSTORE PUSH1 0x64 ADD PUSH2 0xDD7 JUMP JUMPDEST PUSH2 0x416B PUSH1 0x0 DUP4 DUP4 PUSH1 0x1 PUSH2 0x3F12 JUMP JUMPDEST PUSH2 0x4174 DUP2 PUSH2 0x3A08 JUMP JUMPDEST ISZERO PUSH2 0x41C1 JUMPI PUSH1 0x40 MLOAD PUSH3 0x461BCD PUSH1 0xE5 SHL DUP2 MSTORE PUSH1 0x20 PUSH1 0x4 DUP3 ADD MSTORE PUSH1 0x1C PUSH1 0x24 DUP3 ADD MSTORE PUSH32 0x4552433732313A20746F6B656E20616C7265616479206D696E74656400000000 PUSH1 0x44 DUP3 ADD MSTORE PUSH1 0x64 ADD PUSH2 0xDD7 JUMP JUMPDEST PUSH1 0x1 PUSH1 0x1 PUSH1 0xA0 SHL SUB DUP3 AND PUSH1 0x0 DUP2 DUP2 MSTORE PUSH1 0x69 PUSH1 0x20 SWAP1 DUP2 MSTORE PUSH1 0x40 DUP1 DUP4 KECCAK256 DUP1 SLOAD PUSH1 0x1 ADD SWAP1 SSTORE DUP5 DUP4 MSTORE PUSH1 0x68 SWAP1 SWAP2 MSTORE DUP1 DUP3 KECCAK256 DUP1 SLOAD PUSH1 0x1 PUSH1 0x1 PUSH1 0xA0 SHL SUB NOT AND DUP5 OR SWAP1 SSTORE MLOAD DUP4 SWAP3 SWAP2 SWAP1 PUSH32 0xDDF252AD1BE2C89B69C2B068FC378DAA952BA7F163C4A11628F55A4DF523B3EF SWAP1 DUP3 SWAP1 LOG4 POP POP JUMP JUMPDEST PUSH1 0x0 PUSH1 0x1 PUSH1 0x1 PUSH1 0xA0 SHL SUB DUP5 AND EXTCODESIZE ISZERO PUSH2 0x4322 JUMPI PUSH1 0x40 MLOAD PUSH4 0xA85BD01 PUSH1 0xE1 SHL DUP2 MSTORE PUSH1 0x1 PUSH1 0x1 PUSH1 0xA0 SHL SUB DUP6 AND SWAP1 PUSH4 0x150B7A02 SWAP1 PUSH2 0x4270 SWAP1 CALLER SWAP1 DUP10 SWAP1 DUP9 SWAP1 DUP9 SWAP1 PUSH1 0x4 ADD PUSH2 0x4EC5 JUMP JUMPDEST PUSH1 0x20 PUSH1 0x40 MLOAD DUP1 DUP4 SUB DUP2 PUSH1 0x0 DUP8 GAS CALL SWAP3 POP POP POP DUP1 ISZERO PUSH2 0x42AB JUMPI POP PUSH1 0x40 DUP1 MLOAD PUSH1 0x1F RETURNDATASIZE SWAP1 DUP2 ADD PUSH1 0x1F NOT AND DUP3 ADD SWAP1 SWAP3 MSTORE PUSH2 0x42A8 SWAP2 DUP2 ADD SWAP1 PUSH2 0x4F02 JUMP JUMPDEST PUSH1 0x1 JUMPDEST PUSH2 0x4308 JUMPI RETURNDATASIZE DUP1 DUP1 ISZERO PUSH2 0x42D9 JUMPI PUSH1 0x40 MLOAD SWAP2 POP PUSH1 0x1F NOT PUSH1 0x3F RETURNDATASIZE ADD AND DUP3 ADD PUSH1 0x40 MSTORE RETURNDATASIZE DUP3 MSTORE RETURNDATASIZE PUSH1 0x0 PUSH1 0x20 DUP5 ADD RETURNDATACOPY PUSH2 0x42DE JUMP JUMPDEST PUSH1 0x60 SWAP2 POP JUMPDEST POP DUP1 MLOAD PUSH1 0x0 SUB PUSH2 0x4300 JUMPI PUSH1 0x40 MLOAD PUSH3 0x461BCD PUSH1 0xE5 SHL DUP2 MSTORE PUSH1 0x4 ADD PUSH2 0xDD7 SWAP1 PUSH2 0x4E73 JUMP JUMPDEST DUP1 MLOAD DUP2 PUSH1 0x20 ADD REVERT JUMPDEST PUSH1 0x1 PUSH1 0x1 PUSH1 0xE0 SHL SUB NOT AND PUSH4 0xA85BD01 PUSH1 0xE1 SHL EQ SWAP1 POP PUSH2 0x3B3E JUMP JUMPDEST POP PUSH1 0x1 SWAP5 SWAP4 POP POP POP POP JUMP JUMPDEST PUSH1 0x0 PUSH1 0x1 PUSH2 0x433A DUP5 PUSH2 0x1D77 JUMP JUMPDEST PUSH2 0x4344 SWAP2 SWAP1 PUSH2 0x4BBB JUMP JUMPDEST PUSH1 0x0 DUP4 DUP2 MSTORE PUSH1 0x99 PUSH1 0x20 MSTORE PUSH1 0x40 SWAP1 KECCAK256 SLOAD SWAP1 SWAP2 POP DUP1 DUP3 EQ PUSH2 0x4397 JUMPI PUSH1 0x1 PUSH1 0x1 PUSH1 0xA0 SHL SUB DUP5 AND PUSH1 0x0 SWAP1 DUP2 MSTORE PUSH1 0x98 PUSH1 0x20 SWAP1 DUP2 MSTORE PUSH1 0x40 DUP1 DUP4 KECCAK256 DUP6 DUP5 MSTORE DUP3 MSTORE DUP1 DUP4 KECCAK256 SLOAD DUP5 DUP5 MSTORE DUP2 DUP5 KECCAK256 DUP2 SWAP1 SSTORE DUP4 MSTORE PUSH1 0x99 SWAP1 SWAP2 MSTORE SWAP1 KECCAK256 DUP2 SWAP1 SSTORE JUMPDEST POP PUSH1 0x0 SWAP2 DUP3 MSTORE PUSH1 0x99 PUSH1 0x20 SWAP1 DUP2 MSTORE PUSH1 0x40 DUP1 DUP5 KECCAK256 DUP5 SWAP1 SSTORE PUSH1 0x1 PUSH1 0x1 PUSH1 0xA0 SHL SUB SWAP1 SWAP5 AND DUP4 MSTORE PUSH1 0x98 DUP2 MSTORE DUP4 DUP4 KECCAK256 SWAP2 DUP4 MSTORE MSTORE SWAP1 DUP2 KECCAK256 SSTORE JUMP JUMPDEST PUSH1 0x9A SLOAD PUSH1 0x0 SWAP1 PUSH2 0x43DC SWAP1 PUSH1 0x1 SWAP1 PUSH2 0x4BBB JUMP JUMPDEST PUSH1 0x0 DUP4 DUP2 MSTORE PUSH1 0x9B PUSH1 0x20 MSTORE PUSH1 0x40 DUP2 KECCAK256 SLOAD PUSH1 0x9A DUP1 SLOAD SWAP4 SWAP5 POP SWAP1 SWAP3 DUP5 SWAP1 DUP2 LT PUSH2 0x4404 JUMPI PUSH2 0x4404 PUSH2 0x4B3B JUMP JUMPDEST SWAP1 PUSH1 0x0 MSTORE PUSH1 0x20 PUSH1 0x0 KECCAK256 ADD SLOAD SWAP1 POP DUP1 PUSH1 0x9A DUP4 DUP2 SLOAD DUP2 LT PUSH2 0x4425 JUMPI PUSH2 0x4425 PUSH2 0x4B3B JUMP JUMPDEST PUSH1 0x0 SWAP2 DUP3 MSTORE PUSH1 0x20 DUP1 DUP4 KECCAK256 SWAP1 SWAP2 ADD SWAP3 SWAP1 SWAP3 SSTORE DUP3 DUP2 MSTORE PUSH1 0x9B SWAP1 SWAP2 MSTORE PUSH1 0x40 DUP1 DUP3 KECCAK256 DUP5 SWAP1 SSTORE DUP6 DUP3 MSTORE DUP2 KECCAK256 SSTORE PUSH1 0x9A DUP1 SLOAD DUP1 PUSH2 0x445D JUMPI PUSH2 0x445D PUSH2 0x4F1F JUMP JUMPDEST PUSH1 0x1 SWAP1 SUB DUP2 DUP2 SWAP1 PUSH1 0x0 MSTORE PUSH1 0x20 PUSH1 0x0 KECCAK256 ADD PUSH1 0x0 SWAP1 SSTORE SWAP1 SSTORE POP POP POP POP JUMP JUMPDEST PUSH1 0x0 PUSH2 0x4484 DUP4 PUSH2 0x1D77 JUMP JUMPDEST PUSH1 0x1 PUSH1 0x1 PUSH1 0xA0 SHL SUB SWAP1 SWAP4 AND PUSH1 0x0 SWAP1 DUP2 MSTORE PUSH1 0x98 PUSH1 0x20 SWAP1 DUP2 MSTORE PUSH1 0x40 DUP1 DUP4 KECCAK256 DUP7 DUP5 MSTORE DUP3 MSTORE DUP1 DUP4 KECCAK256 DUP6 SWAP1 SSTORE SWAP4 DUP3 MSTORE PUSH1 0x99 SWAP1 MSTORE SWAP2 SWAP1 SWAP2 KECCAK256 SWAP2 SWAP1 SWAP2 SSTORE POP JUMP JUMPDEST PUSH1 0x0 PUSH1 0x20 DUP3 DUP5 SUB SLT ISZERO PUSH2 0x44CF JUMPI PUSH1 0x0 DUP1 REVERT JUMPDEST POP CALLDATALOAD SWAP2 SWAP1 POP JUMP JUMPDEST PUSH1 0x1 PUSH1 0x1 PUSH1 0xE0 SHL SUB NOT DUP2 AND DUP2 EQ PUSH2 0x44EC JUMPI PUSH1 0x0 DUP1 REVERT JUMPDEST POP JUMP JUMPDEST PUSH1 0x0 PUSH1 0x20 DUP3 DUP5 SUB SLT ISZERO PUSH2 0x4501 JUMPI PUSH1 0x0 DUP1 REVERT JUMPDEST DUP2 CALLDATALOAD PUSH2 0x450C DUP2 PUSH2 0x44D6 JUMP JUMPDEST SWAP4 SWAP3 POP POP POP JUMP JUMPDEST PUSH1 0x0 DUP2 MLOAD DUP1 DUP5 MSTORE PUSH1 0x0 JUMPDEST DUP2 DUP2 LT ISZERO PUSH2 0x4539 JUMPI PUSH1 0x20 DUP2 DUP6 ADD DUP2 ADD MLOAD DUP7 DUP4 ADD DUP3 ADD MSTORE ADD PUSH2 0x451D JUMP JUMPDEST POP PUSH1 0x0 PUSH1 0x20 DUP3 DUP7 ADD ADD MSTORE PUSH1 0x20 PUSH1 0x1F NOT PUSH1 0x1F DUP4 ADD AND DUP6 ADD ADD SWAP2 POP POP SWAP3 SWAP2 POP POP JUMP JUMPDEST PUSH1 0x20 DUP2 MSTORE PUSH1 0x0 PUSH2 0x450C PUSH1 0x20 DUP4 ADD DUP5 PUSH2 0x4513 JUMP JUMPDEST DUP1 CALLDATALOAD PUSH1 0x1 PUSH1 0x1 PUSH1 0xA0 SHL SUB DUP2 AND DUP2 EQ PUSH2 0x4583 JUMPI PUSH1 0x0 DUP1 REVERT JUMPDEST SWAP2 SWAP1 POP JUMP JUMPDEST PUSH1 0x0 DUP1 PUSH1 0x40 DUP4 DUP6 SUB SLT ISZERO PUSH2 0x459B JUMPI PUSH1 0x0 DUP1 REVERT JUMPDEST PUSH2 0x45A4 DUP4 PUSH2 0x456C JUMP JUMPDEST SWAP5 PUSH1 0x20 SWAP4 SWAP1 SWAP4 ADD CALLDATALOAD SWAP4 POP POP POP JUMP JUMPDEST PUSH1 0x0 DUP1 PUSH1 0x0 DUP1 PUSH1 0x80 DUP6 DUP8 SUB SLT ISZERO PUSH2 0x45C8 JUMPI PUSH1 0x0 DUP1 REVERT JUMPDEST DUP5 CALLDATALOAD SWAP4 POP PUSH1 0x20 DUP6 ADD CALLDATALOAD SWAP3 POP PUSH2 0x45DF PUSH1 0x40 DUP7 ADD PUSH2 0x456C JUMP JUMPDEST SWAP4 SWAP7 SWAP3 SWAP6 POP SWAP3 SWAP4 PUSH1 0x60 ADD CALLDATALOAD SWAP3 POP POP JUMP JUMPDEST PUSH1 0x0 PUSH1 0x20 DUP3 DUP5 SUB SLT ISZERO PUSH2 0x4601 JUMPI PUSH1 0x0 DUP1 REVERT JUMPDEST PUSH2 0x450C DUP3 PUSH2 0x456C JUMP JUMPDEST PUSH1 0x0 DUP1 PUSH1 0x0 PUSH1 0x60 DUP5 DUP7 SUB SLT ISZERO PUSH2 0x461F JUMPI PUSH1 0x0 DUP1 REVERT JUMPDEST PUSH2 0x4628 DUP5 PUSH2 0x456C JUMP JUMPDEST SWAP3 POP PUSH2 0x4636 PUSH1 0x20 DUP6 ADD PUSH2 0x456C JUMP JUMPDEST SWAP2 POP PUSH1 0x40 DUP5 ADD CALLDATALOAD SWAP1 POP SWAP3 POP SWAP3 POP SWAP3 JUMP JUMPDEST PUSH1 0x0 DUP1 PUSH1 0x40 DUP4 DUP6 SUB SLT ISZERO PUSH2 0x4659 JUMPI PUSH1 0x0 DUP1 REVERT JUMPDEST POP POP DUP1 CALLDATALOAD SWAP3 PUSH1 0x20 SWAP1 SWAP2 ADD CALLDATALOAD SWAP2 POP JUMP JUMPDEST PUSH4 0x4E487B71 PUSH1 0xE0 SHL PUSH1 0x0 MSTORE PUSH1 0x41 PUSH1 0x4 MSTORE PUSH1 0x24 PUSH1 0x0 REVERT JUMPDEST PUSH1 0x0 PUSH8 0xFFFFFFFFFFFFFFFF DUP1 DUP5 GT ISZERO PUSH2 0x4699 JUMPI PUSH2 0x4699 PUSH2 0x4668 JUMP JUMPDEST PUSH1 0x40 MLOAD PUSH1 0x1F DUP6 ADD PUSH1 0x1F NOT SWAP1 DUP2 AND PUSH1 0x3F ADD AND DUP2 ADD SWAP1 DUP3 DUP3 GT DUP2 DUP4 LT OR ISZERO PUSH2 0x46C1 JUMPI PUSH2 0x46C1 PUSH2 0x4668 JUMP JUMPDEST DUP2 PUSH1 0x40 MSTORE DUP1 SWAP4 POP DUP6 DUP2 MSTORE DUP7 DUP7 DUP7 ADD GT ISZERO PUSH2 0x46DA JUMPI PUSH1 0x0 DUP1 REVERT JUMPDEST DUP6 DUP6 PUSH1 0x20 DUP4 ADD CALLDATACOPY PUSH1 0x0 PUSH1 0x20 DUP8 DUP4 ADD ADD MSTORE POP POP POP SWAP4 SWAP3 POP POP POP JUMP JUMPDEST PUSH1 0x0 DUP3 PUSH1 0x1F DUP4 ADD SLT PUSH2 0x4705 JUMPI PUSH1 0x0 DUP1 REVERT JUMPDEST PUSH2 0x450C DUP4 DUP4 CALLDATALOAD PUSH1 0x20 DUP6 ADD PUSH2 0x467E JUMP JUMPDEST PUSH1 0x0 DUP1 PUSH1 0x0 DUP1 PUSH1 0x80 DUP6 DUP8 SUB SLT ISZERO PUSH2 0x472A JUMPI PUSH1 0x0 DUP1 REVERT JUMPDEST DUP5 CALLDATALOAD PUSH8 0xFFFFFFFFFFFFFFFF DUP1 DUP3 GT ISZERO PUSH2 0x4742 JUMPI PUSH1 0x0 DUP1 REVERT JUMPDEST PUSH2 0x474E DUP9 DUP4 DUP10 ADD PUSH2 0x46F4 JUMP JUMPDEST SWAP6 POP PUSH1 0x20 DUP8 ADD CALLDATALOAD SWAP5 POP PUSH1 0x40 DUP8 ADD CALLDATALOAD SWAP2 POP DUP1 DUP3 GT ISZERO PUSH2 0x476B JUMPI PUSH1 0x0 DUP1 REVERT JUMPDEST POP DUP6 ADD PUSH1 0x1F DUP2 ADD DUP8 SGT PUSH2 0x477D JUMPI PUSH1 0x0 DUP1 REVERT JUMPDEST PUSH2 0x478C DUP8 DUP3 CALLDATALOAD PUSH1 0x20 DUP5 ADD PUSH2 0x467E JUMP JUMPDEST SWAP3 POP POP PUSH2 0x479B PUSH1 0x60 DUP7 ADD PUSH2 0x456C JUMP JUMPDEST SWAP1 POP SWAP3 SWAP6 SWAP2 SWAP5 POP SWAP3 POP JUMP JUMPDEST PUSH1 0x0 DUP1 PUSH1 0x0 DUP1 PUSH1 0x0 PUSH1 0xA0 DUP7 DUP9 SUB SLT ISZERO PUSH2 0x47BE JUMPI PUSH1 0x0 DUP1 REVERT JUMPDEST DUP6 CALLDATALOAD SWAP5 POP PUSH2 0x47CE PUSH1 0x20 DUP8 ADD PUSH2 0x456C JUMP JUMPDEST SWAP4 POP PUSH1 0x40 DUP7 ADD CALLDATALOAD SWAP3 POP PUSH2 0x47E3 PUSH1 0x60 DUP8 ADD PUSH2 0x456C JUMP JUMPDEST SWAP2 POP PUSH2 0x47F1 PUSH1 0x80 DUP8 ADD PUSH2 0x456C JUMP JUMPDEST SWAP1 POP SWAP3 SWAP6 POP SWAP3 SWAP6 SWAP1 SWAP4 POP JUMP JUMPDEST PUSH1 0x0 DUP1 PUSH1 0x0 DUP1 PUSH1 0x80 DUP6 DUP8 SUB SLT ISZERO PUSH2 0x4813 JUMPI PUSH1 0x0 DUP1 REVERT JUMPDEST PUSH2 0x481C DUP6 PUSH2 0x456C JUMP JUMPDEST SWAP4 POP PUSH1 0x20 DUP6 ADD CALLDATALOAD PUSH8 0xFFFFFFFFFFFFFFFF DUP1 DUP3 GT ISZERO PUSH2 0x4839 JUMPI PUSH1 0x0 DUP1 REVERT JUMPDEST PUSH2 0x4845 DUP9 DUP4 DUP10 ADD PUSH2 0x46F4 JUMP JUMPDEST SWAP5 POP PUSH1 0x40 DUP8 ADD CALLDATALOAD SWAP2 POP DUP1 DUP3 GT ISZERO PUSH2 0x485B JUMPI PUSH1 0x0 DUP1 REVERT JUMPDEST POP PUSH2 0x478C DUP8 DUP3 DUP9 ADD PUSH2 0x46F4 JUMP JUMPDEST PUSH1 0x0 DUP1 PUSH1 0x40 DUP4 DUP6 SUB SLT ISZERO PUSH2 0x487B JUMPI PUSH1 0x0 DUP1 REVERT JUMPDEST DUP3 CALLDATALOAD SWAP2 POP PUSH1 0x20 DUP4 ADD CALLDATALOAD PUSH8 0xFFFFFFFFFFFFFFFF DUP2 GT ISZERO PUSH2 0x4899 JUMPI PUSH1 0x0 DUP1 REVERT JUMPDEST PUSH2 0x48A5 DUP6 DUP3 DUP7 ADD PUSH2 0x46F4 JUMP JUMPDEST SWAP2 POP POP SWAP3 POP SWAP3 SWAP1 POP JUMP JUMPDEST PUSH1 0x0 DUP1 PUSH1 0x0 PUSH1 0x60 DUP5 DUP7 SUB SLT ISZERO PUSH2 0x48C4 JUMPI PUSH1 0x0 DUP1 REVERT JUMPDEST PUSH2 0x48CD DUP5 PUSH2 0x456C JUMP JUMPDEST SWAP6 PUSH1 0x20 DUP6 ADD CALLDATALOAD SWAP6 POP PUSH1 0x40 SWAP1 SWAP5 ADD CALLDATALOAD SWAP4 SWAP3 POP POP POP JUMP JUMPDEST DUP1 ISZERO ISZERO DUP2 EQ PUSH2 0x44EC JUMPI PUSH1 0x0 DUP1 REVERT JUMPDEST PUSH1 0x0 DUP1 PUSH1 0x0 PUSH1 0x60 DUP5 DUP7 SUB SLT ISZERO PUSH2 0x4905 JUMPI PUSH1 0x0 DUP1 REVERT JUMPDEST DUP4 CALLDATALOAD SWAP3 POP PUSH1 0x20 DUP5 ADD CALLDATALOAD SWAP2 POP PUSH1 0x40 DUP5 ADD CALLDATALOAD PUSH2 0x491E DUP2 PUSH2 0x48E2 JUMP JUMPDEST DUP1 SWAP2 POP POP SWAP3 POP SWAP3 POP SWAP3 JUMP JUMPDEST PUSH1 0x0 DUP1 PUSH1 0x40 DUP4 DUP6 SUB SLT ISZERO PUSH2 0x493C JUMPI PUSH1 0x0 DUP1 REVERT JUMPDEST PUSH2 0x4945 DUP4 PUSH2 0x456C JUMP JUMPDEST SWAP2 POP PUSH1 0x20 DUP4 ADD CALLDATALOAD PUSH2 0x4955 DUP2 PUSH2 0x48E2 JUMP JUMPDEST DUP1 SWAP2 POP POP SWAP3 POP SWAP3 SWAP1 POP JUMP JUMPDEST PUSH1 0x40 DUP2 MSTORE PUSH1 0x0 PUSH2 0x4973 PUSH1 0x40 DUP4 ADD DUP6 PUSH2 0x4513 JUMP JUMPDEST DUP3 DUP2 SUB PUSH1 0x20 DUP5 ADD MSTORE PUSH2 0x4985 DUP2 DUP6 PUSH2 0x4513 JUMP JUMPDEST SWAP6 SWAP5 POP POP POP POP POP JUMP JUMPDEST PUSH1 0x0 DUP1 PUSH1 0x0 PUSH1 0x60 DUP5 DUP7 SUB SLT ISZERO PUSH2 0x49A3 JUMPI PUSH1 0x0 DUP1 REVERT JUMPDEST DUP4 CALLDATALOAD SWAP3 POP PUSH1 0x20 DUP5 ADD CALLDATALOAD SWAP2 POP PUSH2 0x49BA PUSH1 0x40 DUP6 ADD PUSH2 0x456C JUMP JUMPDEST SWAP1 POP SWAP3 POP SWAP3 POP SWAP3 JUMP JUMPDEST PUSH1 0x0 DUP1 PUSH1 0x0 DUP1 PUSH1 0x80 DUP6 DUP8 SUB SLT ISZERO PUSH2 0x49D9 JUMPI PUSH1 0x0 DUP1 REVERT JUMPDEST DUP5 CALLDATALOAD SWAP4 POP PUSH1 0x20 DUP6 ADD CALLDATALOAD SWAP3 POP PUSH2 0x49F0 PUSH1 0x40 DUP7 ADD PUSH2 0x456C JUMP JUMPDEST SWAP2 POP PUSH2 0x479B PUSH1 0x60 DUP7 ADD PUSH2 0x456C JUMP JUMPDEST PUSH1 0x0 DUP1 PUSH1 0x0 DUP1 PUSH1 0x80 DUP6 DUP8 SUB SLT ISZERO PUSH2 0x4A14 JUMPI PUSH1 0x0 DUP1 REVERT JUMPDEST DUP5 CALLDATALOAD SWAP4 POP PUSH2 0x4A24 PUSH1 0x20 DUP7 ADD PUSH2 0x456C JUMP JUMPDEST SWAP3 POP PUSH1 0x40 DUP6 ADD CALLDATALOAD SWAP2 POP PUSH2 0x479B PUSH1 0x60 DUP7 ADD PUSH2 0x456C JUMP JUMPDEST PUSH2 0xFFFF DUP2 AND DUP2 EQ PUSH2 0x44EC JUMPI PUSH1 0x0 DUP1 REVERT JUMPDEST PUSH1 0x0 DUP1 PUSH1 0x40 DUP4 DUP6 SUB SLT ISZERO PUSH2 0x4A5C JUMPI PUSH1 0x0 DUP1 REVERT JUMPDEST PUSH2 0x4A65 DUP4 PUSH2 0x456C JUMP JUMPDEST SWAP2 POP PUSH1 0x20 DUP4 ADD CALLDATALOAD PUSH2 0x4955 DUP2 PUSH2 0x4A39 JUMP JUMPDEST PUSH1 0x0 DUP1 PUSH1 0x0 DUP1 PUSH1 0x80 DUP6 DUP8 SUB SLT ISZERO PUSH2 0x4A8B JUMPI PUSH1 0x0 DUP1 REVERT JUMPDEST DUP5 CALLDATALOAD SWAP4 POP PUSH1 0x20 DUP6 ADD CALLDATALOAD SWAP3 POP PUSH1 0x40 DUP6 ADD CALLDATALOAD SWAP2 POP PUSH2 0x479B PUSH1 0x60 DUP7 ADD PUSH2 0x456C JUMP JUMPDEST PUSH1 0x0 DUP1 PUSH1 0x40 DUP4 DUP6 SUB SLT ISZERO PUSH2 0x4ABC JUMPI PUSH1 0x0 DUP1 REVERT JUMPDEST PUSH2 0x4AC5 DUP4 PUSH2 0x456C JUMP JUMPDEST SWAP2 POP PUSH2 0x4AD3 PUSH1 0x20 DUP5 ADD PUSH2 0x456C JUMP JUMPDEST SWAP1 POP SWAP3 POP SWAP3 SWAP1 POP JUMP JUMPDEST PUSH1 0x0 DUP1 PUSH1 0x40 DUP4 DUP6 SUB SLT ISZERO PUSH2 0x4AEF JUMPI PUSH1 0x0 DUP1 REVERT JUMPDEST DUP3 CALLDATALOAD SWAP2 POP PUSH1 0x20 DUP4 ADD CALLDATALOAD PUSH2 0x4955 DUP2 PUSH2 0x4A39 JUMP JUMPDEST PUSH1 0x1 DUP2 DUP2 SHR SWAP1 DUP3 AND DUP1 PUSH2 0x4B15 JUMPI PUSH1 0x7F DUP3 AND SWAP2 POP JUMPDEST PUSH1 0x20 DUP3 LT DUP2 SUB PUSH2 0x4B35 JUMPI PUSH4 0x4E487B71 PUSH1 0xE0 SHL PUSH1 0x0 MSTORE PUSH1 0x22 PUSH1 0x4 MSTORE PUSH1 0x24 PUSH1 0x0 REVERT JUMPDEST POP SWAP2 SWAP1 POP JUMP JUMPDEST PUSH4 0x4E487B71 PUSH1 0xE0 SHL PUSH1 0x0 MSTORE PUSH1 0x32 PUSH1 0x4 MSTORE PUSH1 0x24 PUSH1 0x0 REVERT JUMPDEST PUSH4 0x4E487B71 PUSH1 0xE0 SHL PUSH1 0x0 MSTORE PUSH1 0x11 PUSH1 0x4 MSTORE PUSH1 0x24 PUSH1 0x0 REVERT JUMPDEST PUSH1 0x0 PUSH2 0xFFFF DUP1 DUP4 AND DUP2 DUP2 SUB PUSH2 0x4B7E JUMPI PUSH2 0x4B7E PUSH2 0x4B51 JUMP JUMPDEST PUSH1 0x1 ADD SWAP4 SWAP3 POP POP POP JUMP JUMPDEST PUSH1 0x20 DUP1 DUP3 MSTORE PUSH1 0x6 SWAP1 DUP3 ADD MSTORE PUSH6 0x1B9BC818985B PUSH1 0xD2 SHL PUSH1 0x40 DUP3 ADD MSTORE PUSH1 0x60 ADD SWAP1 JUMP JUMPDEST DUP1 DUP3 ADD DUP1 DUP3 GT ISZERO PUSH2 0xC96 JUMPI PUSH2 0xC96 PUSH2 0x4B51 JUMP JUMPDEST DUP2 DUP2 SUB DUP2 DUP2 GT ISZERO PUSH2 0xC96 JUMPI PUSH2 0xC96 PUSH2 0x4B51 JUMP JUMPDEST DUP1 DUP3 MUL DUP2 ISZERO DUP3 DUP3 DIV DUP5 EQ OR PUSH2 0xC96 JUMPI PUSH2 0xC96 PUSH2 0x4B51 JUMP JUMPDEST PUSH1 0x0 PUSH1 0x20 DUP3 DUP5 SUB SLT ISZERO PUSH2 0x4BF7 JUMPI PUSH1 0x0 DUP1 REVERT JUMPDEST DUP2 MLOAD PUSH2 0x450C DUP2 PUSH2 0x48E2 JUMP JUMPDEST PUSH1 0x0 PUSH1 0x20 DUP3 DUP5 SUB SLT ISZERO PUSH2 0x4C14 JUMPI PUSH1 0x0 DUP1 REVERT JUMPDEST DUP2 MLOAD PUSH2 0x450C DUP2 PUSH2 0x4A39 JUMP JUMPDEST PUSH1 0x0 PUSH1 0x1 DUP3 ADD PUSH2 0x4C31 JUMPI PUSH2 0x4C31 PUSH2 0x4B51 JUMP JUMPDEST POP PUSH1 0x1 ADD SWAP1 JUMP JUMPDEST PUSH1 0x1F DUP3 GT ISZERO PUSH2 0xE78 JUMPI PUSH1 0x0 DUP2 DUP2 MSTORE PUSH1 0x20 DUP2 KECCAK256 PUSH1 0x1F DUP6 ADD PUSH1 0x5 SHR DUP2 ADD PUSH1 0x20 DUP7 LT ISZERO PUSH2 0x4C5F JUMPI POP DUP1 JUMPDEST PUSH1 0x1F DUP6 ADD PUSH1 0x5 SHR DUP3 ADD SWAP2 POP JUMPDEST DUP2 DUP2 LT ISZERO PUSH2 0x1B17 JUMPI DUP3 DUP2 SSTORE PUSH1 0x1 ADD PUSH2 0x4C6B JUMP JUMPDEST DUP2 MLOAD PUSH8 0xFFFFFFFFFFFFFFFF DUP2 GT ISZERO PUSH2 0x4C98 JUMPI PUSH2 0x4C98 PUSH2 0x4668 JUMP JUMPDEST PUSH2 0x4CAC DUP2 PUSH2 0x4CA6 DUP5 SLOAD PUSH2 0x4B01 JUMP JUMPDEST DUP5 PUSH2 0x4C38 JUMP JUMPDEST PUSH1 0x20 DUP1 PUSH1 0x1F DUP4 GT PUSH1 0x1 DUP2 EQ PUSH2 0x4CE1 JUMPI PUSH1 0x0 DUP5 ISZERO PUSH2 0x4CC9 JUMPI POP DUP6 DUP4 ADD MLOAD JUMPDEST PUSH1 0x0 NOT PUSH1 0x3 DUP7 SWAP1 SHL SHR NOT AND PUSH1 0x1 DUP6 SWAP1 SHL OR DUP6 SSTORE PUSH2 0x1B17 JUMP JUMPDEST PUSH1 0x0 DUP6 DUP2 MSTORE PUSH1 0x20 DUP2 KECCAK256 PUSH1 0x1F NOT DUP7 AND SWAP2 JUMPDEST DUP3 DUP2 LT ISZERO PUSH2 0x4D10 JUMPI DUP9 DUP7 ADD MLOAD DUP3 SSTORE SWAP5 DUP5 ADD SWAP5 PUSH1 0x1 SWAP1 SWAP2 ADD SWAP1 DUP5 ADD PUSH2 0x4CF1 JUMP JUMPDEST POP DUP6 DUP3 LT ISZERO PUSH2 0x4D2E JUMPI DUP8 DUP6 ADD MLOAD PUSH1 0x0 NOT PUSH1 0x3 DUP9 SWAP1 SHL PUSH1 0xF8 AND SHR NOT AND DUP2 SSTORE JUMPDEST POP POP POP POP POP PUSH1 0x1 SWAP1 DUP2 SHL ADD SWAP1 SSTORE POP JUMP JUMPDEST PUSH1 0x20 DUP1 DUP3 MSTORE PUSH1 0xF SWAP1 DUP3 ADD MSTORE PUSH15 0x1B9BDB88195E1A5CDD195B9D081A59 PUSH1 0x8A SHL PUSH1 0x40 DUP3 ADD MSTORE PUSH1 0x60 ADD SWAP1 JUMP JUMPDEST PUSH1 0x0 PUSH1 0x20 DUP3 DUP5 SUB SLT ISZERO PUSH2 0x4D79 JUMPI PUSH1 0x0 DUP1 REVERT JUMPDEST POP MLOAD SWAP2 SWAP1 POP JUMP JUMPDEST PUSH1 0x20 DUP1 DUP3 MSTORE PUSH1 0x8 SWAP1 DUP3 ADD MSTORE PUSH8 0x6E65656420666565 PUSH1 0xC0 SHL PUSH1 0x40 DUP3 ADD MSTORE PUSH1 0x60 ADD SWAP1 JUMP JUMPDEST PUSH1 0x20 DUP1 DUP3 MSTORE PUSH1 0x21 SWAP1 DUP3 ADD MSTORE PUSH32 0x6E6F2061636365737320746F20736C6F74206F722064656C6574656420736C6F PUSH1 0x40 DUP3 ADD MSTORE PUSH1 0x1D PUSH1 0xFA SHL PUSH1 0x60 DUP3 ADD MSTORE PUSH1 0x80 ADD SWAP1 JUMP JUMPDEST PUSH1 0x20 DUP1 DUP3 MSTORE PUSH1 0x25 SWAP1 DUP3 ADD MSTORE PUSH32 0x4552433732313A207472616E736665722066726F6D20696E636F727265637420 PUSH1 0x40 DUP3 ADD MSTORE PUSH5 0x37BBB732B9 PUSH1 0xD9 SHL PUSH1 0x60 DUP3 ADD MSTORE PUSH1 0x80 ADD SWAP1 JUMP JUMPDEST PUSH1 0x20 DUP1 DUP3 MSTORE PUSH1 0x2B SWAP1 DUP3 ADD MSTORE PUSH32 0x496E697469616C697A61626C653A20636F6E7472616374206973206E6F742069 PUSH1 0x40 DUP3 ADD MSTORE PUSH11 0x6E697469616C697A696E67 PUSH1 0xA8 SHL PUSH1 0x60 DUP3 ADD MSTORE PUSH1 0x80 ADD SWAP1 JUMP JUMPDEST PUSH1 0x20 DUP1 DUP3 MSTORE PUSH1 0x32 SWAP1 DUP3 ADD MSTORE PUSH32 0x4552433732313A207472616E7366657220746F206E6F6E204552433732315265 PUSH1 0x40 DUP3 ADD MSTORE PUSH18 0x31B2B4BB32B91034B6B83632B6B2B73A32B9 PUSH1 0x71 SHL PUSH1 0x60 DUP3 ADD MSTORE PUSH1 0x80 ADD SWAP1 JUMP JUMPDEST PUSH1 0x1 PUSH1 0x1 PUSH1 0xA0 SHL SUB DUP6 DUP2 AND DUP3 MSTORE DUP5 AND PUSH1 0x20 DUP3 ADD MSTORE PUSH1 0x40 DUP2 ADD DUP4 SWAP1 MSTORE PUSH1 0x80 PUSH1 0x60 DUP3 ADD DUP2 SWAP1 MSTORE PUSH1 0x0 SWAP1 PUSH2 0x4EF8 SWAP1 DUP4 ADD DUP5 PUSH2 0x4513 JUMP JUMPDEST SWAP7 SWAP6 POP POP POP POP POP POP JUMP JUMPDEST PUSH1 0x0 PUSH1 0x20 DUP3 DUP5 SUB SLT ISZERO PUSH2 0x4F14 JUMPI PUSH1 0x0 DUP1 REVERT JUMPDEST DUP2 MLOAD PUSH2 0x450C DUP2 PUSH2 0x44D6 JUMP JUMPDEST PUSH4 0x4E487B71 PUSH1 0xE0 SHL PUSH1 0x0 MSTORE PUSH1 0x31 PUSH1 0x4 MSTORE PUSH1 0x24 PUSH1 0x0 REVERT INVALID SWAP4 DUP3 PC 0xEC PUSH14 0x8D468A3507D140E1C026DC2AFA28 0x5C MULMOD PUSH25 0x47A088DA7B50946FB91BA264697066735822122045115F4918 0x49 JUMPI ADDMOD SWAP5 0xF6 0xB9 DUP12 0xAF CALL EXTCODESIZE DUP7 0xE2 PUSH6 0xFBE1B09541E9 0xEC 0xD9 DUP10 ORIGIN KECCAK256 BALANCE 0xE BYTE PUSH5 0x736F6C6343 STOP ADDMOD GT STOP CALLER "
		},
		"gasEstimates": {
			"creation": {
				"codeDepositCost": "4072600",
				"executionCost": "26771",
				"totalCost": "4099371"
			},
			"external": {
				"__fx__()": "24479",
				"_owner()": "2470",
				"_zonepassmaps(uint256)": "19718",
				"addMinter(address)": "51015",
				"addToStorage(string,uint256,bytes,address)": "infinite",
				"approve(address,uint256)": "infinite",
				"balanceOf(address)": "2678",
				"boostPass(uint256,uint256)": "infinite",
				"changeDirectFee(uint256)": "24555",
				"contractAccruedFee(address)": "2631",
				"decrementServices(uint256,uint256)": "infinite",
				"delFromStorage(uint256,uint256,address)": "infinite",
				"deposit(uint256,address,uint256,address)": "infinite",
				"depositEth(uint256,uint256)": "infinite",
				"extendPassTime(uint256,uint256)": "infinite",
				"getActiveChain(uint256)": "2589",
				"getApproved(uint256)": "4812",
				"getFeeToken()": "2443",
				"getIdBalance(address,uint256)": "2755",
				"getInitializer()": "2466",
				"getMintChain(uint256)": "2566",
				"getMinterIndex(address)": "infinite",
				"getRecoveryFee()": "2544",
				"getStorage(address,uint256,uint256)": "infinite",
				"getWeeklyFee()": "4580",
				"haveStorageAccess(address,uint256,uint256)": "infinite",
				"idToId(uint256,uint256,address,uint256)": "infinite",
				"increaseMaxShare(uint256,uint256,uint256,address)": "infinite",
				"increaseSlots(uint256,uint256)": "infinite",
				"incrementServices(uint256,uint256)": "infinite",
				"initialize(address,string,string,address)": "infinite",
				"isApprovedForAll(address,address)": "infinite",
				"isExpired(uint256)": "2583",
				"lzEndpoint()": "2405",
				"mint(address,uint256)": "infinite",
				"name()": "infinite",
				"owner()": "2421",
				"ownerOf(uint256)": "2599",
				"recoverData(uint256,uint256,bool)": "64310",
				"removeMinter(address,uint16)": "33432",
				"removeShare(uint256,uint256,address)": "infinite",
				"setActiveChain(uint256,uint16)": "infinite",
				"setApprovalForAll(address,bool)": "26846",
				"setFeeToken(address)": "26780",
				"setLzPoint(address)": "26779",
				"setPointsM(uint256)": "24530",
				"setUri(uint256,string)": "infinite",
				"setWeeklyFee(uint256)": "24576",
				"shareStorage(uint256,uint256,address)": "infinite",
				"storageViewAccess(uint256)": "6804",
				"supportsInterface(bytes4)": "infinite",
				"symbol()": "infinite",
				"tokenByIndex(uint256)": "6827",
				"tokenOfOwnerByIndex(address,uint256)": "5064",
				"tokenURI(uint256)": "infinite",
				"totalSupply()": "2383",
				"transferFrom(address,address,uint256)": "infinite",
				"transferOwnership(address)": "26799",
				"withdraw(uint256,address,uint256,address,address)": "infinite",
				"withdrawCaErc(address,uint256)": "infinite",
				"withdrawCaEth(uint256)": "infinite",
				"withdrawEth(uint256,uint256,address,address)": "infinite"
			},
			"internal": {
				"_beforeTokenTransfer(address,address,uint256,uint256)": "infinite",
				"_burn(uint256)": "infinite",
				"incrementTotalServices(uint256)": "26546"
			}
		},
		"methodIdentifiers": {
			"__fx__()": "2769a8b4",
			"_owner()": "b2bdfa7b",
			"_zonepassmaps(uint256)": "009c47a0",
			"addMinter(address)": "983b2d56",
			"addToStorage(string,uint256,bytes,address)": "5e34ae78",
			"approve(address,uint256)": "095ea7b3",
			"balanceOf(address)": "70a08231",
			"boostPass(uint256,uint256)": "999ebe55",
			"changeDirectFee(uint256)": "3bf7e8f4",
			"contractAccruedFee(address)": "9e402dd6",
			"decrementServices(uint256,uint256)": "5557b279",
			"delFromStorage(uint256,uint256,address)": "ec49fda0",
			"deposit(uint256,address,uint256,address)": "cd88af6e",
			"depositEth(uint256,uint256)": "ed50aeb9",
			"extendPassTime(uint256,uint256)": "8b973040",
			"getActiveChain(uint256)": "1fe48ac7",
			"getApproved(uint256)": "081812fc",
			"getFeeToken()": "ca709a25",
			"getIdBalance(address,uint256)": "0f9e8bc0",
			"getInitializer()": "3e104a95",
			"getMintChain(uint256)": "40ee9b32",
			"getMinterIndex(address)": "8ebe4b30",
			"getRecoveryFee()": "228d0fd9",
			"getStorage(address,uint256,uint256)": "a26966fb",
			"getWeeklyFee()": "3d654199",
			"haveStorageAccess(address,uint256,uint256)": "7907d11c",
			"idToId(uint256,uint256,address,uint256)": "13579820",
			"increaseMaxShare(uint256,uint256,uint256,address)": "e4cf3b28",
			"increaseSlots(uint256,uint256)": "fd71ca47",
			"incrementServices(uint256,uint256)": "864018b7",
			"initialize(address,string,string,address)": "613d25bb",
			"isApprovedForAll(address,address)": "e985e9c5",
			"isExpired(uint256)": "d9548e53",
			"lzEndpoint()": "b353aaa7",
			"mint(address,uint256)": "40c10f19",
			"name()": "06fdde03",
			"owner()": "8da5cb5b",
			"ownerOf(uint256)": "6352211e",
			"recoverData(uint256,uint256,bool)": "7adcb9a2",
			"removeMinter(address,uint16)": "df39a6ba",
			"removeShare(uint256,uint256,address)": "db2c6dd9",
			"setActiveChain(uint256,uint16)": "f5a482e0",
			"setApprovalForAll(address,bool)": "a22cb465",
			"setFeeToken(address)": "15cce224",
			"setLzPoint(address)": "232b809f",
			"setPointsM(uint256)": "f101d8d2",
			"setUri(uint256,string)": "782f08ae",
			"setWeeklyFee(uint256)": "60bd30dd",
			"shareStorage(uint256,uint256,address)": "a9d36f5b",
			"storageViewAccess(uint256)": "8318dea3",
			"supportsInterface(bytes4)": "01ffc9a7",
			"symbol()": "95d89b41",
			"tokenByIndex(uint256)": "4f6ccce7",
			"tokenOfOwnerByIndex(address,uint256)": "2f745c59",
			"tokenURI(uint256)": "c87b56dd",
			"totalSupply()": "18160ddd",
			"transferFrom(address,address,uint256)": "23b872dd",
			"transferOwnership(address)": "f2fde38b",
			"withdraw(uint256,address,uint256,address,address)": "5fdd03a2",
			"withdrawCaErc(address,uint256)": "3a56836e",
			"withdrawCaEth(uint256)": "d58f1179",
			"withdrawEth(uint256,uint256,address,address)": "b2034d23"
		}
	},
	"abi": [
		{
			"anonymous": false,
			"inputs": [
				{
					"indexed": true,
					"internalType": "address",
					"name": "owner",
					"type": "address"
				},
				{
					"indexed": true,
					"internalType": "address",
					"name": "approved",
					"type": "address"
				},
				{
					"indexed": true,
					"internalType": "uint256",
					"name": "tokenId",
					"type": "uint256"
				}
			],
			"name": "Approval",
			"type": "event"
		},
		{
			"anonymous": false,
			"inputs": [
				{
					"indexed": true,
					"internalType": "address",
					"name": "owner",
					"type": "address"
				},
				{
					"indexed": true,
					"internalType": "address",
					"name": "operator",
					"type": "address"
				},
				{
					"indexed": false,
					"internalType": "bool",
					"name": "approved",
					"type": "bool"
				}
			],
			"name": "ApprovalForAll",
			"type": "event"
		},
		{
			"anonymous": false,
			"inputs": [
				{
					"indexed": false,
					"internalType": "uint8",
					"name": "version",
					"type": "uint8"
				}
			],
			"name": "Initialized",
			"type": "event"
		},
		{
			"anonymous": false,
			"inputs": [
				{
					"indexed": true,
					"internalType": "address",
					"name": "from",
					"type": "address"
				},
				{
					"indexed": true,
					"internalType": "address",
					"name": "to",
					"type": "address"
				},
				{
					"indexed": true,
					"internalType": "uint256",
					"name": "tokenId",
					"type": "uint256"
				}
			],
			"name": "Transfer",
			"type": "event"
		},
		{
			"inputs": [],
			"name": "__fx__",
			"outputs": [],
			"stateMutability": "nonpayable",
			"type": "function"
		},
		{
			"inputs": [],
			"name": "_owner",
			"outputs": [
				{
					"internalType": "address",
					"name": "",
					"type": "address"
				}
			],
			"stateMutability": "view",
			"type": "function"
		},
		{
			"inputs": [
				{
					"internalType": "uint256",
					"name": "",
					"type": "uint256"
				}
			],
			"name": "_zonepassmaps",
			"outputs": [
				{
					"internalType": "address",
					"name": "minter",
					"type": "address"
				},
				{
					"internalType": "address",
					"name": "holder",
					"type": "address"
				},
				{
					"internalType": "uint16",
					"name": "mintCh",
					"type": "uint16"
				},
				{
					"internalType": "uint16",
					"name": "activeCh",
					"type": "uint16"
				},
				{
					"internalType": "uint256",
					"name": "tokenId",
					"type": "uint256"
				},
				{
					"internalType": "uint256",
					"name": "mintTime",
					"type": "uint256"
				},
				{
					"internalType": "uint256",
					"name": "lastRenewal",
					"type": "uint256"
				},
				{
					"internalType": "uint256",
					"name": "nextExpiry",
					"type": "uint256"
				},
				{
					"internalType": "uint256",
					"name": "usedSlots",
					"type": "uint256"
				},
				{
					"internalType": "uint256",
					"name": "allowedSlots",
					"type": "uint256"
				},
				{
					"internalType": "uint256",
					"name": "totalServiceUses",
					"type": "uint256"
				}
			],
			"stateMutability": "view",
			"type": "function"
		},
		{
			"inputs": [
				{
					"internalType": "address",
					"name": "minter_",
					"type": "address"
				}
			],
			"name": "addMinter",
			"outputs": [],
			"stateMutability": "nonpayable",
			"type": "function"
		},
		{
			"inputs": [
				{
					"internalType": "string",
					"name": "hash",
					"type": "string"
				},
				{
					"internalType": "uint256",
					"name": "id",
					"type": "uint256"
				},
				{
					"internalType": "bytes",
					"name": "extraData",
					"type": "bytes"
				},
				{
					"internalType": "address",
					"name": "by",
					"type": "address"
				}
			],
			"name": "addToStorage",
			"outputs": [],
			"stateMutability": "payable",
			"type": "function"
		},
		{
			"inputs": [
				{
					"internalType": "address",
					"name": "to",
					"type": "address"
				},
				{
					"internalType": "uint256",
					"name": "tokenId",
					"type": "uint256"
				}
			],
			"name": "approve",
			"outputs": [],
			"stateMutability": "nonpayable",
			"type": "function"
		},
		{
			"inputs": [
				{
					"internalType": "address",
					"name": "owner",
					"type": "address"
				}
			],
			"name": "balanceOf",
			"outputs": [
				{
					"internalType": "uint256",
					"name": "",
					"type": "uint256"
				}
			],
			"stateMutability": "view",
			"type": "function"
		},
		{
			"inputs": [
				{
					"internalType": "uint256",
					"name": "timeInWeeks",
					"type": "uint256"
				},
				{
					"internalType": "uint256",
					"name": "id",
					"type": "uint256"
				}
			],
			"name": "boostPass",
			"outputs": [],
			"stateMutability": "payable",
			"type": "function"
		},
		{
			"inputs": [
				{
					"internalType": "uint256",
					"name": "newAmt",
					"type": "uint256"
				}
			],
			"name": "changeDirectFee",
			"outputs": [],
			"stateMutability": "nonpayable",
			"type": "function"
		},
		{
			"inputs": [
				{
					"internalType": "address",
					"name": "",
					"type": "address"
				}
			],
			"name": "contractAccruedFee",
			"outputs": [
				{
					"internalType": "uint256",
					"name": "",
					"type": "uint256"
				}
			],
			"stateMutability": "view",
			"type": "function"
		},
		{
			"inputs": [
				{
					"internalType": "uint256",
					"name": "id",
					"type": "uint256"
				},
				{
					"internalType": "uint256",
					"name": "num",
					"type": "uint256"
				}
			],
			"name": "decrementServices",
			"outputs": [],
			"stateMutability": "nonpayable",
			"type": "function"
		},
		{
			"inputs": [
				{
					"internalType": "uint256",
					"name": "id",
					"type": "uint256"
				},
				{
					"internalType": "uint256",
					"name": "slot",
					"type": "uint256"
				},
				{
					"internalType": "address",
					"name": "storer",
					"type": "address"
				}
			],
			"name": "delFromStorage",
			"outputs": [],
			"stateMutability": "payable",
			"type": "function"
		},
		{
			"inputs": [
				{
					"internalType": "uint256",
					"name": "id",
					"type": "uint256"
				},
				{
					"internalType": "address",
					"name": "token",
					"type": "address"
				},
				{
					"internalType": "uint256",
					"name": "amt",
					"type": "uint256"
				},
				{
					"internalType": "address",
					"name": "from",
					"type": "address"
				}
			],
			"name": "deposit",
			"outputs": [],
			"stateMutability": "payable",
			"type": "function"
		},
		{
			"inputs": [
				{
					"internalType": "uint256",
					"name": "id",
					"type": "uint256"
				},
				{
					"internalType": "uint256",
					"name": "amount",
					"type": "uint256"
				}
			],
			"name": "depositEth",
			"outputs": [],
			"stateMutability": "payable",
			"type": "function"
		},
		{
			"inputs": [
				{
					"internalType": "uint256",
					"name": "id",
					"type": "uint256"
				},
				{
					"internalType": "uint256",
					"name": "time",
					"type": "uint256"
				}
			],
			"name": "extendPassTime",
			"outputs": [],
			"stateMutability": "payable",
			"type": "function"
		},
		{
			"inputs": [
				{
					"internalType": "uint256",
					"name": "id",
					"type": "uint256"
				}
			],
			"name": "getActiveChain",
			"outputs": [
				{
					"internalType": "uint16",
					"name": "",
					"type": "uint16"
				}
			],
			"stateMutability": "view",
			"type": "function"
		},
		{
			"inputs": [
				{
					"internalType": "uint256",
					"name": "tokenId",
					"type": "uint256"
				}
			],
			"name": "getApproved",
			"outputs": [
				{
					"internalType": "address",
					"name": "",
					"type": "address"
				}
			],
			"stateMutability": "view",
			"type": "function"
		},
		{
			"inputs": [],
			"name": "getFeeToken",
			"outputs": [
				{
					"internalType": "address",
					"name": "",
					"type": "address"
				}
			],
			"stateMutability": "view",
			"type": "function"
		},
		{
			"inputs": [
				{
					"internalType": "address",
					"name": "token",
					"type": "address"
				},
				{
					"internalType": "uint256",
					"name": "id",
					"type": "uint256"
				}
			],
			"name": "getIdBalance",
			"outputs": [
				{
					"internalType": "uint256",
					"name": "",
					"type": "uint256"
				}
			],
			"stateMutability": "view",
			"type": "function"
		},
		{
			"inputs": [],
			"name": "getInitializer",
			"outputs": [
				{
					"internalType": "address",
					"name": "",
					"type": "address"
				}
			],
			"stateMutability": "view",
			"type": "function"
		},
		{
			"inputs": [
				{
					"internalType": "uint256",
					"name": "id",
					"type": "uint256"
				}
			],
			"name": "getMintChain",
			"outputs": [
				{
					"internalType": "uint16",
					"name": "",
					"type": "uint16"
				}
			],
			"stateMutability": "view",
			"type": "function"
		},
		{
			"inputs": [
				{
					"internalType": "address",
					"name": "minter",
					"type": "address"
				}
			],
			"name": "getMinterIndex",
			"outputs": [
				{
					"internalType": "uint16",
					"name": "",
					"type": "uint16"
				}
			],
			"stateMutability": "view",
			"type": "function"
		},
		{
			"inputs": [],
			"name": "getRecoveryFee",
			"outputs": [
				{
					"internalType": "uint256",
					"name": "",
					"type": "uint256"
				}
			],
			"stateMutability": "view",
			"type": "function"
		},
		{
			"inputs": [
				{
					"internalType": "address",
					"name": "by",
					"type": "address"
				},
				{
					"internalType": "uint256",
					"name": "id",
					"type": "uint256"
				},
				{
					"internalType": "uint256",
					"name": "slot",
					"type": "uint256"
				}
			],
			"name": "getStorage",
			"outputs": [
				{
					"internalType": "string",
					"name": "",
					"type": "string"
				},
				{
					"internalType": "bytes",
					"name": "",
					"type": "bytes"
				}
			],
			"stateMutability": "view",
			"type": "function"
		},
		{
			"inputs": [],
			"name": "getWeeklyFee",
			"outputs": [
				{
					"internalType": "address",
					"name": "token",
					"type": "address"
				},
				{
					"internalType": "uint256",
					"name": "amount",
					"type": "uint256"
				}
			],
			"stateMutability": "view",
			"type": "function"
		},
		{
			"inputs": [
				{
					"internalType": "address",
					"name": "user",
					"type": "address"
				},
				{
					"internalType": "uint256",
					"name": "id",
					"type": "uint256"
				},
				{
					"internalType": "uint256",
					"name": "slot",
					"type": "uint256"
				}
			],
			"name": "haveStorageAccess",
			"outputs": [
				{
					"internalType": "bool",
					"name": "",
					"type": "bool"
				}
			],
			"stateMutability": "view",
			"type": "function"
		},
		{
			"inputs": [
				{
					"internalType": "uint256",
					"name": "fromId",
					"type": "uint256"
				},
				{
					"internalType": "uint256",
					"name": "toId",
					"type": "uint256"
				},
				{
					"internalType": "address",
					"name": "token",
					"type": "address"
				},
				{
					"internalType": "uint256",
					"name": "amount",
					"type": "uint256"
				}
			],
			"name": "idToId",
			"outputs": [],
			"stateMutability": "payable",
			"type": "function"
		},
		{
			"inputs": [
				{
					"internalType": "uint256",
					"name": "id",
					"type": "uint256"
				},
				{
					"internalType": "uint256",
					"name": "slot",
					"type": "uint256"
				},
				{
					"internalType": "uint256",
					"name": "incNum",
					"type": "uint256"
				},
				{
					"internalType": "address",
					"name": "by",
					"type": "address"
				}
			],
			"name": "increaseMaxShare",
			"outputs": [],
			"stateMutability": "payable",
			"type": "function"
		},
		{
			"inputs": [
				{
					"internalType": "uint256",
					"name": "slots",
					"type": "uint256"
				},
				{
					"internalType": "uint256",
					"name": "id",
					"type": "uint256"
				}
			],
			"name": "increaseSlots",
			"outputs": [],
			"stateMutability": "nonpayable",
			"type": "function"
		},
		{
			"inputs": [
				{
					"internalType": "uint256",
					"name": "id",
					"type": "uint256"
				},
				{
					"internalType": "uint256",
					"name": "num",
					"type": "uint256"
				}
			],
			"name": "incrementServices",
			"outputs": [],
			"stateMutability": "nonpayable",
			"type": "function"
		},
		{
			"inputs": [
				{
					"internalType": "address",
					"name": "weth",
					"type": "address"
				},
				{
					"internalType": "string",
					"name": "name",
					"type": "string"
				},
				{
					"internalType": "string",
					"name": "symbol",
					"type": "string"
				},
				{
					"internalType": "address",
					"name": "_endpoint",
					"type": "address"
				}
			],
			"name": "initialize",
			"outputs": [],
			"stateMutability": "nonpayable",
			"type": "function"
		},
		{
			"inputs": [
				{
					"internalType": "address",
					"name": "owner",
					"type": "address"
				},
				{
					"internalType": "address",
					"name": "operator",
					"type": "address"
				}
			],
			"name": "isApprovedForAll",
			"outputs": [
				{
					"internalType": "bool",
					"name": "",
					"type": "bool"
				}
			],
			"stateMutability": "view",
			"type": "function"
		},
		{
			"inputs": [
				{
					"internalType": "uint256",
					"name": "id",
					"type": "uint256"
				}
			],
			"name": "isExpired",
			"outputs": [
				{
					"internalType": "bool",
					"name": "",
					"type": "bool"
				}
			],
			"stateMutability": "view",
			"type": "function"
		},
		{
			"inputs": [],
			"name": "lzEndpoint",
			"outputs": [
				{
					"internalType": "contract ILayerZeroEndpoint",
					"name": "",
					"type": "address"
				}
			],
			"stateMutability": "view",
			"type": "function"
		},
		{
			"inputs": [
				{
					"internalType": "address",
					"name": "to",
					"type": "address"
				},
				{
					"internalType": "uint256",
					"name": "tokenId",
					"type": "uint256"
				}
			],
			"name": "mint",
			"outputs": [],
			"stateMutability": "payable",
			"type": "function"
		},
		{
			"inputs": [],
			"name": "name",
			"outputs": [
				{
					"internalType": "string",
					"name": "",
					"type": "string"
				}
			],
			"stateMutability": "view",
			"type": "function"
		},
		{
			"inputs": [],
			"name": "owner",
			"outputs": [
				{
					"internalType": "address",
					"name": "",
					"type": "address"
				}
			],
			"stateMutability": "view",
			"type": "function"
		},
		{
			"inputs": [
				{
					"internalType": "uint256",
					"name": "tokenId",
					"type": "uint256"
				}
			],
			"name": "ownerOf",
			"outputs": [
				{
					"internalType": "address",
					"name": "",
					"type": "address"
				}
			],
			"stateMutability": "view",
			"type": "function"
		},
		{
			"inputs": [
				{
					"internalType": "uint256",
					"name": "id",
					"type": "uint256"
				},
				{
					"internalType": "uint256",
					"name": "slot",
					"type": "uint256"
				},
				{
					"internalType": "bool",
					"name": "paywithpass",
					"type": "bool"
				}
			],
			"name": "recoverData",
			"outputs": [],
			"stateMutability": "payable",
			"type": "function"
		},
		{
			"inputs": [
				{
					"internalType": "address",
					"name": "minter",
					"type": "address"
				},
				{
					"internalType": "uint16",
					"name": "index",
					"type": "uint16"
				}
			],
			"name": "removeMinter",
			"outputs": [],
			"stateMutability": "nonpayable",
			"type": "function"
		},
		{
			"inputs": [
				{
					"internalType": "uint256",
					"name": "id",
					"type": "uint256"
				},
				{
					"internalType": "uint256",
					"name": "slot",
					"type": "uint256"
				},
				{
					"internalType": "address",
					"name": "to",
					"type": "address"
				}
			],
			"name": "removeShare",
			"outputs": [],
			"stateMutability": "payable",
			"type": "function"
		},
		{
			"inputs": [
				{
					"internalType": "uint256",
					"name": "id",
					"type": "uint256"
				},
				{
					"internalType": "uint16",
					"name": "ch",
					"type": "uint16"
				}
			],
			"name": "setActiveChain",
			"outputs": [],
			"stateMutability": "nonpayable",
			"type": "function"
		},
		{
			"inputs": [
				{
					"internalType": "address",
					"name": "operator",
					"type": "address"
				},
				{
					"internalType": "bool",
					"name": "approved",
					"type": "bool"
				}
			],
			"name": "setApprovalForAll",
			"outputs": [],
			"stateMutability": "nonpayable",
			"type": "function"
		},
		{
			"inputs": [
				{
					"internalType": "address",
					"name": "token",
					"type": "address"
				}
			],
			"name": "setFeeToken",
			"outputs": [],
			"stateMutability": "nonpayable",
			"type": "function"
		},
		{
			"inputs": [
				{
					"internalType": "address",
					"name": "endPoint",
					"type": "address"
				}
			],
			"name": "setLzPoint",
			"outputs": [],
			"stateMutability": "nonpayable",
			"type": "function"
		},
		{
			"inputs": [
				{
					"internalType": "uint256",
					"name": "_modifier",
					"type": "uint256"
				}
			],
			"name": "setPointsM",
			"outputs": [],
			"stateMutability": "nonpayable",
			"type": "function"
		},
		{
			"inputs": [
				{
					"internalType": "uint256",
					"name": "id",
					"type": "uint256"
				},
				{
					"internalType": "string",
					"name": "uri_",
					"type": "string"
				}
			],
			"name": "setUri",
			"outputs": [],
			"stateMutability": "nonpayable",
			"type": "function"
		},
		{
			"inputs": [
				{
					"internalType": "uint256",
					"name": "amount",
					"type": "uint256"
				}
			],
			"name": "setWeeklyFee",
			"outputs": [],
			"stateMutability": "nonpayable",
			"type": "function"
		},
		{
			"inputs": [
				{
					"internalType": "uint256",
					"name": "id",
					"type": "uint256"
				},
				{
					"internalType": "uint256",
					"name": "slot",
					"type": "uint256"
				},
				{
					"internalType": "address",
					"name": "to",
					"type": "address"
				}
			],
			"name": "shareStorage",
			"outputs": [],
			"stateMutability": "payable",
			"type": "function"
		},
		{
			"inputs": [
				{
					"internalType": "uint256",
					"name": "",
					"type": "uint256"
				}
			],
			"name": "storageViewAccess",
			"outputs": [
				{
					"internalType": "uint256",
					"name": "slot",
					"type": "uint256"
				},
				{
					"internalType": "uint256",
					"name": "accesees",
					"type": "uint256"
				},
				{
					"internalType": "uint256",
					"name": "maxShare",
					"type": "uint256"
				}
			],
			"stateMutability": "view",
			"type": "function"
		},
		{
			"inputs": [
				{
					"internalType": "bytes4",
					"name": "interfaceId",
					"type": "bytes4"
				}
			],
			"name": "supportsInterface",
			"outputs": [
				{
					"internalType": "bool",
					"name": "",
					"type": "bool"
				}
			],
			"stateMutability": "view",
			"type": "function"
		},
		{
			"inputs": [],
			"name": "symbol",
			"outputs": [
				{
					"internalType": "string",
					"name": "",
					"type": "string"
				}
			],
			"stateMutability": "view",
			"type": "function"
		},
		{
			"inputs": [
				{
					"internalType": "uint256",
					"name": "index",
					"type": "uint256"
				}
			],
			"name": "tokenByIndex",
			"outputs": [
				{
					"internalType": "uint256",
					"name": "",
					"type": "uint256"
				}
			],
			"stateMutability": "view",
			"type": "function"
		},
		{
			"inputs": [
				{
					"internalType": "address",
					"name": "owner",
					"type": "address"
				},
				{
					"internalType": "uint256",
					"name": "index",
					"type": "uint256"
				}
			],
			"name": "tokenOfOwnerByIndex",
			"outputs": [
				{
					"internalType": "uint256",
					"name": "",
					"type": "uint256"
				}
			],
			"stateMutability": "view",
			"type": "function"
		},
		{
			"inputs": [
				{
					"internalType": "uint256",
					"name": "tokenId",
					"type": "uint256"
				}
			],
			"name": "tokenURI",
			"outputs": [
				{
					"internalType": "string",
					"name": "",
					"type": "string"
				}
			],
			"stateMutability": "view",
			"type": "function"
		},
		{
			"inputs": [],
			"name": "totalSupply",
			"outputs": [
				{
					"internalType": "uint256",
					"name": "",
					"type": "uint256"
				}
			],
			"stateMutability": "view",
			"type": "function"
		},
		{
			"inputs": [
				{
					"internalType": "address",
					"name": "from",
					"type": "address"
				},
				{
					"internalType": "address",
					"name": "to",
					"type": "address"
				},
				{
					"internalType": "uint256",
					"name": "tokenId",
					"type": "uint256"
				}
			],
			"name": "transferFrom",
			"outputs": [],
			"stateMutability": "nonpayable",
			"type": "function"
		},
		{
			"inputs": [
				{
					"internalType": "address",
					"name": "nOwner",
					"type": "address"
				}
			],
			"name": "transferOwnership",
			"outputs": [],
			"stateMutability": "nonpayable",
			"type": "function"
		},
		{
			"inputs": [
				{
					"internalType": "uint256",
					"name": "id",
					"type": "uint256"
				},
				{
					"internalType": "address",
					"name": "token",
					"type": "address"
				},
				{
					"internalType": "uint256",
					"name": "amt",
					"type": "uint256"
				},
				{
					"internalType": "address",
					"name": "to",
					"type": "address"
				},
				{
					"internalType": "address",
					"name": "from",
					"type": "address"
				}
			],
			"name": "withdraw",
			"outputs": [],
			"stateMutability": "payable",
			"type": "function"
		},
		{
			"inputs": [
				{
					"internalType": "address",
					"name": "token",
					"type": "address"
				},
				{
					"internalType": "uint256",
					"name": "amount",
					"type": "uint256"
				}
			],
			"name": "withdrawCaErc",
			"outputs": [],
			"stateMutability": "nonpayable",
			"type": "function"
		},
		{
			"inputs": [
				{
					"internalType": "uint256",
					"name": "amount",
					"type": "uint256"
				}
			],
			"name": "withdrawCaEth",
			"outputs": [],
			"stateMutability": "nonpayable",
			"type": "function"
		},
		{
			"inputs": [
				{
					"internalType": "uint256",
					"name": "id",
					"type": "uint256"
				},
				{
					"internalType": "uint256",
					"name": "amount",
					"type": "uint256"
				},
				{
					"internalType": "address",
					"name": "to",
					"type": "address"
				},
				{
					"internalType": "address",
					"name": "from",
					"type": "address"
				}
			],
			"name": "withdrawEth",
			"outputs": [],
			"stateMutability": "payable",
			"type": "function"
		}
	]
}